S01A0000666C6173686C6F616465725F6C6F616465722E73726563AF
S11300000080002011040000373D0000373D00004F
S1130010373D0000373D0000373D00000000000080
S1130020000000000000000000000000373D000058
S1130030373D000000000000373D0000373D000060
S1130040BD3E0000BD3E0000BD3E0000BD3E0000C0
S1130050BD3E0000BD3E0000BD3E0000BD3E0000B0
S1130060BD3E0000BD3E0000BD3E0000BD3E0000A0
S1130070BD3E0000BD3E0000BD3E0000BD3E000090
S11303F0BD3E0000BD3E0000BD3E0000FFFFFFFF0C
S1130400FFFFFFFFFFFFFFFFFFFFFFFFFEFFFFFFF9
S113041072B60E480E49886000220023002400258D
S113042000260027B846B946BA46BB46BC4609482A
S1130430854609488047094880470948804762B68D
S113044000200021074A9047FEE70000000000005A
S113045000ED00E000800020353E0000393D000042
S1130460733D0000B104000072B60D49002008601D
S1130470BFF36F8FBFF34F8F704780B543F6080209
S11304800FF23401074803F02BFCFFF7EDFF064899
S113049080F3088880F309880448BDE802400047D7
S11304A008ED00E000C0FF1F80FDFF1F11C4FF1F07
S11304B080B5FFF7E2FFFEE780FDFF1F11C4FF1FB9
S11304C0AFC9FF1F11CFFF1F13CFFF1F15CFFF1F92
S11304D017CFFF1F00000000000000000000000014
S11304E000000000AFC9FF1FAFC9FF1F00000000DC
S11304F0AFC9FF1FB7C7FF1FE7F7FF1FE7F7FF1FCE
S1130500E7F7FF1FE7F7FF1FE7F7FF1FE7F7FF1FF7
S1130510E7F7FF1FE7F7FF1FE7F7FF1FE7F7FF1FE7
S1130520E7F7FF1FE7F7FF1FE7F7FF1FE7F7FF1FD7
S1130530E7F7FF1FE7F7FF1FE7F7FF1FE7F7FF1FC7
S1130540E7F7FF1FE7F7FF1FE7F7FF1FE7F7FF1FB7
S1130550E7F7FF1FE7F7FF1FD1E9FF1FD5E9FF1FEB
S1130560C9E9FF1FCDE9FF1FE7F7FF1FE7F7FF1FEB
S1130570E7F7FF1F35F1FF1FE7F7FF1F41F1FF1FEB
S1130580E7F7FF1F5DF1FF1FE7F7FF1FE7F7FF1F07
S1130590E7F7FF1FE7F7FF1FE7F7FF1FE7F7FF1F67
S11305A0E7F7FF1FE7F7FF1FE7F7FF1FE7F7FF1F57
S11305B0E7F7FF1FE7F7FF1FE7F7FF1FE7F7FF1F47
S11305C0E7F7FF1FE7F7FF1FE7F7FF1FE7F7FF1F37
S11305D0E7F7FF1FE7F7FF1FE7F7FF1FE7F7FF1F27
S11305E0E7F7FF1FE7F7FF1FD1C8FF1FE7F7FF1F5C
S11305F0E7F7FF1FE7F7FF1FE7F7FF1FE7F7FF1F07
S1130600E7F7FF1FE7F7FF1FE7F7FF1FE7F7FF1FF6
S1130610E7F7FF1FE7F7FF1FE7F7FF1FE7F7FF1FE6
S1130620E7F7FF1FE7F7FF1FE7F7FF1FE7F7FF1FD6
S11308B0E7F7FF1FFFFFFFFFFFFFFFFFFFFFFFFF44
S11308C0FFFFFFFFFEFFFFFF72B60E480E49886070
S11308D0002200230024002500260027B846B9463C
S11308E0BA46BB46BC46094885460948804709487C
S11308F080470948804762B600200021074A904794
S1130900FEE7000000C0FF1F00ED00E080FDFF1FB8
S113091031F6FF1F7DCDFF1FB7CDFF1F45CBFF1F56
S113092053D0FF1F0000000065D0FF1F000000002F
S1130930FBD0FF1F43D2FF1FE9D0FF1F73D1FF1F5E
S11309400BD3FF1F00000000ADD3FF1F0000000009
S11309509FD0FF1F0000000079D0FF1F73D1FF1F3D
S11309601FD3FF1F0000000089D3FF1F00000000F9
S11309700BD0FF1F00000000D3D0FF1F00000000B9
S11309800000000000000000BBD3FF1F00000000B7
S1130990CFD3FF1F00000000F1D3FF1F43D2FF1F7E
S11309A0000000000000000000000000C1F7FF1F6D
S11309B0CBF7FF1FD5F7FF1F000000000000000069
S11309C079E5FF1FC7E5FF1FFBE5FF1F00000000DF
S11309D0000000001BE6FF1F0000000000000800EC
S11309E00000100000002000000040000000800013
S11309F00000000100000002040002405DD5FF1F5A
S1130A0089D5FF1FC5D5FF1F8DD6FF1F000000002D
S1130A1007D7FF1F5DEBFF1FCBEBFF1FF5EBFF1F9E
S1130A2000000000000000000BECFF1FA1EDFF1F01
S1130A302DECFF1F55ECFF1FD1ECFF1F0DEDFF1F29
S1130A4091ECFF1F89DDFF1F8DDDFF1F9FDDFF1F61
S1130A50DDDDFF1F000000000000000001000000B9
S1130A6000000000F3C7FF1F18C6FF1F28C6FF1FA2
S1130A7030C6FF1F02000000000000003BC8FF1F3B
S1130A805CC5FF1F6CC5FF1F30C6FF1F04000000BC
S1130A900000000081C8FF1F08C5FF1F18C5FF1F05
S1130AA030C6FF1F0000000000000000000000002E
S1130AB0000000000000000000000000C5EDFF1F62
S1130AC0F7EDFF1FF1EEFF1FA7EFFF1FA0F9FF1FB8
S1130AD009F2FF1F5FF2FF1F79F2FF1F0000000001
S1130AE000000000A5F2FF1F05F3FF1F0BF3FF1F1B
S1130AF073F3FF1F11F4FF1F09F3FF1F1DF4FF1F02
S1130B00E5F2FF1F38B504463D4D0020C5E900005D
S1130B10C5E90200C5E90400A8612862394800F06B
S1130B209EF8E8612046BDE834400FF2590100F018
S1130B303BB900F04EB970B5314D0C46A96907298F
S1130B4004BF296A88421AD100F08EF8C0EB00165F
S1130B50D5E90001D5E902231018B6FBF0F00A210B
S1130B6048434FF49661B0FBF1F0401D0A21B0FBFD
S1130B70F1F04FF4966148432060002070BD0120DD
S1130B8070BD00002DE9F843064600F058F81C4FEC
S1130B900446D7E904598846B8690021421C651BFC
S1130BA068EB0909F869494502D82CBFA84201221B
S1130BB0012ABA6106D0042A08D0052A0ED0072AD1
S1130BC00FD018E0C7E900483E6214E0D7E90001FD
S1130BD0201A68EB0101C7E900010CE0C7E90248EB
S1130BE009E0D7E90201201A68EB0101C7E9020113
S1130BF0304600F0EEF8C7E90448BDE8F183000090
S1130C00C0F8FF1F803801001C48002101606FF00C
S1130C107F421B494A6000228A6007220A60194900
S1130C20194A0968C900B1FBF2F101B90121416017
S1130C3070471348016821F00601016070470F49AD
S1130C400A68124800680B68C0430002000A9A420E
S1130C50F6D1002110EB026051EB122170470749D5
S1130C6049684843C008704706480068704703480D
S1130C700168491C016070470000000094F9FF1FDF
S1130C8010E000E0B8F8FF1F40420F0018E000E059
S1130C900901002806D5594A00F00F00801800F811
S1130CA0041C7047564A8154704708BB554A56483D
S1130CB019B1022912D006D37047016811400160AE
S1130CC04168114013E00168114041F480710160F2
S1130CD04E48016821F48031016070470168114079
S1130CE041F4407101604168114041F44071416038
S1130CF0704700B1704710B5454A4648464B414CD1
S1130D0011B102290AD010BD19682140196059682F
S1130D102140596000211160016010BD59682140D3
S1130D2041F4E06159601968214041F4E0611960BF
S1130D3001210160116010BD28BB324A374811B14E
S1130D4002290CD0704701681140016041681140CC
S1130D504160816811408160C168114012E00168FE
S1130D60114041F4007101604168114041F4007187
S1130D7041608168114041F400718160C168114093
S1130D8041F40071C160704710B51F4C2068C0F376
S1130D90006040B122480168080004D00020884760
S1130DA04FF0FF30206610BD10B50C4680B901210C
S1130DB03C20FFF76DFF1B491B4A4FF08050086031
S1130DC011480168114041F4202101601448046075
S1130DD010BD00B1704780B514494FF080500860D1
S1130DE000213C20FFF754FF07480F4A01681140D7
S1130DF0016000200A49086001BD000018ED00E010
S1130E0000E400E0FFF8FFFE40A0044054F00F406F
S1130E10140198429401984208C0044040D0044010
S1130E209CF9FF1F04E100E0FFFFF0FE84E100E015
S1130E30012811D80FF22C028056012904D100F0A8
S1130E401F029140054A04E0012100F01F02914075
S1130E50034A400942F820107047000000E100E016
S1130E6080E100E01A1BFEE7012811D80FF22C02E2
S1130E708056012904D100F01F029140054A04E084
S1130E80012100F01F029140034A400942F820105A
S1130E907047000000E100E080E100E0181950F81C
S1130EA0041B61B150F8042BD30744BFA9F101031B
S1130EB09A180023091F42F8043BFAD1EFE7704760
S1130EC038B504460D46002000F0DAF86648674A53
S1130ED00560446000211160016881F3088881F392
S1130EE0098840688047BDE83240002000F0C8B857
S1130EF05F498968096900281EBF10F1010F5D4A26
S1130F00904206D00A69904203D34B699A189042E2
S1130F1008D34A6A904207D3896A89188842804173
S1130F20C00F704701207047002070472DE9F0473B
S1130F304F4F514CB868006900F1700925460AE02A
S1130F4099F81010014205D06869EA68816952680D
S1130F5028469047183528680028F1D14FF47A7054
S1130F60FFF77DFE054600F0E3F8002650BBFFF7CF
S1130F70BFFF38B3B868006990F88E00C00703D487
S1130F8000210846FFF79CFFB9F812004FF6FF71E5
S1130F90884208BF41F2883005FB00F6FFF74FFE98
S1130FA080468A4676B1FFF74AFEB0EB080061EB53
S1130FB00A010027B94201D8B04203D300210846F0
S1130FC0FFF77EFF254600E0183528680028E9D0A1
S1130FD0E9680968284688470028F5D0002DE1D043
S1130FE006E0A54203D0E1688968204688471834A2
S1130FF020680028F5D12846BDE8F08738B500F010
S11310009BF800F06FF81A4CA06800688047002035
S113101000F0A0F8FFF7F8FD04F1200000F09CF8C0
S1131020206800688047A06840688047FFF77EFF1B
S1131030E061016919B109680A0018BF8847E069CD
S1131040416919B109680A0018BF8847E068006857
S11310508047E569E06840688047E868C16808003F
S1131060F8D028468847F5E7E4F8FF1F08ED00E0CC
S113107008F8FF1F11C4FF1FA4C5FF1F704700001D
S113108070B50446022C04D0002000F0C9F8012CED
S11310900ED00026114D06E04019C16889680A0087
S11310A018BF8847761C1820704341590029F3D192
S11310B074B900F047F8FFF7BCFD00F0D8F8084910
S11310C000200860012000F045F800F011F862B635
S11310D0BFF36F8FBFF34F8F70BD00BFA4C5FF1F59
S11310E008ED00E00F48016841F478510160704751
S11310F00C48016821F47851016070470A480B4A92
S1131100016800681268000F401CC1F3036150437A
S1131110491CB0FBF1F0704710B9044800687047EF
S1131120002070473880044044800440B8F8FF1F12
S1131130002070477047000072B60549002008601F
S113114062B6704772B602480168491C0160704774
S113115084F9FF1F7047000008B9042070471F4A34
S11311601F491268C2F3036231F81210090301D156
S1131170642070470022026041604FF480720121B4
S113118081604FF40061C160164991F900309A40C2
S11311904261C97881610021FFE701610020704745
S11311A008B9042070475B1E194208BF1A4201D0D7
S11311B0652070470368994221BF4068C0185118E0
S11311C0884201D266207047002070470649884251
S11311D001D06B2070470020704700004C80044011
S11311E020C5FF1F280002406B66656B68B1042AA6
S11311F002D0082A0BD008E079B110290DD3202998
S11312000BD0A1F12100132807D304207047102923
S113121003D0A1F111000328F7D200207047000089
S11312200349096851F47001014A1160704700BF15
S113123004F0014080B51849184808601849194855
S1131240421A194888421CBF002A00F03DF817488A
S11312501749091A18BF00F073F816491648421ABC
S113126004D0BDE80840154800F02EB801BD14486C
S11312704FF0FF31016041608160C16001614161F3
S11312808161C1610F48016041608160C160016199
S113129041618161C161704708ED00E000C0FF1F3A
S11312A0C4F6FF1F78F7FF1F08F8FF1FC0F8FF1FE1
S11312B080FBFF1F08F8FF1F08F8FF1F80FBFF1FBC
S11312C080E100E080E200E062B38B0708D0521EA8
S11312D011F8013B00F8013B00F024808B07F6D1A4
S11312E0830740F0208000BF103A07D330B4B1E840
S11312F03810103AA0E83810F9D230BC530724BF94
S1131300B1E80810A0E8081044BF51F8043B40F8C5
S1131310043BD20724BF31F8022B20F8022B44BF30
S11313200B7803707047083A07D3B1E80810083AFD
S113133040F8043B40F804CBF7D25307E4E700003D
S1131340002200F001B80000401810F0030308D098
S1131350C91A1FD3DB0748BF00F8012D28BF20F8A6
S1131360022D130030B414461546103928BF20E965
S11313703C00FAD8490728BF20E90C0048BF40F8D0
S1131380042D890028BF20F8022D48BF00F8012D44
S113139030BC7047C91818BF00F8012DCB0728BF0F
S11313A000F8012D70470000BFF34F8F0448054A31
S11313B0016801F4E06111430160BFF34F8FFEE760
S11313C00CED00E00400FA05EEE7EDE7ECE7EBE7EF
S11313D0DFF8F015C968C9680020086070472DE976
S11313E0F041DFF8E055E86982B000248DF801404F
S11313F04669002E62D0E968C9680A68012A4CD09F
S113140001F1080274680023091DA04704001FBFEE
S113141042F21270844242F2137084424ED1E86860
S1131420C168D1F80880B8F1000F47D04E6837780A
S113143037B1122F04DA806800EBC700083800E0E7
S11314400020086200281CBF006800281CD000A9E6
S113145005F1200000F0C0FA040017D19DF8000047
S113146048B14FF4E750791E20FA01F2D00758BF73
S113147042F211740AD5EA68D268126A12684146C7
S113148030469047002406E042F210743946204664
S113149000F01FFA94B901200DE0086A48B14168D0
S11314A0080003D00DF10100884704460CB1002068
S11314B001E09DF80100E968C96808602046BDE8BC
S11314C0F68180B50178002000F003FADFF8F40417
S11314D0C0694169096988470220FFF7D1FDBFF35C
S11314E04F8FDFF8E404DFF8E424016801F4E061DD
S11314F011430160BFF34F8FFEE7DFF8C804C068F3
S1131500C06814210C3000F081BA10B5044600F014
S113151071FBFFE72178BDE81040DAE110B5DFF890
S1131520A424126852690446A16860689047F1E7F0
S113153010B500F04AF8DFF88C04C068C068616830
S11315400161082101770020217800F0C2F9BDE88B
S1131550104000F0CABC30B583B0DFF86844A56819
S113156000210191009100AB81684068AD6801AA37
S1131570C9B2C0B2A847E268D268002111610099DB
S11315808A08019900F0B9F937BD10B5DFF83424A1
S11315909268D26804466068A168C0B29047B9E70F
S11315A010B500F012F800F012F8042101770020C1
S11315B0B0E710B500F009F800F009F8032101774D
S11315C00020A168BDE81040AEE1044695E7DFF8CD
S11315D0F403C068C068A168016161684161704733
S11315E038B5DFF8E0530446E868C068002141617B
S11315F00161007F042804D128680069804704B988
S11316000446E868C068017F204600F062F942F2AF
S11316101270844208D1E868C068007F082804BFBB
S1131620BDE8314000F0A3BC31BD2DE9FC4100F020
S1131630C2F821B900202070FFF7D2FF5AE001213F
S1131640217006694769002000900123E869D0F8F9
S113165014C0DCF804C000AA01A9E0475FEA00084E
S113166005D0E8694169C9688847404603E00098A5
S113167030B942F21270FFF7B3FF002020703AE055
S1131680B04288BF30460090E868C068017F0829EE
S113169013D10199C160009981610198009900F00A
S11316A02EFC804642F27D7080451CBF42F274706D
S11316B080450BD14FF0000808E02B68019A00998F
S11316C09B683846984780460098C7190098361A90
S11316D006D0B8F1000F09D0E8694169C9688847A4
S11316E04046FFF77DFF0020207003E0E868C068F3
S11316F0066147610020BDE8F6812DE9F04700F05E
S11317005AF88AB021B900202070FFF769FF4EE033
S11317100121217006694769C168027F212E2CBF0F
S11317204FF02008B046A9B1424601A8FFF7CCFD0E
S1131730E869D0F814C0DCF808C00123424601A9C6
S1131740E047A6EB080606B168B3FFF749FF00209F
S113175020702CE0032A08EB070906D12B685B688C
S113176001AA4146384698470CE0102A18BF4F4654
S1131770DED1407F0090434601AA394605F120009E
S113178000F01AFC5FEA000A4F46D1D0E8694569C7
S1131790AD680123002201A9A8475046FFF720FFA6
S11317A00020207004E0E868C068066147610020FA
S11317B00AB0BDE8F087834D0446E868C068016953
S11317C0704710B57F4B1B68DB680446E268A1686C
S11317D0606898479EE62DE9F04105467C4C6E68AA
S11317E0D5F80880E86877492060002749680C31FB
S11317F030B10A68904223BF4968491C81420427DA
S11318003046FFF775FB00B904272978384600F005
S113181060F89FB966600020FFF732FC2068C4F8C6
S1131820088018B180F3088880F30988616840460D
S11318308847BDE8F0410020FFF722BCBDE8F081F5
S113184038B504466068FFF753FB08B9042005E087
S113185065680120FFF714FCA068A8472178BDE85B
S1131860344036E010B50446211D5A4800F0ECFB24
S113187050E610B50446A3686168564804F10C02AA
S113188000F00AFC46E61CB5044600A8002100222C
S113189006C0A36861684F4800AA00F029FCA2684A
S11318A000A900F045F813BD10B5FFF78EFE4548BA
S11318B0C168C968A2680A6162684A6110220A772D
S11318C0C068C068E16841770020A168BDE81040A5
S11318D05BE010B584B0A02201908DF800200022B6
S11318E000F06AF88DF80220029102228DF803209C
S11318F000234469A4680C225BE010B588B0A723D8
S113190000F03AF80020531C8DF8033006E000ACD8
S113191051F8203004EB8004401CA3609042F6DBB5
S113192000F021F800231AE010B584B0A3222FE0C0
S113193010B588B0AF2300F01FF802238DF80330F0
S113194040B99008801C8DF80300029203A8FFF7A9
S1131950CBFC01E000200290002300F004F800A971
S1131960A04708B010BD1748C0699DF8031044692A
S1131970A46889000A1D70478DF800300190002387
S11319808DF801308DF80230704710B584B0B02264
S11319908DF800200190012200F00EF8029100223F
S11319A08DF80220002302228DF803200C224469C2
S11319B0A46800A9A0471FBD0248C0698DF8012092
S11319C07047000008F8FF1F0CED00E00400FA0562
S11319D010F9FF1F28F8FF1F002818BF002901D1A4
S11319E0042070470848007800F00302022A08BF68
S11319F0002005D000F0C00080280CBF0120022088
S1131A0008700020704700BF02000240002200F06E
S1131A109BBB000038B5924C65682A46042104F14A
S1131A20200000F0ABFB00AA012104F1200000F02B
S1131A30A5FB286800990818401E6860002032BD84
S1131A40F8B5044686480D46416B16464A4202EAFA
S1131A500401671AEF197F423A4000AB524220302A
S1131A6000F0ACFB48B99DF8000008B16C20F2BD51
S1131A7032462946204600F0E5FBF2BD2DE9F04749
S1131A80774C88B08046A0680069056B8A464FEAA7
S1131A909A06B6009146AAEB060705B101254FF058
S1131AA0FF3004902FB13A4606EB090104A8FFF772
S1131AB00BFCCAF1000080088000414203AA4046A2
S1131AC000F0ACF8002834D19DF80C0000B10025DA
S1131AD006EB080A3EB133464A46414604F120006B
S1131AE000F0E2FB38B93FB1042304AA514604F1E3
S1131AF0200000F0D9FBE0B9EDB2CDB16EB105A87C
S1131B0002904B4606A80190324600F015F8414673
S1131B1004F1200000F0FAFB48B94FB100F048F896
S1131B2000F00AF8514604F1200000F0EFFB00B980
S1131B30002008B0BDE8F087A0680069806DC0B2DD
S1131B4000907047F0B5464D0446A8680069066BDE
S1131B5087B006B1012648428008049280004742BB
S1131B6003AA3946204600F059F8F8B99DF80C004C
S1131B7018B1002601E0241D3F1FB7B1042304AAB5
S1131B80214605F1200000F08FFB78B9002EF2D039
S1131B9000F00EF8A868FFF7D0FF214605F12000F9
S1131BA000F0B4FB0028E6D000E0002007B0F0BD50
S1131BB005A8029004AB06A801900422704770B5F2
S1131BC004460D46264E274B2A46214606F12000A0
S1131BD000F0CCFB68B9B16809690A6B4AB12A46BE
S1131BE006F120008B6D2146BDE87040DBB200F0A9
S1131BF0F9BB70BD10B51A4C1A4904F1200000F06D
S1131C002FFC50B9A16809690A6B1AB1896D00F0FB
S1131C102DF810B9144A0121117010BD38B51546BC
S1131C2000222A700A460E4C014600AB04F1200043
S1131C3000F0C4FA90B99DF8001029709DF80010C6
S1131C4061B1094D297849B9A0680069816D00F036
S1131C500DF808B16C2032BD0121297032BD00009D
S1131C6008F8FF1F6B66656B7CFBFF1FC9B204F1AC
S1131C70200000F00DBC0000416882688A4209D24D
S1131C80891A416082660FF2ED11016001218160C1
S1131C900020704742F2787070470FF2050113E09C
S1131CA0416ADFF8F4324A898282CA68921E42602D
S1131CB04A689A4202D1097A022902DB42F275701B
S1131CC070470FF20D0100BF016000207047000053
S1131CD010B5044682B0606A41686268A161016817
S1131CE0C91E9142A16002D342F2767016BD0089EA
S1131CF010B142F2777016BD8DF8000000A9A74814
S1131D00FFF76AFE9DF8000010B142F2817016BD23
S1131D102046FFF7B1FF16BD38B5A14D2B689B686F
S1131D200446626A216EE06D984780B928680069AC
S1131D30804760B900F03AF800F033F80098616E1B
S1131D40884200D038E00FF22D102060002032BD10
S1131D5038B50446924D00F029F82B68626AE06DAC
S1131D609B6810219847D8B9E06D1030E065206E6B
S1131D7010382066112828BF8A480FD208B18A4833
S1131D800CE028680069804750B900F00AF8009810
S1131D90616E884200D00FE00FF2D900206000206D
S1131DA032BD00A904F11C0000F09ABB616A102244
S1131DB004F11C0000F07EBB42F27A7032BD10B513
S1131DC0044604F11C0000F06FFB206E11282CBFA8
S1131DD07448754890E0724B1B68426E016EC06D8A
S1131DE0DB68184710B5044642F27F70E26D1100BB
S1131DF00ED0606E04F118019047012803D12046EB
S1131E00BDE8104038E7022802D100F06EF8002047
S1131E1010BD10B500F15C01031D1C684A685A60CE
S1131E20944202D242F2767010BD0A7AD20707D5E4
S1131E300A685C69A24203D148689860002010BD1A
S1131E4090F85A10C9075CBFBDE81040FFF714BFF3
S1131E5042F27C7010BD90F85A10C90748BFFFF7D2
S1131E60C9BE4F4A126852695C3041680068104725
S1131E7000000000B0B5044604F15805606A0FC8BC
S1131E8085E80F005A270120415D7F18401C102867
S1131E90FAD32878F9B2884202D042F27970B0BD00
S1131EA0687807281ED8DFE800F01B04080C10131C
S1131EB01B172046BDE8B040ABE72046BDE8B04064
S1131EC07DE72046BDE8B04085E742F21270B0BD20
S1131ED02046BDE8B04085E72046BDE8B040BAE7FB
S1131EE00020B0BD42F27B70B0BD10B52F4C702104
S1131EF02046FFF78BFD2E482060002010BDF8B56A
S1131F0004460D46002000262A4FAE4217D03869F9
S1131F10C0F11000A91B09E079B13B69325DDA55C3
S1131F20761C3A69521C3A61401E491E0028F3D1BE
S1131F30386100F005F810B9E7E742F27D70F2BDB0
S1131F401A491C4A4A620020CA6842B10869904290
S1131F5002D2401C086104E042F2747070478A6E39
S1131F6012B9084609680847521E8A66704738B590
S1131F700E4890F8591004290CD100F15C0425682E
S1131F80280004D00020FFF77BF8A068A84742F29D
S1131F907E7032BD002032BD53544D5028F8FF1FCF
S1131FA008F8FF1F99D8FF1F61D8FF1F5CFAFF1FB5
S1131FB0E3D7FF1FCCFAFF1F2DE9F8435FEA0008BF
S1131FC0914614BFB9F1000F04200F461D4619D0E5
S1131FD0089C22462946384600F01AF890B904E0D5
S1131FE0716849F8041B3F1D2D1F5DB10648066842
S1131FF006483760032101700472404600F086FCF5
S11320000028EDD0BDE8F28340C5FF1F0700024061
S113201010B510F0030F08BF11F0030F01D06520B5
S113202010BD022A0EDA0C18641E012A06D10028FB
S113203004BF481E072805D1002010BD002AFBD18B
S1132040FF2CF9D9042010BD10B50A46002818BF8A
S1132050002A01D1042010BD0E4B1C78002104F08D
S11320600304022C14D04521597111785972517806
S113207019729178D971D17899711179597351790B
S113208019739179D972D179997200F03FFC0146A4
S1132090084610BD02000240F8B5160004460D467D
S11320A01F4601D10420F2BD3A46FFF79FF8C8B994
S11320B00D48432141700570102D0C4800683168AB
S11320C0416003D0A5F11101032903D2082F04BFF5
S11320D071688160204600F019FC05462046FFF730
S11320E09FF82846F2BD00BF0600024040C5FF1F0E
S11320F0F8B5150007460C461E4601D10420F2BD72
S11321003246FFF773F8A8B90B48412141700470B7
S1132110384600F0FBFB68B9084909684A682A6038
S1132120102C03D0A4F11102032A03D2082E04BFF9
S113213089686960F2BD00BF0600024040C5FF1F08
S113214062F30F2262F31F4200B500BF13009646EC
S11321509446103928BFA0E80C50FAD85FEA417CB5
S113216028BF0CC048BF40F8042BC90728BF20F87B
S1132170022B48BF00F8012B00BD0000002818BF47
S1132180002A01D104207047072915D8DFE801F09F
S11321900408080A0C0E1012C06810600020704772
S11321A04068FAE78068F8E70068F6E70120F4E79A
S11321B04069F2E78069F0E76A2070472DE9F04151
S11321C080461E000D46174608BF042034D0042361
S11321D0FEF7E6FF80BBD8F814307A195F42C2F1EB
S11321E0000C07EA0C0CCCF1000C2F40ACEB0707F9
S11321F00021B7FBF3F7DFF844C00AE0DCF800E0A5
S1132200203C6FEA0E0E2EFA04F4E40748BF491C82
S11322105D1995420AD2B5FBF3F4202C38BFDCF8E3
S113222004E0EED3D8F818E07445E7D319B1B94205
S113223034BF022101213170BDE8F0811800024051
S113224000F07EBB134680B50A4601461846FFF7E8
S11322503BF8002002BD70B510F0030F0C46154684
S113226012D0B0F1005F0FD22118491EB1F1005F06
S11322700AD3C0F1005632462946FFF725F8A21BBF
S113228071194FF0005001E022462946FFF71CF86F
S1132290002070BD10B514460A462146BDE8104022
S11322A0012300F087BB00002DE9F041044615002E
S11322B00E461F4608BF042022D004233A46FEF7E8
S11322C06FFF5FEA000802D01AE0361D3F1F9FB17E
S11322D00C480068066055F8041B416006200A4952
S11322E00870204600F012FB80462069010018BFE8
S11322F08047B8F1000FE8D02046FEF791FF404632
S1132300BDE8F08140C5FF1F070002402DE9F04100
S113231006465FEA03080D46174608BF04201ED090
S11323200423FEF73DFFD0B9069C01E03F1F2D1D9D
S1132330AFB10C480C490068056002220A700C71A8
S113234058F8041B8160304600F0E0FA0028EDD014
S1132350079901B10D60089909B100220A60BDE82E
S1132360F08100BF40C5FF1F070002402DE9F04186
S1132370984604460D4616460823FEF711FF07004B
S11323801AD17019461EE068B6FBF0F100FB116229
S11323902AB1491C4843461E01E0E0684519AE4293
S11323A017D30E480E49006805600920087040469E
S11323B0FEF70CFF070002D03846BDE8F081204646
S11323C000F0A4FA07462069010018BF8047002FD7
S11323D0E3D02046FEF724FFEEE700BF40C5FF1F11
S11323E0070002402DE9F84F984604460D469246F0
S11323F00823FEF7D5FE60BB6068A168164FB0FBEA
S1132400F1F96842C9F1000108404642AE4208BFF2
S11324104E4403E0AAEB0B0A5D444E44BAF1000FAC
S113242016D00E4909680D60701BD346824588BFDB
S11324308346012139704FEADB00010A3971F870D3
S113244087F80280204600F061FA0028E2D000E01C
S11324500020BDE8F28F00BF0700024040C5FF1F07
S113246038B50400084601D1042032BD074A44218E
S11324701170FEF7ABFE050007D1204600F046FAC6
S113248005462046FEF7CCFE284632BD0700024032
S113249008B904207047034A40235370117000F0B8
S11324A035BA00BF060002404FF0FF310160002141
S11324B04160704730B544680368141944600FF2F2
S11324C04C0407E011F8015B85EA136554F82550C4
S11324D085EA032315466A1E002DF3D1036030BD3F
S11324E030B54368026813F0030F0CD003F0030304
S11324F0C3F104030FF21404150E54F825505B1EA7
S113250085EA0222F8D102600A6030BD00000000B2
S1132510B71DC1046E3B8209D926430DDC76041332
S11325206B6BC517B24D861A0550471EB8ED0826C9
S11325300FF0C922D6D68A2F61CB4B2B649B0C3566
S1132540D386CD310AA08E3CBDBD4F3870DB114C13
S1132550C7C6D0481EE09345A9FD5241ACAD155FF6
S11325601BB0D45BC2969756758B5652C836196AFF
S11325707F2BD86EA60D9B6311105A6714401D79EA
S1132580A35DDC7D7A7B9F70CD665E74E0B6239894
S113259057ABE29C8E8DA191399060953CC0278BFE
S11325A08BDDE68F52FBA582E5E66486585B2BBE85
S11325B0EF46EABA3660A9B7817D68B3842D2FADA2
S11325C03330EEA9EA16ADA45D0B6CA0906D32D445
S11325D02770F3D0FE56B0DD494B71D94C1B36C77A
S11325E0FB06F7C32220B4CE953D75CA28803AF283
S11325F09F9DFBF646BBB8FBF1A679FFF4F63EE1DE
S113260043EBFFE59ACDBCE82DD07DEC77708634A2
S1132610C06D4730194B043DAE56C539AB06822711
S11326201C1B4323C53D002E7220C12ACF9D8E1250
S113263078804F16A1A60C1B16BBCD1F13EB8A0185
S1132640A4F64B057DD00808CACDC90C07AB977812
S1132650B0B6567C69901571DE8DD475DBDD936B55
S11326606CC0526FB5E6116202FBD066BF469F5E36
S1132670085B5E5AD17D1D576660DC5363309B4D09
S1132680D42D5A490D0B1944BA16D84097C6A5AC97
S113269020DB64A8F9FD27A54EE0E6A14BB0A1BF5D
S11326A0FCAD60BB258B23B69296E2B22F2BAD8A8C
S11326B098366C8E41102F83F60DEE87F35DA99941
S11326C04440689D9D662B902A7BEA94E71DB4E004
S11326D0500075E4892636E93E3BF7ED3B6BB0F3D9
S11326E08C7671F7555032FAE24DF3FE5FF0BCC6BA
S11326F0E8ED7DC231CB3ECF86D6FFCB8386B8D5FD
S1132700349B79D1EDBD3ADC5AA0FBD8EEE00C69DC
S113271059FDCD6D80DB8E6037C64F643296087AE2
S1132720858BC97E5CAD8A73EBB04B77560D044F35
S1132730E110C54B383686468F2B47428A7B005CB6
S11327403D66C158E4408255535D43519E3B1D256F
S11327502926DC21F0009F2C471D5E28424D1936A6
S1132760F550D8322C769B3F9B6B5A3B26D61503EB
S113277091CBD40748ED970AFFF0560EFAA011103A
S11327804DBDD014949B93192386521D0E562FF1E0
S1132790B94BEEF5606DADF8D7706CFCD2202BE22E
S11327A0653DEAE6BC1BA9EB0B0668EFB6BB27D771
S11327B001A6E6D3D880A5DE6F9D64DA6ACD23C472
S11327C0DDD0E2C004F6A1CDB3EB60C97E8D3EBD81
S11327D0C990FFB910B6BCB4A7AB7DB0A2FB3AAEAA
S11327E015E6FBAACCC0B8A77BDD79A3C660369BEF
S11327F0717DF79FA85BB4921F4675961A163288AE
S1132800AD0BF38C742DB081C330718599908A5DC2
S11328102E8D4B59F7AB085440B6C95045E68E4E41
S1132820F2FB4F4A2BDD0C479CC0CD43217D827BBC
S11328309660437F4F460072F85BC176FD0B866855
S11328404A16476C93300461242DC565E94B9B11EE
S11328505E565A1587701918306DD81C353D9F0285
S113286082205E065B061D0BEC1BDC0F51A6933722
S1132870E6BB52333F9D113E8880D03A8DD09724D9
S11328803ACD5620E3EB152D54F6D4297926A9C563
S1132890CE3B68C1171D2BCCA000EAC8A550ADD60D
S11328A0124D6CD2CB6B2FDF7C76EEDBC1CBA1E378
S11328B076D660E7AFF023EA18EDE2EE1DBDA5F091
S11328C0AAA064F4738627F9C49BE6FD09FDB889C0
S11328D0BEE0798D67C63A80D0DBFB84D58BBC9A89
S11328E062967D9EBBB03E930CADFF97B110B0AF26
S11328F0060D71ABDF2B32A66836F3A26D66B4BC4D
S1132900DA7B75B8035D36B5B440F7B10B48702176
S11329100170802101700178C909FCD0007881061A
S113292001D567207047C10601D568207047C007EC
S113293001D5692070470020704700BF00000240A5
S11329401A480068000B00F00F00C01E08282BD89E
S1132950DFE800F005080B0E1114172A1A004FF4D3
S1132960804013E04FF4C04010E04FF400400DE00D
S11329704FF440400AE04FF4803007E04FF4C03099
S113298004E04FF4003001E04FF480200849496826
S11329900322B0FBF2F0C0F1005241F80C2F6FF0AB
S11329A0604202EB40004860002070470070044021
S11329B008F8FF1F002A01D101207047F0B41F4618
S11329C0034603242340002B09D00424E31A017096
S11329D001300824E141521E26D05B1EF7D1042A9F
S11329E01ADB13D0002F11D00C460D460E46102AC8
S11329F002DB72C0103AFAE70C2A02DB32C00C3A4E
S1132A00FAE7082A02DB12C0083AFAE7042A03DBD1
S1132A1001600430121FF9E7002A05D0017001306B
S1132A200824E141521EF7D1F0BC00207047000099
S1132A3040682C49405C70472B494A6842B10A6897
S1132A4013780370501C08604868401E4860704743
S1132A5000210170704710B55A280CD1214A012376
S1132A608B54142404FB01210FF20D03CB60BDE849
S1132A701040D16A084710BD1A49C96A084730B5E1
S1132A80184DE96285B0044600A80FF260011422D3
S1132A90FEF72AFC6068A26802219047606814214E
S1132AA001FB00510A1D00A900F091F8002005B0B7
S1132AB030BD10B504460B486168142202FB0100C6
S1132AC0001D00F0EAF86068A268BDE8104000212B
S1132AD0104705480160426041680029FCD100208C
S1132AE07047000024F9FF1F1CF9FF1F81E5FF1F39
S1132AF09FE5FF1F00000000080000000101000026
S1132B002DE9F041044682B0D4F800800FF2E410BD
S1132B1050F82870F86A261D00012BD5B268100001
S1132B2028D041464FF49670904723E000F04BF8CC
S1132B3020699DF80050092805D300F044F89DF859
S1132B40000045EA00252069112805D300F03BF870
S1132B509DF8000045EA00452069192805D300F0D6
S1132B6032F89DF8000045EA00657D63F86A40F09C
S1132B700070F862F86A8001D8D4F86A800320D51E
S1132B80BD6BF86A40F40030F86241467268E8B2FE
S1132B9090472069092804D3280472684146000E2E
S1132BA090472069112804D3280272684146000E18
S1132BB0904720691928E0D372684146280E90474F
S1132BC0DBE7BDE8F3813268414600A81047F0B561
S1132BD004460FF2201050F824700D46164685B0B6
S1132BE014213046FEF712FF0ECD301D0C3D0EC0F1
S1132BF03460E86830613D4814B1012C04D007E02A
S1132C00016841F4805102E0016841F4005101601F
S1132C10384600F09AF800208DF80000ADF80C005A
S1132C2000A9E8680190287C8DF80800687C8DF87C
S1132C300900384600F066F868BB386820F4804024
S1132C40386001220121384600F0ABF82848002101
S1132C5000F8341000EBC400012246601921384604
S1132C6000F0EAF801221121384600F0E5F80122CB
S1132C701B21384600F0E0F8002078630121F86A4F
S1132C8040F00070F8622046FEF7D2F83868400839
S1132C9040003860002005B0F0BD70B505680FF243
S1132CA05400124C50F8256015B1012D06D00CE0EB
S1132CB02068C00418D50021002004E020688004A6
S1132CC012D500210120FEF7B3F8304600F03DF89C
S1132CD015B1012D04D070BD206820F4805002E0AD
S1132CE0206820F40050206070BD00003C80044047
S1132CF054F9FF1F00C0024000D002404001474A7F
S1132D001150704738B50D4604462878444A61018D
S1132D10C043505000212046FFF7F0FF2A1D002138
S1132D20204600F044F810B140F2311032BD6A7B05
S1132D30297B204600F021F800F001F832BD20681C
S1132D4020F0405020600020704710B50446012256
S1132D50206820F480402060012020600146204645
S1132D6000F01FF82F48E0620020A060E0602061BE
S1132D70206344F20100206010BD30B50368C3F342
S1132D8080331BB1046824F4804404604401264D5C
S1132D90295126490A511BB1016841F4804101605F
S1132DA030BD4001224B195022490A50704730B5BA
S1132DB01568042D09D3112D02D30368DB0F04D148
S1132DC0212D05D30368DB0F02D140F2311030BD51
S1132DD000EB81016D1E537914790068ED065B06E2
S1132DE0A406C00FC86803F0007304F080640CD01C
S1132DF020F0FE4005F0F045927928432043120666
S1132E00184302F08072104304E020F0FC40284391
S1132E1020431843C860002030BD00007C000042FD
S1132E203800004200000A9A340000423000004298
S1132E302C0000422800004210B5036B01248C4092
S1132E40A34302FA01F11943016310BD80B5094996
S1132E5001EBC00211F8300028B1074840B15068B6
S1132E60C046C04601BD054810B15068FFF748FE92
S1132E7001BD000054F9FF1F0000000049E6FF1FD8
S1132E800020E3E70120E1E7002000E0012038B55D
S1132E900FF2781151F82040594901EB0013E17801
S1132EA0E27801F012052A43E27001F05002102A80
S1132EB010D04A0614D54807A0780CD540F010006D
S1132EC0A07000208DF8000000A8196888479DF8BC
S1132ED00000207131BD00F0EF00A070207931BDF9
S1132EE0A278C2F300121AB1C807EAD5A078F2E7B3
S1132EF02279014610465A68904731BD0FF20C11F1
S1132F0051F8200000218170017081717047F8B57B
S1132F1004000FF2F8003A4F50F824600D4695E88B
S1132F200F0007EB041787E80F00364801680CBF51
S1132F3040228022114301600020B0700121402012
S1132F40B0710220F0702046FDF78EFF3078297BA7
S1132F5040084941317000207071B0717070B078D0
S1132F6040F08000B070B07840F04000B070F1BD27
S1132F7038B50500234C03D12068400605D431BD83
S1132F80012D10D1206800060DD500212846FDF73B
S1132F906BFF2846FFF7B2FF2068002D0CBF4021CD
S1132FA080218843206031BD30B50FF2600353F8AF
S1132FB020004FF47A73B1FBF3F1134BB3FBF1F13F
S1132FC0002300E023465C1C01FB04F59542F9D381
S1132FD02BB90A2462438A4204D3012302E0202B42
S1132FE028BF1F23817901F0A00103F00F021143D0
S1132FF0817130BD024A02EB00104160704700004D
S113300064F9FF1F3480044040420F000060064012
S11330100070064040682F494018007C70472E49D4
S11330204A6842B10A6813780370501C0860486803
S1133030401E486070470021017070472549496966
S1133040084738B504465A2C08460BD1214D42197D
S1133050012111742149FFF7CDFF6969BDE83440AE
S11330605A20084731BD10B504461A49FFF74FFFEF
S1133070FEF744F801462046BDE810403222FFF72F
S113308093BF10B50446134841611549896809691D
S113309091F88110FF2918BF01736068A2680221AA
S11330A090476068FFF7DFFF002010BD10B50446AD
S11330B06068FFF75DFF6068A268BDE8104000210A
S11330C0104705480160426041680029FCD1002096
S11330D07047000058F8FF1F88F9FF1F85EBFF1F9A
S11330E008F8FF1F70B50D0082B00446164601D1E2
S11330F0002076BD00AA00F071F830B9009B9B68EF
S11331005B68324629462046984776BD70B50D0067
S113311082B00446164601D1002076BD00F07FF847
S113312000B14CE000F047F868B9009B9B689B68CD
S113313032462946204698474E49002806BF009A41
S1133140926800220A6076BD38B504460D4600AA8E
S113315000F044F8A0B900988068406908B9662076
S113316032BD2946204600F05AF810B142F2D87018
S113317032BD009A9268526929462046904732BD72
S1133180002DFCD1002032BD70B50D0082B0044684
S1133190164601D1002076BD00F041F800B10EE0E2
S11331A000F009F830B9009B9B68DB683246294679
S11331B02046984776BD00AA294620460EE042F2F2
S11331C0D87076BD10B52B4C2168002029B109694F
S11331D00A0002D088470021216010BD70B5264C3A
S11331E06468002918BF002A42F2D87314D000E0A2
S11331F00C348CB12568002D04BF6668002E01D103
S1133200A6684EB1A84224BF65688542F0D3081869
S1133210401E854228BF00231460184670BD30B597
S1133220154A92681269536BA3B10918491E002309
S113323002EBC304603465682468002C08BF002DC9
S113324005D0854228BFA14201D3012030BD5B1CBB
S1133250022BEDDB002030BD10B50748446804E0C4
S11332600068010018BF80470C34A0680028F7D11B
S113327010BD000090F9FF1F08F8FF1F10B58F481C
S11332808068006900F1700430224FF470712046A8
S1133290FEF72AF820688A49884204D0FF223021A8
S11332A02046FEF74DFFFDF745FF002010BD38B561
S11332B0824CA06805694B20E87005F110020120DA
S11332C0A870042105206870012028705020E8713E
S11332D00120A87102206871002028715420E8722E
S11332E00120A87200206872287201202863686394
S11332F04EF6FF70A86300F052F805F114020121A4
S113330000F04DF805F11802002100F048F805F12D
S11333101C02022100F043F805F12002032100F011
S11333203EF805F14C02052100F039F805F1500290
S1133330062100F034F805F15402072100F02FF8BB
S113334000202866686600215E48A8665E48E86634
S11333506069E96007E095F88030134202D0EB68B9
S11333601A43EA60491C182202FB01021268002A6F
S1133370F1D156480168A964416869648168296487
S1133380C068E863606850F80C1F696241680068AF
S1133390081A401CA8620120A865002032BD04F16F
S11333A02000FEF7EBBE0000F8B51446434A484F30
S11333B091680426401E096917281D464CD8DFE889
S11333C000F00C121416181A204B4B22262D241C24
S11333D01E30333E414345474B4905B12E6004B18D
S11333E021600020F2BD0C31F7E71031F5E714310C
S11333F0F3E71831F1E72031EFE72431EDE7283125
S1133400EBE73831E9E73031E7E73431E5E7D06914
S113341041694969884738603946DEE710266031DA
S1133420DBE72C480068F6E700A902F12000FEF76C
S1133430D3FA9DF800000028EDD00120EBE7102618
S11334403C31CAE74C31C8E75031C6E75431C4E7D0
S11334505831C2E70831C0E742F63C00F2BD174AD2
S113346092681369401E062842F63E0220D90938A4
S11334700CD0401E01281BD9801E0DD0401E0328ED
S113348016D908380ED0801E12D014E0002918BFB7
S1133490012909D119637047002918BF012903D1F3
S11334A059637047032901D31046704799657047E3
S11334B042F63D00704742F63C00704708F8FF1F93
S11334C06B63666700C0FF1F7FFDFF1F54800440CD
S11334D058FAFF1F24800440012100F01F0291408C
S11334E06D4A04E0012100F01F0291406B4A40093B
S11334F042F8201070470021C170817001700421CE
S113350041700021817241747047F8B5644E336094
S1133510130191FBF3F633010025B1FBF3F30446E9
S113352093424FF0FF3038BF761E00D310D00127EE
S11335304B0007EB461CB3FBFCF39A4234BF9B1AC7
S1133540D31A984224BF18463D467F1C212FEFDB37
S1133550642192FBF1F101EB410188423FD25149D0
S1133560514F8C4206D051498C420AD050498C426A
S11335700ED014E01F20FFF7AFFF386840F48060DE
S11335800CE02120FFF7A8FF386840F4006005E054
S11335902320FFF7A1FF386840F480503860E078BA
S11335A000F0F300E070310A0020A07001F01F0168
S11335B0207800F0E000084320706670A07A00F0E4
S11335C0E0002843A072C0206074E07840F020003E
S11335D0E070E07840F00C00E0700020F2BD0120C3
S11335E0F2BD02791206FCD5C171704731480178E9
S11335F0890600D50AE070472F4801788A0701D56B
S1133600C0787047890600D500E07047C078244927
S11336100968084729480178890600D5F6E7704704
S113362058B52049204E8842044606D01F49884296
S11336300AD01F4988420ED014E01F20FFF752FF22
S1133640306840F480600CE02120FFF74BFF3068C5
S113365040F4006005E02320FFF744FF306840F4A5
S1133660805030602046FFF746FF0E48844206D063
S11336700E48844207D00E48844208D051BD3068B9
S113368020F4806006E0306820F4006002E03068D6
S113369020F48050306051BD00E100E080E100E0A2
S11336A0E0FAFF1F00A006403480044000B006404A
S11336B000C0064004A0064004B0064004C0064012
S11336C038B5044600A96068FDF735FA08BB6068A0
S11336D0FDF722FD01466068012804D002280CBFD2
S11336E02A482B4800E02B482B4D009A2B68FFF703
S11336F00CFF58B96068A2680221904729685A20D3
S113370088472968A6208847012032BD6068FDF7F4
S1133710F9F9002032BD10B504461F480160606805
S1133720A268012190476068FDF7ECF9002010BD04
S113373010B504466068012804D002280CBF134861
S1133740134800E01348FFF76BFF6068FDF7F1F9D9
S11337506068A268BDE810400021104770B50446B7
S11337600D46164602E00978FFF73BFF3046461E39
S113377058B1294660684D1C012804D002280CBFAA
S113378002480348EFE70348EDE770BD00C0064078
S113379000A0064000B00640E4FAFF1FA649D1F895
S11337A08820531C5218C1F8883082F82000D1F8C0
S11337B0880000F03F00C1F888007047002070477F
S11337C0B8E02DE9FC410C00154614BF002D04207F
S11337D0984628D0984F002007F190062860707012
S11337E000F0A8F818B11EE0A22000F075F820211E
S11337F03846FEF70BF94246394600A800F0E7F8D0
S113380010B1002129600EE0394600A800F030F91B
S1133810BDF804108142E7D1012030702760BDF863
S1133820020028600020BDE8F6812DE9F0410C007B
S113383082B015461E4635D0212D33D200F07AF8D9
S113384000283FD1DFF8F08198F8910010B10020F2
S113385088F8910008F160075A203870A420787025
S11338600EB1A52078707D802DB12A46214608F13D
S11338706600FDF729FD08F16601384600F0F8F806
S1133880B880A91D384600F064F8D8B900A800F043
S1133890DDF8B8B99DF80100A12812D0A22806D0FD
S11338A0A32801D004200DE042F212700AE07888C7
S11338B0811D384600F04DF820B99DF80100A2287A
S11338C0E4D00020BDE8F6815C480121817000212C
S11338D0017070472020704780B55A218DF8001080
S11338E08DF801000120544981F89100022100A8BB
S11338F000F02FF802BD10B5044650480178427814
S113390080781140014282B011D10FF294100088E6
S1133910ADF80000022223695B6800A9204698479D
S113392023690FF280115B6808222046984742F20F
S1133930137016BD4148017819B100210170A1200E
S113394004E0817819B100218170A320C4E700202C
S113395070473B4AD3690A46014618461B695B68AF
S113396018472DE9F14F8B461446FDF768F90646D2
S11339704FF47A7089466043FDF771F90025DFF84A
S1133980B8A00446A8460AF188070EE078683968AA
S113399088420CD05044009990F8200068546D1C63
S11339A07868401C00F03F0078605D450CD0002C26
S11339B0ECD0FDF744F9801B61EB0901414501D8C6
S11339C0A042E3D3052000E00020BDE8F28F70B5EB
S11339D082B005460C46164600F038F858BB6878A5
S11339E0A62804D11648C069FFF785FF76BDA42137
S11339F006B1A521884201D0012076BD00F022F84D
S1133A00BDF800106980B0B908462128A8BF20205D
S1133A10688000F017F8BDF80010A98058B96988CB
S1133A2049B12046FDF78CFC69880A2000FB01F2AD
S1133A302046FFF796FF76BDE8FAFF1F78FBFF1FCD
S1133A4008F8FF1F1422022100A88AE710B50446D3
S1133A50002201212046FFF784FF40B920785A282C
S1133A60F6D1601CBDE810400A22012179E710BD9F
S1133A7030B583B004460D4600A800F017F80422C0
S1133A80214600A800F015F86288294600A800F035
S1133A9010F801A900A800F023F8BDF804003EBD09
S1133AA05AA70000000201500000AAEA0021018088
S1133AB0704770B5038800240EE0655C83EA052333
S1133AC008255E001B0444BF86F4805686F0210658
S1133AD06D1E3346F5D1641C9442EED3038070BD51
S1133AE000880880704700000748016841F47001AD
S1133AF001604CF220510548C1814DF62811C18165
S1133B004FF4E9710180704788ED00E00020054022
S1133B104EF68851CEF20001086840F47000086047
S1133B20BFF34F8FBFF36F8F4FF00070E1EE100AB9
S1133B307047000000F00BF8002801D000F00AF8EC
S1133B400020C046C046FDF759FAFDF797FA012058
S1133B507047000010B5074979441831064C7C447D
S1133B60163404E00A68081D511888470146A1422A
S1133B70F8D110BD3C0100004801000074C5FF1FCE
S1133B8070F8FF1F04C6FF1F48F8FF1F0000000065
S1133B90A4C5FF1F0000000000000000000000009A
S1133BA00000000000000000000000000000000011
S1133BB000000000000000000000000019CFFF1FFB
S1133BC027CFFF1F68C4FF1FECF8FF1F67EBFF1F21
S1133BD08BEBFF1FAFEBFF1F100000000000000085
S1133BE00000000000000000FFFF030044C5FF1FA9
S1133BF000C0FF1FFF7F00208CC5FF1F0000004096
S1133C00FFFF0740F0C4FF1F00F00F40FFFF0F400D
S1133C10F0C4FF1F000000E0FFFF0FE0F0C4FF1F2F
S1133C20000000000000000000000000000040014F
S1133C3030B504E012F8014B00F8014B491ED1B134
S1133C40C507F7D40129F5D0850701D4042904D286
S1133C5032F8024B20F8024B891E8B08EFD000EBA0
S1133C60830403E052F8045B40F8045BA042F9D3F8
S1133C70A1EB8301E3E730BD80B513460246184645
S1133C8000E080B5FFF7D4FF002002BD10B5144654
S1133C900A462146BDE810400123FEF78BBEFFF71C
S1133CA0FEBFC046C046FFF733FFFFF743FF0000E7
S1133CB0EFD1FFFFC0020000C0F8FF1F00000000AA
S1133CC062B38B0708D0521E11F8013B00F8013B88
S1133CD000F024808B07F6D1830740F0208000BFDA
S1133CE0103A07D330B4B1E83810103AA0E83810CD
S1133CF0F9D230BC530724BFB1E80810A0E808107B
S1133D0044BF51F8043B40F8043BD20724BF31F8C8
S1133D10022B20F8022B44BF0B7803707047083A3B
S1133D2007D3B1E80810083A40F8043B40F804CB44
S1133D30F7D25307E4E7FEE780B51849184808604E
S1133D4018491948421A194888421CBF002AFFF72B
S1133D50B7FF17481749091A18BF00F037F8164972
S1133D601648421A04D0BDE808401548FFF7A8BF1A
S1133D7001BD14484FF0FF31016041608160C160B2
S1133D80016141618161C1610F48016041608160ED
S1133D90C160016141618161C161704708ED00E06A
S1133DA0000000000000000000000000000000000F
S1133DB00000000000000000CC3E0000CC3E0000EB
S1133DC0007E002080E100E080E200E0002200F0BC
S1133DD001B80000401810F0030308D0C91A1FD31B
S1133DE0DB0748BF00F8012D28BF20F8022D13007F
S1133DF030B414461546103928BF20E93C00FAD8DF
S1133E00490728BF20E90C0048BF40F8042D890069
S1133E1028BF20F8022D48BF00F8012D30BC7047A0
S1133E20C91818BF00F8012DCB0728BF00F8012DD1
S1133E30704700000748016841F4700101604CF2CA
S1133E4020510548C1814DF62811C1814FF4E97113
S1133E500180704788ED00E0002005404EF688514F
S1133E60CEF20001086840F470000860BFF34F8F81
S1133E70BFF36F8F4FF00070E1EE100A704700003F
S1133E8000F00BF8002801D0C046C0460020C04610
S1133E90C046FCF70DFB00F002F80120704700F06B
S1133EA001B800000746384600F002F8FBE70000BE
S1133EB02021090326311820ABBEF9E7FFF7FEBF26
S10F3EC0C046C046FFF7CAFFFFF7DAFF58
S9030411E7
