S01A0000666C6173686C6F616465725F6C6F616465722E73726563AF
S113000000300020110400004F4000004F40000069
S113001000000000000000000000000000000000DC
S11300200000000000000000000000004F4000003D
S113003000000000000000004F4000004F4000009E
S113004001400000014000000140000001400000A8
S11300500140000001400000014000000140000098
S11300600140000001400000014000000140000088
S11300700140000001400000014000000140000078
S11303F0014000000140000001400000FFFFFFFF3A
S1130400FFFFFFFFFFFFFFFFFFFFFFFFFEFFFFFFF9
S113041072B60E480E49886000220023002400258D
S113042000260027B846B946BA46BB46BC4609482A
S1130430854609488047094880470948804762B68D
S113044000200021074A9047FEE70000000000005A
S113045000ED00E000300020094000003D3F0000B6
S1130460753F0000B104000072B600200B4908601B
S1130470BFF36F8FBFF34F8F7047000080B5084AFA
S11304800DA1084803F040FDFFF7EEFF064880F396
S1130490088880F309880548804701BD08ED00E01D
S11304A0283A000000F0FF1F882F002011F4FF1FDE
S11304B080B5FFF7E3FFFEE7882F002011F4FF1F4C
S11304C0EFFBFF1F250000200000000000000000DB
S11304D00000000000000000000000000000000018
S11304E000000000EFFBFF1F000000000000000000
S11304F0EFFBFF1F07F8FF1F012600200126002045
S113050001260020012600200126002001260020CB
S11305100126002001260020D11B002001260020F6
S1130520A11B002001260020F9260020012600201E
S1130530012A002001260020012600200126002097
S1130540012600200126002001260020012600208B
S1130550012600200126002001260020012600207B
S1130560012600200126002001260020012600206B
S113057001260020D9F8FF1F0126002001260020B3
S1130580012600200126002001260020012600204B
S1130590012600200126002001260020012600203B
S11305A0012600200126002001260020012600202B
S11305B0012600200126002001260020012600201B
S11308B001260020FFFFFFFFFFFFFFFFFFFFFFFFF9
S11308C0FFFFFFFFFEFFFFFF72B60E480E49886070
S11308D0002200230024002500260027B846B9463C
S11308E0BA46BB46BC46094885460948804709487C
S11308F080470948804762B600200021074A904794
S1130900FEE7000000F0FF1F00ED00E0882F00204C
S11309100926002065FEFF1F9DFEFF1F5FFBFF1FD2
S11309208501002000000000970100200000000065
S11309300B02002009030020EB0100205F020020CD
S1130940D90300200000000065040020000000001E
S1130950A9010020000000000000000000000000C9
S1130960F50300200000000000000000000000006B
S11309704901002000000000D70100200000000011
S11309800000000000000000000000000000000063
S11309900000000000000000000000000000000053
S11309A0000000000000000000000000DD2900201D
S11309B0E7290020F12900200000000000000000C9
S11309C00D0D00205D0D00208F0D002000000000A3
S11309D000000000AD0D0020000000000000080031
S11309E00000100000002000000040000000800013
S11309F00000000100000002040002403505002050
S1130A0061050020A30500208B06002000000000E3
S1130A100D07002045110020C1120020DB12002028
S1130A200000000000000000F1120020004002401D
S1130A300E0E0E0E611D0020CF1D0020F91D00209A
S1130A4000000000000000000D1E0020C11F002057
S1130A502D1E0020591E0020E91E0020251F002005
S1130A60A51E002099090020A1090020AD0900203D
S1130A70BD0900200000000000000000010000008B
S1130A80000000005BF8FF1F6CF6FF1F7CF6FF1FE1
S1130A9050F6FF1F020000000000000085F8FF1F51
S1130AA07CF5FF1F8CF5FF1F50F6FF1F04000000AC
S1130AB000000000A5F8FF1F08F5FF1F18F5FF1F31
S1130AC050F6FF1F0800000000000000C1F8FF1FDF
S1130AD05CF5FF1F6CF5FF1F50F6FF1F00000000C0
S1130AE00000000000000000000000000000000002
S1130AF000000000E91F002019200020112100201F
S1130B00CB210020302C00206D22002079220020EF
S1130B10E92200209F23002071220020AB23002023
S1130B204D22002069270020BD270020D727002060
S1130B300000000000000000FB27002038B504007E
S1130B40424D0023AB610020002103C5083D2A006B
S1130B50083203C22A00103203C22B623C4800F060
S1130B60A6F8E8613B49200000F024F931BD80B5C6
S1130B7000F037F901BD70B50C00344DA96907299F
S1130B801CD1296A884219D100F096F89626F600FD
S1130B9001010A1A03CD030003CD1918100000F057
S1130BA063F90A214843310000F05EF9401D0A212F
S1130BB000F05AF970432060002070BD012070BD20
S1130BC0F1B582B000F063F804000D001F4EB76960
S1130BD07F1CF0690021009001913000103003C89F
S1130BE02B00221A8B4100980021994203D801D38B
S1130BF0904200D20127B761012F06D0042F09D0FB
S1130C00052F0FD0072F11D01CE030C6083E0298E4
S1130C10306217E00CCE083E2900A01A994103C6A1
S1130C20083E0FE03000083030C00BE030000830E0
S1130C300CC82900A01A99413200083203C2029854
S1130C4000F0CFF8103630C6F7BD0000402B00206E
S1130C508038010009F7FF1F10B51B4C00202060ED
S1130C601A491B4A4A6088600720086019480068CE
S1130C70C000194900F0F8F8002800D10120606094
S1130C8010BD1248016806229143016070470E4965
S1130C900A6812480068C3431802000A0B689A42A3
S1130CA0F6D1130A120600218018594170470649EB
S1130CB049684843C00870470648006870470248BE
S1130CC00168491C01607047242C002010E000E0FA
S1130CD0FFFFFF003C2B002040420F0018E000E023
S1130CE010B58207D30EFF249C40E2438907090E06
S1130CF09940030004D545481B071B0F083B00E03F
S1130D0043489B089B00C01803681A4011430160C4
S1130D1010BD002811D13F4800290CD0022908D069
S1130D200BD28021490001604020C0433A49086049
S1130D307047C021890001604160704700280CD1D0
S1130D403648002902D0022903D07047016041606F
S1130D5070478021890041600160704700280AD1F2
S1130D602F48002903D0022905D180218900016080
S1130D7041608160C1607047002808D1294800297A
S1130D8003D0022903D180218900416001607047AA
S1130D9025480068C101C90F00D1704780B52348B8
S1130DA00168080005D0002088470020C04320497E
S1130DB0086001BD10B50C00002811D101211F20CD
S1130DC0FFF78EFF802000061A4908601648016864
S1130DD0194A0A40A0210903114301601348046021
S1130DE010BD002800D0704780B58020000613494C
S1130DF0086000211F20FFF773FF0B4801680E4AAB
S1130E000A40026000200949086001BD1CED00E0B1
S1130E1000E400E018C01454D4F00F4400A01454AB
S1130E2040D0145460D0145418C004402C2C00201A
S1130E30A0C0044000E100E0FFFFF0FE80E100E01C
S1130E40CA0F00D0494203105A400DD004B500D354
S1130E50404200F009F8009AD20701D349421242F5
S1130E6000D5404204BD0000094214D088420FD38B
S1130E700122030C01D100041204002300185B4179
S1130E808B4200D35B1A5241F8D31900100070470B
S1130E9001000020704708B500F001F808BD704754
S1130EA0002807D18020C000012901D1024900E0B7
S1130EB002490860704700BF00E100E080E100E003
S1130EC0002807D180204000012901D1024900E017
S1130ED002490860704700BF00E100E080E100E0E3
S1130EE038B505000C00002000F0DEF86648046008
S1130EF045600021654A1160016881F3088881F327
S1130F00098840688047002000F0CEF831BD604970
S1130F108968096900280DD00022D243904209D083
S1130F205C4A904206D00A69904203D34B69D218B6
S1130F30904208D34A6A904207D3896A511888427A
S1130F408041C00F70470120704700207047F0B502
S1130F5083B04F4EB06804696C344F4D09E0217C76
S1130F60014205D0686981692800EA68526890479F
S1130F70183528680028F2D10027FA208000FFF7EE
S1130F8096FE050000F0E9F8002828D1FFF7BFFF1E
S1130F90002824D0B06800698A300078C00703D4E0
S1130FA000210020FFF79CFF678A3C48874200D15C
S1130FB03B4F6F43FFF76BFE6A4603C2002F0ED010
S1130FC0FFF765FE6A460CCA801A994100239942CC
S1130FD001D8B84203D300210020FFF781FF2E4D32
S1130FE000E0183528680028E8D02800E968096876
S1130FF088470028F5D0002DE0D0274C06E0A54214
S113100003D02000E16889688847183420680028E4
S1131010F5D12800FEBD38B500F01DF900F076F8D2
S11310201B4CA068006880470020FFF738FFFFF7DB
S113103013FE2000203000F01FF92068006880476C
S1131040A06840688047FFF782FFE06101690029DA
S113105003D009680A0000D08847E0694169002983
S113106003D009680A0000D08847E0680068804718
S1131070E569E06840688047E868C1680800F8D01E
S113108028008847F5E70000902B002008ED00E0D9
S1131090282A002011F4FF1FC4F5FF1FFFFF0000E2
S11310A0881300007047FEE770B505000024022D88
S11310B004D0002000F028F9012D0ED0002605E010
S11310C0C16889680A0000D08847761C0D48182139
S11310D07143401801680029F2D1002D0DD100F0B0
S11310E0C0F8FFF7CEFD00F035F907480460012091
S11310F0FFF7D5FE00F011F862B6BFF36F8FBFF3B0
S11311004F8F70BDC4F5FF1F08ED00E01C48016857
S1131110F82292010A430260704719480168194A8B
S11311200A400260704700B5174801681748006814
S11311304903490FFFE7491CFFF796FE00BD80B540
S1131140002802D0012803D005E01048006802BD41
S1131150FFF7E9FF02BD002002BD002070470C48E4
S11311600068000E000708D10A48806800697C21E5
S1131170415CF7220A407C30027070470000000096
S113118038800440FFC1FFFF448004403C2B002012
S113119024800440282A002070B505000C00344E39
S11311A003CE083E002907D1002805D1FA2080008B
S11311B0FFF77DFD002103C66C700023002028701A
S11311C000212A00083203C22B6170BD70B50400EF
S11311D00E0000256078002807D072B66078401EA3
S11311E06070257062B6002070BD002E13D0207888
S11311F0002812D0FFF74BFD220008320CCA801AD7
S113120099411B4A0CCA00F0C5F82169814212D2E7
S113121072B6257062B6022070BD0020C0438642BB
S113122009D072B60120207062B6FFF730FD2200AB
S1131230083203C22661032070BD4178FF2901D121
S11312400120704772B64178491C417062B6002093
S113125070470020704772B600200649086062B6E5
S1131260704772B603480168491C0160704700006A
S1131270882B0020142C002010B5002801D1042054
S113128010BD1D491D4A12681201120F5200895ADD
S11312900A0301D1642010BD0021016042600122D3
S11312A08260D202C260164A930D1478A34043614F
S11312B0D27882610161002010BD002801D1042090
S11312C070475B1E194201D1134001D0652070475D
S11312D00368994204D3406818188918884201D2D7
S11312E066207047002070470649884201D06B2071
S11312F0704700207047000020F5FF1F4C80044019
S1131300280002406B66656B034909688022D2009D
S11313100A4301490A6070470C3000F080B5114857
S11313201149086011491248421A1248884203D0F0
S1131330002A01D000F078F80F481049091A01D0AA
S113134000F0C8F80E490F48421A02D00E4800F0C7
S11313506BF801BD0020C0430C4908600C490860CB
S11313607047000000F0FF1F08ED00E0782800201F
S113137094290020282A0020402B0020882D0020BA
S1131380282A0020282A0020882D002080E100E05F
S113139080E200E0124224D0994228D970B5002599
S11313A01B4202D00C00002109E000240126491848
S11313B06441944200D3A41A7641F8D33100012643
S11313C001E0764109D2001864416D41A41A9D419F
S11313D0F7D2A4185D41B619F5D3300022002B00D2
S11313E070BD1B42D8D108B5FFF759FD08BD01D126
S11313F09042D3D202000B0000210020704730B489
S1131400012100220368001D002B0BD00468001D7D
S11314100C4202D04D466D1E64192260241D1B1F10
S1131420F0D0FAE730BC7047124207D08B0706D0E1
S11314300B78491C0370401C521EF7D87047830771
S113144006D00B78491C0370401C521EF9D170471A
S113145070B4103A03D378C9103A78C0FBD253075A
S113146001D318C918C001D508C908C0D20704D3CC
S11314700B880380891C801C002A01D50B7803701B
S113148070BC7047094205D083070BD00270401C22
S1131490491EF9D1704700001206130A1A43130CAF
S11314A01A4300BF130030B414001500103902D3DE
S11314B010393CC0FCD2490700D30CC000D504C08D
S11314C0890002D30280801C002900D5027030BC40
S11314D0704700000022D5E70022E3E7BFF34F8FF7
S11314E0024803490860BFF34F8FFEE70400FA0582
S11314F00CED00E00020AF49C968C9680860704776
S1131500FEB5002600206A469670AA4CE7697D69FC
S1131510002D74D0E168C9680A68012A59D00023F3
S11315200A000832091D38006D68A847002805D054
S1131530A149884202D0491C884260D1E268D1683E
S11315408B68002B5BD002934868019000786B464F
S1131550187068460078002808D068460078122879
S113156004DA9268C0001018083800E0002008620D
S11315700127002821D0006800281ED000A9491C9A
S11315802000203000F018FA050017D16846407892
S1131590002809D0E720400169460978491EC8405F
S11315A0384001D1854D09E002990198E268D2687A
S11315B0126A12689047002007E0B44D684601782B
S11315C0280000F0B2F9280019D1E168C9680F6059
S11315D0FEBD096A00290DD04968080003D000A89F
S11315E0801C884700E00020002803D0E168C96817
S11315F00E60FEBD69468978E268D2681160FEBD5E
S113160080B50178002000F090F96A48C06941690A
S1131610096988470220FFF747FDBFF34F8FA148B0
S1131620A1490860BFF34F8FFEE780B514216148DC
S1131630C068C0680C30FFF74FFF01BD10B504004F
S113164000F0DBFAFFE7217800F06FF910BD10B568
S11316500400A1686068574A126852699047F2E72B
S11316607CB5002401940094524D6B4601AA816814
S1131670C9B24068C0B2AE68B668B047E968C96824
S11316800C6100998A08019900F057F973BD10B5EF
S11316900400A1686068C0B2464A9268D268904764
S11316A0D1E710B50400FFF7C0FF4248C068C06826
S11316B0A1680161616841610421017721780020FA
S11316C0C2E710B50400FFF7B0FF3A48C068C0682D
S11316D0A16801616168416103210177A16800206B
S11316E000F03FF910BD38B50400324DE868C06819
S11316F0002141610161007F042805D12868006947
S11317008047002C00D10400E868C068017F2000F5
S113171000F00BF931BDF1B584B0264DE868C0681E
S113172000240169002905D1049804700020FFF702
S1131730DAFF3CE00121049A1170076940690190C5
S11317400094E86901236A4602A946697668B047AD
S1131750060004D0E8694169C96888471CE000981C
S1131760002801D1144818E0B84200D9380000908C
S1131770029A014601982B689B68984706000198D5
S113178000994018019000983F1A05D0002E09D006
S1131790E8694169C96888473000FFF7A4FF0498E5
S11317A0047004E0E868C0680761019941610020A1
S11317B005B0F0BD282A00201227000011270000E0
S11317C0F1B58CB0794FF868C0680025016900292B
S11317D005D10C9805700020FFF785FF52E0012128
S11317E00C9A1170016902914469C168027F029BDD
S11317F0212B00D320230193002915D0019A04A89A
S1131800FFF712FE02980199401A0290F869012329
S1131810019A04A94669B668B047060002980028F0
S113182025D0002E29D022E0019961180391032AC2
S113183006D104AA019920003B685B6898470CE034
S1131840102A01D00C46DDE7407F0090019B04AADA
S113185021003800203000F019FA0600039CD1D092
S1131860F8690123002204A94469A468A047300050
S1131870FFF739FF0C98057004E0F868C068029916
S11318800161446100200DB0F0BD0000102700008C
S113189010B50400E268A1686068444B1B68DB680B
S11318A09847D0E60400FA050CED00E07CB506008C
S11318B070680090B0680190F0683D4C206000258D
S11318C03A4949680C31002807D00A68904203D38A
S11318D04968491C814200D204250098FFF717FB90
S11318E0002800D104253178280000F01EF8002DCE
S11318F013D1009860600020FFF7D6FB0198A06028
S11319002068002803D080F3088880F30988A06841
S1131910616888470020FFF7C7FB73BD10B504005A
S1131920211D244800F0FCF98DE610B584B06A4608
S1131930A02313700023537028E030B589B06C469F
S1131940A723237000236370A370551CE5700190D6
S113195004E098000D58201885605B1C9342F8DB66
S113196004E010B584B06A46A3230BE00F48C069B5
S11319700023E1788A00121D69464469A468A047DF
S113198009B030BD137001235370002393700223F8
S1131990D370019002910548C06900230C22694666
S11319A04469A468A0471FBD00000000282A002045
S11319B0982B0020482A0020002801D0002901D1BA
S11319C004207047084800788207920F022A01D148
S11319D0002006E0C0220240802A01D1012000E05C
S11319E002200870002070470200024038B5A44C61
S11319F065682A0004212000203000F0B7F96A4607
S1131A0001212034200000F0B1F928680099401821
S1131A10401E6860002032BDF8B504000D001600B9
S1131A209748416B4A4211002140631A5B195F4297
S1131A303A4053421A006B46203000F0B9F90028AE
S1131A400AD168460078002801D06C20F2BD32002B
S1131A502900200000F000FAF2BDF6B589B00700B5
S1131A60084603218843049009980499461A844C33
S1131A70A0680069056B002D00D001250020C0433B
S1131A800590002E05D032000A98411805A8FFF7EA
S1131A90CBFC03AA099948420321884341423800F8
S1131AA000F0C5F800284AD16846007B002800D021
S1131AB000250498381808900498002808D0049B3E
S1131AC00A9A39002000203000F0DCF9002808D1FF
S1131AD0002E08D0042305AA08992000203000F025
S1131AE0D1F900282BD12D0628D00498002811D034
S1131AF006A8029007A80190A0680069406DC0B2D2
S1131B0000900A9B049A39002000203000F0EAF982
S1131B10002811D1002E11D006A8029007A8019028
S1131B20A0680069406DC0B2009005AB042208991A
S1131B302034200000F0D6F9002800D100200BB09A
S1131B40F0BDF0B587B004004D4EB0680069076B76
S1131B50002F00D0012704924842032188434142C8
S1131B600D0003AA200000F062F8002828D168467E
S1131B70007B002803D0002701E0241D2D1F002D29
S1131B801DD0042304AA21003000203000F07AF98B
S1131B90002815D1002FF0D005A8029006A80190C6
S1131BA0B0680069406DC0B2009004AB042221000B
S1131BB03000203000F096F90028DED000E000204C
S1131BC007B0F0BD70B506000D002D4C2D4B2A005A
S1131BD031002000203000F0B5F900280CD1A168B4
S1131BE009690A6B002A07D04B6DDBB22A00310069
S1131BF02034200000F0E6F970BD10B5204C2149D6
S1131C002000203000F01CFA00280FD1A1680969D7
S1131C100A6B002A07D0496DC9B22034200000F0B5
S1131C2029FA002802D10121174A117010BD38B5D4
S1131C30150000222A70124C6B460A000100200095
S1131C40203000F0B5F8002818D1694609782970C9
S1131C5069460978002911D00B4D297800290DD146
S1131C60A0680069416DC9B22034200000F002FA76
S1131C70002801D06C2032BD0121297032BD000042
S1131C80282A00206B66656B842D0020F1B50F00B7
S1131C9014001D00002801D0002C01D10420F2BD45
S1131CA06846027E2900380000F01EF8002815D18D
S1131CB004E071682160241D3F1D2D1F002D0DD0EF
S1131CC00748066837600748032101706946097EA2
S1131CD00172009800F0DCF90028EAD0F2BD00009F
S1131CE040F5FF1F0700024010B50323184201D13D
S1131CF00B4001D0652010BD022A0EDA4418641E80
S1131D00012A06D1002808D1491E072905D100203F
S1131D1010BD002AFBD1FF2CF9D9042010BD00000E
S1131D2010B5020001D0002901D1042010BD00200B
S1131D300D4B1C78A407A40F022C14D04520587115
S1131D4008785872487818728878D871C878987169
S1131D5008795873487918738879D872C879987251
S1131D60100000F095F910BD02000240002801D0D7
S1131D70002A01D104207047072917D801A35B5C0E
S1131D809F4400BF08101014181C2024C068106061
S1131D90002070474068FAE78068F8E70068F6E7D3
S1131DA00120F4E74069F2E78069F0E76A207047B0
S1131DB0F9B585B00C001500002B01D1042043E0D7
S1131DC00423FFF77AFA029000283CD1002600276A
S1131DD060190190059840690090014648420199B4
S1131DE04A42024051422040081A0099FFF73CF849
S1131DF00390012509E0154909682038CA43C24007
S1131E002A4000D07F1C00982418019884420CD2E8
S1131E1020000099FFF728F8202802D20B494968CE
S1131E20ECE7059989698842E5D3002F02D1069829
S1131E30067008E00398874203D2022006990870CE
S1131E4001E006980570029807B0F0BD1800024042
S1131E5080B500F037F902BD80B513000A00010017
S1131E60180003E080B513000A001900FFF7DCFA3C
S1131E70002002BD10B50C0011000123220000F067
S1131E8041F910BDF1B50F0015001C00002D01D162
S1131E900420F2BD04232200FFF70FFA060002D04B
S1131EA0F2BD3F1D241F002C13D00C4800680760AE
S1131EB0296841602D1D062009490870009800F02A
S1131EC0E7F8060000980069010000D08047002E62
S1131ED0E7D00098FFF718FA3000F2BD40F5FF1F75
S1131EE007000240F1B50C0016001D0001D10420CA
S1131EF0F2BD0423FFF7E1F900281DD1069F02E09B
S1131F00361F2D1D241D002E16D00C4800680460B9
S1131F100B4902220A700F7129688160009800F051
S1131F20B7F80028ECD00799002900D00C60089974
S1131F30002901D000220A60F2BD00BF40F5FF1F56
S1131F4007000240F8B582B007000E001500082310
S1131F50FFF7B3F9040021D175196D1EF8680090DC
S1131F6028000099FEF780FF00290AD02800009974
S1131F70FEF77AFF451C009845436D1E01E0F868A2
S1131F803618B54216D30D480068066009200C497E
S1131F9008700298FFF7A8F9040001D02000FEBDE4
S1131FA0380000F075F804003869010000D080475B
S1131FB0002CE4D03800FFF7A7F9EFE740F5FF1F46
S1131FC007000240F9B581B00F0015000823FFF7A0
S1131FD074F900282ED10198406801998968FEF7A8
S1131FE043FF0090784200994A4202405442BC4266
S1131FF005D1641803E0AD1BBF1900982418002D07
S113200017D0E01B2E00854200D90600F0080A49CB
S113201009680F600121094A1170010A1171D07019
S11320206846007A9070019800F032F80028E2D0F7
S1132030FEBD0020FEBD00BF40F5FF1F07000240AB
S113204038B504000800002C01D1042032BD44211D
S1132050074A1170FFF748F9050007D1200000F086
S113206017F805002000FFF74FF9280032BD00BF24
S11320700700024080B5002801D1042002BD034AB4
S113208040235370117000F003F802BD06000240B3
S11320900B4870210170802101700178C909FCD0BE
S11320A00078810601D567207047C10601D56820F4
S11320B07047C00701D5692070470020704700BFF2
S11320C0000002400C4800680003010F082910D2E8
S11320D0802292008A400CD0084840680C30910855
S11320E080229205521A02604A005118044A891843
S11320F041600020704700BF24800440282A00204B
S1132100FFFFFF1F002A01D101207047F0B41F46D2
S1132110034603242340002B09D00424E31A01704E
S113212001300824E141521E26D05B1EF7D1042A57
S11321301ADB13D0002F11D00C460D460E46102A80
S113214002DB72C0103AFAE70C2A02DB32C00C3A06
S1132150FAE7082A02DB12C0083AFAE7042A03DB8A
S113216001600430121FF9E7002A05D00170013024
S11321700824E141521EF7D1F0BC00207047000052
S113218000210180704770B503001D8800240EE013
S1132190085D00026840050008206E002D0402D589
S11321A03500054E6E403500401EF6D1641C944245
S11321B0EED31D8070BD000021100000008808804F
S11321C0704700002B494068085C70472A494A68F8
S11321D0002A08D00A6813780370521C0A60486801
S11321E0401E486070470021017070475A2800D093
S11321F0704710B51F4A01235354204B14246143E4
S11322005118CB609169884710BD80B51949896917
S1132210884701BD30B585B00400164DA9616846F4
S113222017A11422FFF714F902216068A2689047ED
S11322306068142141436A18121D694600F0A2F82F
S1132240002005B030BD10B504000A4861681422AE
S113225051434018001D00F0F3F800216068A268A3
S1132260904710BD04480160426041680029FCD1D8
S113227000207047AC2B0020A42B0020530D00201D
S1132280150D0020350D002000000000080000009E
S11322900101000001228A402C30802109050143FC
S11322A00A607047FEB50600346800BF76A0A1003E
S11322B040580190371D2C3002900068000137D53A
S11322C0BA68100034D021009620400090472FE0D7
S11322D0210068463A6890476846057830690928BD
S11322E008D3210068463A68904729006846007878
S11322F005020D433069112808D3210068463A6865
S1132300904729006846007805040D433069192870
S113231008D3210068463A68904729006846007847
S113232005060D430198456319210198FFF7B2FF93
S1132330029800688001CBD402980068800320D5FD
S11323400198856B1121FFF7A5FF2100E8B27A6897
S113235090473069092804D321002804000E7A68C4
S113236090473069112804D321002802000E7A68AE
S1132370904730691928DFD32100280E7A689047E6
S1132380DAE7F7BDF0B585B007000E00140000BF12
S11323903DA0B9004058009014212000FFF79CF89C
S11323A0201D0ECE0EC00C3E2760F0682061002F69
S11323B003D1802040012E490860009800F08DF878
S11323C0002501A805708581F1680291317C0172B4
S11323D0717C417201A9009800F05BF800282CD1AF
S11323E000988026F6040643224830600122012129
S11323F0009800F0AAF82048F900401805704460DD
S113240001221921009800F0EFF80122112100980F
S113241000F0EAF801221B21009800F0E5F800988A
S1132420456319210098FFF735FF01213800FEF7B5
S113243037FD0120C0433060002005B0F0BD00002E
S113244038B5046810A0A1004558002C07D10B48EA
S11324500068C0040BD500210020FEF721FD2800F0
S113246000F03BF8002C02D105480649086031BD54
S11324703C800448FFBFFFFFD02B00203C80044079
S1132480FFEFFFFF3C80044400C00240C907FC2268
S11324903BE038B505000C002078C1438803B8211F
S11324A049052943086000212800FFF7EFFF221D9A
S11324B00021280000F051F8002802D0FF2032301B
S11324C032BD627B217B280000F023F84048802144
S11324D0C90429430860002032BD10B504003D48FA
S11324E08021C904214308600120206001220121C8
S11324F0200000F02AF83848E0620020A060E06084
S1132500206120633548206010BD520502431160EC
S1132510704730B504686304DB0F04D02D4C80256C
S1132520ED0405432C604903B4246405044321608D
S11325301103B022520502431160002B04D0802104
S1132540C9014A030243116030BDC902AC235B05D3
S1132550034319609102A822D7E770B51568042DCA
S113256009D3112D02D30368DB0F04D1212D05D328
S11325700368DB0F02D1FF20323070BD53795B0654
S11325808024A40423401479A4068026F60434404D
S11325906D1EEE06F025ED053540890041180068F2
S11325A0C00FC8680CD00E4E064035432C4323435D
S11325B0907900068022520410401843C86005E058
S11325C0084A024015432C432343CB60002070BDCE
S11325D0FFFFFFCFFFBFFFFF00000A9A014000008A
S11325E0FFFFFF80FFFFFF8110B5036B01248C40C8
S11325F0A3438A401A43026310BD00008349406824
S1132600085C704738B5040008005A2C08D17F4D87
S113261001212954A34900F0F9FA5A20696888472E
S113262031BD80B579494968884701BDF1B586B0A7
S113263010200290002702A887809B4880680069C8
S1132640030098331E889949994A964201D00E4056
S113265001E0FF262436974D2C004034A6825B8887
S1132660934201D0194000E09349E182953000780B
S11326700107090F0F2902D10120A0741EE0A774DD
S1132680010716D50521217487498968096996319E
S1132690098804AA0B0AD3700B065B0F5370CB0690
S11326A05B0F93708907890F11714006400F1070FA
S11326B006E04007400F2074052801DB0420207445
S11326C0012001902800583000902B00012202A91B
S11326D00698C0B200F027F910202056052807D12B
S11326E00420207404A90698C0B200F0FBF807E0A7
S11326F075A18200101809180698C0B200F0F2F80B
S1132700A07C002806D00120607401210698C0B284
S113271000F06EFA0022D24300210698C0B200F005
S1132720E8F8002607E00023DB4300210698C0B246
S113273000F0E8F8761CF6B2320002988242F2D336
S1132740277008206060E38A220008210698C0B23E
S113275000F086F908210698C0B200F042FA277208
S11327600820E060A38A48352A0009210698C0B2EF
S113277000F02DF907B0F0BD10B504002348416006
S113278002216068A26890476068FFF74FFF00204D
S113279010BD10B504006068C0B200F08DF90021CE
S11327A06068A268904710BDF1B584B0170000249A
S11327B00D00404E30004C30029014E00820029985
S11327C008600834FA20800001900095029803897B
S11327D032004832092104984068C0B200F00EF972
S11327E0029800682D18BC4206D2381B0928E5D28D
S11327F0029908603C00E5E7002005B0F0BD80B513
S11328002E498000085800F095FB01BDC82B00201C
S1132810300000F08FFB70BD70B504002748A100A4
S11328204658306A71680A0405D5420703D520006A
S1132830FFF7E5FF70BD49042FD581072DD5204D45
S1132840A978002928D0697801291FD11D490140A0
S11328500AD08C210902014006D10121300000F088
S1132860C9FB0020687017E02878401E40B2002899
S113287000D50420287000BF13A0002169568A00E7
S113288051184118200000F02DF805E0200000F058
S1132890B6F92000FFF7CAFEBAE73168200000F05D
S11328A051F970BD6B110020282A0020FF07000099
S11328B0FFFF0000782A00202103000074F5FF1FA9
S11328C0C82A00200840000003070707030307077E
S11328D003030307070103050303010307050500B9
S11328E00300000080B5914A8000105800F0EEF912
S11328F001BD80B511008D4A8000105800F044FBE2
S1132900002002BD10B50C0011001A00874B800096
S11329101858002C02D100F017FB10BD012C01D176
S113292000F021FB10BDF7B506000F001C00B0003D
S113293001907E480199405800907D4D0C207043D1
S1132940291808980CC80CC102680A60102079493B
S113295008600999009800F089F9009800F06AF974
S1132960009800F096F93968009800F085FA002183
S1132970009800F015FB002120001030FEF70CFC3D
S1132980002120002830FEF707FC6B481F2101229C
S11329906A4B9B570B4001279F400760684B9B572E
S11329A00B4001279F4007609B4B9B5719408A406F
S11329B002606846007A002802D0009800F093FA7A
S11329C0002020606060019828188461F7BD30B54C
S11329D085B0840055480059554D2C19A469A1604F
S11329E054680394127801AC2271082201920022E7
S11329F0009201AA00F092F905B030BDF0B587B09D
S1132A000F0080004A4909188969029183490858CE
S1132A10019050680590107803A908710C20039068
S1132A200C98009003AA3900019800F077F904008B
S1132A3013D13900019800F047FA0D9E3100029835
S1132A401030FEF7C3FB0500032DF7D039000198C1
S1132A5000F042FA002D00D00524200007B0F0BD9C
S1132A6070B584B00C001D00800030490E58304908
S1132A7008188069446050680290107869460871AB
S1132A800F2000906A462100300000F09DF90028D4
S1132A9010D100902B006A462100300000F094F918
S1132AA0002807D1042000902B006A462100300042
S1132AB000F08AF904B070BDF8B50400A7001C4802
S1132AC0C519AE6956480068C0062BD530001030D1
S1132AD0FEF7BFFB28363000FEF7BBFB51481F2131
S1132AE00122514B1B570B4001269E400660134B9D
S1132AF01B570B4001269E400660114B1B570B4091
S1132B0001269E400660444B1B5719408A400260D0
S1132B100648C05900F0CEF80020A8611020C04338
S1132B20424908600020F2BD0000000074F5FF1F58
S1132B30D82B00203C80044800E100E079F5FF1F19
S1132B407AF5FF1FF1B588B008A800788100334AF0
S1132B5052580092364A51188E690C214843101875
S1132B6002900098006B0099896A014001910198D4
S1132B70002831D0706801240199C14021401FD040
S1132B8030002830FEF759FB7168009800F06BF9AB
S1132B9003AA7168009800F043F900280ED10025BB
S1132BA003AF07E008A801787819407A029A5268BE
S1132BB090476D1C387AEDB28542F3D30098806853
S1132BC0B0680199C1400C4003D010363000FEF7C4
S1132BD034FB019800990863009800F0ABF909B040
S1132BE0F0BD80B50D4A8000105800F06DF901BDAC
S1132BF080B50A4A8000105800F0D2F901BD80B5B2
S1132C0006498000085800F01CFA01BD084A0C234C
S1132C1058431018416070477BF5FF1F74F5FF1F80
S1132C203C80044080E100E078F5FF1F3C800444D0
S1132C30D82B002001210268120D0A4007D0994ABE
S1132C408B0603431A600268120D0A40FBD17047D9
S1132C500168C90F09D180210906FC2252050243EB
S1132C6011600168CA02D20FFBD070474903001DEE
S1132C70B4223DE101210268120D0A4008D14A063E
S1132C80E4235B0503431A600268520E0A40FBD139
S1132C90704710B50400FFF7EDFF200000F03AF98B
S1132CA0814820616061A061200000F025F90020C6
S1132CB0A06210BD38B50400FFF7DCFF00252565D0
S1132CC065602000FFF7C4FF656031BD38B50500BD
S1132CD00C0000F01FF9281D74498022D20402431D
S1132CE0116021784A07520FA1780B04E021C90230
S1132CF0194011436278D204E0239B0313400B4331
S1132D00E1780906194322799205C0231B04134074
S1132D100B438021090501430B60A9E0F0B50901CB
S1132D2040188030059900291DD000248460C460B7
S1132D3009E0C568B44607273E1BF6006746B7405E
S1132D402F43C760641C9568AC420CD20E5D042C02
S1132D50EFD28768B4460326351BED006646AE40C5
S1132D603E438660EEE74168514C0C404460416844
S1132D709B04504C1C400C43446001684E4B0B4078
S1132D80036001684D4B0B400360016893681B04AA
S1132D900B43036011680F2914D01C2906D1016864
S1132DA080235B030B4303600C2111600168444BD7
S1132DB00B400360016812681206F0231B051340E0
S1132DC00B4303600020F0BD10B5090140188030AA
S1132DD00168394C0C4004600168384C0C400460B4
S1132DE00168946824040C4304604168304C0C402E
S1132DF0446041689B042F4C1C400C4344601168A0
S1132E000F290BD001682E4B0B4003600168126838
S1132E101206F0231B0513400B430360002010BD72
S1132E2010B50901401880300168116089024168B9
S1132E3000D4890C516000218368CC00E340541A0B
S1132E402373491C0429F7D30421C3680C1FE4002D
S1132E50E340541A2375491C0829F6D30068000C72
S1132E601072002010BD09014018803000687047BE
S1132E70280000F041F831BD38B505000C0000F021
S1132E8049F81048284304600020002107E00A01A3
S1132E90AA188032106050609060D060491CA14232
S1132EA0F5D3E5E7FFFFFF7FFFFF0300F8FF000016
S1132EB0FFFF03E00000FC1FFFFF9FFFFFFFF0FF89
S1132EC0FFFFFFF00000301001228A4028308021EB
S1132ED0090501430A60704701228A40D143283022
S1132EE08022D20405E08021C901FFE7001DB82239
S1132EF052050243116070470021F022520502433B
S1132F001160F8225205024311600168CA01D20F10
S1132F10FBD170478021C905F82252050243116094
S1132F208908F0225205024311600168CA01D20FD8
S1132F30FBD070470721026A0A4000D00162704743
S1132F402800FFF7D9FF31BD70B504000D0016004D
S1132F50FFF7E0FFB00411490140A80020188822BF
S1132F60120181500CE070B504000D001600FFF74B
S1132F70D1FFB003800BA900611888221201885088
S1132F802000FFF7B9FF70BD38B505000C00FFF74E
S1132F90C1FFA004014901402961D1E70000FC1FE1
S1132FA038B505000C00032C02D1FFF7B3FF07E08E
S1132FB0042C05D180200006FC2149052943086022
S1132FC02800FFF7A7FF002C05D10020DC214905CC
S1132FD0294308600DE0281D012C02D108218C2210
S1132FE004E0022C05D180214901B022520502439C
S1132FF01160A5E738B505000C00032C02D1FFF7DA
S11330007BFF05E0042C03D12868400040082860B9
S11330102800FFF77FFF002C06D180200004DC216C
S11330204905294308600BE0281D0021012C01D12A
S11330308C2202E0022C03D1B0225205024311601B
S11330407EE70168802292040A43026001688A01D3
S1133050D20FFBD17047000080B508494868097851
S1133060002905D00649002907D0C046C04601BD45
S11330700449002901D0FFF715F901BDD02B002028
S113308000000000ED0D002080B5002000F002F8E3
S113309001BD0000F8B500BF5EA182008C58534901
S11330A002018B18E11C0A78802636051227174086
S11330B031430F7050211140102912D0A11C0D0072
S11330C0241D57060ED5500713D510202E433070FB
S11330D00020694608706846196888476846007881
S11330E02070F1BD012609780909314008D0164045
S11330F0EED0EF208021C904294308702078F1BD67
S11331002278010010005A689047F1BDF1B582B0F1
S11331100F0000BF3FA00299890044583348029928
S11331200901401839001022FEF792F94026304870
S11331300660A01C019000250570A01D009006707B
S11331400220E07001210298FDF7BAFE387B4000AE
S113315028492143087065710098057065700199CC
S113316070050843802101700670F7BD224800688D
S113317040060DD5802040002049086020480021E9
S11331800170204B197001714020C0431E49086032
S11331907047000030B514001EA2800015580800C6
S11331A0FA218900FDF760FE01001848FDF75CFE76
S11331B0002100E011004A1C13004343A342F9D349
S11331C0002905D10A225443844204D3012102E098
S11331D0202900D31F21AD1D0D482843017030BDA7
S11331E0024A00011018416070470000F42B0020CF
S11331F0348004480000B0103480044080E100E0D2
S1133200026006400060B6503480044440420F001F
S113321000001810006006402E4940680818007C21
S113322070472D494A68002A08D00A681378037049
S1133230521C0A604868401E4860704700210170B3
S1133240704780B523494969884701BD38B50400F2
S113325008005A2C09D11F4D01212A1811741F4945
S1133260FFF7BEFF5A206969884731BD10B50400D5
S11332701849FFF74BFFFDF756FF322201002000EB
S1133280FFF788FF10BD10B50400124841611449CE
S1133290896809697D310978FF2900D00173022109
S11332A06068A26890476068FFF7E0FF002010BDE7
S11332B010B504006068FFF759FF00216068A26838
S11332C0904710BD04480160426041680029FCD168
S11332D000207047DC2A0020182C00208B1D0020C1
S11332E0282A002070B582B004000E001500002EBC
S11332F001D1002076BD6A4600F07DF8002806D191
S11333002A0031002000009B9B685B68984776BDCB
S113331070B582B004000E001500002E01D100200B
S113332076BD00F08BF8002801D05A4876BD6A4675
S11333303100200000F05FF800280ED12A0031008F
S11333402000009B9B689B6898475349002802D142
S1133350009A926800E000220A6076BD38B5040045
S11333600D006A4600F047F8002815D100988068DF
S11333704069002801D1662032BD2900200000F0F8
S11333805DF8002801D0434832BD29002000009A8E
S113339092685269904732BD002DFCD1002032BDA5
S11333A070B582B004000E001500002E01D100207B
S11333B076BD00F043F8002801D0364876BD6A4651
S11333C03100200000F017F8002806D12A0031004F
S11333D02000009B9B68DB68984776BD38B50024C5
S11333E000202D4D2968002904D009690A0001D064
S11333F088472C6032BD70B50B002649274C6468A1
S1133400002B18D0002A16D000E00C34002C12D067
S11334102568002D05D16668002E02D1A668002E0D
S113342009D0A842F1D365688542EED3C018401E86
S1133430854200D300211460080070BD30B5174ADE
S113344092681269536B002B14D04118491E002353
S1133450DC0014195C3465682468002C01D1002D4B
S113346005D0854203D3A14201D3012030BD5B1CAA
S1133470022BEDDB002030BD10B50848446804E0A1
S11334800068010000D080470C34A0680028F7D100
S113349010BD0000D8270000202C0020282A00207E
S11334A010B58E48806804696C343022F02189009C
S11334B02000FDF7CDFF20688949884204D0FF220F
S11334C030212000FDF7E8FFFDF749FE002010BD84
S11334D0F8B5824DA86804694B20E0700127A770F5
S11334E00520607027705020E071A7710220607180
S11334F0002626715420E072A77266722672276332
S113350067637848A0632200103204212800203029
S1133510FEF72CFC22001432012128002030FEF793
S113352025FC22001832002128002030FEF71EFC62
S113353022001C32022128002030FEF717FC220052
S11335402032032128002030FEF710FC22004832EC
S1133550052128002030FEF709FC22004C32062108
S113356028002030FEF702FC2200503207212800F8
S11335702030FEF7FBFBE66526665B4860665B4829
S1133580A0666869E66007E07C22A35C0B4202D077
S1133590E2681143E160761C182171434158002907
S11335A0F2D1534801686164416821648068E06332
S11335B068680C300168616241680068081A401C40
S11335C0A06267650020F2BDF8B517001E00434AEB
S11335D0916809690424474D401E17284FD801A358
S11335E01B5C9F4416262A2E3236429898464E5C1F
S11335F04A3A3E62687E84888C909894002E00D06B
S11336003460002F00D039600020F2BD0C31F5E7A2
S11336101031F3E71431F1E71831EFE72031EDE72A
S11336202431EBE72831E9E73831E7E73031E5E7E2
S11336303431E3E7D0694169496988472860290042
S1133640DCE710245C31D9E72B480068F6E76946CB
S113365020321000FEF7B0F9684600780028EDD05B
S11336600120EBE70C243C31C8E74831C6E74C3174
S1133670C4E75031C2E75431C0E70831BEE71F4800
S1133680F2BD02001548806803691D48521E062ACF
S11336901FD9093A0CD0521E012A1AD9921E0DD0F4
S11336A0521E032A15D9083A0ED0921E11D012E0E8
S11336B0002901D001290FD1196308E0002901D0A4
S11336C0012909D1596302E0032905D25965002073
S11336D07047401E7047801E70470000282A002053
S11336E06B6366677F0D000000F0FF1F872F0020CB
S11336F058800440E42C0020248004403C2800002E
S11337003E28000010B501009B4A10008830036871
S11337105C1C0460D2182032117001688906890E7D
S1133720016010BD0020704780B500F0C6F802BDEE
S1133730FAB583B01700002901D0002F01D104206D
S11337402CE000263E608C4C2000903000904670A7
S113375000F0B3F8002821D101AD02E0A22000F06E
S113376082F820212000FDF7B7FE6846027C210084
S113377001A800F003F9002801D03E600EE021000A
S113378001A800F077F9A9888142E7D101200099C6
S113379008700398046068883860002005B0F0BDA4
S11337A0F2B582B015001F00002944D0212D42D269
S11337B000F083F800284DD16F4C20009130002692
S11337C00178002900D006702000603000905A2053
S11337D000990870A42000994870002F02D0A520F9
S11337E000994870200062300570290A4170002D4C
S11337F005D02A00029920006630FDF715FE21004D
S11338006631009800F036F964342070000A607064
S1133810A91D009800F064F800281BD101AC01A890
S113382000F016F9002815D16078A12811D0A2283B
S113383005D0A32801D00420FEBD8048FEBD009819
S11338404188891D00F04CF8002803D16078A22833
S1133850E5D00020FEBD7A4801218170002101706D
S113386070472020704780B569465A220A70487014
S11338700120744908700221684600F031F802BD45
S113388010B582B004006E48017842780A4080780E
S1133890024210D1684600BF84A10A880280022235
S11338A06946200023695B689847082280A12000AC
S11338B023695B689847644816BD80B56048002159
S11338C00278002A02D00170A12004E08278002A44
S11338D004D08170A320FFF7C6FF02BD002002BD03
S11338E080B503005948C0690A00190003695B6880
S11338F0984702BDF2B584B0070015000024FDF717
S1133900C6F902AA03C2FA20800045432800FDF745
S1133910CEF900216A4603C2174E350088350DE002
S11339206868296888420CD03018203000783855EF
S1133930641C6868401C8006800E68600498844299
S113394016D0684603C8002901D10028E8D0FDF745
S11339509EF902000B0002A803C8121A8B416846A4
S113396003C88B42DCD301D88242D9D3052000E0BE
S1133970002005B0F0BD0000E82C002070B582B036
S113398004000D00160000F063F8002855D160789B
S1133990A62804D12D48C069FFF772FF76BDA42183
S11339A0002E00D0A521884201D0012076BD14222A
S11339B002216846FFF79EFF69460988A170090A3B
S11339C0E170002839D1A078E1780906090C084390
S11339D0212801DB202004E0A078E1780906090C05
S11339E00843A070000AE070142202216846FFF721
S11339F081FF694609882171090A617100281CD177
S1133A00A178E2781206120C114316D0A178E0785E
S1133A100006000C01432800FDF75CFDA078E17866
S1133A200906090C0843A178E2781206120C114326
S1133A300A2242432800FFF75DFF76BD12270000EB
S1133A40782D0020792D002013270000282A00203B
S1133A5010B50400002201212000FFF74BFF0028CD
S1133A6007D120785A28F5D10A220121601CFFF7DA
S1133A7041FF10BD30B583B004000D006846FEF769
S1133A807FFB042221006846FEF77DFBA278E078E4
S1133A900006000C024329006846FEF774FB01A9E6
S1133AA06846FEF78BFB684680883EBD5AA7000037
S1133AB0000201500000AAEA004800470126002045
S1133AC004480549C1810549C181E92149000180B2
S1133AD0704700BF0020054020C5000028D9000021
S1133AE00021C1708170017004224270817241749E
S1133AF07047F7B504000025ED43002000903F48CF
S1133B000360019802990901FDF7AEF906000198D6
S1133B103101FDF7A9F90299884201D2761E00E02D
S1133B2013D00127019840007101C919FDF79CF9D0
S1133B300299814201D2401A00E0081A854201D359
S1133B40050000977F1C212FECDB08466421FDF75C
S1133B5077F941000818854228D22948844206D1C1
S1133B608020400127490860800827490860E078E0
S1133B70F3210140E1700020A070E0202178014091
S1133B80F204D20E0A4322706670A17A08400099AA
S1133B900143A172C0206074E07820210143E170E8
S1133BA0E0780C210143E1700020FEBD0120FEBD40
S1133BB016480178890600D4704780B5C0780F494B
S1133BC00968884701BD02791206FCD5C1717047A6
S1133BD038B504000A4DAC4208D1802149010C4A91
S1133BE011600C490A680B0D13430B60FFF778FF53
S1133BF0AC4202D108480949086031BD7C2D00203F
S1133C0000A0064000E100E03480044804A006401F
S1133C1080E100E034800440FFFBFFFF3480044473
S1133C2038B5040069466068FCF7A5FF00281FD179
S1133C306068FDF784FA01006068012801D0274814
S1133C4000E02748274D2B68009AFFF752FF002811
S1133C500BD102216068A26890475A2029688847DE
S1133C60A62029688847012032BD6068FCF766FFFA
S1133C70002032BD10B504001A48016001216068BB
S1133C80A26890476068FCF759FF002010BD10B58A
S1133C9004006068012801D0104800E01048FFF7D4
S1133CA097FF6068FCF763FF00216068A268904793
S1133CB010BD70B506000C00150003E00848097833
S1133CC0FFF781FF2800451E002806D02100641C50
S1133CD070680128F2D00148F1E770BD00A00640E9
S1133CE000B00640802D002000F00BF8002801D021
S1133CF000F00AF80020C046C046FDF78CF9FDF735
S1133D00D1F901207047000010B5074979441831F2
S1133D10064C7C44163404E0081D0A688918884758
S1133D200100A142F8D110BDA8010000B4010000B7
S1133D3094F5FF1FF42A00203CF6FF1F682A002098
S1133D4000000000C4F5FF1F000000000000000098
S1133D50000000000000000000000000000000005F
S1133D60000000000000000000000000000000004F
S1133D703D0000204900002068F4FF1F642B002050
S1133D80000000000000000000000000000000002F
S1133D90000000000000000000000000000000001F
S1133DA0000000000000000000000000000000000F
S1133DB000000000000000000000000000000000FF
S1133DC000000000000000000000000000000000EF
S1133DD00000000000000000000000004D11002061
S1133DE0751100206B1D0020951D0020B51D0020BD
S1133DF010000000000000000000000000000000AF
S1133E00FFFF010044F5FF1F00F0FF1FFF2F0020FC
S1133E10ACF5FF1F00000040FFFF0740F0F4FF1F58
S1133E2000F00F40FFFF0F40F0F4FF1F000000E020
S1133E30FFFF0FE0F0F4FF1F00000000000000008F
S1133E4000000000000040010000000030B504E064
S1133E5014780470401C521C491E002919D0C5074F
S1133E60F6D40129F4D0850701D4042904D2148896
S1133E700480801C921C891E8B08EED09B00C41801
S1133E8003E015680560001D121DA042F9D3C91A8C
S1133E90E3E730BD80B513000200180000E080B5F0
S1133EA0FFF7D4FF002002BD10B50C001100012360
S1133EB02200FEF727F910BD80B50020FEF7ACFC08
S1133EC001BDC046C046C046C046FFF70DFF000016
S1133ED02FD5FFFF48020000402B00200000000007
S1133EE0124207D08B0706D00B78491C0370401C84
S1133EF0521EF7D87047830706D00B78491C03700D
S1133F00401C521EF9D1704770B4103A03D378C9DB
S1133F10103A78C0FBD2530701D318C918C001D591
S1133F2008C908C0D20704D30B880380891C801CED
S1133F30002A01D50B78037070BC704780B5114816
S1133F401149086011491248421A1248884203D0A4
S1133F50002A01D0FFF7C4FF0F481049091A01D005
S1133F6000F04AF80E490F48421A02D00E48FFF7F3
S1133F70B7FF01BD0020C0430C4908600C4908602C
S1133F80704700000000000008ED00E000000000A1
S1133F90000000000000000000000000000000001D
S1133FA07440000074400000002E002080E100E016
S1133FB080E200E0094205D0830705D00270401C6E
S1133FC0491EF9D170470000130030B414001500E5
S1133FD0103902D310393CC0FCD2490700D30CC0BD
S1133FE000D504C0890002D30280801C002900D5BA
S1133FF0027030BC704700000022DBE70022E3E7D8
S1134000004800470140000004480549C1810549B2
S1134010C181E92149000180704700BF00200540AB
S113402020C5000028D9000000F00BF8002801D0BA
S1134030C046C0460020C046C046FCF739FA00F02E
S113404002F80120704780B500F002F801BDFEE7D8
S11340500746384600F002F8FBE700002021090378
S113406026311820ABBEF9E7C046C046C046C0465C
S1074070FFF7DAFF79
S9030411E7
