S0180000746F7765725F626F6F746C6F616465722E7372656351
S1130000C0F5FF1F11040000370B00008915000024
S113001000000000000000000000000000000000DC
S1130020000000000000000000000000370B00008A
S11300300000000000000000370B0000AB0A0000C5
S1130040353C0000353C0000353C0000353C0000E8
S1130050353C0000353C0000353C0000353C0000D8
S1130060DD310000353C0000AD310000353C0000BE
S11300702D3D0000353C000041400000353C0000AF
S1130080353C0000353C0000353C0000353C0000A8
S1130090353C0000353C0000353C0000353C000098
S11300A0353C0000353C0000353C0000353C000088
S11300B0353C0000353C0000353C0000CF0D00000D
S11300C0353C0000353C0000353C0000353C000068
S11300D0353C0000353C0000353C0000353C000058
S11300E0353C0000353C0000353C0000353C000048
S11300F0353C0000353C0000353C0000353C000038
S11303F0353C0000353C0000353C0000FFFFFFFFAA
S1130400FFFFFFFFFFFFFFFFFFFFFFFFFEFFFFFFF9
S113041072B60E480E49886000220023002400258D
S113042000260027B846B946BA46BB46BC4609482A
S1130430854609488047094880470948804762B68D
S113044000200021074A9047FEE70000000000005A
S113045000ED00E0C0F5FF1F3D3C0000C1130000AB
S1130460F91300000D100000E91600000000000060
S1130470FB160000000000006F1700006D1800005C
S11304804F170000C31700003D19000000000000D2
S1130490C9190000000000000D1700000000000052
S11304A000000000000000005919000000000000D6
S11304B00000000000000000AD1600000000000075
S11304C03B170000000000000000000000000000D6
S11304D00000000000000000000000000000000018
S11304E00000000000000000000000000000000008
S11304F0000000001D4000002740000031400000C3
S1130500000000000000000019230000692300001F
S11305109B2300000000000000000000B92300003D
S1130520000000000000080000001000000020008F
S113053000004000000080000000000100000002F4
S113054004000240991A0000C51A0000071B0000AD
S1130550091C000000000000A71C00005127000037
S1130560CD280000E7280000000000000000000083
S1130570FD28000000200340004002400E0E0E0E35
S11305806D330000DB330000053400000000000080
S11305900000000019340000CD350000393400009B
S11305A065340000F534000031350000B13400003A
S11305B0C11F0000C91F0000D51F0000E51F000077
S11305C00000000000000000010000000000000026
S11305D0530D000070060000800600005406000061
S11305E002000000000000007B0D000080050000F8
S11305F09005000054060000040000000000000004
S11306009B0D0000080500001805000054060000BA
S11306100800000000000000B70D00005C050000A9
S11306206C050000540600000000000000000000FB
S113063000000000000000000000000000000000B6
S1130640F53500002336000035370000F33700008D
S113065064F2FF1FA1380000AD3800001D3900000E
S1130660D3390000A5380000DF39000081380000CC
S11306709D3D0000F13D00000B3E00000000000025
S1130680000000002F3E00000021C943026F8A428F
S113069005D1426F8A4202D1826F8A4201D02C492D
S11306A000E02C49C1627047F0B585B00125684669
S11306B00570294881680C69E16A264A914243D051
S11306C000216A46117027006C37B968002939D0B7
S11306D03F1D3A684B42934234D3406803689A42C0
S11306E030D340685118491E88422BD326006C36FB
S11306F001A800F03BF830000C30801B174940186B
S1130700061D7A683968B1420BD28B18984208D218
S1130710421A01A800F030F8386879684018821B42
S1130720310001A800F028F803A901A800F04AF854
S11307300398A16F884201D0094804E06846057017
S1130740084800E00848E0626846007805B0F0BD5B
S1130750A2280000A328000000F0FF1FC0A300008F
S1130760A1280000A0280000A42800000021C943FB
S113077001600021416070477FB504000D00160040
S1130780684601210170216801910D4902910021FF
S113079081818173002E0DD000F08FF8694600200E
S11307A000F0AFF832002900002000F0C7F80190F3
S11307B000F089F8019820606068801960607FBD4E
S11307C0B71DC10438B504000D0020798007800FDF
S11307D008D0694600220A6004210A1A69462000EA
S11307E0FFF7CAFF20682860002000F098F831BDA8
S11307F070B505000C003A4E03CE083E002907D11F
S1130800002805D1FA20800000F047F9002103C632
S11308106C7000230020287000212A00083203C2D3
S11308202B6170BD70B504000E00002560780028AF
S113083007D072B66078401E6070257062B60020E2
S113084070BD002E13D02078002812D000F015F9C6
S1130850220008320CCA801A9941214A0CCA00F0BD
S113086035F92169814212D272B6257062B602202E
S113087070BD0020C043864209D072B601202070AA
S113088062B600F0FAF82200083203C2266103209F
S113089070BD4178FF2901D10120704772B64178BB
S11308A0491C417062B6002070470020704772B640
S11308B000200C49086062B6704772B609480168A6
S11308C0491C0160704707480168022903D20021CE
S11308D0016062B670470168491E016070470000FC
S11308E050F1FF1F48F2FF1F49060830E422520569
S11308F0024311607047890708304B4A0243116074
S1130900704780B5002901D1012002BD002803D120
S11309108022D202454B1A6000F058F802BD4449C7
S113092082008958434A4A6000228A60002804D120
S113093041480168414A0A4002607047F8B50C001A
S113094015003B4980000E583000083036490143F9
S11309500F68FFB2002F05D0022F07D004D3032F56
S113096006D00EE0032104E0022102E0012100E0B0
S113097000213000FFF7BFFF03E020783070641CD3
S11309806D1EA00706D0002DF7D103E0206830606B
S1130990241D2D1F042DF9D2012D0BD00CD3032DB2
S11309A001D004D308E020883080A07803E02088B8
S11309B0308001E020783070300000F0BDF8040091
S11309C039003000FFF797FF2000F2BD70B50C002E
S11309D001D1012070BD164980000D582E00083643
S11309E020780006E021490531430860217B280076
S11309F0FFF781FF607B0007114931430860A07B4A
S1130A008006E821490531430860A0686860012137
S1130A102800FFF769FF6068286000212800FFF7BD
S1130A2063FF002070BD00000000081F3C800448E4
S1130A3074050000211000003C800440FFFFFBFF10
S1130A400000081E10B51B4C002020601A491B4AE8
S1130A504A6088600720086019480068C000194986
S1130A6000F09EF8002800D10120606010BD1248FB
S1130A70016806229143016070470E490A681248D2
S1130A800068C3431802000A0B689A42F6D1130A9D
S1130A9012060021801859417047064949684843A5
S1130AA0C008704706480068704702480168491C3E
S1130AB00160704758F2FF1F10E000E0FFFFFF00E5
S1130AC024F1FF1F40420F0018E000E0124224D03E
S1130AD0994228D970B500251B4202D00C00002190
S1130AE009E00024012649186441944200D3A41A61
S1130AF07641F8D33100012601E0764109D200188D
S1130B0064416D41A41A9D41F7D2A4185D41B61900
S1130B10F5D3300022002B0070BD1B42D8D108B59C
S1130B2000F06EF808BD01D19042D3D202000B0050
S1130B30002100207047FEE7002102000832E02374
S1130B405B0513431B68DBB2002B02D0012B0CD0D6
S1130B500CE0084911430968C9B2022901D00329EC
S1130B6001D1418802E0018800E001680800704773
S1130B70000000000000081ECA0F00D04942031004
S1130B805A400DD004B500D3404200F009F8009A51
S1130B90D20701D34942124200D5404204BD0000AD
S1130BA0094214D088420FD30122030C01D100045E
S1130BB01204002300185B418B4200D35B1A52419C
S1130BC0F8D319001000704701000020704708B5E1
S1130BD000F016F808BD30B4012100220368001D9E
S1130BE0002B0BD00468001D0C4202D04D466D1E34
S1130BF064192260241D1B1FF0D0FAE730BC704733
S1130C007047000038B50400424D0023AB6100205A
S1130C10002103C5083D2A00083203C22A0010320D
S1130C2003C22B623C48FFF738FFE8613B492000D0
S1130C3000F0DDF831BD80B500F0F0F801BD70B50D
S1130C400C00344DA96907291CD1296A884219D19D
S1130C50FFF728FF9626F60001010A1A03CD0300C8
S1130C6003CD19181000FFF79BFF0A2148433100F8
S1130C70FFF796FF401D0A21FFF792FF70432060A3
S1130C80002070BD012070BDF1B582B0FFF7F5FE04
S1130C9004000D001F4EB7697F1CF069002100900D
S1130CA001913000103003C82B00221A8B410098A8
S1130CB00021994203D801D3904200D20127B761A1
S1130CC0012F06D0042F09D0052F0FD0072F11D0E4
S1130CD01CE030C6083E0298306217E00CCE083E95
S1130CE02900A01A994103C6083E0FE030000830DD
S1130CF030C00BE0300008300CC82900A01A99411C
S1130D003200083203C2029800F088F8103630C668
S1130D10F7BD000028F1FF1F80380100890C000096
S1130D2010B58207D30EFF249C40E2438907090EC5
S1130D309940030004D544481B071B0F083B00E0FF
S1130D4042489B089B00C01803681A401143016085
S1130D5010BD002810D13E4800290BD0022907D02D
S1130D600AD28021490001603A483B490860704733
S1130D70C021890001604160704700280CD13748C8
S1130D80002902D0022903D07047016041607047F6
S1130D908021890041600160704700280AD13048F1
S1130DA0002903D0022905D1802189000160416016
S1130DB08160C1607047002808D12A48002903D007
S1130DC0022903D18021890041600160704710B578
S1130DD0254C2068C101C90F08D0244801680800C7
S1130DE004D0002088470020C043206610BD10B501
S1130DF00C00002811D101211F20FFF791FF802052
S1130E0000061B490860184801681A4A0A40A021D4
S1130E100903114301601548046010BD002800D087
S1130E20704780B5802000061349086000211F2008
S1130E30FFF776FF0C4801680E4A0A400260002062
S1130E400A49086001BD00001CED00E000E400E078
S1130E5040A01454FFFFFEFF54F00F4400A01454AC
S1130E6040D0145460D0145440A0044060F2FF1FDA
S1130E7000E100E0FFFFF0FE80E100E0002807D180
S1130E808020C000012901D1024900E00249086024
S1130E90704700BF00E100E080E100E0002807D1D6
S1130EA080204000012901D1024900E00249086084
S1130EB0704700BF00E100E080E100E038B50500C4
S1130EC00C00002000F0EAF86C4804604560A021A2
S1130ED009026B4A1160016881F3088881F309886B
S1130EE040688047002000F0D9F831BD6549896821
S1130EF0096900280DD00022D243904209D0624AE9
S1130F00904206D00A69904203D34B69D2189042AA
S1130F1008D34A6A904207D3896A511888428041AB
S1130F20C00F70470120704700207047F0B585B0AE
S1130F30544EB06804696C34544D09E0217C01427C
S1130F4005D0686981692800EA68526890471835B5
S1130F5028680028F2D10027FA208000FFF79DFDC1
S1130F600500A0200002416800910068019000F093
S1130F70F1F800282DD10098FFF7B8FF002828D0F9
S1130F80FFF792FB002824D0B06800698A3000780B
S1130F90C00703D401990098FFF790FF678A3C4883
S1130FA0874200D13B4F6F43FFF767FD02AA03C29C
S1130FB0002F0ED0FFF761FD02AA0CCA801A9941D6
S1130FC00023994201D8B84203D301990098FFF74E
S1130FD075FF2E4D00E0183528680028E8D0280059
S1130FE0E968096888470028F5D0002DE0D0274C2F
S1130FF006E0A54203D02000E168896888471834D8
S113100020680028F5D1280005B0F0BD38B5FFF7F9
S11310104EFC00F075F81B4CA06800688047002067
S113102000F0D6F8FFF70EFD2000203000F046F95E
S1131030206800688047A06840688047FFF776FF13
S1131040E0610169002903D009680A0000D08847DB
S1131050E0694169002903D009680A0000D0884783
S1131060E06800688047E569E06840688047E868B0
S1131070C1680800F8D028008847F5E758F1FF1F39
S113108008ED00E000F0FF1F11040000C805000097
S1131090FFFF0000881300007047000070B50500D2
S11310A00024022D04D0002000F074F9012D0ED08C
S11310B0002605E0C16889680A0000D08847761CCC
S11310C00D4818217143401801680029F2D1002D00
S11310D00DD1FFF7F2FBFFF7CAFC00F08DF90748CA
S11310E00460012000F074F800F014F862B6BFF355
S11310F06F8FBFF34F8F70BDC805000008ED00E08F
S113110080B500F099F928480168F82292010A4351
S1131110026001BD24480168244A0A400260704705
S113112000B523480168234800684903490FFFE7D5
S1131130491CFFF735FD00BD80B5002802D0012809
S113114003D005E01B48006802BDFFF7E9FF02BDBC
S1131150002002BD80204000174908608020C04361
S1131160164908601320164908600020FA21490036
S1131170144A12681306DB0FC018491EF8D1FA2866
S11311808041C00F704710480068000E000708D166
S11311900E48806800697C21415CF7220A407C305B
S11311A0027070470000000038800440FFC1FFFF58
S11311B04480044024F1FF1F1CB0145494F00F44E5
S11311C01CB0044890F00F402480044000F0FF1F3E
S11311D0F8B52449244C00283ED1206808602348EF
S11311E0806800696C30A0277F04017FC90708D597
S11311F038001F490968491CFFF7D2FC1D490860E3
S1131200F1BD407FC1430D072D0F6D1C380029002F
S1131210FFF7C6FC060018488642F6D22068400351
S1131220470F7F1C009600E07F1C30463900FFF713
S1131230B7FC12498842F7D2012D01D1092F0FD2F0
S11312406D1E28077F1E3904E022D2020A400243A1
S1131250226008480660F1BD012801D108682060B9
S1131260F1BD00BF4CF1FF1F4480044000F0FF1F9C
S113127044801C5E24F1FF1FC168780441787D011D
S1131280002801D104207047C069002804D00068F8
S1131290022801D1002070476D20704710B5002846
S11312A001D1042010BDC469606800F0E2F8A068B0
S11312B000F063F802202060002010BD10B5040087
S11312C001D1042010BD2248224909680901090FEF
S11312D04900405A010301D1642010BD0020206060
S11312E061600121A160C902E1601B498A0D0B788C
S11312F09A406261C978A16120612000FFF7C0FFB4
S1131300002804D01548E0612000FFF7C7FF002043
S113131010BD002801D1042070475B1E194201D181
S1131320134001D0652070470368994204D3406894
S113133018188918884201D2662070470020704727
S11313400749884201D06B20704700207047000095
S1131350200500004C8004402800024050F0FF1F8C
S11313606B66656B01688022D2000A430260BFF39A
S11313706F8FBFF34F8F7047704710B504000C494F
S11313800C48421A491E200000F0A4F8641C0A48C4
S1131390046010BD38B504002000FFF771FF05009C
S11313A0002D03D1054804490968884731BD000070
S11313B06513000079130000B4F1FF1F0C3000F036
S11313C080B511481149086011491248421A12485F
S11313D0884203D0002A01D000F07CF80F4810495D
S11313E0091A01D000F0CCF80E490F48421A02D075
S11313F00E4800F06FF801BD0020C0430C4908609E
S11314000C490860704700000000000008ED00E08F
S1131410AC3E0000D43F000000F0FF1F28F1FF1F86
S1131420BCF3FF1F6840000068400000BCF3FF1FCE
S113143080E100E080E200E00848817804290BD1D3
S113144001789F220A400270FF218278012A01D18B
S1131450034A1278491EF8D17047000001E00740A2
S113146002D007408021017002780A42FCD0704704
S1131470704710B5040013491348421A491E20004E
S113148000F028F8641C1148046010BD10B5104C1D
S113149070212170FFF7F4FE002811D120000B49C0
S11314A0096888472078810601D5672010BDC106E8
S11314B001D5682010BDC00701D5692010BD0020EA
S11314C010BD00006514000071140000B8F1FF1F86
S11314D000000240124207D08B0706D00B78491C4B
S11314E00370401C521EF7D87047830706D00B7850
S11314F0491C0370401C521EF9D1704770B4103A55
S113150003D378C9103A78C0FBD2530701D318C962
S113151018C001D508C908C0D20704D30B880380BA
S1131520891C801C002A01D50B78037070BC70479D
S1131530094205D083070BD00270401C491EF9D123
S1131540704700001206130A1A43130C1A4300BF13
S1131550130030B414001500103902D310393CC004
S1131560FCD2490700D30CC000D504C0890002D3C3
S11315700280801C002900D5027030BC7047000036
S11315800022D5E70022E3E7BFF34F8F0248034967
S11315900860BFF34F8FFEE70400FA050CED00E08E
S11315A00020AF49C968C96808607047FEB50026C5
S11315B000206A469670AA4CE7697D69002D74D0B4
S11315C0E168C9680A68012A59D000230A00083270
S11315D0091D38006D68A847002805D0A149884234
S11315E002D0491C884260D1E268D1688B68002B24
S11315F05BD002934868019000786B461870684687
S11316000078002808D068460078122804DA926826
S1131610C0001018083800E00020086201270028E4
S113162021D0006800281ED000A9491C20002030C9
S113163000F018FA050017D168464078002809D050
S1131640E720400169460978491EC840384001D165
S1131650854D09E002990198E268D268126A12681D
S11316609047002007E0B44D68460178280000F058
S1131670B2F9280019D1E168C9680F60FEBD096A92
S113168000290DD04968080003D000A8801C8847B1
S113169000E00020002803D0E168C9680E60FEBDA8
S11316A069468978E268D2681160FEBD80B5017828
S11316B0002000F090F96A48C069416909698847C7
S11316C00220FFF7EBFCBFF34F8FA148A14908604C
S11316D0BFF34F8FFEE780B514216148C068C0682E
S11316E00C30FFF74FFF01BD10B5040000F003FB01
S11316F0FFE7217800F06FF910BD10B50400A16870
S11317006068574A126852699047F2E77CB5002432
S113171001940094524D6B4601AA8168C9B2406895
S1131720C0B2AE68B668B047E968C9680C61009990
S11317308A08019900F057F973BD10B50400A16837
S11317406068C0B2464A9268D2689047D1E710B543
S11317500400FFF7C0FF4248C068C068A168016187
S1131760616841610421017721780020C2E710B546
S11317700400FFF7B0FF3A48C068C068A16801617F
S11317806168416103210177A168002000F03FF9FD
S113179010BD38B50400324DE868C06800214161CD
S11317A00161007F042805D1286800698047002C66
S11317B000D10400E868C068017F200000F00BF944
S11317C031BDF1B584B0264DE868C06800240169D4
S11317D0002905D1049804700020FFF7DAFF3CE0EB
S11317E00121049A11700769406901900094E86925
S11317F001236A4602A946697668B047060004D008
S1131800E8694169C96888471CE00098002801D14B
S1131810144818E0B84200D938000090029A0146F2
S113182001982B689B689847060001980099401816
S1131830019000983F1A05D0002E09D0E86941694B
S1131840C96888473000FFF7A4FF0498047004E0D7
S1131850E868C068076101994161002005B0F0BDE6
S113186000F0FF1F1227000011270000F1B58CB013
S1131870794FF868C06800250169002905D10C98E2
S113188005700020FFF785FF52E001210C9A1170CA
S1131890016902914469C168027F029B212B00D334
S11318A020230193002915D0019A04A8FFF712FE02
S11318B002980199401A0290F8690123019A04A937
S11318C04669B668B04706000298002825D0002E65
S11318D029D022E0019961180391032A06D104AAB0
S11318E0019920003B685B6898470CE0102A01D0FE
S11318F00C46DDE7407F0090019B04AA21003800DC
S1131900203000F07BFA0600039CD1D0F869012353
S1131910002204A94469A468A0473000FFF739FFF6
S11319200C98057004E0F868C0680299016144618C
S113193000200DB0F0BD00001027000010B5040019
S1131940E268A1686068444B1B68DB689847D0E68E
S11319500400FA050CED00E07CB506007068009008
S1131960B0680190F0683D4C206000253A49496810
S11319700C31002807D00A68904203D34968491CF7
S1131980814200D204250098FFF7B0FA002800D164
S113199004253178280000F01EF8002D13D100989A
S11319A060600020FFF77AFB0198A060206800289F
S11319B003D080F3088880F30988A06861688847A9
S11319C00020FFF76BFB73BD10B50400211D2448F4
S11319D000F05EFA8DE610B584B06A46A023137059
S11319E00023537028E030B589B06C46A7232370D8
S11319F000236370A370551CE570019004E0980007
S1131A000D58201885605B1C9342F8DB04E010B588
S1131A1084B06A46A3230BE00F48C0690023E17831
S1131A208A00121D69464469A468A04709B030BD04
S1131A30137001235370002393700223D370019019
S1131A4002910548C06900230C2269464469A468D0
S1131A50A0471FBD0000000000F0FF1F84F1FF1F1E
S1131A6020F0FF1F002801D0002901D10420704775
S1131A70084800788207920F022A01D1002006E06C
S1131A80C0220240802A01D1012000E00220087017
S1131A90002070470200024038B5C04C65682A0037
S1131AA004212000203000F019FA6A460121203474
S1131AB0200000F013FA286800994018401E68605E
S1131AC0002032BDF8B504000D001600B348416B88
S1131AD04A4211002140631A5B195F423A40534263
S1131AE01A006B46203000F01BFA00280AD1684621
S1131AF00078002801D06C20F2BD320029002000BB
S1131B0000F062FAF2BDF5B589B00E00B0088000AD
S1131B100490371AB64CA0680069056B002D00D0FC
S1131B2001250020C0430590002F06D03A000A98F2
S1131B300499411805A8FFF7CDFCFEF7BEFE03AAE1
S1131B407042032188434142099800F029F90600B4
S1131B5002D0FEF7B8FE52E06846007B002800D0B1
S1131B60002509980499401808900498002808D082
S1131B700B460A9A09992000203000F03BFA06002F
S1131B8009D1002F07D0042305AA0899200020308A
S1131B9000F030FA0600FEF796FE002E2FD12D0637
S1131BA02FD0FEF78AFE0498002811D006A80290D0
S1131BB007A80190A0680069406DC0B200900A9B1C
S1131BC0049A09992000203000F044FA060012D14A
S1131BD0002F10D006A8029007A80190A068006901
S1131BE0406DC0B2009005AB042208992034200057
S1131BF000F030FA0600FEF766FE002E01D0300039
S1131C0000E000200BB0F0BDF0B589B00400784FBF
S1131C10B8680069006B002800D001200590049288
S1131C2048420321884341420D0003AA200000F0EA
S1131C30B7F8060032D16846007B002804D00020A3
S1131C40059001E0241D2D1F002D29D0FEF735FE3F
S1131C50042304AA21003800203000F0CBF9060048
S1131C60FEF731FE002E19D105980028EAD0FEF7C0
S1131C7024FE06A8029007A80190B8680069406D88
S1131C80C0B2009004AB042221003800203000F0E0
S1131C90E1F90600FEF717FE002ED3D0300000E075
S1131CA0002009B0F0BDF8B507000D00FEF705FEF1
S1131CB03A4C504B2A0039002000203000F0FAF949
S1131CC00600FEF700FE002E13D1A0680069006B29
S1131CD000280ED0FEF7F1FDA0680069436DDBB269
S1131CE02A0039002034200000F024FA0600FEF710
S1131CF0EAFD3000F2BDF8B500220026274CA068AA
S1131D0003691D005C352968002903D16868421EF7
S1131D109241D20F98695B6B002B19D0002A17D11E
S1131D204742002906D0394004D00020FFF7BBFF0A
S1131D30060030D1616868684242174078424968B9
S1131D40884228D2491C091AFFF7ADFF060022E099
S1131D50FEF7B3FD27492000203000F029FA0600E1
S1131D60FEF7B1FD002E16D1A0680069006B0028B3
S1131D700ED0FEF7A2FDA0680069416DC9B22034FF
S1131D80200000F02FFA0600FEF79DFD002E02D180
S1131D900120194908703000F2BD000000F0FF1F57
S1131DA038B5150000222A70114C6B460A00010058
S1131DB02000203000F0B4F8002818D169460978D2
S1131DC0297069460978002911D00B4D297800291A
S1131DD00DD1A0680069416DC9B22034200000F023
S1131DE001FA002801D06C2032BD0121297032BDD6
S1131DF000F0FF1F6B66656BB8F3FF1FF1B50F00B2
S1131E0014001D00002801D0002C01D10420F2BDD3
S1131E106846027E2900380000F01EF8002815D11B
S1131E2004E071682160241D3F1D2D1F002D0DD07D
S1131E300748066837600748032101706946097E30
S1131E4001720098FFF722FB0028EAD0F2BD0000DF
S1131E50400500000700024010B50323184201D1D9
S1131E600B4001D0652010BD022A0EDA4418641E0E
S1131E70012A06D1002808D1491E072905D10020CE
S1131E8010BD002AFBD1FF2CF9D9042010BD00009D
S1131E9010B5020001D0002901D1042010BD00209A
S1131EA00D4B1C78A407A40F022C14D045205871A4
S1131EB008785872487818728878D871C8789871F8
S1131EC008795873487918738879D872C8799872E0
S1131ED01000FFF7DBFA10BD02000240002801D019
S1131EE0002A01D104207047072917D801A35B5C9D
S1131EF09F4400BF08101014181C2024C0681060F0
S1131F00002070474068FAE78068F8E70068F6E761
S1131F100120F4E74069F2E78069F0E76A2070473E
S1131F20F9B585B00C001500002B01D1042043E065
S1131F300423FFF7EEF9029000283CD10026002785
S1131F406019019005984069009001464842019942
S1131F504A42024051422040081A0099FEF720FEEE
S1131F600390012509E0154909682038CA43C24095
S1131F702A4000D07F1C00982418019884420CD277
S1131F8020000099FEF70CFE202802D20B49496874
S1131F90ECE7059989698842E5D3002F02D10698B8
S1131FA0067008E00398874203D20220069908705D
S1131FB001E006980570029807B0F0BD18000240D1
S1131FC080B500F01DF902BD80B513000A000100C0
S1131FD0180003E080B513000A001900FFF77AFA2D
S1131FE0002002BD10B50C0011000123220000F0F6
S1131FF027F910BDF1B50F0015001C00002D01D10B
S11320000420F2BD04232200FFF783F9060002D066
S1132010F2BD3F1D241F002C13D00C48006807603C
S1132020296841602D1D0620094908700098FFF7B2
S11320302DFA060000980069010000D08047002EA8
S1132040E7D00098FFF7A6F93000F2BD4005000084
S113205007000240F1B50C0016001D0001D1042058
S1132060F2BD0423FFF755F900281DD1069F02E0B5
S1132070361F2D1D241D002E16D00C480068046048
S11320800B4902220A700F71296881600098FFF7DA
S1132090FDF90028ECD00799002900D00C600899BC
S11320A0002901D000220A60F2BD00BF40050000F3
S11320B007000240F8B582B007000E00150008239F
S11320C0FFF727F9040021D175196D1EF8680090F7
S11320D028000099FEF764FD00290AD02800009921
S11320E0FEF75EFD451C009845436D1E01E0F8684F
S11320F03618B54216D30D480068066009200C490D
S113210008700298FFF71CF9040001D02000FEBDFE
S11321103800FFF7BBF904003869010000D080479C
S1132120002CE4D03800FFF735F9EFE74005000054
S113213007000240F9B581B00F0015000823FFF72E
S1132140E8F800282ED10198406801998968FEF7C3
S113215027FD0090784200994A4202405442BC4212
S113216005D1641803E0AD1BBF1900982418002D95
S113217017D0E01B2E00854200D90600F0080A495A
S113218009680F600121094A1170010A1171D070A8
S11321906846007A90700198FFF778F90028E2D039
S11321A0FEBD0020FEBD00BF400500000700024048
S11321B038B504000800002C01D1042032BD4421AC
S11321C0074A1170FFF7BCF8050007D12000FFF79C
S11321D05DF905002000FFF7DDF8280032BD00BFDF
S11321E00700024080B5002801D1042002BD034A43
S11321F0402353701170FFF749F902BD06000240F5
S11322000C4800680003010F082910D280229200B4
S11322108A400CD0084840680C309108802292050E
S1132220521A02604A005118044A89184160002079
S1132230704700BF2480044000F0FF1FFFFFFF1F12
S1132240002A01D101207047F0B41F46034603243D
S11322502340002B09D00424E31A01700130082420
S1132260E141521E26D05B1EF7D1042A1ADB13D09B
S1132270002F11D00C460D460E46102A02DB72C008
S1132280103AFAE70C2A02DB32C00C3AFAE7082AC1
S113229002DB12C0083AFAE7042A03DB01600430C7
S11322A0121FF9E7002A05D0017001300824E1412A
S11322B0521EF7D1F0BC00207047000000210180BD
S11322C070477FB504000D001600002069460870B1
S11322D0228801920B4A029288818873002E0DD0C5
S11322E0FEF7EBFA69460020FEF70BFB32002900EB
S11322F00020FEF723FB0190FEF7E5FA0198208009
S11323007FBD00002110000080B5008808800020F7
S1132310FEF705FB01BD00002B494068085C7047CF
S11323202A494A68002A08D00A6813780370521CA4
S11323300A604868401E4860704700210170704779
S11323405A2800D0704710B51F4A01235354204B1C
S1132350142461435118CB609169884710BD80B53E
S113236019498969884701BD30B585B00400164D07
S1132370A961684617A11422FFF7C0F8022160681A
S1132380A26890476068142141436A18121D694687
S113239000F0A2F8002005B030BD10B504000A48D2
S11323A06168142251434018001D00F0F3F8002125
S11323B06068A268904710BD0448016042604168AB
S11323C00029FCD10020704798F1FF1F90F1FF1FF6
S11323D05F230000212300004123000000000000CF
S11323E0080000000101000001228A402C308021F5
S11323F0090501430A607047FEB50600346800BF52
S113240076A0A10040580190371D2C30029000683E
S1132410000137D5BA68100034D02100962040005E
S113242090472FE0210068463A689047684605784F
S11324303069092808D3210068463A689047290082
S11324406846007805020D433069112808D321003D
S113245068463A68904729006846007805040D43A9
S11324603069192808D3210068463A689047290042
S11324706846007805060D430198456319210198C3
S1132480FFF7B2FF029800688001CBD4029800687D
S1132490800320D50198856B1121FFF7A5FF21004A
S11324A0E8B27A6890473069092804D321002804E7
S11324B0000E7A6890473069112804D3210028025D
S11324C0000E7A68904730691928DFD32100280E5E
S11324D07A689047DAE7F7BDF0B585B007000E00DB
S11324E0140000BF3DA0B900405800901421200002
S11324F0FFF748F8201D0ECE0EC00C3E2760F06892
S11325002061002F03D1802040012E4908600098EB
S113251000F08DF8002501A805708581F16802910D
S1132520317C0172717C417201A9009800F05BF862
S113253000282CD100988026F604064322483060F7
S113254001220121009800F0AAF82048F90040185F
S11325500570446001221921009800F0EFF801226F
S11325601121009800F0EAF801221B21009800F0E4
S1132570E5F80098456319210098FFF735FF01211C
S11325803800FEF77BFC0120C0433060002005B01A
S1132590F0BD000038B5046810A0A1004558002C17
S11325A007D10B480068C0040BD500210020FEF7BA
S11325B065FC280000F03BF8002C02D105480649D0
S11325C0086031BD3C800448FFBFFFFF04F2FF1FD9
S11325D03C800440FFEFFFFF3C80044400C0024005
S11325E0C907FC223BE038B505000C002078C14344
S11325F08803B82149052943086000212800FFF712
S1132600EFFF221D0021280000F051F8002802D01D
S1132610FF20323032BD627B217B280000F023F89A
S113262040488021C90429430860002032BD10B508
S113263004003D488021C904214308600120206032
S113264001220121200000F02AF83848E06200202D
S1132650A060E060206120633548206010BD520511
S113266002431160704730B504686304DB0F04D083
S11326702D4C8025ED0405432C604903B4246405E6
S1132680044321601103B022520502431160002B60
S113269004D08021C9014A030243116030BDC9023C
S11326A0AC235B05034319609102A822D7E770B5F8
S11326B01568042D09D3112D02D30368DB0F04D14F
S11326C0212D05D30368DB0F02D1FF20323070BD0A
S11326D053795B068024A40423401479A40680263D
S11326E0F60434406D1EEE06F025ED0535408900F4
S11326F041180068C00FC8680CD00E4E0640354320
S11327002C4323439079000680225204104018433E
S1132710C86005E0084A024015432C432343CB60BC
S1132720002070BDFFFFFFCFFFBFFFFF00000A9A2C
S113273001400000FFFFFF80FFFFFF8110B5036B26
S113274001248C40A3438A401A43026310BD000055
S113275083494068085C704738B5040008005A2C67
S113276008D17F4D01212954A34900F0F9FA5A20D8
S11327706968884731BD80B579494968884701BD92
S1132780F1B586B010200290002702A887809B48EC
S113279080680069030098331E889949994A9642D3
S11327A001D00E4001E0FF262436974D2C00403422
S11327B0A6825B88934201D0194000E09349E182EC
S11327C0953000780107090F0F2902D10120A07468
S11327D01EE0A774010716D505212174874989686D
S11327E009699631098804AA0B0AD3700B065B0F9A
S11327F05370CB065B0F93708907890F11714006E4
S1132800400F107006E04007400F2074052801DBDC
S113281004202074012001902800583000902B00DF
S1132820012202A90698C0B200F027F91020205610
S1132830052807D10420207404A90698C0B200F02A
S1132840FBF807E075A18200101809180698C0B2B9
S113285000F0F2F8A07C002806D001206074012169
S11328600698C0B200F06EFA0022D2430021069806
S1132870C0B200F0E8F8002607E00023DB430021A3
S11328800698C0B200F0E8F8761CF6B2320002985E
S11328908242F2D3277008206060E38A2200082174
S11328A00698C0B200F086F908210698C0B200F07C
S11328B042FA27720820E060A38A48352A000921D9
S11328C00698C0B200F02DF907B0F0BD10B50400B1
S11328D02348416002216068A26890476068FFF75E
S11328E04FFF002010BD10B504006068C0B200F0B6
S11328F08DF900216068A268904710BDF1B584B0DD
S1132900170000240D00404E30004C30029014E0BB
S11329100820029908600834FA208000019000958C
S11329200298038932004832092104984068C0B2F1
S113293000F00EF9029800682D18BC4206D2381B2C
S11329400928E5D2029908603C00E5E7002005B0BB
S1132950F0BD80B52E498000085800F095FB01BDFC
S1132960FCF1FF1F300000F08FFB70BD70B5040058
S11329702748A1004658306A71680A0405D5420701
S113298003D52000FFF7E5FF70BD49042FD581076B
S11329902DD5204DA978002928D0697801291FD187
S11329A01D4901400AD08C210902014006D10121B0
S11329B0300000F0C9FB0020687017E02878401E42
S11329C040B2002800D50420287000BF13A00021C5
S11329D069568A0051184118200000F02DF805E0CE
S11329E0200000F0B6F92000FFF7CAFEBAE731680C
S11329F0200000F051F970BD7727000000F0FF1FA0
S1132A00FF070000FFFF000060F0FF1F210300002C
S1132A1078050000B0F0FF1F084000000307070717
S1132A200303070703030307070103050303010364
S1132A30070505000300000080B5914A8000105886
S1132A4000F0EEF901BD80B511008D4A80001058E8
S1132A5000F044FB002002BD10B50C0011001A0068
S1132A60874B80001858002C02D100F017FB10BDD2
S1132A70012C01D100F021FB10BDF7B506000F00B9
S1132A801C00B00001907E480199405800907D4D93
S1132A900C207043291808980CC80CC102680A60FD
S1132AA01020794908600999009800F089F9009884
S1132AB000F06AF9009800F096F93968009800F07F
S1132AC085FA0021009800F015FB00212000103049
S1132AD0FDF78EFE002120002830FDF789FE6B48AB
S1132AE01F2101226A4B9B570B4001279F4007601F
S1132AF0684B9B570B4001279F4007609B4B9B579C
S1132B0019408A4002606846007A002802D0009882
S1132B1000F093FA00202060606001982818846116
S1132B20F7BD30B585B0840055480059554D2C1972
S1132B30A469A16054680394127801AC227108223C
S1132B4001920022009201AA00F092F905B030BD72
S1132B50F0B587B00F0080004A49091889690291CD
S1132B6083490858019050680590107803A90871AA
S1132B700C2003900C98009003AA3900019800F0EF
S1132B8077F9040013D13900019800F047FA0D9E3B
S1132B90310002981030FDF745FE0500032DF7D0F3
S1132BA03900019800F042FA002D00D005242000DD
S1132BB007B0F0BD70B584B00C001D008000304932
S1132BC00E583049081880694460506802901078A3
S1132BD0694608710F2000906A462100300000F019
S1132BE09DF9002810D100902B006A462100300086
S1132BF000F094F9002807D1042000902B006A46C5
S1132C002100300000F08AF904B070BDF8B504006A
S1132C10A7001C48C519AE6956480068C0062BD5E4
S1132C2030001030FDF741FE28363000FDF73DFE40
S1132C3051481F210122514B1B570B4001269E4036
S1132C400660134B1B570B4001269E400660114B38
S1132C501B570B4001269E400660444B1B571940EE
S1132C608A4002600648C05900F0CEF80020A861EE
S1132C701020C043424908600020F2BD000000005B
S1132C80780500000CF2FF1F3C80044800E100E0DE
S1132C907D0500007E050000F1B588B008A8007825
S1132CA08100334A52580092364A51188E690C21D9
S1132CB04843101802900098006B0099896A0140FB
S1132CC001910198002831D0706801240199C14014
S1132CD021401FD030002830FDF7DBFD71680098DB
S1132CE000F06BF903AA7168009800F043F900281A
S1132CF00ED1002503AF07E008A801787819407ABF
S1132D00029A526890476D1C387AEDB28542F3D32B
S1132D1000988068B0680199C1400C4003D0103617
S1132D203000FDF7B6FD019800990863009800F0A3
S1132D30ABF909B0F0BD80B50D4A8000105800F021
S1132D406DF901BD80B50A4A8000105800F0D2F92F
S1132D5001BD80B506498000085800F01CFA01BD89
S1132D60084A0C2358431018416070477F0500003F
S1132D70780500003C80044080E100E07C05000010
S1132D803C8004440CF2FF1F01210268120D0A402A
S1132D9007D0994A8B0603431A600268120D0A4051
S1132DA0FBD170470168C90F09D180210906FC22B3
S1132DB05205024311600168CA02D20FFBD070476A
S1132DC04903001DB4223DE101210268120D0A40AD
S1132DD008D14A06E4235B0503431A600268520ED5
S1132DE00A40FBD1704710B50400FFF7EDFF200047
S1132DF000F03AF9814820616061A061200000F090
S1132E0025F90020A06210BD38B50400FFF7DCFFEF
S1132E100025256565602000FFF7C4FF656031BDAE
S1132E2038B505000C0000F01FF9281D74498022F4
S1132E30D2040243116021784A07520FA1780B048F
S1132E40E021C902194011436278D204E0239B03B4
S1132E5013400B43E1780906194322799205C023F4
S1132E601B0413400B438021090501430B60A9E0B7
S1132E70F0B5090140188030059900291DD00024BF
S1132E808460C46009E0C568B44607273E1BF600A9
S1132E906746B7402F43C760641C9568AC420CD2A8
S1132EA00E5D042CEFD28768B4460326351BED0073
S1132EB06646AE403E438660EEE74168514C0C40A6
S1132EC0446041689B04504C1C400C4344600168BE
S1132ED04E4B0B40036001684D4B0B40036001688F
S1132EE093681B040B43036011680F2914D01C2939
S1132EF006D1016880235B030B4303600C2111603E
S1132F000168444B0B400360016812681206F02309
S1132F101B0513400B4303600020F0BD10B50901ED
S1132F20401880300168394C0C4004600168384C0A
S1132F300C4004600168946824040C4304604168F4
S1132F40304C0C40446041689B042F4C1C400C43A3
S1132F50446011680F290BD001682E4B0B400360AD
S1132F60016812681206F0231B0513400B4303602B
S1132F70002010BD10B509014018803001681160AF
S1132F808902416800D4890C516000218368CC0017
S1132F90E340541A2373491C0429F7D30421C3685A
S1132FA00C1FE400E340541A2375491C0829F6D386
S1132FB00068000C1072002010BD09014018803018
S1132FC000687047280000F041F831BD38B50500AD
S1132FD00C0000F049F81048284304600020002148
S1132FE007E00A01AA188032106050609060D06037
S1132FF0491CA142F5D3E5E7FFFFFF7FFFFF030074
S1133000F8FF0000FFFF03E00000FC1FFFFF9FFF2D
S1133010FFFFF0FFFFFFFFF00000301001228A40A5
S113302028308021090501430A60704701228A4043
S1133030D14328308022D20405E08021C901FFE772
S1133040001DB82252050243116070470021F0228E
S1133050520502431160F8225205024311600168CF
S1133060CA01D20FFBD170478021C905F82252054D
S1133070024311608908F02252050243116001687D
S1133080CA01D20FFBD070470721026A0A4000D060
S1133090016270472800FFF7D9FF31BD70B5040005
S11330A00D001600FFF7E0FFB00411490140A8002D
S11330B020188822120181500CE070B504000D0024
S11330C01600FFF7D1FFB003800BA9006118882216
S11330D0120188502000FFF7B9FF70BD38B5050014
S11330E00C00FFF7C1FFA004014901402961D1E7A9
S11330F00000FC1F38B505000C00032C02D1FFF7BB
S1133100B3FF07E0042C05D180200006FC2149050B
S1133110294308602800FFF7A7FF002C05D10020F1
S1133120DC214905294308600DE0281D012C02D14A
S113313008218C2204E0022C05D180214901B0220F
S1133140520502431160A5E738B505000C00032CB5
S113315002D1FFF77BFF05E0042C03D1286840006F
S1133160400828602800FFF77FFF002C06D180204C
S11331700004DC214905294308600BE0281D0021D7
S1133180012C01D18C2202E0022C03D1B022520581
S1133190024311607EE70168802292040A430260C0
S11331A001688A01D20FFBD17047000080B508493D
S11331B048680978002905D00649002907D0C04687
S11331C0C04601BD0449002901D0FFF715F901BD2E
S11331D004F2FF1F00000000F923000080B5002066
S11331E000F002F801BD0000F8B500BF5EA1820046
S11331F08C58534902018B18E11C0A788026360545
S11332001227174031430F7050211140102912D05A
S1133210A11C0D00241D57060ED5500713D51020F0
S11332202E43307000206946087068461968884744
S1133230684600782070F1BD0126097809093140FB
S113324008D01640EED0EF208021C904294308702D
S11332502078F1BD2278010010005A689047F1BD32
S1133260F1B582B00F0000BF3FA002998900445815
S1133270334802990901401839001022FEF73EF93B
S1133280402630480660A01C019000250570A01D52
S1133290009006700220E07001210298FDF7FEFD07
S11332A0387B4000284921430870657100980570F7
S11332B06570019970050843802101700670F7BD9F
S11332C02248006840060DD580204000204908604F
S11332D0204800210170204B197001714020C04327
S11332E01E4908607047000030B514001EA280001B
S11332F015580800FA218900FDF752FC010018480E
S1133300FDF74EFC002100E011004A1C130043436A
S1133310A342F9D3002905D10A225443844204D399
S1133320012102E0202900D31F21AD1D0D482843AF
S1133330017030BD024A000110184160704700005E
S113334028F2FF1F348004480000B0103480044089
S113335080E100E0026006400060B650348004441E
S113336040420F0000001810006006402E494068DB
S11333700818007C70472D494A68002A08D00A685A
S113338013780370521C0A604868401E48607047F6
S113339000210170704780B523494969884701BD00
S11333A038B5040008005A2C09D11F4D01212A18F0
S11333B011741F49FFF7BEFF5A206969884731BD60
S11333C010B504001849FFF74BFFFDF7A9FE3222A0
S11333D001002000FFF788FF10BD10B5040012485B
S11333E041611449896809697D310978FF2900D050
S11333F0017302216068A26890476068FFF7E0FFEC
S1133400002010BD10B504006068FFF759FF0021CB
S11334106068A268904710BD04480160426041683A
S11334200029FCD100207047C4F0FF1F4CF2FF1F9D
S11334309733000000F0FF1F70B582B004000E0047
S11334401500002E01D1002076BD6A4600F07DF8FB
S1133450002806D12A0031002000009B9B685B688D
S1133460984776BD70B582B004000E001500002E9A
S113347001D1002076BD00F08BF8002801D05A4815
S113348076BD6A463100200000F05FF800280ED1B6
S11334902A0031002000009B9B689B689847534991
S11334A0002802D1009A926800E000220A6076BDEA
S11334B038B504000D006A4600F047F8002815D11D
S11334C0009880684069002801D1662032BD290037
S11334D0200000F05DF8002801D0434832BD2900E7
S11334E02000009A92685269904732BD002DFCD1A9
S11334F0002032BD70B582B004000E001500002E0D
S113350001D1002076BD00F043F8002801D03648F0
S113351076BD6A463100200000F017F8002806D175
S11335202A0031002000009B9B68DB68984776BD29
S113353038B5002400202D4D2968002904D00969DC
S11335400A0001D088472C6032BD70B50B002649B3
S1133550274C6468002B18D0002A16D000E00C34E5
S1133560002C12D02568002D05D16668002E02D1EA
S1133570A668002E09D0A842F1D365688542EED32F
S1133580C018401E854200D300211460080070BD9D
S113359030B5174A92681269536B002B14D0411846
S11335A0491E0023DC0014195C3465682468002C6F
S11335B001D1002D05D0854203D3A14201D30120BE
S11335C030BD5B1C022BEDDB002030BD10B508487C
S11335D0446804E00068010000D080470C34A0680F
S11335E00028F7D110BD0000D827000054F2FF1FB7
S11335F000F0FF1F10B59548806804696C343022D0
S113360093492000FDF77AFF20689249884204D04C
S1133610FF2230212000FDF795FFFDF7B4FD0020C7
S113362010BDF8B5894DA86804694B20E0700126E7
S1133630A6700520607026705020E071A6710220EB
S11336406071002727715420E072A6726772277296
S1133650266366638048A063220010320421280098
S11336602030FEF73BFC22001432012128002030D8
S1133670FEF734FC22001832002128002030FEF727
S11336802DFC22001C32022128002030FEF726FCEB
S113369022002032032128002030FEF71FFC2200E4
S11336A04832052128002030FEF718FC22004C3255
S11336B0062128002030FEF711FC22005032072199
S11336C028002030FEF70AFCA16948420021C943C2
S11336D0624A53420340C91A614A1040E0652166B8
S11336E0604860666048A0666869E76007E07C221D
S11336F0A35C0B4202D0E2681143E1607F1C1821F5
S1133700794341580029F2D15848016861644168FD
S113371021648068E06368680C3001686162416814
S11337200068081A401CA0622000FCF7ADFF666523
S11337300020F2BDF8B517001E00444A91680969DB
S113374004244B4D401E172851D801A31B5C9F44F1
S113375016262A2E323642469C4A52604E3A3E661D
S11337606C82888C90949C98002E00D03460002F3A
S113377000D039600020F2BD0C31F5E71031F3E7D9
S11337801431F1E71831EFE72031EDE72431EBE7AD
S11337902831E9E73831E7E72C31E5E73031E3E771
S11337A03431E1E7D06941694969884728602900D3
S11337B0DAE710245C31D7E72E480068F6E769465B
S11337C020321000FEF74EF9684600780028EDD04C
S11337D00120EBE70C243C31C6E74831C4E74C3107
S11337E0C2E75031C0E75431BEE70831BCE7224894
S11337F0F2BD02001548806803692048521E072A5A
S11338001FD9093A0CD0521E012A1AD9921E0DD082
S1133810521E032A15D9083A0ED0921E11D012E076
S1133820002901D001290FD1196308E0002901D032
S1133830012909D1596302E0032905D25965002001
S11338407047401E7047801E7047000000F0FF1F45
S1133850C0A300006B6366677F0D00006840000032
S11338600000000000F0FF1FBFF5FF1F5880044058
S113387018F3FF1F248004403C2800003E28000069
S113388010B501009B4A1000883003685C1C04607A
S1133890D2182032117001688906890E016010BDAA
S11338A00020704780B500F0C6F802BDFAB583B0B9
S11338B01700002901D0002F01D104202CE000269C
S11338C03E608C4C200090300090467000F0B3F8BD
S11338D0002821D101AD02E0A22000F082F82021CD
S11338E02000FDF74FFE6846027C210001A800F08D
S11338F003F9002801D03E600EE0210001A800F089
S113390077F9A9888142E7D10120009908700398CA
S1133910046068883860002005B0F0BDF2B582B05C
S113392015001F00002944D0212D42D200F083F855
S113393000284DD16F4C20009130002601780029D9
S113394000D006702000603000905A200099087062
S1133950A42000994870002F02D0A5200099487037
S1133960200062300570290A4170002D05D02A001C
S1133970029920006630FDF7ADFD21006631009804
S113398000F036F964342070000A6070A91D0098B4
S113399000F064F800281BD101AC01A800F016F96E
S11339A0002815D16078A12811D0A22805D0A32819
S11339B001D00420FEBD8048FEBD00984188891DC9
S11339C000F04CF8002803D16078A228E5D000204C
S11339D0FEBD7A48012181700021017070472020CA
S11339E0704780B569465A220A70487001207449AC
S11339F008700221684600F031F802BD10B582B0AB
S1133A0004006E48017842780A408078024210D15E
S1133A10684600BF84A10A88028002226946200009
S1133A2023695B689847082280A1200023695B68AA
S1133A309847644816BD80B5604800210278002A82
S1133A4002D00170A12004E08278002A04D08170A1
S1133A50A320FFF7C6FF02BD002002BD80B503000E
S1133A605948C0690A00190003695B68984702BD98
S1133A70F2B584B0070015000024FCF7FEFF02AA8B
S1133A8003C2FA20800045432800FDF706F8002110
S1133A906A4603C2174E350088350DE06868296808
S1133AA088420CD03018203000783855641C68687F
S1133AB0401C8006800E68600498844216D06846D4
S1133AC003C8002901D10028E8D0FCF7D6FF020082
S1133AD00B0002A803C8121A8B41684603C88B4224
S1133AE0DCD301D88242D9D3052000E0002005B000
S1133AF0F0BD00001CF3FF1F70B582B004000D0080
S1133B00160000F063F8002855D16078A62804D187
S1133B102D48C069FFF772FF76BDA421002E00D0A6
S1133B20A521884201D0012076BD142202216846D5
S1133B30FFF79EFF69460988A170090AE170002811
S1133B4039D1A078E1780906090C0843212801DB62
S1133B50202004E0A078E1780906090C0843A0704D
S1133B60000AE070142202216846FFF781FF6946CB
S1133B7009882171090A617100281CD1A178E278B1
S1133B801206120C114316D0A178E0780006000C3E
S1133B9001432800FDF7F4FCA078E1780906090C3C
S1133BA00843A178E2781206120C11430A22424318
S1133BB02800FFF75DFF76BD12270000ACF3FF1F5E
S1133BC0ADF3FF1F1327000000F0FF1F10B5040022
S1133BD0002201212000FFF74BFF002807D12078A5
S1133BE05A28F5D10A220121601CFFF741FF10BDBC
S1133BF030B583B004000D006846FEF75FFB042275
S1133C0021006846FEF75DFBA278E0780006000C10
S1133C10024329006846FEF754FB01A96846FEF7F3
S1133C2073FB684680883EBD5AA70000000201501D
S1133C300000AAEA00480047353C00000448054952
S1133C40C1810549C181E92149000180704700BF54
S1133C500020054020C5000028D900000021C170C3
S1133C608170017004224270817241747047F7B50B
S1133C7004000025ED43002000903F4803600198B4
S1133C8002990901FCF78CFF060001983101FCF749
S1133C9087FF0299884201D2761E00E013D00127E3
S1133CA0019840007101C919FCF77AFF0299814219
S1133CB001D2401A00E0081A854201D3050000979A
S1133CC07F1C212FECDB08466421FCF755FF4100E3
S1133CD00818854228D22948844206D18020400110
S1133CE027490860800827490860E078F3210140EB
S1133CF0E1700020A070E02021780140F204D20E8F
S1133D000A4322706670A17A084000990143A172A7
S1133D10C0206074E07820210143E170E0780C2138
S1133D200143E1700020FEBD0120FEBD164801786C
S1133D30890600D4704780B5C0780F490968884760
S1133D4001BD02791206FCD5C171704738B5040073
S1133D500A4DAC4208D1802149010C4A11600C493A
S1133D600A680B0D13430B60FFF778FFAC4202D1D6
S1133D7008480949086031BDB0F3FF1F00A00640A0
S1133D8000E100E03480044804A0064080E100E043
S1133D9034800440FFFBFFFF3480044438B5040042
S1133DA069466068FCF74BFF00281FD16068FDF787
S1133DB0C3F901006068012801D0274800E02748C2
S1133DC0274D2B68009AFFF752FF00280BD10221E0
S1133DD06068A26890475A2029688847A620296805
S1133DE08847012032BD6068FCF70CFF002032BD1B
S1133DF010B504001A48016001216068A268904768
S1133E006068FCF7FFFE002010BD10B50400606878
S1133E10012801D0104800E01048FFF797FF6068C0
S1133E20FCF709FF00216068A268904710BD70B5D7
S1133E3006000C00150003E008480978FFF781FF2D
S1133E402800451E002806D02100641C7068012843
S1133E50F2D00148F1E770BD00A0064000B0064072
S1133E60B4F3FF1F00F00BF8002801D000F00AF8AB
S1133E700020C046C046FDF7C9F8FDF70DF9012042
S1133E807047000010B5074979441831064C7C444A
S1133E90163404E0081D0A68891888470100A14205
S1133EA0F8D110BDB4010000C00100009805000065
S1133EB0DCF0FF1F4006000040F0FF1F0000000080
S1133EC0C805000000000000000000000000000021
S1133ED000000000000000000000000000000000DE
S1133EE0000000000000000000000000A115000018
S1133EF0AD1500006804000060F1FF1F0000000021
S1133F00BCF1FF1FDCF1FF1F0000000000000000F7
S1133F10000000000000000000000000000000009D
S1133F20000000000000000000000000000000008D
S1133F30000000000000000000000000000000007D
S1133F40000000000000000000000000000000006D
S1133F50000000000000000000000000000000005D
S1133F600000000000000000592700008127000025
S1133F7077330000A1330000C133000010000000BB
S1133F80000000000000000000000000FFFF01002E
S1133F904405000000F0FF1FFF2F0020B0050000C3
S1133FA000000040FFFF0740F004000000F00F4055
S1133FB0FFFF0F40F0040000000000E0FFFF0FE0EF
S1133FC0F0040000000000000000000000000000F9
S1133FD00000400130B504E014780470401C521C09
S1133FE0491E002919D0C507F6D40129F4D0850744
S1133FF001D4042904D214880480801C921C891ED4
S11340008B08EED09B00C41803E015680560001D02
S1134010121DA042F9D3C91AE3E730BD80B51300DD
S11340200200180000E080B5FFF7D4FF002002BDB5
S113403010B50C00110001232200FEF701F910BD98
S113404080B50020FEF792FC01BDC046C046C046C4
S1134050C046FFF707FF00007FCBFFFF940200007C
S10B406028F1FF1F000000001D
S9030411E7
