S0180000746F7765725F626F6F746C6F616465722E7372656351
S1130000200B0020110400006F0900009917000064
S11300109B1700009D1700009F17000004050000B7
S11300200000000000000000000000006F09000054
S11300306F090000000000006F090000950B00002C
S113004047690000476900004769000047690000EC
S113005047690000476900004769000047690000DC
S113006047690000476900004769000047690000CC
S113007047690000476900004769000047690000BC
S113008047690000476900004769000047690000AC
S1130090476900004769000047690000476900009C
S11300A0994400009D4400008D44000091440000E8
S11300B04769000047690000476900004B5700008A
S11300C04769000057570000476900007357000054
S11300D0476900007F570000476900004769000036
S11300E0476900004769000047690000476900004C
S11300F0476900004769000047690000476900003C
S1130100476900004769000047690000476900002B
S113011047690000EF3E000047690000476900009E
S1130120476900004769000047690000476900000B
S1130130476900004769000047690000630E00003A
S113014047690000954400008B5700004769000090
S113015047690000476900004769000047690000DB
S113016047690000476900004769000047690000CB
S113017047690000476900004769000047690000BB
S113018047690000476900004769000047690000AB
S1130190476900004769000047690000476900009B
S11301A0476900004769000047690000476900008B
S11301B047690000FD3E00004769000047690000F0
S11301C0476900004769000047690000476900006B
S11301D0476900004769000047690000476900005B
S11301E0476900004769000047690000476900004B
S11301F0476900004769000047690000476900003B
S11303F0476900004769000047690000FFFFFFFFED
S1130400FFFFFFFFFFFFFFFFFFFFFFFFFEFFFFFFF9
S113041072B60E480E49886000220023002400258D
S113042000260027B846B946BA46BB46BC4609482A
S1130430854609488047094880470948804762B68D
S113044000200021074A9047FEE70000000000005A
S113045000ED00E0200B0020F95C00009115000085
S1130460CB150000271100000302014667140000A9
S11304708D2900002944000099280000CD270000A0
S1130480A91D000075250000BD29000011290000E8
S11304903928000099260000C3140000C525000077
S11304A015260000BD2400004914000000000000CF
S11304B00000000000000000436F707972696768F3
S11304C0742028632920323031332D3230313420E6
S11304D0467265657363616C652053656D69636F0E
S11304E06E647563746F722C20496E632E20416CA8
S11304F06C207269676874732072657365727665BF
S1130500642E0000D56800000105014BB80400000A
S113051000E0FF1F68040000AC040000DB180000CA
S113052000000000ED180000000000008319000026
S1130530CB1A000071190000FB190000931B000086
S113054000000000351C0000000000002719000016
S11305500000000001190000FB190000A71B0000A7
S113056000000000111C00000000000093180000AF
S1130570000000005B190000000000000000000003
S113058000000000431C000000000000571C000095
S113059000000000791C0000CB1A000000000000DD
S11305A00000000000000000216900002B69000029
S11305B0356900000000000000000000D12A00009E
S11305C01F2B0000532B000000000000000000005F
S11305D0732B0000772F0000CB2F000000000000D9
S11305E097320000993200002B37000005360000D6
S11305F0B93600009B380000DD38000003390000E4
S1130600173700009F3500002B380000B335000079
S113061053380000273900005D390000A939000073
S113062000000000000000000000080000001000AE
S113063000002000000040000000800000000001D5
S11306400000000204000240E51D0000131E00002B
S1130650511E0000451F0000000000004120000062
S1130660002003402D4600009B460000C5460000C4
S11306700000000000000000DB4600004D4C0000BC
S1130680774C0000DF4C00001F4E0000694E000054
S113069013500000074D0000C94D0000674F0000D3
S11306A0FD50000011510000000000006D500000DA
S11306B08550000000000000FF4E0000455100007E
S11306C07951000069470000C351000069530000DC
S11306D0F55100001D52000099520000D55200004F
S11306E05952000065270000692700007B2700009D
S11306F0B927000000000000000000000100000015
S113070002000000ED0C0000A0070000B00700008C
S1130710B80700000200000000000000350D0000D2
S11307206406000074060000B8070000040000001E
S1130730020000007D0D0000BC050000CC05000097
S1130740B8070000100000000000000000000000D6
S1130750E807000000000000F80700001000000097
S11307600200000000000000E80700000000000094
S1130770F807000000000000000000000000000076
S11307800000000000000000000000008D53000085
S1130790BF530000D15400008B55000074E6FF1FC6
S11307A091580000D9580000F358000000000000E0
S11307B00000000037590000B1590000B75900008B
S11307C01F5A0000BD5A0000B5590000C95A000064
S11307D091590000043A262280E1FF1FBCE1FF1F6B
S11307E0F8E1FF1F20E2FF1F7F5F0000A760000009
S11307F05F6100001363000095610000C3610000A5
S113080045620000FB6200000B6300000F63000000
S11308100000000005E00020704700207047002021
S113082070474FF6FF707047416F11F1010F01BF20
S1130830816F11F1010FC16F11F1010F02D042F666
S1130840A20101E042F6A301C1627047FEB525484A
S113085081680C69E16A012542F6A30291423FD006
S113086004F1700100258A68002A36D00E1D534217
S113087031688B4222BF40680368994221BF4068B7
S11308805118491E884228D300A800F02DF80C20E6
S113089000F52340C03031687268071DB9423CBF7F
S11308A05318984208D2421A00A800F023F830687E
S11308B071680818C21B394600A800F01BF802A989
S11308C000A800F03FF80298E16F884206BF0125B6
S11308D042F6A00042F6A10001E042F6A400E06264
S11308E02846FEBD00E0FF1F4FF0FF3101600021EC
S11308F0416070477FB5044601208DF800000E4624
S11309002068019015460E4802900020ADF80C00B6
S11309108DF80E006DB100F048F800A9002000F039
S113092063F82A463146002000F077F8019000F081
S113093042F8019820606068281860607FBD00005C
S1130940B71DC10438B504460D46207910F00300E4
S113095007D000A900220A60C0F104022046FFF774
S1130960C9FF20682860002000F048F831BDFEE788
S11309704FF47A71484300F0F9B80160704772B6D9
S11309800168491C016062B601680029FCD101209C
S1130990704772B60168491E016062B6704772B64C
S11309A00A490020086062B6704772B607480168B9
S11309B0491C0160704705480168022901D20021E1
S11309C0EAE70168491E01607047000088E5FF1FDF
S11309D008304001484A11507047826892009208DA
S11309E042EA81718160704709B90120704720B9DA
S11309F0424A136843F48023136051E0404951F89C
S1130A00201041F221024A6000228A6020B93B484A
S1130A10016821F4802101607047F8B50E46384919
S1130A2051F82040A068870F154605D0022F07D043
S1130A3004D3032F06D00EE0032104E0022102E0D8
S1130A40012100E000212046FFF7C7FF03E016F86C
S1130A50010B20706D1E16F0030006D0002DF6D198
S1130A6003E056F8040B20602D1F042DF9D2012D4C
S1130A700AD00BD3032D03D03CBF3088208005E07F
S1130A8030882080B07800E030782070204600F074
S1130A9091F8054639462046FFF79FFF2846F2BDE8
S1130AA070B50C0001D1012070BD154951F82050DA
S1130AB0144905F108004601207888512846217B15
S1130AC0FFF78BFF607BA968000721F0405100F01D
S1130AD040500843A8600C49A07B88510121A068BC
S1130AE068602846FFF774FF606828600021284684
S1130AF0FFF76EFF002070BD640000423C8004409C
S1130B0060060000600000426800004224480021A2
S1130B1001606FF07F4223494A6000228A60072205
S1130B200A602149214A0968C900B1FBF2F101B9FF
S1130B300121416070471B48016821F006010160F2
S1130B40704717490A681A4800680B68C0430002D6
S1130B50000A9A42F6D1002110EB026051EB1221F7
S1130B6070470F4949684843C008704738B5044680
S1130B70FFF7E7FF0A4A5268624300EBD2040025FC
S1130B80FFF7DFFFA94201D8A042F9D331BD0648DF
S1130B900068704702480168491C01607047000002
S1130BA068E6FF1F10E000E0BCE0FF1F40420F00BA
S1130BB018E000E000F1080252010A4B9A580021A3
S1130BC0D2B21AB1012A08BF016808E08168090F8E
S1130BD001F0030102291ABF03290188418808464C
S1130BE0704700006000004238B504463D4D0020C7
S1130BF0C5E90000C5E90200C5E90400A86128624E
S1130C003948FFF7AEFFE8612046BDE834400FF2F3
S1130C10590100F036B900F047B970B5314D0C46B2
S1130C20A969072904BF296A88421AD1FFF7AFFFCF
S1130C30C0EB0016D5E90001D5E902231018B6FB74
S1130C40F0F00A2148434FF49661B0FBF1F0401DE7
S1130C500A21B0FBF1F04FF4966148432060002074
S1130C6070BD012070BD00002DE9F8430646FFF772
S1130C7068FF1C4F0446D7E904598846B869002127
S1130C80421C651B68EB0909F869494502D82CBF69
S1130C90A8420122012ABA6106D0042A08D0052AF2
S1130CA00ED0072A0FD018E0C7E900483E6214E0CE
S1130CB0D7E90001201A68EB0101C7E900010CE043
S1130CC0C7E9024809E0D7E90201201A68EB0101EB
S1130CD0C7E90201304600F0E7F8C7E90448BDE877
S1130CE0F1830000B8E2FF1F80380100022820D100
S1130CF07548764A19B1022911D006D37047416864
S1130D00114041600168114012E04168114041F412
S1130D10807141606E48016821F4003108E0416847
S1130D20114041F4407141600168114041F4407147
S1130D300160704700B1704710B56648664B634C5C
S1130D40664A11B102290AD010BD11682140116010
S1130D500021196051682140516000210CE01168A4
S1130D60214041F400711160012119605168214052
S1130D7041F4007151600121016010BD022825D1A8
S1130D80524A574811B102290CD0704701681140EA
S1130D900160416811404160816811408160C1680F
S1130DA0114012E00168114041F400710160416892
S1130DB0114041F4007141608168114041F40071B7
S1130DC08160C168114041F40071C160704780B511
S1130DD000F0B2F84348016841F47851016001BD64
S1130DE04148416B21F478514163016821F4403159
S1130DF001607047012070473C483D49006809681C
S1130E00C0F30360401CB1FBF0F0704730B102281E
S1130E1007D003D3042804D003D303E03448006884
S1130E207047E9E7002070473248284A01681140BA
S1130E3041F48071016030494A6822F480624A605A
S1130E40026842F01302026000204FF4FA720B6849
S1130E50C3F380231818521EF9D1FA288041C00F19
S1130E60704710B5254C2068C0F3006040B1244899
S1130E700168080004D0022088474FF0FF30E06585
S1130E8010BD02280FD11F4A1F4B102010704FF0C5
S1130E9000401E4A1060194802681A4042F4202299
S1130EA0026017480160704702280BD11849164A9E
S1130EB04FF00040086011480168114001600020B3
S1130EC00F4908607047000040D00440FFF8FFFE5F
S1130ED014F10F40940498421404984220C0044032
S1130EE02CC0044038800440048004404480044002
S1130EF0BCE0FF1F2890044010F00F4044D0044091
S1130F008CE5FF1F3FE400E0FFFFF0FE04E100E09A
S1130F1084E100E0704750F8041B61B150F8042BE1
S1130F20D30744BFA9F101039A180023091F42F80B
S1130F30043BFAD1EFE770470848817804290BD1C4
S1130F40017801F09F010170FF218278012A04BF1A
S1130F50034A1278491EF8D17047000001E00740A7
S1130F6002D00740022811D80FF22C028056012922
S1130F7004D100F01F029140054A04E0012100F071
S1130F801F029140034A400942F8201070470000B4
S1130F9000E100E080E100E01A1B4100022811D8C2
S1130FA00FF22C028056012904D100F01F02914057
S1130FB0054A04E0012100F01F029140034A400960
S1130FC042F820107047000000E100E080E100E0FA
S1130FD018194A0038B504460D46002000F0E6F81A
S1130FE06C486D4A056044604FF42041116001680B
S1130FF081F3088881F3098840688047BDE832405E
S1131000002000F0D3B865498968096900281EBF2B
S113101010F1010F624A904206D00A69904203D34C
S11310204B699A18904208D34A6A904207D3896A56
S1131030891888428041C00F704701207047002002
S113104070472DE9F84F554D564EA868006900F1D8
S1131050700A37460AE09AF81010014205D0786900
S1131060FA6881695268384690471837386800280A
S1131070F1D14FF47A70FFF774FD07464FF4204026
S1131080002441680091D0F800B0FFF7CDFE70BB9A
S11310900098FFF7B8FF50B3FFF7D8FB38B3A86840
S11310A0006990F88E00C00703D400985946FFF7F2
S11310B091FFBAF812004FF6FF71884208BF41F25F
S11310C0883007FB00F4FFF73CFD8046894674B185
S11310D0FFF737FDB0EB080061EB09010025A942D9
S11310E001D8A04203D300985946FFF773FF37464F
S11310F000E0183738680028E9D0F96809683846EC
S113110088470028F5D0002FE1D006E0B74203D08D
S1131110F168896830468847183630680028F5D168
S11311203846BDE8F28F38B5FFF739FCFFF74FFEBC
S11311301A4CA06800688047002000F069F8FFF7A7
S1131140E5FC04F1200000F08EF920680068804777
S1131150A06840688047FFF774FFE061016919B136
S113116009680A0018BF8847E069416919B109682C
S11311700A0018BF8847E06800688047E569E068AE
S113118040688047E868C1680800F8D02846884766
S1131190F5E70000DCE2FF1F08ED00E000E0FF1FC0
S11311A011040000FC0600007047000070B50446FE
S11311B0022C04D0002000F0D6F9012C0ED0002619
S11311C0114D06E04019C16889680A0018BF8847B4
S11311D0761C1820704341590029F3D174B9FFF7E4
S11311E0E4FBFFF7A8FC00F0F0F9084900200860D0
S11311F0012000F00DF8FFF7F3FD62B6BFF36F8F27
S1131200BFF34F8F70BD00BFFC06000008ED00E087
S11312102DE9F041744C754D0100207864D1296C9E
S1131220616073498968096901F170027149137C2D
S1131230DB060BD4127FD20708D52A6C120F4FF0AD
S1131240A070521CB0FBF2F0086054E001226A4E18
S113125000E0521C694BB3FBF2F3B342F9D21646D9
S113126017469446DFF898E100E0761CDFF88C819D
S1131270B8FBF6F8F045F8D2DFF88081B8FBF7F850
S1131280F04528BF7F1CF7D201E00CF1010CDFF818
S11312906CE1DFF87081BEFBFCFEC645F5D2012A85
S11312A005D1092E3CBF092FBCF1090F23D2761EAC
S11312B07F1E3E433606521E06F0706646EA0272F0
S11312C0ACF10106360406F4702632432A640B603E
S11312D0042100F012F804202070286820F4403023
S11312E040F48030286006E0012904D1002100F098
S11312F004F860682864BDE8F081884200D1704732
S113130010B504294048414A38D141490B6843F497
S113131000730B603F49404B1C680C401C605C68C8
S113132021405960002101728021117024214170F3
S1131330A2210170C17801F01F01C1700121017166
S11313400021417181798907FCD58179C906FCD4D2
S113135000F068F84E21417100F064F88179490683
S1131360FCD5017801F03F010170817901F00C0195
S11313700C29FAD1817C0029FCD110BD99BB002332
S1131380017801F03F0141F08001017001242349FB
S11313900B70234B1C7000240C77847904F00C042C
S11313A0082CFAD1047804F0C70444F0180404703B
S11313B000241C7083799B06FCD4037803F03F035C
S11313C0037001230B708179C906FCD581790C2344
S11313D01942FBD1147081798907FCD480214170B2
S11313E004210170047110BDE4E2FF1F0480044075
S11313F000E0FF1FBCE0FF1F0195BA0A000E27079B
S113140001879303013FAB010040064000500640B2
S113141038800440FFF8FFFE489004400800C842AA
S1131420B800C842817901F00C010829FAD170474B
S113143008B904207047C06920B10068022801D1AE
S1131440002070476D20704710B508B9042010BD06
S1131450C469606800F0EDF8A06800F077F8022035
S11314602060002010BD10B5040001D1042010BD7F
S1131470254926480968C1F3036130F811000003C7
S113148001D1642010BD0021216060604FF480719F
S11314900420A0604FF48050E0601D4890F90020C3
S11314A091406161C078A061002020612046FFF76F
S11314B0BFFF20B11748E0612046FFF7C5FF0020B9
S11314C010BD08B90420704701610020704708B9B5
S11314D0042070475B1E194208BF1A4201D06520E0
S11314E070470368994221BF4068C0185118884268
S11314F001D266207047002070470749884201D016
S11315006B207047002070474C8004402406000084
S11315102800024050E0FF1F6B66656B20B112B1DA
S1131520082A03D000E021B10420704709B10C2936
S1131530FAD2002070470000016841F47001016094
S1131540BFF36F8FBFF34F8F7047704710B50446DA
S11315500B480C490A1A411E204600F099F80A4922
S1131560601C086010BD38B504002000FFF760FF60
S11315700500002D03D1054803490968884731BD9A
S1131580391500004B15000008E5FF1F04F0014069
S113159080B518491848086018491948421A19486A
S11315A088421CBF002A00F073F817481749091A2B
S11315B018BF00F0A9F816491648421A04D0BDE82D
S11315C00840154800F064B801BD14484FF0FF31DD
S11315D0016041608160C160016141618161C161FB
S11315E00F48016041608160C160016141618161B6
S11315F0C161704708ED00E00000000020660000B3
S1131600D468000000E0FF1FB8E2FF1F18ECFF1FC2
S113161068690000686900002009002080E100E09A
S113162080E200E08021017001780906FCD5704752
S1131630704710B50446124812490A1A411E204642
S113164000F026F81049601C086010BD10B50F4C5E
S113165070212170FFF7ECFE88B90B490968204618
S113166088472078810601D5672010BDC10601D5C1
S1131670682010BDC00701D5692010BD002010BD31
S113168025160000311600000CE5FF1F0000024083
S113169062B38B0708D0521E11F8013B00F8013BDE
S11316A000F024808B07F6D1830740F0208000BF30
S11316B0103A07D330B4B1E83810103AA0E8381023
S11316C0F9D230BC530724BFB1E80810A0E80810D1
S11316D044BF51F8043B40F8043BD20724BF31F81F
S11316E0022B20F8022B44BF0B7803707047083A92
S11316F007D3B1E80810083A40F8043B40F804CB9B
S1131700F7D25307E4E70000002200F005B8000018
S113171062F30F2262F31F42401810F0030308D053
S1131720C91A1FD3DB0748BF00F8012D28BF20F8D2
S1131730022D130030B414461546103928BF20E991
S11317403C00FAD8490728BF20E90C0048BF40F8FC
S1131750042D890028BF20F8022D48BF00F8012D70
S113176030BC7047C91818BF00F8012DCB0728BF3B
S113177000F8012D70470000BFF34F8F0448054A5D
S1131780016801F4E06111430160BFF34F8FFEE78C
S11317900CED00E00400FA05EEE7EDE7ECE7EBE71B
S11317A0DFF8F015C968C9680020086070472DE9A2
S11317B0F041DFF8E055E86982B000248DF801407B
S11317C04669002E62D0E968C9680A68012A4CD0CB
S11317D001F1080274680023091DA04704001FBF1B
S11317E042F21270844242F2137084424ED1E8688D
S11317F0C168D1F80880B8F1000F47D04E68377837
S113180037B1122F04DA806800EBC700083800E013
S11318100020086200281CBF006800281CD000A912
S113182005F1200000F0C0FA040017D19DF8000073
S113183048B14FF4E750791E20FA01F2D00758BF9F
S113184042F211740AD5EA68D268126A12684146F3
S113185030469047002406E042F210743946204690
S113186000F01FFA94B901200DE0086A48B14168FC
S1131870080003D00DF10100884704460CB1002094
S113188001E09DF80100E968C96808602046BDE8E8
S1131890F68180B50178002000F003FADFF8F40443
S11318A0C0694169096988470220FFF77FFCBFF3DB
S11318B04F8FDFF8E404DFF8E424016801F4E06109
S11318C011430160BFF34F8FFEE7DFF8C804C0681F
S11318D0C06814210C3000F081BA10B5044600F041
S11318E0D6FBFFE72178BDE81040DAE110B5DFF858
S11318F0A424126852690446A16860689047F1E71D
S113190010B500F04AF8DFF88C04C068C06861685C
S11319100161082101770020217800F0C2F9BDE8B7
S1131920104000F064BD30B583B0DFF86844A568AA
S113193000210191009100AB81684068AD6801AA63
S1131940C9B2C0B2A847E268D26800211161009907
S11319508A08019900F0B9F937BD10B5DFF83424CD
S11319609268D26804466068A168C0B29047B9E73B
S113197010B500F012F800F012F8042101770020ED
S1131980B0E710B500F009F800F009F80321017779
S11319900020A168BDE81040AEE1044695E7DFF8F9
S11319A0F403C068C068A16801616168416170475F
S11319B038B5DFF8E0530446E868C06800214161A7
S11319C00161007F042804D128680069804704B9B4
S11319D00446E868C068017F204600F062F942F2DC
S11319E01270844208D1E868C068007F082804BFE8
S11319F0BDE8314000F03DBD31BD2DE9FC4100F0B2
S1131A00C2F821B900202070FFF7D2FF5AE001216B
S1131A10217006694769002000900123E869D0F825
S1131A2014C0DCF804C000AA01A9E0475FEA00087A
S1131A3005D0E8694169C9688847404603E00098D1
S1131A4030B942F21270FFF7B3FF002020703AE081
S1131A50B04288BF30460090E868C068017F08291A
S1131A6013D10199C160009981610198009900F036
S1131A70C8FC804642F27D7080451CBF42F27470FF
S1131A8080450BD14FF0000808E02B68019A0099BB
S1131A909B683846984780460098C7190098361ABC
S1131AA006D0B8F1000F09D0E8694169C9688847D0
S1131AB04046FFF77DFF0020207003E0E868C0681F
S1131AC0066147610020BDE8F6812DE9F04700F08A
S1131AD05AF88AB021B900202070FFF769FF4EE060
S1131AE00121217006694769C168027F212E2CBF3C
S1131AF04FF02008B046A9B1424601A8FFF7C8FD3F
S1131B00E869D0F814C0DCF808C00123424601A9F2
S1131B10E047A6EB080606B168B3FFF749FF0020CB
S1131B2020702CE0032A08EB070906D12B685B68B8
S1131B3001AA4146384698470CE0102A18BF4F4680
S1131B40DED1407F0090434601AA394605F12000CA
S1131B5000F0B4FC5FEA000A4F46D1D0E869456959
S1131B60AD680123002201A9A8475046FFF720FFD2
S1131B700020207004E0E868C06806614761002026
S1131B800AB0BDE8F087834D0446E868C06801697F
S1131B90704710B57F4B1B68DB680446E268A16898
S1131BA0606898479EE62DE9F04105467C4C6E68D6
S1131BB0D5F80880E86877492060002749680C3127
S1131BC030B10A68904223BF4968491C8142042706
S1131BD03046FFF718FA00B904272978384600F090
S1131BE060F89FB966600020FFF7E0FA2068C4F847
S1131BF0088018B180F3088880F30988616840463A
S1131C008847BDE8F0410020FFF7D0BABDE8F08175
S1131C1038B504466068FFF7F6F908B9042005E012
S1131C2065680120FFF7C2FAA068A8472178BDE8DB
S1131C30344036E010B50446211D5A4800F09AFCA1
S1131C4050E610B50446A3686168564804F10C02D6
S1131C5000F0B8FC46E61CB5044600A800210022AA
S1131C6006C0A36861684F4800AA00F0D3FCA268CC
S1131C7000A900F045F813BD10B5FFF78EFE4548E6
S1131C80C168C968A2680A6162684A6110220A7759
S1131C90C068C068E16841770020A168BDE81040D1
S1131CA05BE010B584B0A02201908DF800200022E2
S1131CB000F06AF88DF80220029102228DF80320C8
S1131CC000234469A4680C225BE010B588B0A72304
S1131CD000F03AF80020531C8DF8033006E000AC05
S1131CE051F8203004EB8004401CA3609042F6DBE2
S1131CF000F021F800231AE010B584B0A3222FE0ED
S1131D0010B588B0AF2300F01FF802238DF803301C
S1131D1040B99008801C8DF80300029203A8FFF7D5
S1131D20C7FC01E000200290002300F004F800A9A1
S1131D30A04708B010BD1748C0699DF80310446956
S1131D40A46889000A1D70478DF8003001900023B3
S1131D508DF801308DF80230704710B584B0B02290
S1131D608DF800200190012200F00EF8029100226B
S1131D708DF80220002302228DF803200C224469EE
S1131D80A46800A9A0471FBD0248C0698DF80120BE
S1131D907047000000E0FF1F0CED00E00400FA05AE
S1131DA010E3FF1F20E0FF1F002818BF002901D106
S1131DB0042070470848007800F00302022A08BF94
S1131DC0002005D000F0C00080280CBF01200220B4
S1131DD008700020704700BF02000240002200F09B
S1131DE041BC000038B5DFF8884365682A46042101
S1131DF004F1200000F050FC00AA012104F12000AD
S1131E0000F04AFC286800990818401E6860002009
S1131E1032BDF8B50446DFF858030D46416B16464B
S1131E204A4202EA0401671AEF197F423A4000ABC2
S1131E305242203000F054FC48B99DF8000008B12B
S1131E406C20F2BD32462946204600F08DFCF2BDDE
S1131E502DE9F04FDFF818838146D8F808000069AF
S1131E600D4689B0EE08F600046B9246AF1B04B130
S1131E7001244FF0FF30CDE906002FB13A4606EBBE
S1131E800A0106A8FFF704FCFEF78FFD6842C008AC
S1131E90C000414203AA484600F045F9050002D0BB
S1131EA0FEF789FD41E09DF80C0000B1002406EB2B
S1131EB0090B46B133465246494608F1200000F06A
S1131EC085FC050008D13FB1082306AA594608F14C
S1131ED0200000F07BFC0546FEF76DFD2DBBE4B24F
S1131EE02CB3FEF762FD76B104A80290534605A810
S1131EF00190324600F01FF8494608F1200000F036
S1131F009BFC05000ED16FB104A8029006AB05A896
S1131F100190082200F00FF8594608F1200000F063
S1131F208BFC0546FEF747FD0DB1284600E0002076
S1131F3009B0BDE8F08FD8F808000069806DC0B220
S1131F40009070472DE9F047894D8146A8680069E3
S1131F50066B8AB00F46904606B101260120002484
S1131F60A0FB082310FB043300FB08337842C008AD
S1131F70CDE90823C000414207F00700A246052826
S1131F802FBF0C46FC08E400A7EB040A03AA48464A
S1131F9000F0C9F807003BD19DF80C00C8B1002639
S1131FA017E0FEF702FD082308AA00F037F800F056
S1131FB06BF8002F2CD14EB1FEF7F7FC04A8029069
S1131FC008AB00F030F800F05FF80FBB09F1080926
S1131FD0083C002CE5D1BAF1000F1BD0B8F1000089
S1131FE064F10101CDE90601FEF7DFFC082306AA2E
S1131FF000F014F800F048F857B95EB1FEF7D5FCCC
S113200004A8029006AB00F00EF800F03DF80FB102
S1132010384600E000200AB0BDE8F087494605F1E3
S1132020200000F0D3BB05A801900822A86800692D
S1132030806DC0B20090494605F1200000F0FCBB61
S1132040F8B504460D46FEF7B0FC494E494B2A4606
S1132050214606F1200000F01FFC00F015F88FB9AE
S1132060B0680069006B68B1FEF79FFCB068006956
S1132070836DDBB22A46214606F1200000F048FCBD
S113208000F002F83846F2BD0746FEF794BCF8B5F6
S1132090374EB068006900F160040025216821B959
S11320A06268521E9241D20F00E000228369406BA5
S11320B0B8B1B2B95F4231B1394004D00020FFF762
S11320C0BFFF05002DD171686068496840423840FF
S11320D04042884225D2491C091AFFF7B1FF054640
S11320E01FE0FEF762FC234906F1200000F04EFCDD
S11320F00546FEF760FCA5B9B0680069006B68B1DD
S1132100FEF753FCB0680069816DC9B206F1200086
S113211000F054FC0546FEF74EFC15B916490120A3
S113212008702846F2BD38B5154600222A700A46C2
S11321300F4C014600AB04F1200000F0D1FAA8B91D
S11321409DF8001029709DF8001079B10A4D297886
S113215061B9A0680069816DC9B204F1200000F082
S11321602DFC08B16C2032BD0121297032BD000064
S113217000E0FF1F6B66656B14ECFF1F416882680B
S11321808A4209D2891A416082660FF2ED11016018
S1132190012181600020704742F2787070470FF28D
S11321A0050113E0416ADFF8F4324A898282CA6881
S11321B0921E42604A689A4202D1097A022902DBDD
S11321C042F2757070470FF20D0100BF01600020EC
S11321D07047000010B5044682B0606A41686268C6
S11321E0A1610168C91E9142A16002D342F27670D6
S11321F016BD008910B142F2777016BD8DF800004B
S113220000A9A748FFF7D0FD9DF8000010B142F2E5
S1132210817016BD2046FFF7B1FF16BD38B5A14D3C
S11322202B689B680446626A216EE06D984780B90A
S113223028680069804760B900F03AF800F033F884
S11322400098616E884200D038E00FF22D102060B3
S1132250002032BD38B50446924D00F029F82B68B1
S1132260626AE06D9B6810219847D8B9E06D103020
S1132270E065206E10382066112828BF8A480FD2E6
S113228008B18A480CE028680069804750B900F01A
S11322900AF80098616E884200D00FE00FF2D9006E
S11322A02060002032BD00A904F11C00FEF74ABBE7
S11322B0616A102204F11C00FEF71CBB42F27A7022
S11322C032BD10B5044604F11C00FEF70DFB206E70
S11322D011282CBF7448754890E0724B1B68426EFD
S11322E0016EC06DDB68184710B5044642F27F707A
S11322F0E26D11000ED0606E04F1180190470128C0
S113230003D12046BDE8104038E7022802D100F08E
S11323106EF8002010BD10B500F15C01031D1C68AF
S11323204A685A60944202D242F2767010BD0A7A28
S1132330D20707D50A685C69A24203D1486898604D
S1132340002010BD90F85A10C9075CBFBDE81040CA
S1132350FFF714BF42F27C7010BD90F85A10C90701
S113236048BFFFF794BE4F4A126852695C30416817
S11323700068104700000000B0B5044604F1580599
S1132380606A0FC885E80F005A270120415D7F1855
S1132390401C1028FAD32878F9B2884202D042F2BD
S11323A07970B0BD687807281ED8DFE800F01B04F8
S11323B0080C10131B172046BDE8B040ABE72046BD
S11323C0BDE8B0407DE72046BDE8B04085E742F275
S11323D01270B0BD2046BDE8B04085E72046BDE898
S11323E0B040BAE70020B0BD42F27B70B0BD10B57A
S11323F02F4C70212046FFF7F1FC2E48206000206E
S113240010BDF8B504460D46002000262A4FAE4202
S113241017D03869C0F11000A91B09E079B13B69F4
S1132420325DDA55761C3A69521C3A61401E491EE7
S11324300028F3D1386100F005F810B9E7E742F25B
S11324407D70F2BD1A491C4A4A620020CA6842B132
S11324500869904202D2401C086104E042F27470A0
S113246070478A6E12B9084609680847521E8A6680
S1132470704738B50E4890F8591004290CD100F172
S11324805C042568280004D00020FEF78FFEA068B5
S1132490A84742F27E7032BD002032BD53544D50E5
S11324A020E0FF1F00E0FF1F552200001D22000056
S11324B030E7FF1F9F210000A0E7FF1F2DE9F8432D
S11324C05FEA0008914614BFB9F1000F04200E46DC
S11324D01D461CD0089C22462946304600F019F8B7
S11324E0A8B907E0796849F8041B0836B96849F8BF
S11324F0041B083D5DB11B4807681B483E6003216F
S1132500017004714046FFF7A1F80028EAD0BDE845
S1132510F28310B510F0070F08BF11F0070F01D0B8
S1132520652010BD022A1BDA0C18641E012A06D18C
S1132530082804BFC81D0F2812D1002010BD002A8E
S1132540FBD1B4F5806FF8D3B0F5802F02D30749DF
S11325508C42F2D3B0F5002F02D305488442ECD369
S1132560042010BD440600000700024000040400DB
S11325700004080010B50A46002818BF002A01D13B
S1132580042010BD0E4B1C78002104F00304022C1F
S113259014D0452159711178597251781972917872
S11325A0D971D178997111795973517919739179D4
S11325B0D972D1799972FFF749F80146084610BDDE
S11325C002000240F8B5160004460D461F4601D12C
S11325D00420F2BD3A46FEF7A1FFB0B90B484321EF
S11325E0417005700A480068316841600DB10C2DD6
S11325F003D2082F04BF716881602046FFF726F8D4
S113260005462046FEF7AFFF2846F2BD060002400D
S113261044060000F8B5150007460C461E4601D1D5
S11326200420F2BD3246FEF779FF90B909484121F2
S1132630417004703846FFF709F850B90649096833
S11326404A682A600CB10C2C03D2082E04BF896896
S11326506960F2BD060002404406000062F30F22E6
S113266062F31F4200B500BF13009646944610392A
S113267028BFA0E80C50FAD85FEA417C28BF0CC000
S113268048BF40F8042BC90728BF20F8022B48BFD5
S113269000F8012B00BD0000002818BF002A01D15A
S11326A004207047072918D8DFE801F004080A0D50
S11326B00F111315C0681060002070474068FAE7D6
S11326C040688008F7E78068F5E70068F3E70120D1
S11326D0F1E74069EFE78069EDE76A2070470000A1
S11326E02DE9F04180461E000D46174608BF042020
S11326F034D00823FEF7EBFE80BBD8F814307A19E7
S11327005F42C2F1000C07EA0C0CCCF1000C2F4024
S1132710ACEB07070021B7FBF3F7DFF844C00AE08E
S1132720DCF800E0203C6FEA0E0E2EFA04F4E40715
S113273048BF491C5D1995420AD2B5FBF3F4202C1D
S113274038BFDCF804E0EED3D8F818E07445E7D3DA
S113275019B1B94234BF022101213170BDE8F081C1
S11327601800024000F036B9134680B50A46014607
S11327701846FEF78DFF002002BD70B510F0030F60
S11327800C46154612D0B0F1005F0FD22118491E35
S1132790B1F1005F0AD3C0F1005632462946FEF774
S11327A077FFA21B71194FF0005001E02246294621
S11327B0FEF76EFF002070BD10B514460A46214690
S11327C0BDE81040012300F045B900002DE9F041B7
S11327D0044615000E461F4608BF042025D00823D2
S11327E03A46FEF774FE5FEA000802D01DE00836A0
S11327F0083FB7B10E480068066055F8041B4160F5
S113280055F8041B816007200A4908702046FEF72A
S11328101DFF80462069010018BF8047B8F1000FF2
S1132820E5D02046FEF79FFE4046BDE8F08100BF9C
S113283044060000070002402DE9F04106465FEA25
S113284003080D46174608BF04201ED00423FEF7D4
S11328503EFED0B9069C01E03F1F2D1DAFB10C48D0
S11328600C490068056002220A700C7158F8041BB8
S113287081603046FEF7EAFE0028EDD0079901B1E9
S11328800D60089909B100220A60BDE8F08100BF1B
S113289044060000070002402DE9F0419846044632
S11328A00D4616461023FEF712FE07001AD17019C2
S11328B0461EE068B6FBF0F100FB11622AB1491C28
S11328C04843461E01E0E0684519AE4217D30E485E
S11328D00E4900680560092008704046FEF70DFEA9
S11328E0070002D03846BDE8F0812046FEF7AEFE70
S11328F007462069010018BF8047002FE3D0204617
S1132900FEF731FEEEE700BF440600000700024078
S11329102DE9F84F984604460D4692461023FEF7DB
S1132920D6FD60BB6068A168164FB0FBF1F9684240
S1132930C9F1000108404642AE4208BF4E4403E0DC
S1132940AAEB0B0A5D444E44BAF1000F16D00E49AF
S113295009680D60701BD346824588BF83460121F8
S113296039704FEA1B10010A3971F87087F8028038
S11329702046FEF76BFE0028E2D000E00020BDE810
S1132980F28F00BF070002404406000038B504007F
S1132990084601D1042032BD074A44211170FEF7D4
S11329A0ACFD050007D12046FEF750FE0546204643
S11329B0FEF7D9FD284632BD0700024008B90420BD
S11329C07047034A402353701170FEF73FBE00BFA7
S11329D0060002401D480068000B00F00F00C01EF6
S11329E0082830D8DFE800F005080B0E1114172F63
S11329F01A004FF4804013E04FF4C04010E04FF44D
S1132A0000400DE04FF440400AE04FF4803007E00E
S1132A104FF4C03004E04FF4003001E04FF4802064
S1132A200321421E10420A4A526818BF02214B1C5D
S1132A30B0FBF3F0C0F1005342F80C3F6FF0604379
S1132A4001FB003050600020704700BF007004405C
S1132A5000E0FF1F002A01D101207047F0B41F4697
S1132A60034603242340002B09D00424E31A0170F5
S1132A7001300824E141521E26D05B1EF7D1042AFE
S1132A801ADB13D0002F11D00C460D460E46102A27
S1132A9002DB72C0103AFAE70C2A02DB32C00C3AAD
S1132AA0FAE7082A02DB12C0083AFAE7042A03DB31
S1132AB001600430121FF9E7002A05D001700130CB
S1132AC00824E141521EF7D1F0BC002070470000F9
S1132AD040682C49405C70472B494A6842B10A68F7
S1132AE013780370501C08604868401E48607047A3
S1132AF000210170704710B55A280CD1214A0123D6
S1132B008B54142404FB01210FF20D03CB60BDE8A8
S1132B101040116C084710BD1A49096C084730B5BC
S1132B20184D296485B0044600A80FF260011422F0
S1132B30FEF7BEFD6068A268022190476068142118
S1132B4001FB00510A1D00A900F091F8002005B016
S1132B5030BD10B504460B486168142202FB010025
S1132B60001D00F0F0F86068A268BDE81040002184
S1132B70104705480160426041680029FCD10020EB
S1132B807047000024E3FF1F1CE3FF1FD92A000045
S1132B90F72A000000000000080000000101000006
S1132BA02DE9F041044682B0D4F800800FF20820E9
S1132BB050F82870F86A261D00012BD5B268100061
S1132BC028D041464FF49670904723E000F04BF82C
S1132BD020699DF80050092805D300F044F89DF8B9
S1132BE0000045EA00252069112805D300F03BF8D0
S1132BF09DF8000045EA00452069192805D300F036
S1132C0032F89DF8000045EA00657D63F86A40F0FB
S1132C100070F862F86A8001D8D4F86A800320D57D
S1132C20BD6BF86A40F40030F86241467268E8B25D
S1132C3090472069092804D3280472684146000E8D
S1132C4090472069112804D3280272684146000E77
S1132C50904720691928E0D372684146280E9047AE
S1132C60DBE7BDE8F3813268414600A81047F0B5C0
S1132C7004460FF2441050F824700D46164685B0F1
S1132C8014213046FFF7AAF80ECD301D0C3D0EC0BE
S1132C903460E868306146481CB1022C0AD004D381
S1132CA00CE0C16841F4805102E0C16841F4005174
S1132CB0C16003E0016841F480510160384600F0CE
S1132CC0A8F800208DF80000ADF80C0000A9E86811
S1132CD00190287C8DF80800687C8DF8090038463E
S1132CE000F074F868BB386820F480403860012232
S1132CF00121384600F0B9F82E48002100F83410BC
S1132D0000EBC400012246601921384600F0F8F8AF
S1132D1001221121384600F0F3F801221B21384624
S1132D2000F0EEF8002078630121F86A40F00070AA
S1132D30F8622046FEF716F938684008400038600B
S1132D40002005B0F0BD70B504680FF26C00184E99
S1132D5050F824501CB1022C0DD006D312E0F068B8
S1132D60C00424D5002100200AE0F06880041ED5A8
S1132D700021012004E03068C00418D5002102209D
S1132D80FEF7F0F8284600F044F81CB1022C0AD0F3
S1132D9004D370BDF06820F4805002E0F06820F4A1
S1132DA00050F06070BD306820F48050306070BD19
S1132DB03080044050E5FF1F00C0024000D00240B4
S1132DC000C00A404001474A1150704738B50D46CB
S1132DD004462878444A6101C043505000212046EB
S1132DE0FFF7F0FF2A1D0021204600F044F810B13F
S1132DF040F2311032BD6A7B297B204600F021F875
S1132E0000F001F832BD206820F04050206000201E
S1132E10704710B504460122206820F480402060E9
S1132E20012020600146204600F01FF82F48E06290
S1132E300020A060E0602061206344F20100206073
S1132E4010BD30B50368C3F380331BB1046824F4A8
S1132E50804404604401264D295126490A511BB17E
S1132E60016841F48041016030BD4001224B19509A
S1132E7022490A50704730B51568042D09D3112D25
S1132E8002D30368DB0F04D1212D05D30368DB0FC4
S1132E9002D140F2311030BD00EB81015379147935
S1132EA000686D1E5B06A406ED06C00FC86803F03B
S1132EB0007304F0806405F0F0450AD020F0FE4071
S1132EC09279284320431206184302F0807210437B
S1132ED004E020F0FC40284320431843C86000204D
S1132EE030BD00007C0000423800004200000A9A15
S1132EF034000042300000422C000042280000420E
S1132F0010B5036B01248C40A34302FA01F1194369
S1132F10016310BDC0F8BC117047C0F8B011704710
S1132F20C0F8B4117047D0F8B4010840704709B133
S1132F3000EB8100D0F8C0017047416821F4FE41E4
S1132F404160704738B504460D4600F093FD606952
S1132F5000E0006910B18542FBD10BE060690028F4
S1132F600EBF6561A0690561A56100202861E06963
S1132F70401CE061E2E02DE9F0410446884694F803
S1132F809D003249D02212FB0011A1F5D076801E9B
S1132F9030604FF4206231682D4802FB010000F5D7
S1132FA0C0603061002037697061B061F0610C2548
S1132FB039463046FFF7C6FF1C376D1EF8D1C8F8F6
S1132FC00060B4600020BDE8F0812DE9F041804646
S1132FD00C0008BF8B2035D004F1B60500F06EFD5F
S1132FE06873FF262E804046271D00F05DFD386083
S1132FF0404600F059FD00F58070F8613868D0F85B
S1133000240100F01F00E873E87B0928A8BFFF2013
S113301018DA0F484FF4206111FB0800A0F5A05105
S11330203962A0F5805078622246687B0FF2215104
S113303000F049FD08B98A2004E02E80204600F003
S113304009F80020BDE8F0810000000068E3FF1FDC
S113305000F0FF1F2DE9F0415FEA000851D000F0B5
S113306009FD08F1040508F1B406E8690168C9B26C
S11330700818A86000222868D0F8A81189088900D7
S113308041F0020100F03FF841F0080100F03BF884
S113309021F00401C0F8A8110021707CA962E96242
S11330A04006296A06E0930140275F505B18012718
S11330B09F60521CD2B2B2EB106FF4D32868C0F8F0
S11330C0581100206F6A3080102400F0E0F839466F
S11330D0404600F01EF82037641EF6D12868D0F868
S11330E0481140F247121143C0F8481100F0CCFCDB
S11330F0FF2070802868D0F8401141F00101C0F829
S11331004011BDE8F081C0F8A8112868D0F8A811D2
S1133110704738B504460D4600F0ACFC04F12C00B1
S1133120016800290EBF056041680D6045600020FC
S11331302860B4F8B400401CA4F8B400BDE83140E1
S113314000F0A2BC2DE9F34F83B000F093FC0123FF
S1133150049886684178027801EB4200090151FA2B
S113316082F103FA01F10191C0B203990C1D4FF0F1
S113317000082168D1F8581101EB8019039901EB7B
S113318080000025C3460090A76AA06AB6F5804F68
S11331908CBF4FF4804AB246A6EB0A0628B1A06A57
S11331A00068A062A06A00B9E0621FB900F06CFC7C
S11331B0972069E00398B0F8B4000399401EA1F881
S11331C0B400BBF1000F08BFB84600203860786037
S11331D0B860F86038617861B86100F058F8049814
S11331E040685844B86000F58051F960D34400F554
S11331F00051396100F54051796100F58040B861B2
S11332004FEA0A400EB940F4004040F08000786074
S11332100098406B10B90098476301250098406FEF
S11332200499F96100994F6700B10760002EABD192
S1133230F5B92068D0F8B0010199084221D120687D
S1133240D0F8401141F48041C0F840112068D0F812
S1133250B8012168D1F840114904F0D52168D1F8AA
S1133260402122F48042C1F840210199084208D14A
S1133270C9F808800020C9F80C0001992068FFF7FC
S11332804CFE00F001FC002005B0BDE8F08F0120E9
S11332903860384651E655E754E72DE9F04F87B0DA
S11332A004464FF0000ACDF818A000F0E3FB10220A
S11332B0002101A800F00BFCA0680190D3466068CF
S11332C0D0F8AC61FEB1002504F1C70726FA05F079
S11332D0C00714D501208DF812008DF810A0082025
S11332E08DF813A00390002F02977BD03A4600215B
S11332F0204600F05EF901A9284600F01AFC6D1C76
S1133300EDB2102DE2DB6068D0F8BC0100900146FC
S11333106068FFF7FFFD0098002861D00025009841
S113332020FA05F1C80758D5102DA7BFA5F110063E
S11333304FF001082E464FF0000808EB4601C9B2D1
S113334004EB8100406B6268D2F8582102EB8111D2
S113335005910AE017B1394600F064FA01A9F0B208
S113336000F0E7FB4FF0000A4846B0B34168090695
S113337033D4C76927B1D7F808B0796802910697A2
S1133380016849094FEA4119416811F0680106D101
S11333904068C0F30E408244ABEB0A0B06E04806DB
S11333A004D50598C06888430599C8604246F1B2BF
S11333B0204600F0BAF90020B9F1000F8DF8106032
S11333C08DF812008DF81380CDF80CB0C2D0D9F866
S11333D01C0006998842C7D0C0E76D1C202D9EDBD7
S11333E000F052FB07B0BDE8F08F30B585B004465D
S11333F0002500222946204600F05EF901222946D4
S1133400204600F059F96D1C082DF2DB251D2868B3
S1133410D0F85411C901C909C0F854112868D0F86A
S1133420AC012968D1F8AC2100F00F001043C1F8B9
S1133430AC012868D0F8BC112868FFF76BFD286838
S1133440D0F8B0010028FAD128684FF0FF31FFF717
S113345067FD2868D0F88401C00506D504F1B600DC
S1133460012101730321018002E02046FFF7F2FDF0
S11334706868009000A900208DF80C00ADF80E00DB
S113348001900290102000F054FB05B030BD00B54F
S113349000F1B60185B00A880A8180220A8000A959
S11334A080680090FF208DF80C000020ADF80E001D
S11334B001900290142000F03CFB05B000BD30B533
S11334C0041D85B06168009100F1B605FF218DF8F7
S11334D00C100021ADF80E10287B00B1297300F008
S11334E02CF8C00506D400F028F8800546BF022059
S11334F0A873A97300F021F8000609D5288828814B
S11335008020288002910191112000A900F011FB74
S113351000F013F800060CD42888802809D12889E3
S1133520288000A9002002900190132000F001FBE4
S113353001E00220288005B030BD2068D0F8840165
S11335407047B0F8BC10491CA0F8BC1070470000CC
S113355038B50446606800F5A2700168406800EA66
S113356001056068C0F84451680644BF2046FFF76F
S11335703CFFE80744BF2046FFF78FFE680744BFBF
S11335802046FFF79CFFA80744BF2046FFF7D9FF5A
S1133590E80503D52046BDE8324078E731BD4268EE
S11335A04B06B630C2F85431017401210180002069
S11335B07047F8B504460D466068D0F858011646C1
S11335C000EBC5176068D0F8401141F40051C0F811
S11335D04011082207F12801304600F070FC6068B1
S11335E0D0F840018004EDD56068D0F8401121F492
S11335F00051C0F8401101216068A940C0F8AC1125
S11336000020F2BD38B50D460446A87DC0F3410044
S11336102876A8780428BCBF6A78022A4ADA29786E
S1133620204600F082F86068D0F858012A7869785A
S113363000EBC21000EB8110012302EB0111626860
S1133640D2F8B02103FA01F10A4202BF6268D2F84B
S1133650B8210A422ED1A978012907D1297E01B9BE
S11336600121AA8A890741EA024105E0A98A0904DD
S113367041F0005141F4004101606068A9786A7822
S11336802B784FF440042BB9002A12BF1222C02415
S1133690022206E0002A06BFC0240222122200EB06
S11336A08300D0F8C031914021431943C0F8C011C0
S11336B0002032BD952032BD70B504460D46164635
S11336C000F033F86068D0F8580106EB450100EBD0
S11336D08110012105EB061291406268D2F8B021F5
S11336E00A4202BF6268D2F8B8210A4211D100210D
S11336F00160002E606800EB850014BF6FF40C01BC
S11337006FF08C01D0F8C4211140C0F8C41100201E
S113371070BD962070BD490051FA82F100EB810022
S1133720406B08B1C069C07870472DE9F047044682
S1133730012001EB021300FA03F502EB410061687A
S1133740D1F8581104EB800901EB8018D9F83460E2
S1133750002E5ED03068470970687F01000617D5D7
S113376060682946FFF7DCFB60682946FFF7DBFB4E
S11337700028F9D100F050F80AD060682946FFF714
S1133780CFFB60682946FFF7CEFB0028F9D1F1E7AB
S1133790002070603146012030602046D6F81CA01D
S11337A0FFF7B7FC87B90020C9F83400BAF1000F5D
S11337B0C9F8740001D000F034F80120C8F80800FA
S11337C00020C8F80C0024E0C9F83470BAF1000FE6
S11337D01CBFF869504501D000F023F87868000652
S11337E017D560682946FFF798FB00F015F810D14B
S11337F06068D0F8B0012842FAD100F00DF808D181
S1133800C8F808700020C8F80C0029466068FFF763
S113381084FB0020BDE8F0876068D0F8B801284236
S1133820704751462046FFF78DBB4168D1F84821C7
S113383022F04702C1F848214168D1F840215208DA
S11338405200C1F8402102214068C0F84011002014
S1133850704710B54368D3F8583103EBC113940192
S1133860E35840681B0407D509B100EB8100D0F888
S1133870C01141F001110CE04FF4803311B92AB9A1
S1133880012303E002B9012300EB8100D0F8C01149
S11338901943C0F8C011002010BD50B543684FF45F
S11338A0803611B92AB9012603E002B9012603EBD7
S11338B08103D3F8C041B443C3F8C041406859B14F
S11338C000EB8100002AD0F8C01114BF4FF480022D
S11338D040221143C0F8C011002050BD38B50C4639
S11338E04068154604F00F01FFF721FB21064CBF89
S11338F04FF480310121084018BF012028800020A6
S113390032BD80B501F00F01092901DBFF2002BDA2
S1133910012A03D10022FFF79CFF02E00AB9FFF756
S1133920BCFF002002BD70B504000D46164601D14F
S1133930FF2070BD00F09EF8012D04F1B60007D001
S1133940042D07D0052D07D0062D08BF468004E0BE
S1133950068002E0468100E0868021E070B5050023
S1133960144618BF002C0E4601D1FF2070BD00F094
S113397081F8012E05F1B60008D0032E0AD0042EDA
S11339800AD0052E0AD0062E02D009E0008806E0EF
S1133990408804E0007C02E0408900E080882080C8
S11339A000F072F8002070BD38B504000D4601D156
S11339B09C2032BD00F05EF8E06918B900F064F8AC
S11339C0C12032BD60692860606928B160690069FE
S11339D06061606900B9A061E069401EE06100F0C7
S11339E053F8002032BD000070B5A0F11003DBB223
S11339F00829B8BFFB2B1CDA03F0030423F00303EC
S1133A0003F1604303F56143E400D3F80053FF2658
S1133A104901A64001F0E001B543A1402943C3F8A0
S1133A20001312B100F008F801E000F010F80020D3
S1133A3070BD4FF0FF3070BD1038C0B2FB2805DAFE
S1133A40012100F01F029140144A0DE009E01038F2
S1133A50C0B2FB2805DA012100F01F029140104A90
S1133A6002E04FF0FF307047400942F82010002078
S1133A70704700000B480168002900D172B6016844
S1133A80491C0160704700000648016800291EBFF8
S1133A90491E0160002900D162B6704700E100E0D0
S1133AA080E100E070E6FF1F08B902487047024851
S1133AB0704700000020074000100A4008B9452064
S1133AC070476D20704700F001BAFFF78DBF10B545
S1133AD0044610460A4601462046FDF719FE2046D4
S1133AE010BD000038B50D460446687B38B1102877
S1133AF002BF002204F1080000F098FA04E000225A
S1133B0004F1080000F004FA00200C2101FB00413C
S1133B1001F13C026B7B117A994205D1516812681C
S1133B2028469047002032BD401C0828EDD383204E
S1133B3032BD0A68487310F07F0307D000F07F009D
S1133B40102803DAC87B43EAC01048731046C9E75B
S1133B504268126B13001CBF00681047FF207047B7
S1133B6070B500F01EF86068E90606D5436A1800CF
S1133B700AD000F006F9984718E0436C180003D007
S1133B8000F0FFF89847F7E714E070B500F009F883
S1133B906068036C180003D000F0F3F8984705E060
S1133BA008E004460D461646FFF764BFFFF76CFFB6
S1133BB0002070BDFFF768FFFF2070BD2DE9F843BA
S1133BC00446884600260020A422344912FB00152E
S1133BD005F19C073978012905D1401CC0B204289D
S1133BE0F3DBC1204EE000212846FFF770FF0120DF
S1133BF038707C70FCF70EFE05F1080928497860DE
S1133C00602212FB0411C9F81410FF2231460C2360
S1133C1013FB0153491C082983F84420F7DB21498D
S1133C201CB1012C02D10E4604E00E46022C14BF36
S1133C30032C1D4E1EB900203870C02022E06E6097
S1133C403268100002D0294628469047286808B9EF
S1133C50872017E0C9F80400C9F80850204600F08E
S1133C6031FB30B1716B08001CBF28688847C42041
S1133C7008E07268100007D029682046904728B9E8
S1133C80C8F80050BDE8F283FF20FBE7716B080021
S1133C901CBF286888478D20F4E700008CE8FF1FCC
S1133CA0A00700207C060000D405000010B54B6876
S1133CB09B68024600201C0003D0BDE8104010465B
S1133CC0184710BD38B5040001D1FF2032BD04F1FE
S1133CD09C056868FCF7A3FD6068416B08001CBF85
S1133CE0206888470020287032BD00B587B0C0B175
S1133CF00B788DF800308B788DF801304B68ADF877
S1133D00143049788DF802108DF8162000210291A4
S1133D10039141688A69110003D0006800A99047A3
S1133D2000E0FF2007B000BDF8B500F097F81F468B
S1133D3001D1FF20F2BDFFF79DFE00200C2101FB05
S1133D40004292F84420AA4203D1FFF79DFE84204A
S1133D50F2BD401C0828F2D3002001FB00423C3293
S1133D60137AFF2B06D1157216605760FFF78CFE8D
S1133D700020F2BD401C0828EFD3FFF785FE812008
S1133D80F2BD2068324629467047F8B504000F4654
S1133D9015461E4619D06068826C100015D0206844
S1133DA000A9904788B9FFF765FE009807700020C6
S1133DB000F033F80269100007D00099206890479A
S1133DC000F050F81CB90020F2BDFF20F2BD942091
S1133DD0F2BDF8B504000F4615461E4619D06068BA
S1133DE0826C100015D0206800A9904788B9FFF7AD
S1133DF041FE00980770012000F00FF8C26810001F
S1133E0007D000992068904700F02CF81CB90020D6
S1133E10F2BDFF20F2BD9320F2BD009948700098D6
S1133E2086600098456000200099C86006200099CB
S1133E30C8706068704770B500F010F80CD0FFF7D8
S1133E4019FE6068036A180006D0FFF79AFF9847C6
S1133E5000F008F8204670BDFF2070BD04000D4638
S1133E60164670470446FFF70FBE10B538B14368D5
S1133E70DB6B1C0003D0BDE8104000681847FF202E
S1133E8010BD08B9FF2070470162426200207047EC
S1133E9008B9FF2070478162C2620020704708B9E8
S1133EA0FF207047016342630020704728B14168D6
S1133EB0C96C0A001CBF00680847FF20704710B592
S1133EC00446FDF7E5FB204610BD000045280F4BD6
S1133ED002D119605A6008E06D2802D1D9601A61D4
S1133EE003E0332804BF59619A60012070470748F2
S1133EF001680A001CBF4068084770470348C1684E
S1133F000A001CBF006908477047000050E8FF1F03
S1133F107FB504460020ADF8080003900E46A06863
S1133F2002AA0121FFF71CFEB07BCE25002850D049
S1133F307168082204F10C00FFF7C1FF208A217B7D
S1133F4020826022E089E0811142608A608217D178
S1133F50607B354901EB8002966A32005AD0BDF885
S1133F600820032A56DA00EB40004018105C0128B0
S1133F7050D101AB03AA04F10C012046B04726E05E
S1133F800190D8B1207B000618D401980830552838
S1133F9005D3A06800220021FFF767FF7FBD606999
S1133FA0082204F10C01FFF78AFF6069019B00F10C
S1133FB0080230680021FFF7E8FE7FBD266A300062
S1133FC028D0636A01AA03A904F10C00B04705468E
S1133FD020E0BDF80800042805D16188A068C9B2B2
S1133FE0FFF7B6FD7FBD207B00061CD4F07BD0B963
S1133FF0608AC0B1206A48B1B06808300190636A31
S11340006069256A01AA03A9A8470546B06810F1AA
S1134010010F08D001A8009003AB04F10C02E9B22F
S1134020204600F029F87FBD58E2FF1F30B5044652
S113403083B0A0680D46FFF739FF00208DF8020019
S11340408DF8000001224020019000A900208DF885
S113405001002868FFF749FE01208DF802000122C3
S1134060286800A9FFF741FEE269A06918B1A369B5
S113407000210020984737BD38B50446CE2915469F
S1134080184606D1A068BDE8384001220021FFF798
S1134090ECBE0499EA880B689A4238BF0A60026849
S11340A00B68A0680021FFF794FE2878000608D565
S11340B0A06801B0BDE83040002200231146FFF79C
S11340C064BE31BD70B5154604461E460A78FF200D
S11340D01F231A4209D1A06822460621FFF740FD9A
S11340E0217801F00301218013E002F01F03012B6A
S11340F003D10021218001210CE002F01F02022AD9
S113410009D1888840F01001A0682246C9B2FFF79F
S113411027FD022131602C60C0B270BD70B5044629
S113412082B000201860CE250A7848781F231A42EE
S1134130C0F3400012D1897811F0030138D001296D
S113414036D1002814BF11261226A36900251800B1
S11341502ED0626A00213046984729E002F01F02FF
S1134160022A02BF8A7803231A4221D189888DF852
S113417000109DF800209DF8001001F00F01D209F5
S113418020B1A068FFF771FE132608E09DF8000037
S113419014260F23184203D1A068FFF74CFE0546EE
S11341A0A369180004D0626A00A930469847002524
S11341B0E8B276BD38B50446002018600D46A06804
S11341C004220121FFF7E1FC68886080002032BDF1
S11341D001211960303010600020704738B500228A
S11341E004461A604888ADF8000000B90122A068AE
S11341F00121FFF7CAFC0546BDF80000A36920862B
S113420018000BD0E26900A901209847BDF800000E
S113421020B1E269A369002103209847E8B232BDC6
S113422038B50446012018601546A06A4368180092
S113423001D1CA2032BD8988E06A2246C9B29847B2
S11342402C6032BD38B5044600200D46186028782D
S113425000F00300012801D0042032BDA06A836865
S1134260180001D1CA2032BD6A88A988E06AD2B296
S1134270C9B29847A369180003D0E269A91C0220B7
S11342809847002032BD38B5044602201860154610
S1134290A06822460521FFF763FC2C60C0B232BD42
S11342A030B5846A83B02468250001D1CA203EBD9C
S11342B04D8801930092EAB28B88C06A290AA0470C
S11342C03EBD0000B0B5054600244C4F4C4815BB1C
S11342D0016841F48021016009214164016B41F4CA
S11342E080210163002D47490C606BD1386840F090
S11342F0807038601021386840F0004038604248CF
S113430004700172017B41F0400101730020FFF74A
S1134310D5FB01226CE0022D51D13C490A7842F0D0
S113432002020A703A490A7842F080020A7001686F
S113433041F002010160C16A41F00601C16201203D
S1134340FCF716FB33483449B8601F200860334833
S1134350016841F480510160016841F0010101608C
S1134360016821F480310160016841F0400101607D
S113437001680029FCD52A490A6B520052080A63D5
S11343800A6B22F080420A630A6B42F440420A63D9
S11343900C60026E42F4C0720266026E0266026E25
S11343A022F480620266026E22F002020266026E4B
S11343B0002AFCD5086940F08070086192E74FF04C
S11343C0FF3418E0022DFAD11648016841F00201C9
S11343D0016001688907FCD4022181660122016819
S11343E021F47F010160816E41F0080181666D2036
S11343F00421FFF76AFB2046B0BD00BF00700440F3
S11344000480044000D000400021074000400640E2
S1134410005006400001600030210A40A0200A40FC
S113442000200A4040110A4038B50400084601D172
S1134430042032BD074A49211170FDF75EF80500DA
S113444007D12046FDF702F905462046FDF78BF813
S1134450284632BD0700024080B5094901EBC0027D
S113446011F8300028B1074840B15068C046C04632
S113447001BD054810B15068FEF792FB01BD000074
S113448050E5FF1F00000000A12B00000020E3E71F
S11344900120E1E70220DFE7002000E0012038B539
S11344A00FF2781151F82040594901EB0013E178DB
S11344B0E27801F012052A43E27001F05002102A5A
S11344C010D04A0614D54807A0780CD540F0100047
S11344D0A07000208DF8000000A8196888479DF896
S11344E00000207131BD00F0EF00A070207931BDD3
S11344F0A278C2F300121AB1C807EAD5A078F2E78D
S11345002279014610465A68904731BD0FF20C11CA
S113451051F8200000218170017081717047F8B555
S113452004000FF2F8003A4F50F824600D4695E865
S11345300F0007EB041787E80F00364801680CBF2B
S113454040228022114301600020B07001214020EC
S1134550B0710220F0702046FCF720FD3078297BF2
S113456040084941317000207071B0717070B078AA
S113457040F08000B070B07840F04000B070F1BD01
S113458038B50500234C03D12068400605D431BD5D
S1134590012D10D1206800060DD500212846FCF716
S11345A0FDFC2846FFF7B2FF2068002D0CBF402118
S11345B080218843206031BD30B50FF2600353F889
S11345C020004FF47A73B1FBF3F1134BB3FBF1F119
S11345D0002300E023465C1C01FB04F59542F9D35B
S11345E02BB90A2462438A4204D3012302E0202B1C
S11345F028BF1F23817901F0A00103F00F021143AA
S1134600817130BD024A02EB001041607047000026
S113461068E5FF1F3480044040420F0000600640FC
S11346200070064000600E4000700E4040682F4944
S11346304018007C70472E494A6842B10A681378D2
S11346400370501C08604868401E48607047002191
S11346500170704725494969084738B504465A2C02
S113466008460BD1214D4219012111742149FFF74C
S1134670C9FF6969BDE834405A20084731BD10B507
S113468004461A49FFF74BFFFCF7B6FB01462046E8
S1134690BDE810403222FFF78FBF10B5044613481F
S11346A0416115498968096991F88110FF2918BF8A
S11346B001736068A268022190476068FFF7DFFF1A
S11346C0002010BD10B504466068FFF759FF60680C
S11346D0A268BDE81040002110470548016042600F
S11346E041680029FCD10020704700005CE0FF1FF6
S11346F0A0E5FF1F5546000000E0FF1FC9B2012AD4
S1134700DFF8B82912F821300CBF0120002008E09E
S1134710C9B2012ADFF8A42912F821300CBF042001
S11347200820184302F821007047DFF89009C9B245
S113473010F8212002F0FD0200F82120704738B55E
S113474004460D46FFF796F9206900280EBF25613F
S113475060690561656100202861A069401CA06151
S1134760BDE83140FFF790B938B504460D46FFF770
S113477081F9A06918B9FFF787F9C12032BD206912
S11347802860206918B10069206100B96061A069DE
S1134790401EA061FFF778F9002032BDDFF8201930
S11347A001F5007201F51471C1600161C2620C214E
S11347B081610B22C16801F11C030B61521E194671
S11347C0F9D10A6141610020704710B582B00446F6
S11347D000A9FFF7C9FFDFF8EC08406804F12C01D9
S11347E0400A0A68CB7D40020BB9426005E040F004
S11347F0080402F1080363600832009B5A60002237
S1134800009B1A70009B5A70009B9A60009B9A70E0
S11348100122009BDA75009A8A6000224A75C97DDC
S113482001F0010140EAC100DFF89C18016013BDEA
S1134830F8B506460F4614461D46FFF71BF900F06F
S1134840E9FA07F00F0140EA4110142111FB076156
S113485041318A7802F0010240EAC20254608A7847
S1134860097802F0010240EAC200AA0501F0010140
S1134870920D890141EA024141F088010160FFF78C
S113488003F900F069FBF2BD10B5142414FB010018
S113489001F00F0130F8384F9C4288BF1C46029B40
S11348A01C60DFF820385B685B0A5B0243EA411155
S11348B0837A03F0010341EAC30343F010035A600F
S11348C0827A007A02F0010200F0010041EAC2019A
S11348D0A205920D800141F0100140EA024040F02F
S11348E0880000F038FB10BDF0B5DFF8E017DFF802
S11348F0D447FF220A720B7D43F002030B750B7E33
S113490003F080030B76002365686D0A6D0203F0E3
S11349100F0645EA4615002645F008072E603E605E
S113492045F0100745F018053E602E60142505FB80
S1134930030542356E702E700025DFF88067DFB204
S11349405B1C06F82750062BDED3257001230B7061
S11349501C300B7D03F0FD030B75C573022303802C
S1134960032343800A73087940F08D000871087DA1
S113497000F0DF0008750020F0BD2DE9F047DFF8F6
S11349804C5788B08146287CDFF838678DF81C00C6
S1134990287C00090090012814BF0228287C0821E3
S11349A0287C2A7C2970C0F3C0007168009B490AE6
S11349B0490241EA431141EA0013C2F3800243EA87
S11349C0C2021268C2F3094AC2F3830202920D2A98
S11349D00CBF4FF001084FF00008009A142303FBAA
S11349E0029202F13004009A4AEA0202019270B380
S11349F02768002F25D0F8685044F860B968091A70
S1134A00A07C80F00100A074207C80F00100207460
S1134A1002D02089824515D200F08CF820604846E7
S1134A20FFF78DFE2089824504BF009800285ED1DF
S1134A30012030700022D9F8040000231146FFF74A
S1134A40C8F974E03946484600F0E9F96FE0019886
S1134A50002854D0307808B1002030706768002FE7
S1134A6065D0F87D68B9E07CFA6800F0010041EA9D
S1134A70C00041687868101881421CBF5246FFF795
S1134A801EFAF8685044F860B9680E1A00980028B5
S1134A9004BF02980D280ED101220021484600F0DF
S1134AA0B8FA09F14000012101704170C17881F028
S1134AB00101C17007E0607C80F001006074E07C5B
S1134AC080F00100E074B868002818BF002E02D0FE
S1134AD02089824506D200F02DF860604846FFF731
S1134AE02EFE0CE03946484600F0BEF91FE001985E
S1134AF0002801BF307800284846FFF766FED9F841
S1134B00040003908DF81A8003A900988DF818000A
S1134B109DF81C00C00800F001008DF81B000098EF
S1134B20C0B2FFF706F8287D00F0DF00287508B052
S1134B30BDE8F087F868059039467868049000204D
S1134B407047DFF8881504220A70DFF8842513798A
S1134B50127842EA0322028420200870704770B55C
S1134B6004460025142000FB054000F13806B07807
S1134B70012822D1D4F8AC002946FFF7D6FDDFF88E
S1134B80440532884068400A400205F00F0140EABB
S1134B904110B17A01F0010140EAC101920541F0EE
S1134BA01001920942F008020A60F17A01F0010151
S1134BB040EAC100318800F01EFA6D1C062DD1DBDD
S1134BC0DFF808158020087094F83A00012806D10F
S1134BD0002084F83A002046BDE87040F5E570BD39
S1134BE030B5DFF8E844DFF8EC5485B0207821795B
S1134BF00840000744BF2846FFF7BFFE207821790C
S1134C000840C00710D501202070207C69680091FD
S1134C1000098DF80C0000A90020ADF80E000190E9
S1134C2002901020FEF785FF207821790840400784
S1134C3044BF2846FFF785FF207821790840000605
S1134C4044BF2846FFF78BFF05B030BD70B504465E
S1134C50DFF880640D463046FFF7A0FDDFF87814D6
S1134C60DFF878040860FBF7D5FDC6F8A8002E60CD
S1134C707460002070BD70B506460C4604F128052A
S1134C80FEF71CFF28703046FEF70EFFC4F8AC0098
S1134C901020A870FF20DFF8346430702246DFF85B
S1134CA04004017801F07F0101702878DFF83414A2
S1134CB0FEF709FF08B98A2070BDDFF80814DFF891
S1134CC000044860010A3177020CDFF81C140A70F2
S1134CD0000E08712046FFF707FE002070BDDFF8C4
S1134CE00004017841F080010170DFF800040178CC
S1134CF041F001010170DFF8F803017801F07F0150
S1134D0001700020704738B50D46044629786A784A
S1134D10142010FB01415118012281F83C20AB788A
S1134D20A98A012B05D1B1F5806F05DB40F2FF3173
S1134D3002E04129A8BF40212A7810FB024282F8F0
S1134D403E302A786B7810FB024282F83F302A7892
S1134D5010FB024211870022297810FB014181F8DF
S1134D603A20297810FB014181F83B2029786A78A0
S1134D7010FB0141403132B94A70297810FB0140DF
S1134D800021416305E000220A70297810FB0140EC
S1134D900263A87829780128D4F8AC0018BF01224E
S1134DA0FFF7ACFC6A7802B101222978D4F8AC0090
S1134DB0FFF7AEFC6878002801BF28780028204659
S1134DC0FFF703FD002032BD70B505460E461446BC
S1134DD000F01FF9B949002001F8260006F00F0180
S1134DE000F018F840EA411004F0010140EA011013
S1134DF04FF0FF31416040F008004160142010FB87
S1134E0006504FF6FF7101872018002180F83C10EE
S1134E10002070BDAB484068400A40027047F0B5BE
S1134E200D460446A868E96883B0401A0190142628
S1134E30E86818B9297816FB01410D6301A90091AE
S1134E406968019B421829782046FFF71DFD070079
S1134E5008D0287816FB004000210163204629462B
S1134E60FFF76DFC3846FEBD2DE9F0410D460446C2
S1134E70E868A9680E1A142718B9297817FB0141A4
S1134E804D63297817FB0141098FB14238BF0E46A3
S1134E90696842189048006858B116F0030F08BFBB
S1134EA012F0030105D00021E975414201F003012C
S1134EB00A18297833462046FFF7BAFC5FEA00084F
S1134EC008D0287817FB004000214163204629467A
S1134ED0FFF735FC002E04BF287800280CD12946A2
S1134EE02046FFF72CFC94F8430080F0010084F87E
S1134EF043002046FFF769FC4046BDE8F08170B5E9
S1134F000D46142111FB050101F138060121F17050
S1134F10B1701446294600F07CF86A493088496823
S1134F208005490A8009490205F00F0240F08C000F
S1134F3041EA42113CB1B27A02F0010241EAC201F3
S1134F4041F0100104E0F27A02F0010241EAC201E8
S1134F5000F001F870BD08606448017801F0DF01D9
S1134F600170002070472DE9F84381460D46142056
S1134F7010FB059000F138070020F870B870164651
S1134F80D9F8AC004F4CFFF7D0FB05F00F004FEA07
S1134F904018D9F8AC0096B101222946FFF7AEFBC0
S1134FA0D9F8AC0001222946FFF7B2FB0020387281
S1134FB06068B97A00F025F840F0100014E001228E
S1134FC02946FFF79BFBD9F8AC0000222946FFF7DE
S1134FD09FFB002078721DB94846FFF7F6FB06E0F8
S1134FE06068F97A00F00DF8398800F004F8FFF7EA
S1134FF0B3FFBDE8F2838905890941F00801016026
S11350007047400A48EA402001F0010140EAC1002B
S11350107047F0B506460C46142085B0154610FBC3
S113502004601DB9476B0021416302E0076B002156
S11350300163C7B139463046FFF781FB4FF0FF30BB
S1135040029000A978680190706800908DF80C4077
S113505000208DF80E00280018BF01208DF80F00E5
S11350602046FEF766FD002005B0F0BD214A137806
S113507003F080030B431C301370C17301210180C2
S11350800020704780B51C490A7800220A700A7D06
S113509002F080020A7500220A7415490A7842F067
S11350A040020A700A7842F080020A70FF2181836C
S11350B0D0F8A800FBF7B3FB002002BDC0200740D6
S11350C000040020A8E5FF1F880008008020074096
S11350D0A0200740B0E5FF1F60E6FF1F1006002078
S11350E01C200740E14B0000B020074094200740FB
S11350F000210740982007408420074001F00F0159
S1135100142313FB010090F83A001080002070472C
S113511038B501F00F041425FF2315FB0405012AFB
S113512005F83A2F04D1CA092146FFF7E8FE06E044
S113513032B9697821B16A792146FFF714FF034631
S1135140184632BD70B504460D46D4F8A80016467C
S1135150FBF761FB012D04F11C0007D0042D07D0DF
S1135160052D07D0062D08BF468004E0068002E026
S1135170468100E086801EE070B504460E46D4F8F1
S1135180A8001546FBF747FB012E04F11C0008D0CC
S1135190032E0AD0042E0AD0052E0AD0062E02D0E1
S11351A009E0008806E0408804E0C07B02E0408912
S11351B000E080882880D4F8A800FBF72EFB0020AC
S11351C070BD38B504460025002229462046FFF765
S11351D0FBFD012229462046FFF7F6FD6D1C062D36
S11351E0F2DB2046FFF780FB2046FFF7D7FA0020CA
S11351F032BD000070B50D0082B00446164601D1E0
S1135200002076BD00AA00F071F830B9009B9B68BD
S11352105B68324629462046984776BD70B50D0036
S113522082B00446164601D1002076BD00F07FF816
S113523000B14CE000F047F868B9009B9B689B689C
S113524032462946204698474E49002806BF009A10
S1135250926800220A6076BD38B504460D4600AA5D
S113526000F044F8A0B900988068406908B9662045
S113527032BD2946204600F05AF810B142F2D870E7
S113528032BD009A9268526929462046904732BD41
S1135290002DFCD1002032BD70B50D0082B0044653
S11352A0164601D1002076BD00F041F800B10EE0B1
S11352B000F009F830B9009B9B68DB683246294648
S11352C02046984776BD00AA294620460EE042F2C1
S11352D0D87076BD10B52B4C2168002029B109691E
S11352E00A0002D088470021216010BD70B5264C09
S11352F06468002918BF002A42F2D87314D000E071
S11353000C348CB12568002D04BF6668002E01D1D1
S1135310A6684EB1A84224BF65688542F0D3081838
S1135320401E854228BF00231460184670BD30B566
S1135330154A92681269536BA3B10918491E0023D8
S113534002EBC304603465682468002C08BF002D98
S113535005D0854228BFA14201D3012030BD5B1C8A
S1135360022BEDDB002030BD10B50748446804E093
S11353700068010018BF80470C34A0680028F7D1EA
S113538010BD000064E6FF1F00E0FF1F10B5964843
S11353908068006900F1700430224AF2C03120466E
S11353A0FCF786F920689149884204D0FF22302115
S11353B02046FDF753F9FBF7ADFD002010BD38B5CD
S11353C0894DA86804694B20E07004F110020120A3
S11353D0A070042105206070012020705020E0712D
S11353E00120A07102206071002020715420E0721D
S11353F00120A0720020607220720120206360638B
S11354004EF6FF70A06300F05EF804F1140201216F
S113541000F059F804F11802002100F054F804F1E6
S11354201C02022100F04FF804F12002032100F0D5
S11354304AF804F14C02052100F045F804F1500249
S1135440062100F040F804F15402072100F03BF873
S1135450A069674A404252424FF0FF310240891A24
S1135460644A61661040206600216348A066634870
S1135470E0666869E16007E094F88030134202D086
S1135480E3681A43E260491C182202FB0102126815
S1135490002AF1D15A480168A164416861648168B5
S11354A02164C068E063686850F80C1F6162416859
S11354B00068081A401CA0622046FBF7B5F90120D9
S11354C0A065002032BD05F12000FDF7E5B800001D
S11354D0F8B51446444A4B4F91680426401E0969A6
S11354E017281D464ED8DFE800F00C121416181ABF
S11354F020224D24282F261C1E323540434547497F
S11355004D4B05B12E6004B121600020F2BD0C3179
S1135510F7E71031F5E71431F3E71831F1E72031FB
S1135520EFE72431EDE72831EBE73831E9E72C31B7
S1135530E7E73031E5E73431E3E7D06941694969A8
S1135540884738603946DCE710266031D9E72E48B1
S11355500068F6E700A902F12000FCF725FC9DF89D
S113556000000028EDD00120EBE710263C31C8E70D
S11355704C31C6E75031C4E75431C2E75831C0E773
S11355800831BEE742F63C00F2BD174A926813693F
S1135590401E072842F63E0220D909380CD0401E8E
S11355A001281BD9801E0DD0401E032816D90838A7
S11355B00ED0801E12D014E0002918BF012909D191
S11355C019637047002918BF012903D15963704733
S11355D0032901D3104670479965704742F63D0090
S11355E0704742F63C00704700E0FF1F6B6366673C
S11355F0686900000000000000E0FF1F1F0B00208E
S1135600548004402CE7FF1F24800440012100F053
S11356101F029140904A04E0012100F01F029140D2
S11356208E4A400942F8201070470021C1708170F1
S11356300170042141700021817241747047F8B5F2
S1135640874E3360130191FBF3F633010025B1FB60
S1135650F3F3044693424FF0FF3038BF761E00D375
S113566010D001274B0007EB461CB3FBFCF39A4216
S113567034BF9B1AD31A984224BF18463D467F1C58
S1135680212FEFDB642192FBF1F101EB4101884210
S113569054D27449744F8C420CD074498C4210D04B
S11356A073498C4214D073498C4218D072498C428D
S11356B01DD023E01F20FFF7A9FFF86840F48060A5
S11356C013E02120FFF7A2FFF86840F400600CE02B
S11356D02320FFF79BFFF86840F4805005E0252065
S11356E0FFF794FFF86840F40050F86006E04220A9
S11356F0FFF78CFF386840F480603860310AE07846
S113570000F0F300E07001F01F010020A070207889
S113571000F0E000084320706670A07A00F0E0001A
S11357202843A072C0206074E07840F02000E0704C
S1135730E07840F00C00E0700020F2BD0120F2BDE2
S113574002791206FCD5C17170474C48017889066C
S113575000D50AE070474A4801788A0701D5C07825
S11357607047890600D500E07047C0783C49096855
S1135770084744480178890600D5F6E7704742484F
S11357800178890600D5F0E770474048017889061A
S113579000D5EAE7704758B53249334E884204468B
S11357A00CD03249884210D03149884214D0314952
S11357B0884218D0304988421DD023E01F20FFF7CB
S11357C02BFFF06840F4806013E02120FFF724FFF2
S11357D0F06840F400600CE02320FFF71DFFF06840
S11357E040F4805005E02520FFF716FFF06840F4F0
S11357F00050F06006E04220FFF70EFF306840F4EE
S1135800806030602046FFF710FF164884420CD0B9
S1135810164884420DD0164884420ED0154884425E
S11358200FD01548844211D051BDF06820F4806037
S11358300AE0F06820F4006006E0F06820F480508C
S113584002E0F06820F40050F06051BD306820F4AC
S11358508060306051BD000000E100E080E100E0C4
S1135860B4E7FF1F00A006402880044000B00640B3
S113587000C0064000D0064000A00E4004A0064030
S113588004B0064004C0064004D0064004A00E4004
S113589038B5044600A96068FBF7BFF9D0B9606861
S11358A0FBF7B4FA014600F033F8334D009A2B6845
S11358B0FFF7C5FE58B96068A268022190472968BD
S11358C05A2088472968A6208847012032BD60688D
S11358D0FBF78AF9002032BD10B504462648016062
S11358E06068A268012190476068FBF77DF9002099
S11358F010BD10B5044600F00BF8FFF74CFF6068CC
S1135900FBF789F96068A268BDE8104000211047E0
S1135910606801280BD00CD3032804D005D30428D5
S113592007D11648704716487047164870471648FE
S113593070471648704770B504460D46164603E096
S113594012480978FFF7FCFE3046461E90B12946FE
S113595060684D1C01280BD0F2D3032804D005D372
S11359600428EDD10548ECE70548EAE70548E8E7EF
S11359700548E6E770BD0000B8E7FF1F00A00E4031
S113598000D0064000C0064000B0064000A006401B
S1135990A649D1F88820531C5218C1F8883082F8DF
S11359A02000D1F8880000F03F00C1F8880070475B
S11359B000207047B8E02DE9FC410C00154614BFE7
S11359C0002D0420984628D0984F002007F1900617
S11359D02860707000F0A8F818B11EE0A22000F052
S11359E075F820213846FCF7F9F94246394600A8F3
S11359F000F0E7F810B1002129600EE0394600A854
S1135A0000F030F9BDF804108142E7D10120307074
S1135A102760BDF8020028600020BDE8F6812DE96A
S1135A20F0410C0082B015461E4635D0212D33D2EC
S1135A3000F07AF800283FD1DFF8F08198F891005F
S1135A4010B1002088F8910008F160075A203870DE
S1135A50A42078700EB1A52078707D802DB12A46DF
S1135A60214608F16600FBF713FE08F1660138468B
S1135A7000F0F8F8B880A91D384600F064F8D8B9E9
S1135A8000A800F0DDF8B8B99DF80100A12812D0F3
S1135A90A22806D0A32801D004200DE042F21270FF
S1135AA00AE07888811D384600F04DF820B99DF849
S1135AB00100A228E4D00020BDE8F6815C48012161
S1135AC081700021017070472020704780B55A21F1
S1135AD08DF800108DF801000120544981F89100DF
S1135AE0022100A800F02FF802BD10B5044650486A
S1135AF00178427880781140014282B011D10FF2CE
S1135B0094100088ADF80000022223695B6800A9A4
S1135B102046984723690FF280115B6808222046CB
S1135B20984742F2137016BD4148017819B100211B
S1135B300170A12004E0817819B100218170A320B3
S1135B40C4E7002070473B4AD3690A460146184619
S1135B501B695B6818472DE9F14F8B461446FAF729
S1135B60F0FF06464FF47A7089466043FAF7F9FF6E
S1135B700025DFF8B8A00446A8460AF188070EE01D
S1135B807868396888420CD05044009990F8200015
S1135B9068546D1C7868401C00F03F0078605D45D7
S1135BA00CD0002CECD0FAF7CCFF801B61EB090180
S1135BB0414501D8A042E3D3052000E00020BDE820
S1135BC0F28F70B582B005460C46164600F038F8E0
S1135BD058BB6878A62804D11648C069FFF785FF2A
S1135BE076BDA42106B1A521884201D0012076BD4D
S1135BF000F022F8BDF800106980B0B908462128E9
S1135C00A8BF2020688000F017F8BDF80010A98014
S1135C1058B9698849B12046FBF776FD69880A209E
S1135C2000FB01F22046FFF796FF76BDBCE7FF1F9D
S1135C304CE8FF1F00E0FF1F1422022100A88AE79E
S1135C4010B50446002201212046FFF784FF40B925
S1135C5020785A28F6D1601CBDE810400A220121A0
S1135C6079E710BD30B583B004460D4600A800F0B6
S1135C7017F80422214600A800F015F86288294686
S1135C8000A800F010F801A900A800F02FF8BDF852
S1135C9004003EBD5AA70000000201500000AAEA19
S1135CA00021018070477FB5044600208DF8000074
S1135CB00D4620880190164641F2210002900020F2
S1135CC0ADF80C008DF80E006EB1FAF76EFE00A967
S1135CD00020FAF789FE324629460020FAF79DFE95
S1135CE00190FAF768FE019820807FBD0088088043
S1135CF00020FAF783BE00000748016841F47001F0
S1135D0001604CF220510548C1814DF62811C18132
S1135D104FF4E9710180704788ED00E000200540F0
S1135D20F8B5044615461E460020174A02EB001734
S1135D307A6822B1401C0228F7DBC120F2BDF96069
S1135D407C60BE6032462046FEF79BF83246294608
S1135D502046FEF79DF8069932462046FEF79FF846
S1135D603846F2BD0020084A02EB00128A4204D0F1
S1135D70401C0228F7DB9E20704700205060106012
S1135D809060D0607047000068E8FF1F00281CBFC7
S1135D904068FEF71EB8FF20704770477CB50E467A
S1135DA014461D4600F0E2F8069A07993D4B032E6F
S1135DB016D0212E0CD0222E2FD1002818BF022855
S1135DC004D103F1300010604C200860002076BD3F
S1135DD0002812BF022803F1160010600920F4E71E
S1135DE025B903F17C0010600420EEE700200123B4
S1135DF040F20946B54203D1032C02DA234600E0FF
S1135E0001200FF240140C2515FB0040C46854F81F
S1135E10234014600069185CD7E7082E21DA10B912
S1135E200FF2D80403E0022804D10FF2F40454F86A
S1135E3026401460012E02D11C68641C1C601C687E
S1135E40022CA4BF00241C60126852B120B90FF2C6
S1135E50640050F82600B8E70228B7D10FF27800A2
S1135E60F7E7CE2076BD21B90F48007810700020E6
S1135E707047CE20704719B90B4802700020704754
S1135E80CE2070470020704730B549B90848012139
S1135E9001700649D1E90045C0E901450C301060A4
S1135EA0002030BD04E1FF1F15ECFF1FD0E0FF1FF1
S1135EB0D8E0FF1F000000001200000029000000CD
S1135EC000000000000000000000000000000000CE
S1135ED0000000004C000000000000001200000060
S1135EE02900000000000000000000000000000085
S1135EF00A000000290000004C000000000000001F
S1135F00F0E0FF1F08E1FF1F000000000000000098
S1135F1000000000000000000000000034E1FF1F4A
S1135F2000000000F0E0FF1F08E1FF1F0000000078
S1135F30000000000000000084E1FF1F90E1FF1F4B
S1135F4034E1FF1F80E1FF1F04000000090400008A
S1135F50D8070000D4070000012100F01F0291407F
S1135F60DFF86023400942F820107047EFF3058002
S1135F700046452801D10020704702207047406840
S1135F8040083C214843D049425C12B14018407853
S1135F9070470020704710B50446FFF7E7FF40083C
S1135FA0C9493C22002C18BF012C02FB001003D16C
S1135FB000210170417010BD032CFCD1012101703E
S1135FC000F11402BDE81040806B2423022100F08C
S1135FD0EABA2DE9F04799460C46D9F800801546EF
S1135FE00646FFF7C3FF4008B7493C22042E06F0DB
S1135FF0010A02FB00170BD1A86810F1010F18BFAA
S113600000284DD0F86801284ADB07F10C003CE079
S1136010052E07D1A86810F1010F18BF00283FD042
S113602038612EE00020C9F80000012E0AEB0700B9
S11360300BD0022E18BF032E2DD0092E0ED00A2EFF
S113604026D00B2E08BF04712AE0242107F1140086
S1136050FBF75AFB07F11400286021E029688A78CD
S1136060002A04BFCA78002A04D10878012808BF8E
S1136070B87015D0424607F11400FBF709FBC7F8C6
S113608010800120787007F10800FAF782FC07E01D
S1136090210A017104E0001D28600120C9F80000F4
S11360A00020BDE8F08770B5044687496068400861
S11360B03C2202FB001588B03C212846FBF724FB58
S11360C0FAF798FE814E78B9B068006990F88010AC
S11360D001F0EF0180F88010B0680069C16821F018
S11360E01001C160012038E0606830B93520FFF745
S11360F033FF77494FF4001008604FF6FF72B06821
S1136100006930F8841F4388934208BF914209D044
S1136110704A11720188090A51724188917241884A
S1136120090AD17205F1380240686B4910F1010F78
S113613008BF6A48086000A96948009005F1380062
S113614001906848049005F138000590664806906F
S11361506068C0B200F0B5F9002008B070BD38B571
S113616040684408A8B9614D2868400311D56049C6
S11361704FF4001008603520FFF7EEFE52483C2132
S113618001FB0400806B00F0DDF9286820F4802016
S1136190286031BD10B540684B4940083C2202FBE1
S11361A00014002104F10800FAF7E7FB002104F1D0
S11361B00C00FAF7E2FB04F10800FAF7EAFB00200E
S11361C010BDF8B540680C4640081546002C18BFB1
S11361D0002D01D10420F2BD0021296013B1012B4F
S11361E01ED027E0012638493C2202FB0017F8782C
S11361F030B1B86B242307F11402022100F0D3F963
S11362000120F8704FF0FF3107F10800FAF7B7FBEF
S1136210387DB04206D0012E08BF02280AD169E0B9
S11362200226E0E7B87DF97D40EA01203969091FBB
S1136230814201D20120F2BD07F1180121602860DA
S11362400020F2BDF8B5406815464608212D0C46DD
S113625001D30420F2BD13B1012B0ED00FE00327AC
S1136260FAF7A3FB18483C2101FB0606B07840B1BD
S11362700020B070FAF79FFB3CE00427F0E7012010
S1136280F2BDFAF798FB002070753775280A002CC8
S113629018BF002DB575F07505D02A46214606F1C4
S11362A01800FBF7F5F9B06B242306F11402012161
S11362B000F072F94FF0FF3106F10C00FAF75FFBC2
S11362C00020F2BD80E200E09CEBFF1F00E0FF1F16
S11362D004E100E0F0E0FF1F88E8FF1F445F0000D6
S11362E0975F0000D35F000044E2FF1F3480044046
S11362F084E100E042F21270F2BD10B54469A46872
S1136300002200231146A04710BD00207047202022
S11363107047FFF742BD000010B50C6A220082B03E
S113632009D0826812F1010F0CBF0021496A00F004
S113633013F80420A04713BD10B50C6A220082B0E4
S113634009D0826812F1010F0CBF0021496A00F0E4
S113635003F80520A04713BD0091024600234FF621
S1136360FF7170472DE9F84F012880468B46164689
S113637046D13068B36B00AA002198470098806822
S1136380011DF16000270079032866DA00240FE07C
S1136390896811F8341006EB440000F83C1F00999A
S11363A08968896801EBC401641C49784170E4B2CE
S11363B00098816808798442EADBF468DFF8C491C4
S11363C0DFF8C4A107E028B9297833464A46306883
S11363D0FDF7AAFC7F1C2078FFB2874236D26068A2
S11363E000EBC705306801222946FDF77EFCA8783A
S11363F00128E8D129783346524641EAC011E6E73C
S1136400032818BFB8F1000F20D009280ED19BF83B
S1136410007016F13C0019D0002400F020F801D1DE
S113642000F025F8641C022CF7DB0FE014280DD1D2
S11364309BF8007016F13C0008D0002400F00FF81F
S113644001D100F014F8641C022CF7DB3369180046
S113645003D07269594640469847BDE8F18F06EB70
S1136460440107F00F0091F83C1088427047F80986
S113647000F00102306807F00F01FDF7DCBC70B5D5
S113648082B01D460446CE20237803F06006202EF9
S11364900CD12B6AA3B1E08810601346686A00909F
S11364A00A46618860782C6AA04776BD03F06003D1
S11364B0402B05D1AE69330002D0EB692046B047CA
S11364C076BDF8B50D000446164601D1FF20F2BD95
S11364D000202E4901EB8017396821B1401C0228A5
S11364E0F7D3C120F2BD39462046FDF767FB40BB18
S11364F0A869274A274900903B463868FFF710FCF3
S1136500B8600822294607F11000FDF7D8FC0822DC
S113651005F1080107F11800FDF7D1FC082205F187
S1136520100107F12000FDF7CAFCA969142207F144
S11365302800FDF7C4FC376020463968FDF7B6FB38
S11365400020F2BD38B5040001D1FF2032BDA1689E
S11365502068FFF707FC050003D12068FDF7B2FBB4
S113656005460020094901EB8012A24203D0401CD9
S11365700228F8DB04E0402200212046FDF7A7FAB8
S1136580284632BD39630000196300001CEBFF1F6D
S11365907F6400006563000000281CBF8068FFF76B
S11365A0F5BBFF20704700281CBF0068FDF7EDBB5A
S11365B0FF2070474EF68851CEF20001086840F47F
S11365C070000860BFF34F8FBFF36F8F4FF0007000
S11365D0E1EE100A7047000000F00BF8002801D02B
S11365E000F00AF80020C046C046FAF79CFDFAF70E
S11365F0DBFD01207047000010B5074979441831CC
S1136600064C7C44163404E00A68081D5118884777
S11366100146A142F8D110BD400300004C03000024
S1136620CC06000074E0FF1F8C07000040E0FF1F51
S113663000000000FC060000000000000000000054
S11366400000000000000000000000000000000046
S11366500000000000000000000000000000000036
S1136660A1170000AF1700001C050000ECE2FF1F9B
S11366700000000010E5FF1F30E5FF1F3746000053
S11366805B4600007F460000100000000000000090
S11366900000000000000000FFFF1F00480600008B
S11366A00000FF1FFFFF0220E4060000000000407E
S11366B0FFFF0740A405000000F00F40FFFF0F405C
S11366C0A4050000000000E0FFFF0FE0A4050000A7
S11366D00000000000000000000000000000400175
S11366E0010301004000000002030000400000001C
S11366F002000000C0E0FF1F0000000000000000D6
S1136700000000000000000001000000D8E0FF1FAE
S11367101201000200000040A215730002000102F1
S1136720000100000000000009022900010100E04E
S113673032090400000203000000092100010001E5
S1136740224C000705810340000A070502034000AC
S11367500A0000000600FF0901A1018501190129B1
S113676001150026FF007508952391028502190181
S11367702901150026FF0075089523910285031948
S1136780012901150026FF0075089523810285045F
S113679019012901150026FF00750895238102C0FF
S11367A0040309040A06000200000040000000007F
S11367B009072900010100E0320904000002030175
S11367C00200092100010001223400070581034071
S11367D0000A0705020340000A0000003A034600CD
S11367E07200650065007300630061006C00650061
S11367F02000530065006D00690063006F006E00A7
S113680064007500630074006F007200200049008A
S11368106E0063002E00000026034B0069006E002A
S11368206500740069007300200042006F006F006F
S113683074006C006F006100640065007200000069
S1136840220342004100440020005300540052003F
S113685049004E004700200049004E004400450016
S1136860580000009D5D0000675E0000775E000038
S1136870855E0000895E0000010100010100000046
S113688000010100000000000101010101000000FD
S113689001010001010001000001000001000000ED
S11368A0C54000001D410000000000001D41000023
S11368B000000000B5410000A142000000000000FB
S11368C0D1410000DD4100002142000045420000AA
S11368D087420000F9F79CBD30B504E012F8014B83
S11368E000F8014B491ED1B1C507F7D40129F5D0F1
S11368F0850701D4042904D232F8024B20F8024B54
S1136900891E8B08EFD000EB830403E052F8045B8C
S113691040F8045BA042F9D3A1EB8301E3E730BD67
S113692080B513460246184600E080B5FFF7D4FF51
S1136930002002BD10B514460A462146BDE81040A9
S11369400123FCF787B8FFF7FEBFC046C046FFF738
S113695031FEFFF741FE0000BFA5FFFF6009000004
S10B6960B8E2FF1F0000000073
S9030411E7
