S01A0000666C6173686C6F616465725F6C6F616465722E73726563AF
S113000000000320110400003F5D00003F5D00007C
S11300103F5D00003F5D00003F5D00000000000008
S11300200000000000000000000000003F5D000030
S11300303F5D0000000000003F5D00003F5D0000E8
S1130040DB5D0000DB5D0000DB5D0000DB5D0000CC
S1130050DB5D0000DB5D0000DB5D0000DB5D0000BC
S1130060DB5D0000DB5D0000DB5D0000DB5D0000AC
S1130070DB5D0000DB5D0000DB5D0000DB5D00009C
S1130400FFFFFFFFFFFFFFFFFFFFFFFFFEFFFFFFF9
S113041072B60E480E49886000220023002400258D
S113042000260027B846B946BA46BB46BC4609482A
S1130430854609488047094880470948804762B68D
S113044000200021074A9047FEE70000000000005A
S113045000ED00E0000003203D5E0000415D00006F
S11304607B5D0000B104000072B60D4900200860F5
S1130470BFF36F8FBFF34F8F704780B545F61002FF
S11304800FF23401074805F02FFCFFF7EDFF064893
S113049080F3088880F309880448BDE802400047D7
S11304A008ED00E00000FF1F0066FF1F1104FF1F9E
S11304B080B5FFF7E2FFFEE70066FF1F1104FF1F90
S11304C0BB0BFF1F6111FF1F6311FF1F6511FF1F8E
S11304D06711FF1F00000000000000000000000082
S11304E000000000BB0BFF1FBB0BFF1F0000000040
S11304F0BB0BFF1F7308FF1F1F0EFF1F1F0EFF1FE5
S11305001F0EFF1F1F0EFF1F1F0EFF1F1F0EFF1FBB
S11305101F0EFF1F1F0EFF1F1F0EFF1F1F0EFF1FAB
S11305201F0EFF1F1F0EFF1F1F0EFF1F1F0EFF1F9B
S11305301F0EFF1F1F0EFF1F1F0EFF1F1F0EFF1F8B
S11305401F0EFF1F1F0EFF1F1F0EFF1F1F0EFF1F7B
S11305501F0EFF1F1F0EFF1F152BFF1F192BFF1F41
S1130560092BFF1F0D2BFF1F1F0EFF1F1F0EFF1F49
S11305701F0EFF1FC746FF1F1F0EFF1FD346FF1F7F
S11305801F0EFF1FEF46FF1F1F0EFF1FFB46FF1F1F
S11305901F0EFF1F1F0EFF1F1F0EFF1F1F0EFF1F2B
S11305A01F0EFF1F1F0EFF1F1F0EFF1F1F0EFF1F1B
S11305B01F0EFF1F1F0EFF1F1F0EFF1F1F0EFF1F0B
S11305C01F0EFF1F1F0EFF1F1F0EFF1F5741FF1F90
S11305D01F0EFF1F1F0EFF1F1F0EFF1F1F0EFF1FEB
S11305E01F0EFF1F1F0EFF1F1F0EFF1F8D0AFF1F71
S11305F01F0EFF1FB10AFF1F1F0EFF1F112BFF1F2E
S11306000747FF1F1F0EFF1F1347FF1F1F0EFF1F6C
S11306101F0EFF1F1F0EFF1F1F0EFF1F1F0EFF1FAA
S11306201F0EFF1F1F0EFF1F1F0EFF1F1F0EFF1F9A
S11306301F0EFF1F1F0EFF1F1F0EFF1F1F0EFF1F8A
S11306401F0EFF1F1F0EFF1F1F0EFF1F1F0EFF1F7A
S11308B01F0EFF1F1F0EFF1FFFFFFFFFFFFFFFFFA6
S11308C0FFFFFFFFFEFFFFFF72B60E480E49886070
S11308D0002200230024002500260027B846B9463C
S11308E0BA46BB46BC46094885460948804709487C
S11308F080470948804762B600200021074A904794
S1130900FEE700000000FF1F00ED00E00066FF1F8F
S1130910814CFF1FC50FFF1FFF0FFF1F9D0DFF1F02
S1130920A312FF1F00000000B512FF1F000000000B
S11309304B13FF1F9314FF1F3913FF1FC313FF1F14
S11309405B15FF1F00000000FD15FF1F00000000E5
S1130950EF12FF1F00000000C912FF1FC313FF1F87
S11309606F15FF1F00000000D915FF1F00000000D5
S11309705B12FF1F000000002313FF1F0000000094
S113098000000000000000000B16FF1F0000000024
S11309901F16FF1F000000004116FF1F9314FF1FC6
S11309A0000000000000000000000000CD57FF1F01
S11309B0D757FF1FE157FF1F000000000000000091
S11309C09126FF1FDF26FF1F1327FF1F00000000D3
S11309D0000000003327FF1F000000000000080093
S11309E00000100000002000000040000000800013
S11309F0000000010000000204000240AD17FF1FC8
S1130A00D917FF1FDD17FF1F8118FF1F000000000B
S1130A10E718FF1FA52CFF1F132DFF1F3D2DFF1FE0
S1130A200000000000000000532DFF1FC532FF1F0F
S1130A30EF32FF1F5733FF1F9734FF1FE134FF1FAF
S1130A408B36FF1F7F33FF1F4134FF1FDF35FF1F2E
S1130A507537FF1F8937FF1F00000000E536FF1FB1
S1130A60FD36FF1F000000007735FF1FBD37FF1F55
S1130A70F137FF1FE12DFF1F3B38FF1FF542FF1F1A
S1130A808141FF1FA941FF1F2542FF1F6142FF1F34
S1130A90E541FF1F951EFF1F991EFF1FAB1EFF1F81
S1130AA0E91EFF1F0000000000000000010000001C
S1130AB001000000CD08FF1F8006FF1F9006FF1FE6
S1130AC09806FF1F02000000010000005B09FF1FE1
S1130AD05C05FF1F6C05FF1F9806FF1F0400000044
S1130AE001000000A309FF1F0805FF1F1805FF1FD1
S1130AF09806FF1F10000000000000000000000026
S1130B00C806FF1F00000000D806FF1F00000000F9
S1130B1000000000000000000000000000000000D1
S1130B20000000001943FF1F4B43FF1F4544FF1FF4
S1130B30FB44FF1F605CFF1F6B48FF1FB948FF1F8A
S1130B40F148FF1F00000000000000001149FF1FD2
S1130B505549FF1F5B49FF1FC349FF1F614AFF1F20
S1130B605949FF1F6D4AFF1F3549FF1F043A2622CA
S1130B709459FF1F9859FF1FD459FF1FFC59FF1F99
S1130B80934EFF1F8B4FFF1F4350FF1FF751FF1F53
S1130B907950FF1FA750FF1F2951FF1FDF51FF1F6F
S1130BA0EF51FF1FF351FF1F0000000005E000207C
S1130BB0704700207047002070474FF6FF70704761
S1130BC038B504463D4D0020C5E90000C5E90200E2
S1130BD0C5E90400A8612862394800F09EF8E8617C
S1130BE02046BDE834400FF2590100F0CFB900F0BF
S1130BF0F3B970B5314D0C46A969072904BF296AB8
S1130C0088421AD100F08EF8C0EB0016D5E9000135
S1130C10D5E902231018B6FBF0F00A2148434FF43B
S1130C209661B0FBF1F0401D0A21B0FBF1F04FF4E6
S1130C30966148432060002070BD012070BD000013
S1130C402DE9F843064600F058F81C4F0446D7E94E
S1130C5004598846B8690021421C651B68EB0909E0
S1130C60F869494502D82CBFA8420122012ABA6179
S1130C7006D0042A08D0052A0ED0072A0FD018E07F
S1130C80C7E900483E6214E0D7E90001201A68EB86
S1130C900101C7E900010CE0C7E9024809E0D7E90E
S1130CA00201201A68EB0101C7E90201304600F095
S1130CB093F9C7E90448BDE8F1830000905AFF1F87
S1130CC0803801001C48002101606FF07F421B49FD
S1130CD04A6000228A6007220A601949194A096891
S1130CE0C900B1FBF2F101B9012141607047134819
S1130CF0016821F00601016070470F490A68124833
S1130D0000680B68C0430002000A9A42F6D1002131
S1130D1010EB026051EB12217047074949684843C0
S1130D20C008704706480068704703480168491CBA
S1130D300160704700000000545CFF1F10E000E0F9
S1130D40D058FF1F40420F0018E000E0012100F0DE
S1130D501F029140AE4A04E0012100F01F029140BD
S1130D60AC4A400942F8201070470901002806D512
S1130D70A94A00F00F00801800F8041C7047A74A25
S1130D8081547047A64A10B1012821D07047A54864
S1130D9019B1022911D006D37047016811400160CE
S1130DA04168114012E00168114041F48071016012
S1130DB09D48016821F0080129E00168114041F4CF
S1130DC0E06101604168114041F4E06141607047B5
S1130DD0964819B1022911D006D3704741681140D1
S1130DE041600168114012E04168114041F4807192
S1130DF041608F48016821F0020108E04168114018
S1130E0041F4407141600168114041F44071016056
S1130E107047012800D0704710B58648864B804C37
S1130E20864A11B1022909D010BD11682140116010
S1130E30516821405160002119600CE01168214083
S1130E4041F400711160012119605168214041F49D
S1130E50007151600121016010BD012825D1704A43
S1130E60774811B102290CD0704701681140016024
S1130E70416811404160816811408160C16811403E
S1130E8012E00168114041F4E061016041681140E1
S1130E9041F4E06141608168114041F4E0618160A6
S1130EA0C168114041F4E061C160704780B500F051
S1130EB0E1F86448416B41F478514163016841F4BD
S1130EC04031016001BD5F48416B21F478514163B9
S1130ED0016821F4E021016070475A48016B41F434
S1130EE080210163016B490301D4002070475649F6
S1130EF00A7842F080020A7007230A781A42FCD169
S1130F00016841F4E0210160012050490870504912
S1130F10087070474F48504900680968C0F303607F
S1130F20401CB1FBF0F07047012803D9801E032850
S1130F3003D903E0484800687047EBE70020704796
S1130F400020704737480068C0F3006000B970475C
S1130F5080B542480168080005D000208847404910
S1130F604FF0FF30086001BD3E480068C0F30060E8
S1130F7000B9704780B539484168080005D00120A0
S1130F80884739494FF0FF30086001BD70B50C4601
S1130F90324D364E10B101280CD070BD01213D20D8
S1130FA0FFF7E3FE3D20FFF7D1FE1E4800F00EF8E8
S1130FB02C6070BD01213F20FFF7D7FE3F20FFF7D3
S1130FC0C5FE284800F002F86C6070BD016831402D
S1130FD041F420210160704738B5204C234D10B1F5
S1130FE001280AD031BD3D20FFF7B6FE0D48016847
S1130FF0294001600020206031BD3F20FFF7ACFE96
S113100018480168294001600020606031BD00007B
S113101000E100E080E100E018ED00E000E400E021
S1131020FFF8FFFE0CB0044094F00F4000D00440E1
S113103014F10F40940596421405964228B00440DA
S113104010C00440048004400C2107401C28E442E2
S11310508428E44244800440D058FF1F745BFF1F7F
S1131060A0B0044004D00440A0D00440FFFFF0FE30
S11310707047FEE70A48817801F07F0104290DD109
S1131080017801F09F010170FF21827802F07F0254
S1131090012A04BF034A1278491EF6D170470000A2
S11310A001E0074002D00740022811D80FF22C02B9
S11310B08056012904D100F01F029140054A04E042
S11310C0012100F01F029140034A400942F8201018
S11310D07047000000E100E080E100E01A1B4100DD
S11310E0022811D80FF22C028056012904D100F0F5
S11310F01F029140054A04E0012100F01F029140C3
S1131100034A400942F820107047000000E100E063
S113111080E100E018194A0038B504460D46002065
S113112000F0DAF86648674A0560446000211160FF
S1131130016881F3088881F3098840688047BDE825
S11311403240002000F0C8B85F4989680969002866
S11311501EBF10F1010F5D4A904206D00A69904209
S113116003D34B699A18904208D34A6A904207D332
S1131170896A891888428041C00F704701207047EE
S1131180002070472DE9F0474F4F514CB868006973
S113119000F1700925460AE099F81010014205D0C3
S11311A06869EA6881695268284690471835286852
S11311B00028F1D14FF47A70FFF7AFFD0546FFF731
S11311C0BFFE002650BBFFF7BFFF38B3B868006905
S11311D090F88E00C00703D400210846FFF79CFF57
S11311E0B9F812004FF6FF71884208BF41F2883007
S11311F005FB00F6FFF781FD80468A4676B1FFF7CE
S11312007CFDB0EB080061EB0A010027B94201D86C
S1131210B04203D300210846FFF77EFF254600E0D5
S1131220183528680028E9D0E968096828468847FD
S11312300028F5D0002DE1D006E0A54203D0E168F6
S1131240896820468847183420680028F5D1284644
S1131250BDE8F08738B500F083F8FFF727FE1A4C95
S1131260A06800688047002000F094F8FFF72AFD8A
S113127004F1200000F0A0F8206800688047A0680E
S113128040688047FFF77EFFE061016919B1096892
S11312900A0018BF8847E069416919B109680A0062
S11312A018BF8847E06800688047E569E0684068DF
S11312B08047E868C1680800F8D028468847F5E701
S11312C0B45AFF1F08ED00E01058FF1F1104FF1F60
S11312D0F405FF1F7047FEE770B50446022C04D0E6
S11312E0002000F0C1F8012C0ED00026114D06E0BC
S11312F04019C16889680A0018BF8847761C1820FD
S1131300704341590029F3D174B900F02FF8FFF765
S1131310EEFC00F0D0F8084900200860012000F03D
S113132039F8FFF7D0FD62B6BFF36F8FBFF34F8F6D
S113133070BD00BFF405FF1F08ED00E001607047B9
S113134072B60168491C016062B601680029FCD1CB
S11313500120704772B60168491E016062B6704789
S113136072B60B490020086062B6704772B608482E
S11313700168491C0160704705480168022901D2CF
S11313800021EAE70168491E01607047000000007F
S1131390705BFF1F704750F8041B61B150F8042BB9
S11313A0D30744BFA9F101039A180023091F42F887
S11313B0043BFAD1EFE7704708B9042070471A4A92
S11313C01A491268C2F3036231F81210090301D1F9
S11313D06420704700220260416042610121816003
S11313E082614FF48051C16002610020704708B9E6
S11313F0042070475B1E194208BF1A4201D06520C1
S113140070470368994221BF4068C0185118884248
S113141001D266207047002070470549884201D0F8
S11314206B207047002070474C8004402005FF1F4C
S11314306B66656B68B1042A02D0082A0BD008E0F9
S113144079B110290DD320290BD0A1F12100132843
S113145007D304207047102903D0A1F111000328F9
S1131460F7D20020704700000349096851F4700165
S1131470014A1160704700BF04F0014080B518496B
S11314801848086018491948421A194888421CBF6C
S1131490002A00F03DF817481749091A18BF00F050
S11314A073F816491648421A04D0BDE80840154896
S11314B000F02EB801BD14484FF0FF3101604160C7
S11314C08160C160016141618161C1610F48016056
S11314D041608160C160016141618161C1617047A6
S11314E008ED00E00000FF1F0455FF1F8457FF1F95
S11314F01058FF1F905AFF1FCC5FFF1F1058FF1F8B
S11315001058FF1F0064FF1F80E100E080E200E04C
S113151062B38B0708D0521E11F8013B00F8013B5F
S113152000F024808B07F6D1830740F0208000BFB1
S1131530103A07D330B4B1E83810103AA0E83810A4
S1131540F9D230BC530724BFB1E80810A0E8081052
S113155044BF51F8043B40F8043BD20724BF31F8A0
S1131560022B20F8022B44BF0B7803707047083A13
S113157007D3B1E80810083A40F8043B40F804CB1C
S1131580F7D25307E4E70000002200F005B800009A
S113159062F30F2262F31F42401810F0030308D0D5
S11315A0C91A1FD3DB0748BF00F8012D28BF20F854
S11315B0022D130030B414461546103928BF20E913
S11315C03C00FAD8490728BF20E90C0048BF40F87E
S11315D0042D890028BF20F8022D48BF00F8012DF2
S11315E030BC7047C91818BF00F8012DCB0728BFBD
S11315F000F8012D70470000BFF34F8F0448054ADF
S1131600016801F4E06111430160BFF34F8FFEE70D
S11316100CED00E00400FA05EEE7EDE7ECE7EBE79C
S1131620DFF8F015C968C9680020086070472DE923
S1131630F041DFF8E055E86982B000248DF80140FC
S11316404669002E62D0E968C9680A68012A4CD04C
S113165001F1080274680023091DA04704001FBF9C
S113166042F21270844242F2137084424ED1E8680E
S1131670C168D1F80880B8F1000F47D04E683778B8
S113168037B1122F04DA806800EBC700083800E095
S11316900020086200281CBF006800281CD000A994
S11316A005F1200000F0C0FA040017D19DF80000F5
S11316B048B14FF4E750791E20FA01F2D00758BF21
S11316C042F211740AD5EA68D268126A1268414675
S11316D030469047002406E042F210743946204612
S11316E000F01FFA94B901200DE0086A48B141687E
S11316F0080003D00DF10100884704460CB1002016
S113170001E09DF80100E968C96808602046BDE869
S1131710F68180B50178002000F003FADFF8F404C4
S1131720C0694169096988470220FFF7D5FDBFF305
S11317304F8FDFF8E404DFF8E424016801F4E0618A
S113174011430160BFF34F8FFEE7DFF8C804C068A0
S1131750C06814210C3000F081BA10B5044600F0C2
S113176039FBFFE72178BDE81040DAE110B5DFF876
S1131770A424126852690446A16860689047F1E79E
S113178010B500F04AF8DFF88C04C068C0686168DE
S11317900161082101770020217800F0C2F9BDE839
S11317A0104000F06ABC30B583B0DFF86844A56827
S11317B000210191009100AB81684068AD6801AAE5
S11317C0C9B2C0B2A847E268D26800211161009989
S11317D08A08019900F0B9F937BD10B5DFF834244F
S11317E09268D26804466068A168C0B29047B9E7BD
S11317F010B500F012F800F012F80421017700206F
S1131800B0E710B500F009F800F009F803210177FA
S11318100020A168BDE81040AEE1044695E7DFF87A
S1131820F403C068C068A1680161616841617047E0
S113183038B5DFF8E0530446E868C0680021416128
S11318400161007F042804D128680069804704B935
S11318500446E868C068017F204600F062F942F25D
S11318601270844208D1E868C068007F082804BF69
S1131870BDE8314000F043BC31BD2DE9FC4100F02E
S1131880C2F821B900202070FFF7D2FF5AE00121ED
S1131890217006694769002000900123E869D0F8A7
S11318A014C0DCF804C000AA01A9E0475FEA0008FC
S11318B005D0E8694169C9688847404603E0009853
S11318C030B942F21270FFF7B3FF002020703AE003
S11318D0B04288BF30460090E868C068017F08299C
S11318E013D10199C160009981610198009900F0B8
S11318F0CEFB804642F27D7080451CBF42F274707C
S113190080450BD14FF0000808E02B68019A00993C
S11319109B683846984780460098C7190098361A3D
S113192006D0B8F1000F09D0E8694169C968884751
S11319304046FFF77DFF0020207003E0E868C068A0
S1131940066147610020BDE8F6812DE9F04700F00B
S11319505AF88AB021B900202070FFF769FF4EE0E1
S11319600121217006694769C168027F212E2CBFBD
S11319704FF02008B046A9B1424601A8FFF7C8FDC0
S1131980E869D0F814C0DCF808C00123424601A974
S1131990E047A6EB080606B168B3FFF749FF00204D
S11319A020702CE0032A08EB070906D12B685B683A
S11319B001AA4146384698470CE0102A18BF4F4602
S11319C0DED1407F0090434601AA394605F120004C
S11319D000F0BAFB5FEA000A4F46D1D0E8694569D6
S11319E0AD680123002201A9A8475046FFF720FF54
S11319F00020207004E0E868C068066147610020A8
S1131A000AB0BDE8F087834D0446E868C068016900
S1131A10704710B57F4B1B68DB680446E268A16819
S1131A20606898479EE62DE9F04105467C4C6E6857
S1131A30D5F80880E86877492060002749680C31A8
S1131A4030B10A68904223BF4968491C8142042787
S1131A503046FFF779FB00B904272978384600F0AF
S1131A6060F89FB966600020FFF736FC2068C4F870
S1131A70088018B180F3088880F3098861684046BB
S1131A808847BDE8F0410020FFF726BCBDE8F0819F
S1131A9038B504466068FFF757FB08B9042005E031
S1131AA065680120FFF718FCA068A8472178BDE805
S1131AB0344036E010B50446211D5A4800F08CFB32
S1131AC050E610B50446A3686168564804F10C0258
S1131AD000F0AAFB46E61CB5044600A8002100223B
S1131AE006C0A36861684F4800AA00F0C9FBA26859
S1131AF000A900F045F813BD10B5FFF78EFE454868
S1131B00C168C968A2680A6162684A6110220A77DA
S1131B10C068C068E16841770020A168BDE8104052
S1131B205BE010B584B0A02201908DF80020002263
S1131B3000F06AF88DF80220029102228DF8032049
S1131B4000234469A4680C225BE010B588B0A72385
S1131B5000F03AF80020531C8DF8033006E000AC86
S1131B6051F8203004EB8004401CA3609042F6DB63
S1131B7000F021F800231AE010B584B0A3222FE06E
S1131B8010B588B0AF2300F01FF802238DF803309E
S1131B9040B99008801C8DF80300029203A8FFF757
S1131BA0C7FC01E000200290002300F004F800A923
S1131BB0A04708B010BD1748C0699DF803104469D8
S1131BC0A46889000A1D70478DF800300190002335
S1131BD08DF801308DF80230704710B584B0B02212
S1131BE08DF800200190012200F00EF802910022ED
S1131BF08DF80220002302228DF803200C22446970
S1131C00A46800A9A0471FBD0248C0698DF801203F
S1131C10704700001058FF1F0CED00E00400FA05A7
S1131C20E05AFF1F3058FF1F002818BF002901D1B8
S1131C30042070470848007800F00302022A08BF15
S1131C40002005D000F0C00080280CBF0120022035
S1131C5008700020704700BF02000240002200F01C
S1131C603BBB000038B5664C65682A46042104F184
S1131C70200000F04BFB00AA012104F1200000F039
S1131C8045FB286800990818401E6860002032BD92
S1131C9000F05EBB2DE9F047594C86B08046A06841
S1131CA00069056B8E08B60091468F1B05B10125AE
S1131CB04FF0FF3003902FB13A4606EB090103A819
S1131CC0FFF726FC06EB080A3EB133464A46414676
S1131CD004F1200000F06EFB38B93FB1042303AADD
S1131CE0514604F1200000F065FBE0B9EDB2CDB13E
S1131CF06EB104A802904B4605A80190324600F04C
S1131D0015F8414604F1200000F086FB48B94FB1B4
S1131D1000F03EF800F00AF8514604F1200000F00B
S1131D207BFB00B9002006B0BDE8F087A06800691D
S1131D30806DC0B200907047F0B5314D0446A8687C
S1131D400069066B87B006B101264842800880000E
S1131D500392474201E0241D3F1FB7B1042303AAA5
S1131D60214605F1200000F025FB78B9002EF2D0C1
S1131D7000F00EF8A868FFF7DAFF214605F120000D
S1131D8000F04AFB0028E6D000E0002007B0F0BDD8
S1131D9004A8029003AB05A801900422704770B513
S1131DA004460D46164E174B2A46214606F12000DE
S1131DB000F062FB68B9B16809690A6B4AB12A4646
S1131DC006F120008B6D2146BDE87040DBB200F0C7
S1131DD08FBB70BD10B50A4C0A4904F1200000F015
S1131DE0C5FB58B9A16809690A6B3AB104F120002E
S1131DF0896DBDE81040C9B200F0D0BB10BD000031
S1131E001058FF1F6B66656B416882688A4209D26D
S1131E10891A416082660FF2ED110160012181602F
S1131E200020704742F2787070470FF2050113E00A
S1131E30416ADFF8F4324A898282CA68921E42609B
S1131E404A689A4202D1097A022902DB42F2757089
S1131E5070470FF20D0100BF0160002070470000C1
S1131E6010B5044682B0606A41686268A161016885
S1131E70C91E9142A16002D342F2767016BD008958
S1131E8010B142F2777016BD8DF8000000A9A74882
S1131E90FFF7CAFE9DF8000010B142F2817016BD32
S1131EA02046FFF7B1FF16BD38B5A14D2B689B68DE
S1131EB00446626A216EE06D984780B9286800691B
S1131EC0804760B900F03AF800F033F80098616E8A
S1131ED0884200D038E00FF22D102060002032BD7F
S1131EE038B50446924D00F029F82B68626AE06D1B
S1131EF09B6810219847D8B9E06D1030E065206EDA
S1131F0010382066112828BF8A480FD208B18A48A1
S1131F100CE028680069804750B900F00AF800987E
S1131F20616E884200D00FE00FF2D90020600020DB
S1131F3032BD00A904F11C0000F058BB616A1022F4
S1131F4004F11C0000F03CBB42F27A7032BD10B5C3
S1131F50044604F11C0000F02DFB206E11282CBF58
S1131F607448754890E0724B1B68426E016EC06DF8
S1131F70DB68184710B5044642F27F70E26D110029
S1131F800ED0606E04F118019047012803D1204659
S1131F90BDE8104038E7022802D100F06EF80020B6
S1131FA010BD10B500F15C01031D1C684A685A603D
S1131FB0944202D242F2767010BD0A7AD20707D553
S1131FC00A685C69A24203D148689860002010BD89
S1131FD090F85A10C9075CBFBDE81040FFF714BF62
S1131FE042F27C7010BD90F85A10C90748BFFFF741
S1131FF0F1BE4F4A126852695C304168006810476C
S113200000000000B0B5044604F15805606A0FC82A
S113201085E80F005A270120415D7F18401C1028D5
S1132020FAD32878F9B2884202D042F27970B0BD6E
S1132030687807281ED8DFE800F01B04080C10138A
S11320401B172046BDE8B040ABE72046BDE8B040D2
S11320507DE72046BDE8B04085E742F21270B0BD8E
S11320602046BDE8B04085E72046BDE8B040BAE769
S11320700020B0BD42F27B70B0BD10B52F4C702172
S11320802046FFF7EBFD2E482060002010BDF8B578
S113209004460D46002000262A4FAE4217D0386968
S11320A0C0F11000A91B09E079B13B69325DDA5532
S11320B0761C3A69521C3A61401E491E0028F3D12D
S11320C0386100F005F810B9E7E742F27D70F2BD1F
S11320D01A491C4A4A620020CA6842B108699042FF
S11320E002D2401C086104E042F2747070478A6EA8
S11320F012B9084609680847521E8A66704738B5FF
S11321000E4890F8591004290CD100F15C0425689C
S1132110280004D00020FFF7DFF8A068A84742F2A7
S11321207E7032BD002032BD53544D503058FF1FD5
S11321301058FF1F291AFF1FF119FF1F1C5DFF1FF5
S11321407319FF1F8C5DFF1F2DE9F8435FEA000838
S1132150914614BFB9F1000F04200F461D4619D053
S1132160089C22462946384600F01AF890B904E043
S1132170716849F8041B3F1D2D1F5DB106480668B0
S113218006483760032101700472404600F044FCA5
S11321900028EDD0BDE8F2834005FF1F0700024090
S11321A010B510F0030F08BF11F0030F01D0652024
S11321B010BD022A0EDA0C18641E012A06D100286A
S11321C004BF481E072805D1002010BD002AFBD1FA
S11321D0FF2CF9D9042010BD10B50A46002818BFF9
S11321E0002A01D1042010BD0E4B1C78002104F0FC
S11321F00304022C14D04521597111785972517875
S113220019729178D971D178997111795973517979
S113221019739179D972D179997200F0FDFB014655
S1132220084610BD02000240F8B5160004460D46EB
S11322301F4601D10420F2BD3A46FFF7FBF8C8B9A6
S11322400D48432141700570102D0C480068316819
S1132250416003D0A5F11101032903D2082F04BF63
S113226071688160204600F0D7FB05462046FFF7E1
S1132270FBF82846F2BD00BF060002404005FF1FE0
S1132280F8B5150007460C461E4601D10420F2BDE0
S11322903246FFF7CFF8A8B90B48412141700470CA
S11322A0384600F0B9FB68B9084909684A682A60E9
S11322B0102C03D0A4F11102032A03D2082E04BF68
S11322C089686960F2BD00BF060002404005FF1F37
S11322D062F30F2262F31F4200B500BF130096465B
S11322E09446103928BFA0E80C50FAD85FEA417C24
S11322F028BF0CC048BF40F8042BC90728BF20F8EA
S1132300022B48BF00F8012B00BD0000002818BFB5
S1132310002A01D104207047072915D8DFE801F00D
S11323200408080A0C0E1012C068106000207047E0
S11323304068FAE78068F8E70068F6E70020F4E709
S11323404069F2E78069F0E76A20704700F07EBBDD
S1132350134680B50A4601461846FFF7D9F800200F
S113236002BD70B510F0030F0C46154612D0B0F143
S1132370005F0FD22118491EB1F1005F0AD3C0F1EA
S1132380005632462946FFF7C3F8A21B71194FF0D5
S1132390005001E022462946FFF7BAF8002070BD3C
S11323A010B514460A462146BDE81040012300F04A
S11323B08DBB00002DE9F041044615000E461F4672
S11323C008BF042022D004233A46FFF710F85FEA3E
S11323D0000802D01AE0361D3F1F9FB10C48006868
S11323E0066055F8041B416006200A49087020461F
S11323F000F012FB80462069010018BF8047B8F145
S1132400000FE8D02046FFF72FF84046BDE8F081E2
S11324104005FF1F070002402DE9F04106465FEA30
S113242003080D46174608BF04201ED00423FEF7F8
S1132430DEFFD0B9069C01E03F1F2D1DAFB10C4853
S11324400C490068056002220A700C7158F8041BDC
S11324508160304600F0E0FA0028EDD0079901B120
S11324600D60089909B100220A60BDE8F08100BF3F
S11324704005FF1F070002402DE9F041984604463D
S11324800D4616461023FEF7B2FF07001AD1701945
S1132490461EE068B6FBF0F100FB11622AB1491C4C
S11324A04843461E01E0E0684519AE4217D30E4882
S11324B00E4900680560092008704046FEF7ADFF2C
S11324C0070002D03846BDE8F081204600F0A4FAA7
S11324D007462069010018BF8047002FE3D020463B
S11324E0FEF7C2FFEEE700BF4005FF1F07000240F2
S11324F02DE9F84F984604460D4692461023FEF700
S113250076FF60BB6068A168164FB0FBF1F96842C2
S1132510C9F1000108404642AE4208BF4E4403E000
S1132520AAEB0B0A5D444E44BAF1000F16D00E49D3
S113253009680D60701BD346824588BF834601211C
S113254039704FEA1B10010A3971F87087F802805C
S1132550204600F061FA0028E2D000E00020BDE847
S1132560F28F00BF070002404005FF1F38B504008A
S1132570084601D1042032BD074A44211170FEF7F8
S11325804CFF050007D1204600F046FA05462046D8
S1132590FEF76AFF284632BD0700024008B904204E
S11325A07047034A40235370117000F035BA00BFDE
S11325B0060002404FF0FF31016000214160704786
S11325C030B544680368141944600FF24C0407E002
S11325D011F8015B85EA136554F8255085EA032355
S11325E015466A1E002DF3D1036030BD30B5436833
S11325F0026813F0030F0CD003F00303C3F10403C8
S11326000FF21404150E54F825505B1E85EA0222BD
S1132610F8D102600A6030BD00000000B71DC1049B
S11326206E3B8209D926430DDC7604136B6BC51708
S1132630B24D861A0550471EB8ED08260FF0C92280
S1132640D6D68A2F61CB4B2B649B0C35D386CD31E8
S11326500AA08E3CBDBD4F3870DB114CC7C6D048B4
S11326601EE09345A9FD5241ACAD155F1BB0D45B90
S1132670C2969756758B5652C836196A7F2BD86EF8
S1132680A60D9B6311105A6714401D79A35DDC7D70
S11326907A7B9F70CD665E74E0B6239857ABE29C5C
S11326A08E8DA191399060953CC0278B8BDDE68F90
S11326B052FBA582E5E66486585B2BBEEF46EABA78
S11326C03660A9B7817D68B3842D2FAD3330EEA970
S11326D0EA16ADA45D0B6CA0906D32D42770F3D0D4
S11326E0FE56B0DD494B71D94C1B36C7FB06F7C308
S11326F02220B4CE953D75CA28803AF29F9DFBF600
S113270046BBB8FBF1A679FFF4F63EE143EBFFE5E7
S11327109ACDBCE82DD07DEC77708634C06D4730FF
S1132720194B043DAE56C539AB0682271C1B432307
S1132730C53D002E7220C12ACF9D8E1278804F167F
S1132740A1A60C1B16BBCD1F13EB8A01A4F64B05E7
S11327507DD00808CACDC90C07AB9778B0B6567CB3
S113276069901571DE8DD475DBDD936B6CC0526F8F
S1132770B5E6116202FBD066BF469F5E085B5E5AF7
S1132780D17D1D576660DC5363309B4DD42D5A496F
S11327900D0B1944BA16D84097C6A5AC20DB64A823
S11327A0F9FD27A54EE0E6A14BB0A1BFFCAD60BB8F
S11327B0258B23B69296E2B22F2BAD8A98366C8E77
S11327C041102F83F60DEE87F35DA9994440689D6F
S11327D09D662B902A7BEA94E71DB4E0500075E4D3
S11327E0892636E93E3BF7ED3B6BB0F38C7671F707
S11327F0555032FAE24DF3FE5FF0BCC6E8ED7DC2FF
S113280031CB3ECF86D6FFCB8386B8D5349B79D1E6
S1132810EDBD3ADC5AA0FBD8EEE00C6959FDCD6D54
S113282080DB8E6037C64F643296087A858BC97E0A
S11328305CAD8A73EBB04B77560D044FE110C54B7A
S1132840383686468F2B47428A7B005C3D66C158EA
S1132850E4408255535D43519E3B1D252926DC21CE
S1132860F0009F2C471D5E28424D1936F550D83292
S11328702C769B3F9B6B5A3B26D6150391CBD407F2
S113288048ED970AFFF0560EFAA011104DBDD01472
S1132890949B93192386521D0E562FF1B94BEEF5D6
S11328A0606DADF8D7706CFCD2202BE2653DEAE692
S11328B0BC1BA9EB0B0668EFB6BB27D701A6E6D372
S11328C0D880A5DE6F9D64DA6ACD23C4DDD0E2C072
S11328D004F6A1CDB3EB60C97E8D3EBDC990FFB9AE
S11328E010B6BCB4A7AB7DB0A2FB3AAE15E6FBAA0A
S11328F0CCC0B8A77BDD79A3C660369B717DF79FFA
S1132900A85BB4921F4675961A163288AD0BF38CE9
S1132910742DB081C330718599908A5D2E8D4B5989
S1132920F7AB085440B6C95045E68E4EF2FB4F4A09
S11329302BDD0C479CC0CD43217D827B9660437F79
S11329404F460072F85BC176FD0B86684A16476CE9
S113295093300461242DC565E94B9B115E565A15CD
S113296087701918306DD81C353D9F0282205E0691
S11329705B061D0BEC1BDC0F51A69337E6BB5233F1
S11329803F9D113E8880D03A8DD097243ACD562071
S1132990E3EB152D54F6D4297926A9C5CE3B68C19D
S11329A0171D2BCCA000EAC8A550ADD6124D6CD291
S11329B0CB6B2FDF7C76EEDBC1CBA1E376D660E771
S11329C0AFF023EA18EDE2EE1DBDA5F0AAA064F471
S11329D0738627F9C49BE6FD09FDB889BEE0798DAD
S11329E067C63A80D0DBFB84D58BBC9A62967D9E09
S11329F0BBB03E930CADFF97B110B0AF060D71ABF9
S1132A00DF2B32A66836F3A26D66B4BCDA7B75B8E8
S1132A10035D36B5B440F7B10B48702101708021D5
S1132A2001700178C909FCD00078810601D56720BE
S1132A307047C10601D568207047C00701D56920D9
S1132A4070470020704700BF000002401D48006826
S1132A50000B00F00F00C01E082830D8DFE800F09B
S1132A6005080B0E1114172F1A004FF4804013E0C1
S1132A704FF4C04010E04FF400400DE04FF44040EC
S1132A800AE04FF4803007E04FF4C03004E04FF424
S1132A90003001E04FF480200321421E10420A4A14
S1132AA0526818BF02214B1CB0FBF3F0C0F1005375
S1132AB042F80C3F6FF0604301FB0030506000208F
S1132AC0704700BF007004401058FF1F002A01D156
S1132AD001207047F0B41F46034603242340002B13
S1132AE009D00424E31A017001300824E141521E84
S1132AF026D05B1EF7D1042A1ADB13D0002F11D085
S1132B000C460D460E46102A02DB72C0103AFAE754
S1132B100C2A02DB32C00C3AFAE7082A02DB12C0A4
S1132B20083AFAE7042A03DB01600430121FF9E7CC
S1132B30002A05D0017001300824E141521EF7D16A
S1132B40F0BC00207047000040682C49405C70478E
S1132B502B494A6842B10A6813780370501C086014
S1132B604868401E4860704700210170704710B5E6
S1132B705A280CD1214A01238B54142404FB01212B
S1132B800FF20D03CB60BDE81040116C084710BD77
S1132B901A49096C084730B5184D296485B00446B4
S1132BA000A80FF260011422FEF7C2FC6068A2685C
S1132BB0022190476068142101FB00510A1D00A9FD
S1132BC000F091F8002005B030BD10B504460B4864
S1132BD06168142202FB0100001D00F0F0F8606837
S1132BE0A268BDE81040002110470548016042601A
S1132BF041680029FCD1002070470000F45AFF1FEF
S1132C00EC5AFF1F9926FF1FB726FF1F0000000084
S1132C1008000000010100002DE9F041044682B0E3
S1132C20D4F800800FF2082050F82870F86A261DA6
S1132C3000012BD5B268100028D041464FF496709D
S1132C40904723E000F04BF820699DF800500928D4
S1132C5005D300F044F89DF8000045EA00252069FA
S1132C60112805D300F03BF89DF8000045EA004523
S1132C702069192805D300F032F89DF8000045EAD0
S1132C8000657D63F86A40F00070F862F86A8001BC
S1132C90D8D4F86A800320D5BD6BF86A40F40030BC
S1132CA0F86241467268E8B290472069092804D363
S1132CB0280472684146000E90472069112804D305
S1132CC0280272684146000E904720691928E0D313
S1132CD072684146280E9047DBE7BDE8F38132680D
S1132CE0414600A81047F0B504460FF2441050F8CE
S1132CF024700D46164685B014213046FEF7AEFF0B
S1132D000ECD301D0C3D0EC03460E868306146487D
S1132D101CB1022C0AD004D30CE0C16841F48051E8
S1132D2002E0C16841F40051C16003E0016841F46C
S1132D3080510160384600F0A8F800208DF80000AA
S1132D40ADF80C0000A9E8680190287C8DF8080013
S1132D50687C8DF80900384600F074F868BB386860
S1132D6020F48040386001220121384600F0B9F88F
S1132D702E48002100F8341000EBC4000122466004
S1132D801921384600F0F8F801221121384600F0E4
S1132D90F3F801221B21384600F0EEF80020786396
S1132DA00121F86A40F00070F8622046FEF77CF9D1
S1132DB03868400840003860002005B0F0BD70B5A8
S1132DC004680FF26C00184E50F824501CB1022C09
S1132DD00DD006D312E0F068C00424D500210020F1
S1132DE00AE0F06880041ED50021012004E0306868
S1132DF0C00418D500210220FEF756F9284600F039
S1132E0044F81CB1022C0AD004D370BDF06820F43D
S1132E10805002E0F06820F40050F06070BD30682B
S1132E2020F48050306070BD30800440385BFF1F58
S1132E3000C0024000D0024000C00A404001474A9E
S1132E401150704738B50D4604462878444A61014C
S1132E50C043505000212046FFF7F0FF2A1D0021F7
S1132E60204600F044F810B140F2311032BD6A7BC4
S1132E70297B204600F021F800F001F832BD2068DB
S1132E8020F0405020600020704710B50446012215
S1132E90206820F480402060012020600146204604
S1132EA000F01FF82F48E0620020A060E06020617D
S1132EB0206344F20100206010BD30B50368C3F301
S1132EC080331BB1046824F4804404604401264D1B
S1132ED0295126490A511BB1016841F4804101601E
S1132EE030BD4001224B195022490A50704730B579
S1132EF01568042D09D3112D02D30368DB0F04D107
S1132F00212D05D30368DB0F02D140F2311030BD0F
S1132F1000EB81016D1E537914790068ED065B06A0
S1132F20A406C00FC86803F0007304F080640CD0DA
S1132F3020F0FE4005F0F045927928432043120624
S1132F40184302F08072104304E020F0FC40284350
S1132F5020431843C860002030BD00007C000042BC
S1132F603800004200000A9A340000423000004257
S1132F702C0000422800004210B5036B01248C4051
S1132F80A34302FA01F11943016310BD80B5094955
S1132F9001EBC00211F8300028B1074840B1506875
S1132FA0C046C04601BD054810B15068FFF734FE65
S1132FB001BD0000385BFF1F000000006127FF1FF8
S1132FC00020E3E70120E1E70220DFE7002000E042
S1132FD0012038B50FF2781151F82040594901EB1E
S1132FE00013E178E27801F012052A43E27001F05F
S1132FF05002102A10D04A0614D54807A0780CD5E0
S113300040F01000A07000208DF8000000A819689E
S113301088479DF80000207131BD00F0EF00A070DA
S1133020207931BDA278C2F300121AB1C807EAD5DB
S1133030A078F2E72279014610465A68904731BDDC
S11330400FF20C1151F82000002181700170817180
S11330507047F8B504000FF2F8003A4F50F82460B6
S11330600D4695E80F0007EB041787E80F00364874
S113307001680CBF40228022114301600020B0701F
S113308001214020B0710220F0702046FEF728F89C
S11330903078297B40084941317000207071B0714B
S11330A07070B07840F08000B070B07840F04000AC
S11330B0B070F1BD38B50500234C03D1206840063B
S11330C005D431BD012D10D1206800060DD5002195
S11330D02846FEF705F82846FFF7B2FF2068002DC2
S11330E00CBF402180218843206031BD30B50FF2F0
S11330F0600353F820004FF47A73B1FBF3F1134BE0
S1133100B3FBF1F1002300E023465C1C01FB04F552
S11331109542F9D32BB90A2462438A4204D301238A
S113312002E0202B28BF1F23817901F0A00103F0C6
S11331300F021143817130BD024A02EB001041605D
S113314070470000505BFF1F3480044040420F0072
S1133150006006400070064000600E4040682F4941
S11331604018007C70472E494A6842B10A681378B7
S11331700370501C08604868401E48607047002176
S11331800170704725494969084738B504465A2CE7
S113319008460BD1214D4219012111742149FFF731
S11331A0CBFF6969BDE834405A20084731BD10B5EA
S11331B004461A49FFF74DFFFDF7ACFE01462046D1
S11331C0BDE810403222FFF791BF10B50446134802
S11331D0416115498968096991F88110FF2918BF6F
S11331E001736068A268022190476068FFF7DFFFFF
S11331F0002010BD10B504466068FFF75BFF6068EF
S1133200A268BDE8104000211047054801604260F3
S113321041680029FCD10020704700006058FF1F5E
S11332208C5BFF1FCD2CFF1F1058FF1FC9B2012A52
S1133230DFF8B82912F821300CBF0120002008E083
S1133240C9B2012ADFF8A42912F821300CBF0420E6
S11332500820184302F821007047DFF89009C9B22A
S113326010F8212002F0FD0200F82120704738B543
S113327004460D4600F09CFD206900280EBF256120
S113328060690561656100202861A069401CA06136
S1133290BDE8314000F096BD38B504460D4600F057
S11332A087FDA06918B900F08DFDC12032BD2069E9
S11332B02860206918B10069206100B96061A069C3
S11332C0401EA06100F07EFD002032BDDFF8201911
S11332D001F5007201F51471C1600161C2620C2133
S11332E081610B22C16801F11C030B61521E194656
S11332F0F9D10A6141610020704710B582B00446DB
S113330000A9FFF7C9FFDFF8EC08406804F12C01BD
S1133310400A0A68CB7D40020BB9426005E040F0E8
S1133320080402F1080363600832009B5A6000221B
S1133330009B1A70009B5A70009B9A60009B9A70C5
S11333400122009BDA75009A8A6000224A75C97DC1
S113335001F0010140EAC100DFF89C18016013BDCF
S1133360F8B506460F4614461D4600F021FD00F050
S1133370E9FA07F00F0140EA4110142111FB07613B
S113338041318A7802F0010240EAC20254608A782C
S1133390097802F0010240EAC200AA0501F0010125
S11333A0920D890141EA024141F08801016000F077
S11333B009FD00F069FBF2BD10B5142414FB0100F3
S11333C001F00F0130F8384F9C4288BF1C46029B25
S11333D01C60DFF820385B685B0A5B0243EA41113A
S11333E0837A03F0010341EAC30343F010035A60F4
S11333F0827A007A02F0010200F0010041EAC2017F
S1133400A205920D800141F0100140EA024040F013
S1133410880000F038FB10BDF0B5DFF8E017DFF8E6
S1133420D447FF220A720B7D43F002030B750B7E17
S113343003F080030B76002365686D0A6D0203F0C8
S11334400F0645EA4615002645F008072E603E6043
S113345045F0100745F018053E602E60142505FB65
S1133460030542356E702E700025DFF88067DFB2E9
S11334705B1C06F82750062BDED3257001230B7046
S11334801C300B7D03F0FD030B75C5730223038011
S1133490012343800A73087940F08D000871087D88
S11334A000F0DF0008750020F0BD2DE9F047DFF8DB
S11334B04C5788B08146287CDFF838678DF81C00AB
S11334C0287C00090090012814BF0228287C0821C8
S11334D0287C2A7C2970C0F3C0007168009B490ACB
S11334E0490241EA431141EA0013C2F3800243EA6C
S11334F0C2021268C2F3094AC2F3830202920D2A7D
S11335000CBF4FF001084FF00008009A142303FB8E
S1133510029202F13004009A4AEA0202019270B364
S11335202768002F25D0F8685044F860B968091A54
S1133530A07C80F00100A074207C80F00100207445
S113354002D02089824515D200F08CF820604846CC
S1133550FFF78DFE2089824504BF009800285ED1C4
S1133560012030700022D9F804000023114600F035
S113357096FD74E03946484600F0E9F96FE0019899
S1133580002854D0307808B1002030706768002FCC
S113359065D0F87D68B9E07CFA6800F0010041EA82
S11335A0C00041687868101881421CBF524600F080
S11335B0ECFDF8685044F860B9680E1A00980028C9
S11335C004BF02980D280ED101220021484600F0C4
S11335D0B8FA09F14000012101704170C17881F00D
S11335E00101C17007E0607C80F001006074E07C40
S11335F080F00100E074B868002818BF002E02D0E3
S11336002089824506D200F02DF860604846FFF715
S11336102EFE0CE03946484600F0BEF91FE0019842
S1133620002801BF307800284846FFF766FED9F825
S1133630040003908DF81A8003A900988DF81800EF
S11336409DF81C00C00800F001008DF81B000098D4
S1133650C0B200F0EEFB287D00F0DF00287508B052
S1133660BDE8F087F8680590394678680490002032
S11336707047DFF8881504220A70DFF8842513796F
S1133680127842EA0322028420200870704770B541
S113369004460025142000FB054000F13806B078EC
S11336A0012822D1D4F8AC002946FFF7D6FDDFF873
S11336B0440532884068400A400205F00F0140EAA0
S11336C04110B17A01F0010140EAC101920541F0D3
S11336D01001920942F008020A60F17A01F0010136
S11336E040EAC100318800F01EFA6D1C062DD1DBC2
S11336F0DFF808158020087094F83A00012806D1F4
S1133700002084F83A002046BDE87040F5E570BD1D
S113371030B5DFF8E844DFF8EC5485B0207821793F
S11337200840000744BF2846FFF7BFFE20782179F0
S11337300840C00710D501202070207C69680091E2
S113374000098DF80C0000A90020ADF80E000190CE
S11337500290102000F06DFB20782179084040078A
S113376044BF2846FFF785FF2078217908400006EA
S113377044BF2846FFF78BFF05B030BD70B5044643
S1133780DFF880640D463046FFF7A0FDDFF87814BB
S1133790DFF878040860FDF709FAC6F8A8002E607F
S11337A07460002070BD70B506460C4604F128050F
S11337B000F0FAFC2870304600F0EEFCC4F8AC00CF
S11337C01020A870FF20DFF8346430702246DFF840
S11337D04004017801F07F0101702878DFF8341487
S11337E000F0E7FC08B98A2070BDDFF80814DFF8A0
S11337F000044860010A3177020CDFF81C140A70D7
S1133800000E08712046FFF707FE002070BDDFF8A8
S11338100004017841F080010170DFF800040178B0
S113382041F001010170DFF8F803017801F07F0134
S113383001700020704738B50D46044629786A782F
S1133840142010FB01415118012281F83C20AB786F
S1133850A98A012B05D1B1F5806F05DB40F2FF3158
S113386002E04129A8BF40212A7810FB024282F8D5
S11338703E302A786B7810FB024282F83F302A7877
S113388010FB024211870022297810FB014181F8C4
S11338903A20297810FB014181F83B2029786A7885
S11338A010FB0141403132B94A70297810FB0140C4
S11338B00021416305E000220A70297810FB0140D1
S11338C00263A87829780128D4F8AC0018BF012233
S11338D0FFF7ACFC6A7802B101222978D4F8AC0075
S11338E0FFF7AEFC6878002801BF2878002820463E
S11338F0FFF703FD002032BD70B505460E461446A1
S113390000F01FF9B949002001F8260006F00F0164
S113391000F018F840EA411004F0010140EA0110F7
S11339204FF0FF31416040F008004160142010FB6B
S113393006504FF6FF7101872018002180F83C10D3
S1133940002070BDAB484068400A40027047F0B5A3
S11339500D460446A868E96883B0401A019014260D
S1133960E86818B9297816FB01410D6301A9009193
S11339706968019B421829782046FFF71DFD07005E
S113398008D0287816FB0040002101632046294610
S1133990FFF76DFC3846FEBD2DE9F0410D460446A7
S11339A0E868A9680E1A142718B9297817FB014189
S11339B04D63297817FB0141098FB14238BF0E4688
S11339C0696842189048006858B116F0030F08BFA0
S11339D012F0030105D00021E975414201F0030111
S11339E00A18297833462046FFF7BAFC5FEA000834
S11339F008D0287817FB004000214163204629465F
S1133A00FFF735FC002E04BF287800280CD1294686
S1133A102046FFF72CFC94F8430080F0010084F862
S1133A2043002046FFF769FC4046BDE8F08170B5CD
S1133A300D46142111FB050101F138060121F17035
S1133A40B1701446294600F07CF86A493088496808
S1133A508005490A8009490205F00F0240F08C00F4
S1133A6041EA42113CB1B27A02F0010241EAC201D8
S1133A7041F0100104E0F27A02F0010241EAC201CD
S1133A8000F001F870BD08606448017801F0DF01BE
S1133A900170002070472DE9F84381460D4614203B
S1133AA010FB059000F138070020F870B870164636
S1133AB0D9F8AC004F4CFFF7D0FB05F00F004FEAEC
S1133AC04018D9F8AC0096B101222946FFF7AEFBA5
S1133AD0D9F8AC0001222946FFF7B2FB0020387266
S1133AE06068B97A00F025F840F0100014E0012273
S1133AF02946FFF79BFBD9F8AC0000222946FFF7C3
S1133B009FFB002078721DB94846FFF7F6FB06E0DC
S1133B106068F97A00F00DF8398800F004F8FFF7CE
S1133B20B3FFBDE8F2838905890941F0080101600A
S1133B307047400A48EA402001F0010140EAC10010
S1133B407047F0B506460C46142085B0154610FBA8
S1133B5004601DB9476B0021416302E0076B00213B
S1133B600163C7B139463046FFF781FB4FF0FF30A0
S1133B70029000A978680190706800908DF80C405C
S1133B8000208DF80E00280018BF01208DF80F00CA
S1133B90204600F04EF9002005B0F0BD214A13780C
S1133BA003F080030B431C301370C17301210180A7
S1133BB00020704780B51C490A7800220A700A7DEB
S1133BC002F080020A7500220A7415490A7842F04C
S1133BD040020A700A7842F080020A70FF21818351
S1133BE0D0F8A800FCF7E7FF002002BDC020074082
S1133BF00060FF1F945BFF1F8800080080200740BF
S1133C00A02007409C5BFF1F4C5CFF1F1062FF1F3E
S1133C101C2007405932FF1FB02007409420074062
S1133C2000210740982007408420074001F00F013D
S1133C30142313FB010090F83A0010800020704711
S1133C4038B501F00F041425FF2315FB0405012AE0
S1133C5005F83A2F04D1CA092146FFF7E8FE06E029
S1133C6032B9697821B16A792146FFF714FF034616
S1133C70184632BD70B504460D46D4F8A800164661
S1133C80FCF795FF012D04F11C0007D0042D07D08B
S1133C90052D07D0062D08BF468004E0068002E00B
S1133CA0468100E086801EE070B504460E46D4F8D6
S1133CB0A8001546FCF77BFF012E04F11C0008D078
S1133CC0032E0AD0042E0AD0052E0AD0062E02D0C6
S1133CD009E0008806E0408804E0C07B02E04089F7
S1133CE000E080882880D4F8A800FCF762FF002058
S1133CF070BD38B504460025002229462046FFF74A
S1133D00FBFD012229462046FFF7F6FD6D1C062D1A
S1133D10F2DB2046FFF780FB2046FFF7D7FA0020AE
S1133D2032BD000070B5A0F11003DBB20829B8BFA2
S1133D30FB2B1CDA03F0030423F0030303F16043B9
S1133D4003F56143E400D3F80053FF264901A6407C
S1133D5001F0E001B543A1402943C3F8001312B1B7
S1133D6000F008F801E000F010F8002070BD4FF0FA
S1133D70FF3070BD1038C0B2FB2805DA012100F015
S1133D801F029140144A0DE009E01038C0B2FB282C
S1133D9005DA012100F01F029140104A02E04FF0C1
S1133DA0FF307047400942F820100020704700009F
S1133DB00B480168002900D172B60168491C0160F2
S1133DC0704700000648016800291EBF491E0160B3
S1133DD0002900D162B6704700E100E080E100E014
S1133DE05C5CFF1F38B50D460446687B38B110286B
S1133DF002BF002204F1080000F06EFA04E0002281
S1133E0004F1080000F0DAF900200C2101FB004164
S1133E1001F13C026B7B117A994205D15168126819
S1133E2028469047002032BD401C0828EDD383204B
S1133E3032BD0A68487310F07F0307D000F07F009A
S1133E40102803DAC87B43EAC01048731046C9E758
S1133E504268126B13001CBF00681047FF207047B4
S1133E6070B500F01EF86068E90606D5436A1800CC
S1133E700AD000F0ECF8984718E0436C180003D01F
S1133E8000F0E5F89847F7E714E070B500F009F89A
S1133E906068036C180003D000F0D9F8984705E077
S1133EA008E004460D461646FFF782BFFFF78AFF77
S1133EB0002070BDFFF786FFFF2070BDF8B52B4EC4
S1133EC006F19C070446387801280D4629D0A4221F
S1133ED00021304600F04BFB012038707C70FCF769
S1133EE065FE23497860602212FB0411F161FF2210
S1133EF000210C2313FB0163491C082983F8442087
S1133F00F7DB002C18BF012C0DD11A4F77603A68EB
S1133F10100002D0314630469047306838B98720C7
S1133F20F2BDC120F2BD00203870C020F2BDF060A7
S1133F303661204600F026FB30B1796B08001CBFC7
S1133F4030688847C420F2BD7A68100005D0316813
S1133F502046904718B92E60F2BDFF20F2BD796B60
S1133F6008001CBF306888478D20F2BD685EFF1FC3
S1133F70A063FF1F7405FF1F10B54B689B680246C2
S1133F8000201C0003D0BDE810401046184710BDA7
S1133F9038B5040001D1FF2032BD04F19C056868E6
S1133FA0FCF709FE6068416B08001CBF2068884765
S1133FB00020287032BD00B587B0C0B10B788DF8F1
S1133FC000308B788DF801304B68ADF814304978A7
S1133FD08DF802108DF8162000210291039141689A
S1133FE08A69110003D0006800A9904700E0FF200F
S1133FF007B000BDF8B500F097F81F4601D1FF20C7
S1134000F2BDFFF7D5FE00200C2101FB004292F81F
S11340104420AA4203D1FFF7D5FE8420F2BD401C00
S11340200828F2D3002001FB00423C32137AFF2B14
S113403006D1157216605760FFF7C4FE0020F2BD6A
S1134040401C0828EFD3FFF7BDFE8120F2BD206895
S1134050324629467047F8B504000F4615461E46F9
S113406019D06068826C100015D0206800A99047B0
S113407088B9FFF79DFE00980770002000F033F820
S11340800269100007D000992068904700F050F8AA
S11340901CB90020F2BDFF20F2BD9420F2BDF8B59A
S11340A004000F4615461E4619D06068826C100045
S11340B015D0206800A9904788B9FFF779FE0098C9
S11340C00770012000F00FF8C268100007D00099B3
S11340D02068904700F02CF81CB90020F2BDFF20A6
S11340E0F2BD9320F2BD0099487000988660009854
S11340F0456000200099C86006200099C870606877
S1134100704770B500F010F80CD0FFF751FE6068EE
S1134110036A180006D0FFF79AFF984700F008F8E2
S1134120204670BDFF2070BD04000D461646704742
S11341300446FFF747BE10B538B14368DB6B1C007B
S113414003D0BDE8104000681847FF2010BD08B92F
S1134150FF207047016242620020704708B9FF20C7
S113416070478162C2620020704708B9FF2070471F
S1134170016342630020704728B14168C96C0A009A
S11341801CBF00680847FF20704710B50446FDF7C0
S1134190BFF9204610BD000008B90248704700204E
S11341A0704700000020074008B945207047FF20F1
S11341B0704700F011BAFFF7B5BD00007FB50446A3
S11341C00020ADF8080003900E46A06802AA012161
S11341D0FFF746FEB07BCE25002850D07168082238
S11341E004F10C00FFF7D1FF208A217B208260229A
S11341F0E089E0811142608A608217D1607B354991
S113420001EB8002966A32005AD0BDF80820032AD6
S113421056DA00EB40004018105C012850D101AB85
S113422003AA04F10C012046B04726E00190D8B15E
S1134230207B000618D401980830552805D3A068BF
S113424000220021FFF777FF7FBD6069082204F197
S11342500C01FFF79AFF6069019B00F108023068C6
S11342600021FFF7F8FE7FBD266A300028D0636A7C
S113427001AA03A904F10C00B047054620E0BDF8EB
S11342800800042805D16188A068C9B2FFF7E0FDE1
S11342907FBD207B00061CD4F07BD0B9608AC0B1FE
S11342A0206A48B1B06808300190636A6069256A81
S11342B001AA03A9A8470546B06810F1010F08D068
S11342C001A8009003AB04F10C02E9B2204600F00F
S11342D029F87FBD345AFF1F30B5044683B0A06867
S11342E00D46FFF749FF00208DF802008DF800000D
S11342F001224020019000A900208DF801002868C7
S1134300FFF759FE01208DF802000122286800A958
S1134310FFF751FEE269A06918B1A36900210020EA
S1134320984737BD38B50446CE291546184606D1F8
S1134330A068BDE8384001220021FFF7FCBE0499C3
S1134340EA880B689A4238BF0A6002680B68A06862
S11343500021FFF7A4FE2878000608D5A06801B064
S1134360BDE83040002200231146FFF774BE31BD82
S113437070B5154604461E460A78FF201F231A42CC
S113438009D1A06822460621FFF76AFD217801F0D1
S11343900301218013E002F01F03012B03D100214C
S11343A0218001210CE002F01F02022A09D1888831
S11343B040F01001A0682246C9B2FFF751FD022166
S11343C031602C60C0B270BD70B5044682B000206C
S11343D01860CE250A7848781F231A42C0F340009B
S11343E012D1897811F0030138D0012936D100287F
S11343F014BF11261226A369002518002ED0626A64
S113440000213046984729E002F01F02022A02BF29
S11344108A7803231A4221D189888DF800109DF8E7
S113442000209DF8001001F00F01D20920B1A0680E
S1134430FFF781FE132608E09DF8000014260F23E1
S1134440184203D1A068FFF75CFE0546A369180073
S113445004D0626A00A9304698470025E8B276BDC8
S113446038B50446002018600D46A06804220121D6
S1134470FFF70BFD68886080002032BD01211960C0
S1134480303010600020704738B5002204461A60AE
S11344904888ADF8000000B90122A0680121FFF7A7
S11344A0F4FC0546BDF80000A369208618000BD073
S11344B0E26900A901209847BDF8000020B1E26933
S11344C0A369002103209847E8B232BD38B50446F9
S11344D0012018601546A06A4368180001D1CA205B
S11344E032BD8988E06A2246C9B298472C6032BD41
S11344F038B5044600200D461860287800F0030003
S1134500012801D0042032BDA06A8368180001D1BB
S1134510CA2032BD6A88A988E06AD2B2C9B2984773
S1134520A369180003D0E269A91C0220984700205F
S113453032BD38B50446022018601546A0682246EC
S11345400521FFF78DFC2C60C0B232BD30B5846A02
S113455083B02468250001D1CA203EBD4D88019353
S11345600092EAB28B88C06A290AA0473EBD10B502
S1134570044610460A4601462046FDF709F820463F
S113458010BD000010B500244FF0FF3100B10C46FF
S1134590DCB9C8B90E48416841F0807141600168D6
S11345A041F00041016000210A48017010210170AE
S11345B0017941F0400101710020FFF7F5FD01226E
S11345C00421FFF7F8FD00E00C46204610BD00BFB3
S11345D00070044008210740F8B504460D4616460D
S11345E00E4F452C04BF3D607E60002000F018F89B
S11345F0844208BFFD60012000F012F8844208BF25
S11346003D61312C04BF7D61BE600120F2BD0348D1
S113461001680A001CBF4068084770473C5EFF1FE2
S1134620042804D2034951F82000103070470020B8
S113463070470000C058FF1F70B50D0082B00446DB
S1134640164601D1002076BD00AA00F071F830B9F9
S1134650009B9B685B68324629462046984776BD96
S113466070B50D0082B00446164601D1002076BD17
S113467000F07FF800B14CE000F047F868B9009B07
S11346809B689B6832462946204698474E49002835
S113469006BF009A926800220A6076BD38B50446C7
S11346A00D4600AA00F044F8A0B90098806840695B
S11346B008B9662032BD2946204600F05AF810B1E8
S11346C042F2D87032BD009A926852692946204657
S11346D0904732BD002DFCD1002032BD70B50D00D5
S11346E082B00446164601D1002076BD00F041F8A0
S11346F000B10EE000F009F830B9009B9B68DB685C
S1134700324629462046984776BD00AA29462046C7
S11347100EE042F2D87076BD10B52B4C2168002013
S113472029B109690A0002D088470021216010BD1F
S113473070B5264C6468002918BF002A42F2D87369
S113474014D000E00C348CB12568002D04BF6668D9
S1134750002E01D1A6684EB1A84224BF65688542E7
S1134760F0D30818401E854228BF00231460184661
S113477070BD30B5154A92681269536BA3B109181C
S1134780491E002302EBC304603465682468002CCE
S113479008BF002D05D0854228BFA14201D30120C6
S11347A030BD5B1C022BEDDB002030BD10B507488B
S11347B0446804E00068010018BF80470C34A06816
S11347C00028F7D110BD0000505CFF1F1058FF1FD8
S11347D010B58F488068006900F1700430224FF4EE
S11347E070712046FCF7A4FE20688A49884204D0F0
S11347F0FF2230212046FDF76BFDFCF739FC002039
S113480010BD38B5824CA06805694B20E87005F1ED
S113481010020120A870042105206870012028706E
S11348205020E8710120A8710220687100202871CD
S11348305420E8720120A8720020687228720120B6
S1134840286368634EF6FF70A86300F052F805F120
S11348501402012100F04DF805F11802002100F0C6
S113486048F805F11C02022100F043F805F120028A
S1134870032100F03EF805F14C02052100F039F85F
S113488005F15002062100F034F805F15402072125
S113489000F02FF800202866686600215E48A866AC
S11348A05E48E8666069E96007E095F88030134285
S11348B002D0EB681A43EA60491C182202FB010289
S11348C01268002AF1D156480168A96441686964F4
S11348D081682964C068E863606850F80C1F6962E5
S11348E041680068081A401CA8620120A8650020DD
S11348F032BD04F12000FDF709BD0000F8B51446EF
S1134900434A484F91680426401E096917281D46EA
S11349104CD8DFE800F00C121416181A204B4B2266
S1134920262D241C1E30333E414345474B4905B1D7
S11349302E6004B121600020F2BD0C31F7E7103184
S1134940F5E71431F3E71831F1E72031EFE72431CB
S1134950EDE72831EBE73831E9E73031E7E7343187
S1134960E5E7D06941694969884738603946DEE737
S113497010266031DBE72C480068F6E700A902F155
S11349802000FDF751F99DF800000028EDD001202A
S1134990EBE710263C31CAE74C31C8E75031C6E793
S11349A05431C4E75831C2E70831C0E742F63C004D
S11349B0F2BD174A92681369401E062842F63E0269
S11349C020D909380CD0401E01281BD9801E0DD0D7
S11349D0401E032816D908380ED0801E12D014E0C9
S11349E0002918BF012909D119637047002918BF8C
S11349F0012903D159637047032901D31046704735
S1134A009965704742F63D00704742F63C00704796
S1134A101058FF1F6B6366670000FF1FFF65FF1FD1
S1134A2054800440185DFF1F24800440012100F0DD
S1134A301F029140A04A04E0012100F01F029140AE
S1134A409E4A400942F8201070470021C1708170CD
S1134A500170042141700021817241747047F8B5DE
S1134A60974E3360130191FBF3F633010025B1FB3C
S1134A70F3F3044693424FF0FF3038BF761E00D361
S1134A8010D001274B0007EB461CB3FBFCF39A4202
S1134A9034BF9B1AD31A984224BF18463D467F1C44
S1134AA0212FEFDB642192FBF1F101EB41018842FC
S1134AB05ED28449844F8C420FD084498C4213D0F7
S1134AC083498C4217D083498C421BD082498C4243
S1134AD020D082498C4224D02AE01F20FFF7A6FF71
S1134AE0F86840F4806013E02120FFF79FFFF86826
S1134AF040F400600CE02320FFF798FFF86840F4CE
S1134B00805005E02520FFF791FFF86840F400503D
S1134B10F8600DE04220FFF789FF386840F48060B8
S1134B2005E04420FFF782FF386840F400603860F5
S1134B30E07800F0F300E070310A0020A07001F08A
S1134B401F01207800F0E000084320706670A07A0E
S1134B5000F0E0002843A072C0206074E07840F0C8
S1134B602000E070E07840F00C00E0700020F2BD1E
S1134B700120F2BD02791206FCD5C1717047584874
S1134B800178890600D50AE07047564801788A07FB
S1134B9001D5C0787047890600D500E07047C07819
S1134BA047490968084750480178890600D5F6E75F
S1134BB070474E480178890600D5F0E770474C48A5
S1134BC00178890600D5EAE770474A4801788906E2
S1134BD000D5E4E7704758B53A493B4E884204464D
S1134BE00FD03A49884213D03949884217D03949FD
S1134BF088421BD03849884220D03849884224D082
S1134C002AE01F20FFF718FFF06840F4806013E0EB
S1134C102120FFF711FFF06840F400600CE023202E
S1134C20FFF70AFFF06840F4805005E02520FFF705
S1134C3003FFF06840F40050F0600DE04220FFF7FD
S1134C40FBFE306840F4806005E04420FFF7F4FE8A
S1134C50306840F4006030602046FFF7F6FE1948E3
S1134C6084420FD01948844210D01948844211D08C
S1134C701848844212D01848844214D017488442F9
S1134C8015D051BDF06820F480600AE0F06820F48B
S1134C90006006E0F06820F4805002E0F06820F440
S1134CA00050F06051BD306820F4806002E030684C
S1134CB020F40060306051BD00E100E080E100E0DC
S1134CC0A05DFF1F00A006402880044000B00640FD
S1134CD000C0064000D0064000A00E4000B00E40C8
S1134CE004A0064004B0064004C0064004D00640B8
S1134CF004A00E4004B00E40012808D005D30328B8
S1134D0009D006D305280AD007D320487047204885
S1134D107047204870472048704720487047204813
S1134D20704770B5044682B0606800A9FBF761FF64
S1134D30E0B960681B4EFCF7F7F805466068FFF7BA
S1134D40DBFF3368009A2946FFF789FE58B960688B
S1134D50A2680221904731685A2088473168A6200A
S1134D608847012076BD6068FBF72AFF002076BDE6
S1134D7010B504460B4801606068A26801219047A1
S1134D806068FBF71DFF002010BD000000A0064076
S1134D9000B0064000C0064000D0064000A00E400F
S1134DA000B00E40A45DFF1F10B504466068FFF715
S1134DB0A3FFFFF710FF6068FBF719FF6068A268A4
S1134DC0BDE810400021104770B504460D46164654
S1134DD006E06068FFF790FF15F8011BFFF7CAFEB5
S1134DE03046461E0028F4D170BD0000A649D1F813
S1134DF08820531C5218C1F8883082F82000D1F85A
S1134E00880000F03F00C1F8880070470020704718
S1134E10B8E02DE9FC410C00154614BF002D042018
S1134E20984628D0984F002007F1900628607070AB
S1134E3000F0A8F818B11EE0A22000F075F82021B7
S1134E403846FCF70BFF4246394600A800F0E7F865
S1134E5010B1002129600EE0394600A800F030F9B5
S1134E60BDF804108142E7D1012030702760BDF8FD
S1134E70020028600020BDE8F6812DE9F0410C0015
S1134E8082B015461E4635D0212D33D200F07AF873
S1134E9000283FD1DFF8F08198F8910010B100208C
S1134EA088F8910008F160075A203870A4207870BF
S1134EB00EB1A52078707D802DB12A46214608F1D7
S1134EC06600FCF725FB08F16601384600F0F8F8A7
S1134ED0B880A91D384600F064F8D8B900A800F0DD
S1134EE0DDF8B8B99DF80100A12812D0A22806D097
S1134EF0A32801D004200DE042F212700AE0788861
S1134F00811D384600F04DF820B99DF80100A22813
S1134F10E4D00020BDE8F6815C48012181700021C5
S1134F20017070472020704780B55A218DF8001019
S1134F308DF801000120544981F89100022100A854
S1134F4000F02FF802BD10B50446504801784278AD
S1134F5080781140014282B011D10FF29410008880
S1134F60ADF80000022223695B6800A92046984737
S1134F7023690FF280115B6808222046984742F2A9
S1134F80137016BD4148017819B100210170A120A8
S1134F9004E0817819B100218170A320C4E70020C6
S1134FA070473B4AD3690A46014618461B695B6849
S1134FB018472DE9F14F8B461446FBF79EFE064633
S1134FC04FF47A7089466043FBF7A7FE0025DFF8AB
S1134FD0B8A00446A8460AF188070EE07868396844
S1134FE088420CD05044009990F8200068546D1CFD
S1134FF07868401C00F03F0078605D450CD0002CC0
S1135000ECD0FBF77AFE801B61EB0901414501D826
S1135010A042E3D3052000E00020BDE8F28F70B584
S113502082B005460C46164600F038F858BB68783E
S1135030A62804D11648C069FFF785FF76BDA421D0
S113504006B1A521884201D0012076BD00F022F8E6
S1135050BDF800106980B0B908462128A8BF2020F7
S1135060688000F017F8BDF80010A98058B9698865
S113507049B12046FCF788FA69880A2000FB01F24E
S11350802046FFF796FF76BDA85DFF1F385EFF1F21
S11350901058FF1F1422022100A88AE710B5044605
S11350A0002201212046FFF784FF40B920785A28C6
S11350B0F6D1601CBDE810400A22012179E710BD39
S11350C030B583B004460D4600A800F017F804225A
S11350D0214600A800F015F86288294600A800F0CF
S11350E010F801A900A800F023F8BDF804003EBDA3
S11350F05AA70000000201500000AAEA0021018022
S1135100704770B5038800240EE0655C83EA0523CC
S113511008255E001B0444BF86F4805686F02106F1
S11351206D1E3346F5D1641C9442EED3038070BDEA
S113513000880880704700000748016841F4700146
S113514001604CF220510548C1814DF62811C181FE
S11351504FF4E9710180704788ED00E000200540BC
S1135160F8B5044615461E460020174A02EB001700
S11351707A6822B1401C0128F7DBC120F2BDF96036
S11351807C60BE6032462046FEF7E1FF3246294687
S11351902046FEF7E3FF069932462046FEF7E5FF78
S11351A03846F2BD0020084A02EB00128A4204D0BD
S11351B0401C0128F7DB9E207047002050601060DF
S11351C09060D06070470000545EFF1F00281CBF31
S11351D04068FEF764BFFF20704770477CB50E46F9
S11351E014461D4600F0AFF8069A0799364B032E75
S11351F011D0212E09D0222E2AD120B903F130005A
S113520010604C200860002076BD10B903F1160030
S113521010600920F6E725B903F17C001060042032
S1135220F0E70020012340F20946B54203D1032CE4
S113523002DA234600E001200FF2E4040C2515FBFA
S11352400040C46854F8234014600069185CD9E72E
S1135250082E18DA20B90FF2A40454F8264014607A
S1135260012E02D11C68641C1C601C68022CA4BFA3
S113527000241C60126832B10028C4D10FF2580017
S113528050F82600BEE7CE2076BD21B90F4800783D
S1135290107000207047CE20704719B90B48027077
S11352A000207047CE2070470020704730B549B9C0
S11352B00848012101700649D1E90045C0E90145CA
S11352C00C301060002030BD1859FF1FC85FFF1F4D
S11352D0E458FF1FEC58FF1F0000000012000000FC
S11352E02900000000000000000000000000000091
S11352F000000000000000004C000000000000005E
S11353000459FF1F1C59FF1F00000000000000008B
S11353100000000000000000000000004859FF1FCA
S11353209459FF1F0400000009040000B806FF1F81
S1135330B406FF1F012100F01F029140C84A400932
S113534042F82010704700207047406840083C2114
S11353504843C449425C12B1401840787047002069
S1135360704710B5002818BF0128BE4C02D1002098
S1135370208010BD0328FCD10120207004F1140208
S1135380A06BBDE810402423022100F0DABAF8B57E
S113539015461E68B34C042800F001020BD1A8681E
S11353A010F1010F18BF002849D0E068012846DB3E
S11353B004F10C0039E0052807D1A86810F1010FA9
S11353C018BF00283BD020612BE0121900270128C8
S11353D01F600BD0022818BF03282CD009280ED038
S11353E00A2825D00B2808BF117128E0242104F1D4
S11353F01400FCF733FC04F1140028601FE0296852
S11354008A78002A04BFCA78002A04D108780128BF
S113541008BFA07013D0324604F11400FCF778F8EA
S113542026610120607004F10800FBF793FF06E099
S1135430080A107103E0101D286001201860002084
S1135440F2BD70B504468749606840083C2202FBFF
S1135450001588B03C212846FCF796F8FBF73DFD83
S1135460814E78B9B068006990F8801001F0EF01BE
S113547080F88010B0680069C16821F01001C16033
S1135480012038E0606830B93520FFF753FF7749D1
S11354904FF4001008604FF6FF72B068006930F8EE
S11354A0841F4388934208BF914209D0704A117205
S11354B00188090A5172418891724188090AD1729E
S11354C005F1380240686B4910F1010F08BF6A48C2
S11354D0086000A96948009005F138000190684807
S11354E0049005F138000590664806906068C0B2E3
S11354F000F0B5F9002008B070BD38B54068440824
S1135500A8B9614D2868400311D560494FF40010D3
S113551008603520FFF70EFF52483C2101FB0400D0
S1135520806B00F0DDF9286820F48020286031BD0C
S113553010B540684B4940083C2202FB001400218E
S113554004F10800FBF7FAFE002104F10C00FBF75C
S1135550F5FE04F10800FBF7FDFE002010BDF8B5D0
S113556040680C4640081546002C18BF002D01D198
S11355700420F2BD0021296013B1012B1ED027E0C5
S1135580012638493C2202FB0017F87830B1B86B89
S1135590242307F11402022100F0D3F90120F8704A
S11355A04FF0FF3107F10800FBF7CAFE387DB04227
S11355B006D0012E08BF02280AD169E00226E0E7DE
S11355C0B87DF97D40EA01203969091F814201D281
S11355D00120F2BD07F11801216028600020F2BD0E
S11355E0F8B5406815464608212D0C4601D3042021
S11355F0F2BD13B1012B0ED00FE00327FBF7B6FE6B
S113560018483C2101FB0606B07840B10020B07078
S1135610FBF7B2FE3CE00427F0E70120F2BDFBF704
S1135620ABFE002070753775280A002C18BF002DBA
S1135630B575F07505D02A46214606F11800FBF72A
S113564067FFB06B242306F11402012100F072F904
S11356504FF0FF3106F10C00FBF772FE0020F2BDA3
S113566080E200E08C5FFF1F1058FF1F04E100E0A0
S11356700459FF1F645EFF1F684EFF1FAB4EFF1FE0
S1135680D74EFF1F205AFF1F3480044084E100E0FE
S113569042F21270F2BD10B54469A46800220023DE
S11356A01146A04710BD0020704720207047FFF727
S11356B094BD000010B50C6A220082B009D0826843
S11356C012F1010F0CBF0021496A00F013F8042005
S11356D0A04713BD10B50C6A220082B009D08268BD
S11356E012F1010F0CBF0021496A00F003F80520F4
S11356F0A04713BD0091024600234FF6FF71704787
S11357002DE9F84F012880468B46164646D130686D
S1135710B36B00AA0021984700988068011DF160CE
S113572000270079032866DA00240FE0896811F85D
S1135730341006EB440000F83C1F0099896889681E
S113574001EBC401641C49784170E4B2009881689B
S113575008798442EADBF468DFF8C491DFF8C4A175
S113576007E028B9297833464A463068FEF742FCF8
S11357707F1C2078FFB2874236D2606800EBC705F1
S1135780306801222946FEF716FCA8780128E8D1E2
S113579029783346524641EAC011E6E7032818BF88
S11357A0B8F1000F20D009280ED19BF8007016F133
S11357B03C0019D0002400F020F801D100F025F8B5
S11357C0641C022CF7DB0FE014280DD19BF8007049
S11357D016F13C0008D0002400F00FF801D100F0CD
S11357E014F8641C022CF7DB3369180003D07269C7
S11357F0594640469847BDE8F18F06EB440107F04F
S11358000F0091F83C1088427047F80900F001023B
S1135810306807F00F01FEF774BC70B582B01D4606
S11358200446CE20237803F06006202E0CD12B6A88
S1135830A3B1E08810601346686A00900A46618844
S113584060782C6AA04776BD03F06003402B05D135
S1135850AE69330002D0EB692046B04776BDF8B597
S11358600D000446164601D1FF20F2BD00202E494A
S113587001EB8017396821B1401C0228F7D3C120FD
S1135880F2BD39462046FEF719FB40BBA869274AFA
S1135890274900903B463868FFF762FCB86008224D
S11358A0294607F11000FEF770FC082205F10801F3
S11358B007F11800FEF769FC082205F1100107F151
S11358C02000FEF762FCA969142207F12800FEF704
S11358D05CFC376020463968FEF74EFB0020F2BDC1
S11358E038B5040001D1FF2032BDA1682068FFF75C
S11358F059FC050003D12068FEF74AFB0546002049
S1135900094901EB8012A24203D0401C0228F8DBB3
S113591004E0402200212046FEF729FE284632BD3D
S11359201D52FF1FFD51FF1F0C5FFF1F6353FF1F1D
S11359304952FF1F00281CBF8068FFF747BCFF20A7
S1135940704700281CBF0068FEF785BBFF20704726
S11359504EF68851CEF20001086840F470000860E9
S1135960BFF34F8FBFF36F8F4FF00070E1EE100A5B
S11359707047000000F00BF8002801D000F00AF88E
S11359800020C046C046FBF765FCFBF7A3FC0120E2
S11359907047000010B5074979441831064C7C441F
S11359A0163404E00A68081D511888470146A142CC
S11359B0F8D110BD0403000010030000C405FF1F4C
S11359C07858FF1F6C06FF1F5058FF1F000000008F
S11359D0F405FF1F000000000000000000000000AC
S11359E000000000000000000000000000000000B3
S11359F00000000000000000000000006911FF1F0B
S1135A007711FF1F6804FF1FBC5AFF1FAF2CFF1F35
S1135A10D32CFF1FF72CFF1F100000000000000014
S1135A200000000000000000FFFF03004405FF1F0A
S1135A300000FF1FFFFF0220DC05FF1F00000040E5
S1135A40FFFF0740F004FF1F00F00F40FFFF0F406F
S1135A50F004FF1F000000E0FFFF0FE0F004FF1F51
S1135A600000000000000000000000003000000002
S1135A70310000003200000033000000000040014B
S1135A800103010040000000020300004000000088
S1135A9002000000D458FF1F0000000000000000B6
S1135AA0000000000000000001000000EC58FF1F8F
S1135AB01201000200000040A2157300020001025E
S1135AC0000100000000000009022900010100C0DB
S1135AD03209040000020300000009210001000152
S1135AE0224C000705810340000A07050203400019
S1135AF00A0000000600FF0901A10185011901291E
S1135B0001150026FF0075089523910285021901ED
S1135B102901150026FF00750895239102850319B4
S1135B20012901150026FF007508952381028504CB
S1135B3019012901150026FF00750895238102C06B
S1135B40040309043A03460072006500650073000B
S1135B50630061006C0065002000530065006D0067
S1135B60690063006F006E006400750063007400D8
S1135B706F007200200049006E0063002E000000D8
S1135B8026034B0069006E00650074006900730011
S1135B90200042006F006F0074006C006F00610011
S1135BA064006500720000002203420041004400CA
S1135BB0200053005400520049004E0047002000CA
S1135BC049004E004400450058000000254DFF1FC9
S1135BD0D34DFF1FE34DFF1FF14DFF1FF54DFF1F79
S1135BE001010001010000000001010000000000AB
S1135BF00101010101000000010100010100010097
S1135C000001000001000000B93EFF1F113FFF1F0B
S1135C1000000000113FFF1F00000000A93FFF1F0C
S1135C209540FF1F00000000C53FFF1FD13FFF1F2D
S1135C301540FF1F3940FF1F7B40FF1F30B504E0B4
S1135C4012F8014B00F8014B491ED1B1C507F7D436
S1135C500129F5D0850701D4042904D232F8024B76
S1135C6020F8024B891E8B08EFD000EB830403E07D
S1135C7052F8045B40F8045BA042F9D3A1EB830122
S1135C80E3E730BD80B513460246184600E080B510
S1135C90FFF7D4FF002002BD10B514460A46214682
S1135CA0BDE810400123FCF711BFC046C046FFF712
S1135CB04FFEFFF75FFE0000DFB6FFFF3C0500006C
S1135CC0905AFF1F0000000062B38B0708D0521ED9
S1135CD011F8013B00F8013B00F024808B07F6D15A
S1135CE0830740F0208000BF103A07D330B4B1E8F6
S1135CF03810103AA0E83810F9D230BC530724BF4A
S1135D00B1E80810A0E8081044BF51F8043B40F87B
S1135D10043BD20724BF31F8022B20F8022B44BFE6
S1135D200B7803707047083A07D3B1E80810083AB3
S1135D3040F8043B40F804CBF7D25307E4E7FEE70E
S1135D4080B518491848086018491948421A194872
S1135D5088421CBF002AFFF7B7FF17481749091AE2
S1135D6018BF00F037F816491648421A04D0BDE8A7
S1135D7008401548FFF7A8BF01BD14484FF0FF3194
S1135D80016041608160C160016141618161C16103
S1135D900F48016041608160C160016141618161BE
S1135DA0C161704708ED00E0000000000000000041
S1135DB000000000000000000000000000000000DF
S1135DC0D05E0000D05E000000FE022080E100E012
S1135DD080E200E0002200F001B8FEE7401810F075
S1135DE0030308D0C91A1FD3DB0748BF00F8012DED
S1135DF028BF20F8022D130030B41446154610397C
S1135E0028BF20E93C00FAD8490728BF20E90C0044
S1135E1048BF40F8042D890028BF20F8022D48BF50
S1135E2000F8012D30BC7047C91818BF00F8012DC7
S1135E30CB0728BF00F8012D704700000748016810
S1135E4041F4700101604CF220510548C1814DF6C6
S1135E502811C1814FF4E9710180704788ED00E099
S1135E60002005404EF68851CEF20001086840F447
S1135E7070000860BFF34F8FBFF36F8F4FF0007057
S1135E80E1EE100A7047000000F00BF8002801D082
S1135E90C046C0460020C046C046FAF709FB00F0E1
S1135EA002F80120704700F001B8000007463846A8
S1135EB000F002F8FBE70000202109032631182036
S1135EC0ABBEF9E7C046C046FFF7CCFFFFF7DCFFE7
S9030411E7
