S0180000746F7765725F626F6F746C6F616465722E7372656351
S11300000010FF1F1104000053080000091700002E
S11300100B1700000D1700000F1700000000000070
S11300200000000000000000000000005308000071
S1130030530800000000000053080000870B000074
S11300400B0F00000B0F00000B0F00000B0F000044
S11300500B0F00000B0F00000B0F00000B0F000034
S11300600B0F00000B0F00000B0F00000B0F000024
S11300700B0F00000B0F00000B0F00000B0F000014
S11300800B0F00000B0F00000B0F00000B0F000004
S11300900B0F00000B0F00000B0F00000B0F0000F4
S11300A0ED2C0000F12C0000E12C0000E52C0000F8
S11300B00B0F00000B0F00000B0F0000C3480000E3
S11300C00B0F0000CF4800000B0F0000EB480000AE
S11300D00B0F0000F74800000B0F00000B0F00008F
S11300E00B0F00000B0F00000B0F00000B0F0000A4
S11300F00B0F00000B0F00000B0F00000B0F000094
S11301000B0F00000B0F00000B0F00000B0F000083
S11301100B0F00002F4300000B0F00000B0F00001B
S11301200B0F00000B0F00000B0F00000B0F000063
S11301300B0F0000D70D00000B0F0000FB0D00009B
S11301400B0F0000E92C0000034900000B0F000016
S11301500F4900000B0F00000B0F00000B0F0000F5
S11301600B0F00000B0F00000B0F00000B0F000023
S11301700B0F00000B0F00000B0F00000B0F000013
S11301800B0F00000B0F00000B0F00000B0F000003
S11301900B0F00000B0F00000B0F00000B0F0000F3
S1130400FFFFFFFFFFFFFFFFFFFFFFFFFEFFFFFFF9
S113041072B60E480E49886000220023002400258D
S113042000260027B846B946BA46BB46BC4609482A
S1130430854609488047094880470948804762B68D
S113044000200021074A9047FEE70000000000005A
S113045000ED00E00010FF1F994E000001150000A0
S11304603B150000031100004B18000000000000C1
S11304705D18000000000000F31800003B1A0000A3
S1130480E11800006B190000031B000000000000CD
S1130490A51B0000000000009718000000000000E9
S11304A0711800006B190000171B00000000000009
S11304B0811B000000000000031800000000000081
S11304C0CB18000000000000000000000000000045
S11304D0B31B000000000000C71B00000000000068
S11304E0E91B00003B1A00000000000000000000AF
S11304F000000000F1590000FB590000055A0000FB
S1130500000000000000000069280000B728000077
S1130510EB28000000000000000000000B29000090
S1130520000000000000080000001000000020008F
S113053000004000000080000000000100000002F4
S113054004000240551D0000811D0000851D0000AF
S1130550551E000000000000DB1E000000200340C8
S11305607D2E0000EB2E0000152F0000000000007F
S1130570000000002B2F00009D340000C734000051
S11305802F3500006F360000B936000063380000D4
S11305905735000019360000B73700004D39000008
S11305A06139000000000000BD380000D5380000AB
S11305B0000000004F37000095390000C9390000E1
S11305C0B92F0000133A0000CD4400005943000045
S11305D081430000FD43000039440000BD43000096
S11305E005250000092500001B25000059250000F1
S11305F000000000000000000100000001000000F5
S1130600E10B000084060000940600009C06000034
S113061002000000010000006F0C000060050000F3
S1130620700500009C0600000400000001000000AA
S1130630B70C000008050000180500009C06000027
S1130640100000000000000000000000CC060000C4
S113065000000000DC0600000000000000000000B4
S11306600000000000000000000000000000000086
S1130670F14400002345000035460000EF46000029
S1130680B004FF1F674A0000B54A0000ED4A0000AD
S113069000000000000000000D4B0000514B000062
S11306A0574B0000BF4B00005D4C0000554B000051
S11306B0694C0000314B0000043A26229001FF1FD0
S11306C09401FF1FD001FF1FF801FF1FAB50000072
S11306D0A35100005B5200000F540000915200002F
S11306E0BF52000041530000F753000007540000BC
S11306F00B5400000000000005E0002070470020BB
S11307007047002070474FF6FF707047416F11F13A
S1130710010F01BF816F11F1010FC16F11F1010FC1
S113072002D042F6A20101E042F6A301C162704781
S1130730FEB5254881680C69E16A012542F6A302E9
S113074091423FD004F1700100258A68002A36D016
S11307500E1D534231688B4222BF406803689942A0
S113076021BF40685118491E884228D300A800F0D0
S11307702DF80C2000F52340C03031687268071D45
S1130780B9423CBF5318984208D2421A00A800F05C
S113079023F8306871680818C21B394600A800F0B5
S11307A01BF802A900A800F03FF80298E16F884204
S11307B006BF012542F6A00042F6A10001E042F680
S11307C0A400E0622846FEBD0000FF1F4FF0FF3189
S11307D001600021416070477FB5044601208DF817
S11307E000000E462068019015460E480290002035
S11307F0ADF80C008DF80E006DB100F043F800A9BF
S1130800002000F05FF82A463146002000F073F81B
S1130810019000F03DF8019820606068281860603D
S11308207FBD0000B71DC10438B504460D462079CC
S113083010F0030007D000A900220A60C0F10402EE
S11308402046FFF7C9FF20682860002000F044F824
S113085031BDFEE70160704772B60168491C016052
S113086062B601680029FCD10120704772B60168A4
S1130870491E016062B6704772B60B4900200860D9
S113088062B6704772B608480168491C0160704737
S113089005480168022901D20021EAE70168491EDE
S11308A00160704700000000C003FF1F08304001D2
S11308B0484A1150704782689200920842EA817156
S11308C08160704709B90120704720B9424A136812
S11308D043F48023136051E0404951F8201041F261
S11308E021024A6000228A6020B93B48016821F451
S11308F0802101607047F8B50E46384951F8204010
S1130900A068870F154605D0022F07D004D3032F04
S113091006D00EE0032104E0022102E0012100E000
S113092000212046FFF7C7FF03E016F8010B2070F3
S11309306D1E16F0030006D0002DF6D103E056F824
S1130940040B20602D1F042DF9D2012D0AD00BD3E6
S1130950032D03D03CBF3088208005E03088208000
S1130960B07800E030782070204600F03DF805466D
S113097039462046FFF79FFF2846F2BD70B50C00AC
S113098001D1012070BD154951F82050144905F1D9
S113099008004601207888512846217BFFF78BFF09
S11309A0607BA968000721F0405100F040500843E3
S11309B0A8600C49A07B88510121A0686860284682
S11309C0FFF774FF6068286000212846FFF76EFF78
S11309D0002070BD640000423C8004405C050000BF
S11309E0600000426800004200F1080252010A4B14
S11309F09A580021D2B21AB1012A08BF016808E04E
S1130A008168090F01F0030102291ABF0329018833
S1130A1041880846704700006000004238B504462B
S1130A203D4D0020C5E90000C5E90200C5E9040008
S1130A30A8612862394800F09EF8E8612046BDE8C4
S1130A4034400FF2590100F0EAB900F00EBA70B563
S1130A50314D0C46A969072904BF296A88421AD175
S1130A6000F08EF8C0EB0016D5E90001D5E90223A9
S1130A701018B6FBF0F00A2148434FF49661B0FB1E
S1130A80F1F0401D0A21B0FBF1F04FF496614843A8
S1130A902060002070BD012070BD00002DE9F843E6
S1130AA0064600F058F81C4F0446D7E90459884616
S1130AB0B8690021421C651B68EB0909F8694945BE
S1130AC002D82CBFA8420122012ABA6106D0042A06
S1130AD008D0052A0ED0072A0FD018E0C7E900482D
S1130AE03E6214E0D7E90001201A68EB0101C7E96E
S1130AF000010CE0C7E9024809E0D7E90201201A25
S1130B0068EB0101C7E90201304600F0AEF9C7E91C
S1130B100448BDE8F18300009002FF1F8038010003
S1130B201C48002101606FF07F421B494A6000228B
S1130B308A6007220A601949194A0968C900B1FB89
S1130B40F2F101B90121416070471348016821F0B5
S1130B500601016070470F490A68124800680B6873
S1130B60C0430002000A9A42F6D1002110EB026051
S1130B7051EB12217047074949684843C008704740
S1130B8006480068704703480168491C01607047C3
S1130B9000000000A404FF1F10E000E0CC00FF1FD1
S1130BA040420F0018E000E0012100F01F029140D4
S1130BB0BB4A04E0012100F01F029140B94A4009F8
S1130BC042F8201070470901002806D5B64A00F003
S1130BD00F00801800F8041C7047B44A8154704711
S1130BE0B34A10B1012821D07047B24819B1022983
S1130BF011D006D37047016811400160416811406B
S1130C0012E00168114041F480710160AA48016852
S1130C1021F0080129E00168114041F4E06101601C
S1130C204168114041F4E06141607047A34819B143
S1130C30022911D006D37047416811404160016810
S1130C40114012E04168114041F4807141609C48B8
S1130C50016821F0020108E04168114041F440714B
S1130C6041600168114041F44071016070470128FE
S1130C7000D0704710B59348934B8D4C934A11B1F3
S1130C80022909D010BD116821401160516821402A
S1130C905160002119600CE01168214041F4007199
S1130CA01160012119605168214041F400715160C3
S1130CB00121016010BD012825D17D4A844811B16C
S1130CC002290CD07047016811400160416811404D
S1130CD04160816811408160C168114012E001687F
S1130CE0114041F4E06101604168114041F4E06168
S1130CF041608168114041F4E0618160C168114044
S1130D0041F4E061C160704780B500F0FFF87148BC
S1130D10416B41F478514163016841F44031016011
S1130D2001BD6C48416B21F478514163016821F4A1
S1130D30E021016070476748016B41F48021016341
S1130D40016B490301D40020704763490A7842F0DB
S1130D5080020A7007230A781A42FCD1016841F420
S1130D60E021016001205D4908705D490870704709
S1130D705C485D4900680968C0F30360401CB1FB2E
S1130D80F0F07047012803D9801E032803D903E03B
S1130D90554800687047EBE7002070475448444AC0
S1130DA00168114041F48071016050494A6822F0A1
S1130DB080024A60026842F01302026000204FF48D
S1130DC0FA720B68C3F3C0131818521EF9D1FA282B
S1130DD08041C00F704737480068C0F3006000B915
S1130DE0704780B543480168080005D00020884753
S1130DF041494FF0FF30086001BD40480068C0F32E
S1130E00006000B9704780B53A484168080005D0D1
S1130E10012088473A494FF0FF30086001BD70B5A2
S1130E200C46344D374E10B101280CD070BD012151
S1130E303D20FFF7C8FE3D20FFF7B6FE1D4800F039
S1130E400EF82C6070BD01213F20FFF7BCFE3F204F
S1130E50FFF7AAFE294800F002F86C6070BD016833
S1130E60314041F420210160704738B5214C254DB3
S1130E7010B101280AD031BD3D20FFF79BFE0D487B
S1130E800168294001600020206031BD3F20FFF748
S1130E9091FE1A480168294001600020606031BD5C
S1130EA000E100E080E100E018ED00E000E400E093
S1130EB0FFF8FFFE0CB0044094F00F4000D0044053
S1130EC014F10F40940596421405964228B004404C
S1130ED010C00440048004400C2107401C28E44254
S1130EE08428E44244800440CC00FF1F90F00F406B
S1130EF01CB00440C403FF1FA0B0044004D004404D
S1130F00A0D00440FFFFF0FE7047FEE70A48817856
S1130F1001F07F0104290DD1017801F09F010170D6
S1130F20FF21827802F07F02012A04BF034A12786B
S1130F30491EF6D17047000001E0074002D0074087
S1130F40022811D80FF22C028056012904D100F096
S1130F501F029140054A04E0012100F01F02914064
S1130F60034A400942F820107047000000E100E005
S1130F7080E100E01A1B4100022811D80FF22C0274
S1130F808056012904D100F01F029140054A04E073
S1130F90012100F01F029140034A400942F8201049
S1130FA07047000000E100E080E100E018194A0009
S1130FB038B504460D46002000F0F6F86C486D4A3A
S1130FC0056044604FF420411160016881F3088892
S1130FD081F3098840688047BDE83240002000F072
S1130FE0E3B865498968096900281EBF10F1010F3B
S1130FF0624A904206D00A69904203D34B699A1818
S1131000904208D34A6A904207D3896A8918884271
S11310108041C00F704701207047002070472DE9C0
S1131020F84F554D564EA868006900F1700A3746CE
S11310300AE09AF81010014205D07869FA688169CB
S1131040526838469047183738680028F1D14FF471
S11310507A70FFF790FD07464FF420400024416862
S11310600091D0F800B0FFF799FE70BB0098FFF72D
S1131070B8FF50B3FFF75CFB38B3A868006990F879
S11310808E00C00703D400985946FFF791FFBAF8C1
S113109012004FF6FF71884208BF41F2883007FB07
S11310A000F4FFF758FD8046894674B1FFF753FDFD
S11310B0B0EB080061EB09010025A94201D8A04268
S11310C003D300985946FFF773FF374600E01837FB
S11310D038680028E9D0F968096838468847002844
S11310E0F5D0002FE1D006E0B74203D0F16889685B
S11310F030468847183630680028F5D13846BDE8B0
S1131100F28F38B5FFF7B8FBFFF7FEFD1A4CA06865
S113111000688047002000F079F8FFF701FD04F132
S1131120200000F05CF9206800688047A0684068EF
S11311308047FFF774FFE061016919B109680A008B
S113114018BF8847E069416919B109680A0018BFE6
S11311508847E06800688047E569E0684068804740
S1131160E868C1680800F8D028468847F5E7000019
S1131170B402FF1F08ED00E00000FF1F110400008F
S1131180F8050000704750F8041B61B150F8042BB7
S1131190D30744BFA9F101039A180023091F42F899
S11311A0043BFAD1EFE7704770B50446022C04D033
S11311B0002000F090F9012C0ED00026114D06E01D
S11311C04019C16889680A0018BF8847761C18202E
S11311D0704341590029F3D174B9FFF753FBFFF76A
S11311E0B4FC00F0AAF9084900200860012000F0CE
S11311F00DF8FFF796FD62B6BFF36F8FBFF34F8F05
S113120070BD00BFF805000008ED00E0F8B55A4CC9
S11312105A4D0100207861D1296861605849896874
S1131220096901F17002117C167F090906F00106B3
S113123001F0010383F001073E42524908D02A68B5
S1131240120F4FF0A070521CB0FBF2F00860F1BD19
S1131250527FD24302F00F02521C0BB906E0521E19
S1131260494B4A4EB3FBF2F3B342F8D3464B484ED4
S1131270B3FBF2F3B34228BF521CF7D2164617460B
S113128000E0761CDFF800C1DFF808E1BCFBF6FCE7
S1131290F445F6D2DFF8F0C0DFF8FCE0BCFBF7FC65
S11312A0F44528BF7F1CF5D2012A03D1092E38BF8B
S11312B0092F1AD2761E3606521E06F0706646EACA
S11312C002727E1E360406F4702632432A600B60D6
S11312D0012100F00BF801202070F1BD012904D197
S11312E0002100F003F860682860F1BD884242D014
S11312F001292A482A4B2B4A25D1517801F0CF01E4
S113130041F020015170117801F0C70141F0300122
S11313101170D17841F08001D17000211970117BD6
S113132001F0FC0141F00201117301780029FCD1A4
S1131330D07800F07F00D070D07800F09F0040F0AB
S11313402000D0707047B1B9D17841F08001D170DC
S11313500121197001780029FCD0D07800F07F00B9
S1131360D0700420107080205070D07800F09F005E
S1131370D070002010737047BC02FF1F44800440EB
S11313800000FF1FCC00FF1F006CDC02002D3101A8
S1131390010E27070187930341787D01D000C842DD
S11313A00800C8420040064008B904207047C069DC
S11313B020B10068022801D1002070476D207047D9
S11313C010B508B9042010BDC469606800F0E9F8DC
S11313D0A06800F073F802202060002010BD10B552
S11313E0040001D1042010BD1E491F480968C1F33F
S11313F0036130F81100000301D1642010BD002105
S11314002160606061610120A060A1614FF480509F
S1131410E06021612046FFF7C7FF20B11348E06177
S11314202046FFF7CDFF002010BD08B90420704707
S11314305B1E194208BF1A4201D065207047036839
S1131440994221BF4068C0185118884201D26620D1
S11314507047002070470649884201D06B207047CE
S1131460002070474C800440200500005000FF1FFE
S11314706B66656B68B1042A02D0082A0BD008E0B9
S113148079B110290DD320290BD0A1F12100132803
S113149007D304207047102903D0A1F111000328B9
S11314A0F7D2002070470000016841F47001016028
S11314B0BFF36F8FBFF34F8F7047704710B504466B
S11314C00B480C490A1A411E204600F099F80A49B3
S11314D0601C086010BD38B504002000FFF764FFED
S11314E00500002D03D1054803490968884731BD2B
S11314F0A9140000BB1400004003FF1F04F00140C6
S113150080B518491848086018491948421A1948FA
S113151088421CBF002A00F073F817481749091ABB
S113152018BF00F0A9F816491648421A04D0BDE8BD
S11315300840154800F064B801BD14484FF0FF316D
S1131540016041608160C160016141618161C1618B
S11315500F48016041608160C16001614161816146
S1131560C161704708ED00E0000000001C57000056
S1131570A85900000000FF1F9002FF1F1C08FF1F56
S1131580345A0000345A0000000EFF1F80E100E0CE
S113159080E200E08021017001780906FCD57047E3
S11315A0704710B50446124812490A1A411E2046D3
S11315B000F026F81049601C086010BD10B50F4CEF
S11315C070212170FFF7F0FE88B90B4909682046A5
S11315D088472078810601D5672010BDC10601D552
S11315E0682010BDC00701D5692010BD002010BDC2
S11315F095150000A11500004403FF1F00000240E0
S113160062B38B0708D0521E11F8013B00F8013B6E
S113161000F024808B07F6D1830740F0208000BFC0
S1131620103A07D330B4B1E83810103AA0E83810B3
S1131630F9D230BC530724BFB1E80810A0E8081061
S113164044BF51F8043B40F8043BD20724BF31F8AF
S1131650022B20F8022B44BF0B7803707047083A22
S113166007D3B1E80810083A40F8043B40F804CB2B
S1131670F7D25307E4E70000002200F005B80000A9
S113168062F30F2262F31F42401810F0030308D0E4
S1131690C91A1FD3DB0748BF00F8012D28BF20F863
S11316A0022D130030B414461546103928BF20E922
S11316B03C00FAD8490728BF20E90C0048BF40F88D
S11316C0042D890028BF20F8022D48BF00F8012D01
S11316D030BC7047C91818BF00F8012DCB0728BFCC
S11316E000F8012D70470000BFF34F8F0448054AEE
S11316F0016801F4E06111430160BFF34F8FFEE71D
S11317000CED00E00400FA05EEE7EDE7ECE7EBE7AB
S1131710DFF8F015C968C9680020086070472DE932
S1131720F041DFF8E055E86982B000248DF801400B
S11317304669002E62D0E968C9680A68012A4CD05B
S113174001F1080274680023091DA04704001FBFAB
S113175042F21270844242F2137084424ED1E8681D
S1131760C168D1F80880B8F1000F47D04E683778C7
S113177037B1122F04DA806800EBC700083800E0A4
S11317800020086200281CBF006800281CD000A9A3
S113179005F1200000F0C0FA040017D19DF8000004
S11317A048B14FF4E750791E20FA01F2D00758BF30
S11317B042F211740AD5EA68D268126A1268414684
S11317C030469047002406E042F210743946204621
S11317D000F01FFA94B901200DE0086A48B141688D
S11317E0080003D00DF10100884704460CB1002025
S11317F001E09DF80100E968C96808602046BDE879
S1131800F68180B50178002000F003FADFF8F404D3
S1131810C0694169096988470220FFF7C5FCBFF325
S11318204F8FDFF8E404DFF8E424016801F4E06199
S113183011430160BFF34F8FFEE7DFF8C804C068AF
S1131840C06814210C3000F081BA10B5044600F0D1
S11318506AFBFFE72178BDE81040DAE110B5DFF854
S1131860A424126852690446A16860689047F1E7AD
S113187010B500F04AF8DFF88C04C068C0686168ED
S11318800161082101770020217800F0C2F9BDE848
S1131890104000F0CEBC30B583B0DFF86844A568D2
S11318A000210191009100AB81684068AD6801AAF4
S11318B0C9B2C0B2A847E268D26800211161009998
S11318C08A08019900F0B9F937BD10B5DFF834245E
S11318D09268D26804466068A168C0B29047B9E7CC
S11318E010B500F012F800F012F80421017700207E
S11318F0B0E710B500F009F800F009F8032101770A
S11319000020A168BDE81040AEE1044695E7DFF889
S1131910F403C068C068A1680161616841617047EF
S113192038B5DFF8E0530446E868C0680021416137
S11319300161007F042804D128680069804704B944
S11319400446E868C068017F204600F062F942F26C
S11319501270844208D1E868C068007F082804BF78
S1131960BDE8314000F0A7BC31BD2DE9FC4100F0D9
S1131970C2F821B900202070FFF7D2FF5AE00121FC
S1131980217006694769002000900123E869D0F8B6
S113199014C0DCF804C000AA01A9E0475FEA00080B
S11319A005D0E8694169C9688847404603E0009862
S11319B030B942F21270FFF7B3FF002020703AE012
S11319C0B04288BF30460090E868C068017F0829AB
S11319D013D10199C160009981610198009900F0C7
S11319E032FC804642F27D7080451CBF42F2747026
S11319F080450BD14FF0000808E02B68019A00994C
S1131A009B683846984780460098C7190098361A4C
S1131A1006D0B8F1000F09D0E8694169C968884760
S1131A204046FFF77DFF0020207003E0E868C068AF
S1131A30066147610020BDE8F6812DE9F04700F01A
S1131A405AF88AB021B900202070FFF769FF4EE0F0
S1131A500121217006694769C168027F212E2CBFCC
S1131A604FF02008B046A9B1424601A8FFF7C8FDCF
S1131A70E869D0F814C0DCF808C00123424601A983
S1131A80E047A6EB080606B168B3FFF749FF00205C
S1131A9020702CE0032A08EB070906D12B685B6849
S1131AA001AA4146384698470CE0102A18BF4F4611
S1131AB0DED1407F0090434601AA394605F120005B
S1131AC000F01EFC5FEA000A4F46D1D0E869456980
S1131AD0AD680123002201A9A8475046FFF720FF63
S1131AE00020207004E0E868C068066147610020B7
S1131AF00AB0BDE8F087834D0446E868C068016910
S1131B00704710B57F4B1B68DB680446E268A16828
S1131B10606898479EE62DE9F04105467C4C6E6866
S1131B20D5F80880E86877492060002749680C31B7
S1131B3030B10A68904223BF4968491C8142042796
S1131B403046FFF74EFA00B904272978384600F0EA
S1131B5060F89FB966600020FFF726FB2068C4F890
S1131B60088018B180F3088880F3098861684046CA
S1131B708847BDE8F0410020FFF716BBBDE8F081BF
S1131B8038B504466068FFF72CFA08B9042005E06C
S1131B9065680120FFF708FBA068A8472178BDE825
S1131BA0344036E010B50446211D5A4800F0F0FBDD
S1131BB050E610B50446A3686168564804F10C0267
S1131BC000F00EFC46E61CB5044600A800210022E5
S1131BD006C0A36861684F4800AA00F02DFCA26803
S1131BE000A900F045F813BD10B5FFF78EFE454877
S1131BF0C168C968A2680A6162684A6110220A77EA
S1131C00C068C068E16841770020A168BDE8104061
S1131C105BE010B584B0A02201908DF80020002272
S1131C2000F06AF88DF80220029102228DF8032058
S1131C3000234469A4680C225BE010B588B0A72394
S1131C4000F03AF80020531C8DF8033006E000AC95
S1131C5051F8203004EB8004401CA3609042F6DB72
S1131C6000F021F800231AE010B584B0A3222FE07D
S1131C7010B588B0AF2300F01FF802238DF80330AD
S1131C8040B99008801C8DF80300029203A8FFF766
S1131C90C7FC01E000200290002300F004F800A932
S1131CA0A04708B010BD1748C0699DF803104469E7
S1131CB0A46889000A1D70478DF800300190002344
S1131CC08DF801308DF80230704710B584B0B02221
S1131CD08DF800200190012200F00EF802910022FC
S1131CE08DF80220002302228DF803200C2244697F
S1131CF0A46800A9A0471FBD0248C0698DF801204F
S1131D00704700000000FF1F0CED00E00400FA051E
S1131D10E802FF1F2000FF1F002818BF002901D17F
S1131D20042070470848007800F00302022A08BF24
S1131D30002005D000F0C00080280CBF0120022044
S1131D4008700020704700BF02000240002200F02B
S1131D509FBB000038B5984C65682A46042104F1FD
S1131D60200000F0AFFB00AA012104F1200000F0E4
S1131D70A9FB286800990818401E6860002032BD3D
S1131D8000F0C2BB2DE9F04F8B4C87B08046A068B1
S1131D900069056B8E08B60091468F1B05B10125BD
S1131DA04FF0FF3003902FB13A4606EB090103A828
S1131DB0FFF726FCFEF766FD4FF0000B06EB080A62
S1131DC04EB133464A46414604F1200000F0CEFBB2
S1131DD05FEA000B08D13FB1042303AA514604F182
S1131DE0200000F0C3FB8346FEF752FDBBF1000F59
S1131DF024D1EDB225B3FEF745FD7EB104A80290CF
S1131E004B4605A80190324600F01EF8414604F105
S1131E10200000F0DDFB5FEA000B0AD14FB100F0B7
S1131E2055F800F011F8514604F1200000F0D0FB01
S1131E308346FEF72DFDBBF1000F01D0584600E0AC
S1131E40002007B0BDE8F08FA0680069806DC0B2C3
S1131E50009070472DE9F041574D8046A86800690D
S1131E60066B86B006B101264842800880000392C2
S1131E70474202E008F104083F1F1FB3FEF702FDCA
S1131E80042303AA414605F1200000F06FFB044639
S1131E90FEF7FEFCA4B9002EECD0FEF7F3FC00F034
S1131EA015F8A8680069806DC0B20090414605F13C
S1131EB0200000F08DFB0446FEF7EAFC002CD9D08C
S1131EC0204600E0002006B0BDE8F08104A802909E
S1131ED003AB05A8019004227047F8B504460D46EB
S1131EE0FEF7D0FC344E354B2A46214606F120003D
S1131EF000F09EFB0746FEF7CBFC97B9B06800697B
S1131F00006B70B1FEF7BEFCB0680069836DDBB294
S1131F102A46214606F1200000F0C6FB0746FEF7DC
S1131F20B7FC3846F2BDF8B5234EB068006900F13D
S1131F3060040025216821B96268521E9241D20FC3
S1131F4000E000228369406BB8B1B2B95F4231B19D
S1131F50394004D00020FFF7C0FF050029D1716883
S1131F6060684968404238404042884221D2491C56
S1131F70091AFFF7B2FF05461BE0FEF783FC0F4981
S1131F8006F1200000F0CEFB0546FEF781FC85B982
S1131F90B0680069006B60B1FEF774FCB06800695A
S1131FA0816DC9B206F1200000F0D4FB0546FEF7AE
S1131FB06FFC2846F2BD00000000FF1F6B66656BD6
S1131FC0416882688A4209D2891A416082660FF2A6
S1131FD0ED110160012181600020704742F27870A8
S1131FE070470FF2050113E0416ADFF8F4324A89C1
S1131FF08282CA68921E42604A689A4202D1097A71
S1132000022902DB42F2757070470FF20D0100BF26
S1132010016000207047000010B5044682B0606A79
S113202041686268A1610168C91E9142A16002D33E
S113203042F2767016BD008910B142F2777016BD77
S11320408DF8000000A9A748FFF766FE9DF8000080
S113205010B142F2817016BD2046FFF7B1FF16BDE4
S113206038B5A14D2B689B680446626A216EE06D09
S1132070984780B928680069804760B900F03AF849
S113208000F033F80098616E884200D038E00FF217
S11320902D102060002032BD38B50446924D00F06A
S11320A029F82B68626AE06D9B6810219847D8B9BB
S11320B0E06D1030E065206E10382066112828BFCE
S11320C08A480FD208B18A480CE028680069804722
S11320D050B900F00AF80098616E884200D00FE011
S11320E00FF2D9002060002032BD00A904F11C00C9
S11320F0FEF79ABB616A102204F11C00FEF76CBB68
S113210042F27A7032BD10B5044604F11C00FEF7A9
S11321105DFB206E11282CBF7448754890E0724B0B
S11321201B68426E016EC06DDB68184710B504462B
S113213042F27F70E26D11000ED0606E04F118015E
S11321409047012803D12046BDE8104038E7022813
S113215002D100F06EF8002010BD10B500F15C0152
S1132160031D1C684A685A60944202D242F2767097
S113217010BD0A7AD20707D50A685C69A24203D166
S113218048689860002010BD90F85A10C9075CBFD9
S1132190BDE81040FFF714BF42F27C7010BD90F808
S11321A05A10C90748BFFFF7BEBE4F4A12685269AA
S11321B05C3041680068104700000000B0B5044678
S11321C004F15805606A0FC885E80F005A270120FA
S11321D0415D7F18401C1028FAD32878F9B2884250
S11321E002D042F27970B0BD687807281ED8DFE8C3
S11321F000F01B04080C10131B172046BDE8B04068
S1132200ABE72046BDE8B0407DE72046BDE8B040DE
S113221085E742F21270B0BD2046BDE8B04085E7C4
S11322202046BDE8B040BAE70020B0BD42F27B7062
S1132230B0BD10B52F4C70212046FFF787FD2E4806
S11322402060002010BDF8B504460D46002000268D
S11322502A4FAE4217D03869C0F11000A91B09E01B
S113226079B13B69325DDA55761C3A69521C3A61A0
S1132270401E491E0028F3D1386100F005F810B95A
S1132280E7E742F27D70F2BD1A491C4A4A62002017
S1132290CA6842B10869904202D2401C086104E055
S11322A042F2747070478A6E12B90846096808478A
S11322B0521E8A66704738B50E4890F859100429A2
S11322C00CD100F15C042568280004D00020FEF73E
S11322D06BFFA068A84742F27E7032BD002032BD79
S11322E053544D502000FF1F0000FF1F9920000091
S11322F0612000006C05FF1FE31F0000DC05FF1FC9
S11323002DE9F8435FEA0008914614BFB9F1000FC4
S113231004200F461D4619D0089C224629463846FB
S113232000F01AF890B904E0716849F8041B3F1DE5
S11323302D1F5DB106480668064837600321017009
S113234004724046FFF73AF90028EDD0BDE8F28365
S1132350400500000700024010B510F0030F08BF4D
S113236011F0030F01D0652010BD022A0EDA0C18FB
S1132370641E012A06D1002804BF481E072805D17F
S1132380002010BD002AFBD1FF2CF9D9042010BD78
S113239010B50A46002818BF002A01D1042010BD38
S11323A00E4B1C78002104F00304022C14D04521A8
S11323B0597111785972517819729178D971D1780B
S11323C0997111795973517919739179D972D179B4
S11323D09972FFF7F3F80146084610BD0200024067
S11323E0F8B5160004460D461F4601D10420F2BD7F
S11323F03A46FFF73FF8C8B90D48432141700570CC
S1132400102D0C4800683168416003D0A5F111011A
S1132410032903D2082F04BF716881602046FFF7A7
S1132420CDF805462046FFF756F82846F2BD00BF12
S11324300600024040050000F8B5150007460C46AA
S11324401E4601D10420F2BD3246FFF713F8A8B9A5
S11324500B484121417004703846FFF7AFF868B962
S1132460084909684A682A60102C03D0A4F11102B3
S1132470032A03D2082E04BF89686960F2BD00BF35
S1132480060002404005000062F30F2262F31F427F
S113249000B500BF130096469446103928BFA0E843
S11324A00C50FAD85FEA417C28BF0CC048BF40F802
S11324B0042BC90728BF20F8022B48BF00F8012BC2
S11324C000BD0000002818BF002A01D10420704775
S11324D0072915D8DFE801F00408080A0C0E1012C9
S11324E0C0681060002070474068FAE78068F8E729
S11324F00068F6E70020F4E74069F2E78069F0E756
S11325006A20704700F032B9134680B50A46014686
S11325101846FFF775F8002002BD70B510F0030FE0
S11325200C46154612D0B0F1005F0FD22118491E97
S1132530B1F1005F0AD3C0F1005632462946FFF7D5
S11325405FF8A21B71194FF0005001E022462946A2
S1132550FFF756F8002070BD10B514460A46214610
S1132560BDE81040012300F041B900002DE9F0411D
S1132570044615000E461F4608BF042022D004233B
S11325803A46FEF752FF5FEA000802D01AE0361D11
S11325903F1F9FB10C480068066055F8041B41605A
S11325A006200A4908702046FFF708F8804620698B
S11325B0010018BF8047B8F1000FE8D02046FEF7AD
S11325C08AFF4046BDE8F081400500000700024054
S11325D02DE9F04106465FEA03080D46174608BF99
S11325E004201ED00423FEF720FFD0B9069C01E08E
S11325F03F1F2D1DAFB10C480C4900680560022235
S11326000A700C7158F8041B81603046FEF7D6FF3F
S11326100028EDD0079901B10D60089909B1002295
S11326200A60BDE8F08100BF4005000007000240D9
S11326302DE9F041984604460D4616461023FEF750
S1132640F4FE07001AD17019461EE068B6FBF0F1DB
S113265000FB11622AB1491C4843461E01E0E068B0
S11326604519AE4217D30E480E490068056009208B
S113267008704046FEF7EFFE070002D03846BDE87A
S1132680F0812046FEF79AFF07462069010018BF33
S11326908047002FE3D02046FEF71DFFEEE700BF82
S11326A040050000070002402DE9F84F9846044613
S11326B00D4692461023FEF7B8FE60BB6068A16821
S11326C0164FB0FBF1F96842C9F1000108404642D7
S11326D0AE4208BF4E4403E0AAEB0B0A5D444E44ED
S11326E0BAF1000F16D00E4909680D60701BD3466D
S11326F0824588BF8346012139704FEA1B10010AC5
S11327003971F87087F802802046FEF757FF0028D9
S1132710E2D000E00020BDE8F28F00BF07000240D5
S11327204005000038B50400084601D1042032BD3C
S1132730074A44211170FEF78EFE050007D120469A
S1132740FEF73CFF05462046FEF7C5FE284632BD8F
S11327500700024008B904207047034A402353701D
S11327601170FEF72BBF00BF060002401D48006831
S1132770000B00F00F00C01E082830D8DFE800F07E
S113278005080B0E1114172F1A004FF4804013E0A4
S11327904FF4C04010E04FF400400DE04FF44040CF
S11327A00AE04FF4803007E04FF4C03004E04FF407
S11327B0003001E04FF480200321421E10420A4AF7
S11327C0526818BF02214B1CB0FBF3F0C0F1005358
S11327D042F80C3F6FF0604301FB00305060002072
S11327E0704700BF007004400000FF1F002A01D1A1
S11327F001207047F0B41F46034603242340002BF6
S113280009D00424E31A017001300824E141521E66
S113281026D05B1EF7D1042A1ADB13D0002F11D067
S11328200C460D460E46102A02DB72C0103AFAE737
S11328300C2A02DB32C00C3AFAE7082A02DB12C087
S1132840083AFAE7042A03DB01600430121FF9E7AF
S1132850002A05D0017001300824E141521EF7D14D
S1132860F0BC00207047000040682C49405C704771
S11328702B494A6842B10A6813780370501C0860F7
S11328804868401E4860704700210170704710B5C9
S11328905A280CD1214A01238B54142404FB01210E
S11328A00FF20D03CB60BDE81040116C084710BD5A
S11328B01A49096C084730B5184D296485B0044697
S11328C000A80FF260011422FEF7AAFE6068A26855
S11328D0022190476068142101FB00510A1D00A9E0
S11328E000F091F8002005B030BD10B504460B4847
S11328F06168142202FB0100001D00F0F0F860681A
S1132900A268BDE8104000211047054801604260FC
S113291041680029FCD1002070470000FC02FF1F21
S1132920F402FF1F712800008F280000000000003F
S113293008000000010100002DE9F041044682B0C6
S1132940D4F800800FF2082050F82870F86A261D89
S113295000012BD5B268100028D041464FF4967080
S1132960904723E000F04BF820699DF800500928B7
S113297005D300F044F89DF8000045EA00252069DD
S1132980112805D300F03BF89DF8000045EA004506
S11329902069192805D300F032F89DF8000045EAB3
S11329A000657D63F86A40F00070F862F86A80019F
S11329B0D8D4F86A800320D5BD6BF86A40F400309F
S11329C0F86241467268E8B290472069092804D346
S11329D0280472684146000E90472069112804D3E8
S11329E0280272684146000E904720691928E0D3F6
S11329F072684146280E9047DBE7BDE8F3813268F0
S1132A00414600A81047F0B504460FF2441050F8B0
S1132A1024700D46164685B014213046FFF796F90A
S1132A200ECD301D0C3D0EC03460E8683061464860
S1132A301CB1022C0AD004D30CE0C16841F48051CB
S1132A4002E0C16841F40051C16003E0016841F44F
S1132A5080510160384600F0A8F800208DF800008D
S1132A60ADF80C0000A9E8680190287C8DF80800F6
S1132A70687C8DF80900384600F074F868BB386843
S1132A8020F48040386001220121384600F0B9F872
S1132A902E48002100F8341000EBC40001224660E7
S1132AA01921384600F0F8F801221121384600F0C7
S1132AB0F3F801221B21384600F0EEF80020786379
S1132AC00121F86A40F00070F8622046FEF738FAF7
S1132AD03868400840003860002005B0F0BD70B58B
S1132AE004680FF26C00184E50F824501CB1022CEC
S1132AF00DD006D312E0F068C00424D500210020D4
S1132B000AE0F06880041ED50021012004E030684A
S1132B10C00418D500210220FEF712FA284600F05E
S1132B2044F81CB1022C0AD004D370BDF06820F420
S1132B30805002E0F06820F40050F06070BD30680E
S1132B4020F48050306070BD308004408803FF1F43
S1132B5000C0024000D0024000C00A404001474A81
S1132B601150704738B50D4604462878444A61012F
S1132B70C043505000212046FFF7F0FF2A1D0021DA
S1132B80204600F044F810B140F2311032BD6A7BA7
S1132B90297B204600F021F800F001F832BD2068BE
S1132BA020F0405020600020704710B504460122F8
S1132BB0206820F4804020600120206001462046E7
S1132BC000F01FF82F48E0620020A060E060206160
S1132BD0206344F20100206010BD30B50368C3F3E4
S1132BE080331BB1046824F4804404604401264DFE
S1132BF0295126490A511BB1016841F48041016001
S1132C0030BD4001224B195022490A50704730B55B
S1132C101568042D09D3112D02D30368DB0F04D1E9
S1132C20212D05D30368DB0F02D140F2311030BDF2
S1132C3000EB81016D1E537914790068ED065B0683
S1132C40A406C00FC86803F0007304F080640CD0BD
S1132C5020F0FE4005F0F045927928432043120607
S1132C60184302F08072104304E020F0FC40284333
S1132C7020431843C860002030BD00007C0000429F
S1132C803800004200000A9A34000042300000423A
S1132C902C0000422800004210B5036B01248C4034
S1132CA0A34302FA01F11943016310BD80B5094938
S1132CB001EBC00211F8300028B1074840B1506858
S1132CC0C046C04601BD054810B15068FFF734FE48
S1132CD001BD00008803FF1F000000003929000027
S1132CE00020E3E70120E1E70220DFE7002000E025
S1132CF0012038B50FF2781151F82040594901EB01
S1132D000013E178E27801F012052A43E27001F041
S1132D105002102A10D04A0614D54807A0780CD5C2
S1132D2040F01000A07000208DF8000000A8196881
S1132D3088479DF80000207131BD00F0EF00A070BD
S1132D40207931BDA278C2F300121AB1C807EAD5BE
S1132D50A078F2E72279014610465A68904731BDBF
S1132D600FF20C1151F82000002181700170817163
S1132D707047F8B504000FF2F8003A4F50F8246099
S1132D800D4695E80F0007EB041787E80F00364857
S1132D9001680CBF40228022114301600020B07002
S1132DA001214020B0710220F0702046FEF7E4F8C3
S1132DB03078297B40084941317000207071B0712E
S1132DC07070B07840F08000B070B07840F040008F
S1132DD0B070F1BD38B50500234C03D1206840061E
S1132DE005D431BD012D10D1206800060DD5002178
S1132DF02846FEF7C1F82846FFF7B2FF2068002DE9
S1132E000CBF402180218843206031BD30B50FF2D2
S1132E10600353F820004FF47A73B1FBF3F1134BC2
S1132E20B3FBF1F1002300E023465C1C01FB04F535
S1132E309542F9D32BB90A2462438A4204D301236D
S1132E4002E0202B28BF1F23817901F0A00103F0A9
S1132E500F021143817130BD024A02EB0010416040
S1132E6070470000A003FF1F3480044040420F005D
S1132E70006006400070064000600E4040682F4924
S1132E804018007C70472E494A6842B10A6813789A
S1132E900370501C08604868401E48607047002159
S1132EA00170704725494969084738B504465A2CCA
S1132EB008460BD1214D4219012111742149FFF714
S1132EC0CBFF6969BDE834405A20084731BD10B5CD
S1132ED004461A49FFF74DFFFDF74AFF0146204615
S1132EE0BDE810403222FFF791BF10B504461348E5
S1132EF0416115498968096991F88110FF2918BF52
S1132F0001736068A268022190476068FFF7DFFFE1
S1132F10002010BD10B504466068FFF75BFF6068D1
S1132F20A268BDE8104000211047054801604260D6
S1132F3041680029FCD10020704700005C00FF1F9D
S1132F40DC03FF1FA52E00000000FF1FC9B2012AE9
S1132F50DFF8B82912F821300CBF0120002008E066
S1132F60C9B2012ADFF8A42912F821300CBF0420C9
S1132F700820184302F821007047DFF89009C9B20D
S1132F8010F8212002F0FD0200F82120704738B526
S1132F9004460D4600F09CFD206900280EBF256103
S1132FA060690561656100202861A069401CA06119
S1132FB0BDE8314000F096BD38B504460D4600F03A
S1132FC087FDA06918B900F08DFDC12032BD2069CC
S1132FD02860206918B10069206100B96061A069A6
S1132FE0401EA06100F07EFD002032BDDFF82019F4
S1132FF001F5007201F51471C1600161C2620C2116
S113300081610B22C16801F11C030B61521E194638
S1133010F9D10A6141610020704710B582B00446BD
S113302000A9FFF7C9FFDFF8EC08406804F12C01A0
S1133030400A0A68CB7D40020BB9426005E040F0CB
S1133040080402F1080363600832009B5A600022FE
S1133050009B1A70009B5A70009B9A60009B9A70A8
S11330600122009BDA75009A8A6000224A75C97DA4
S113307001F0010140EAC100DFF89C18016013BDB2
S1133080F8B506460F4614461D4600F021FD00F033
S1133090E9FA07F00F0140EA4110142111FB07611E
S11330A041318A7802F0010240EAC20254608A780F
S11330B0097802F0010240EAC200AA0501F0010108
S11330C0920D890141EA024141F08801016000F05A
S11330D009FD00F069FBF2BD10B5142414FB0100D6
S11330E001F00F0130F8384F9C4288BF1C46029B08
S11330F01C60DFF820385B685B0A5B0243EA41111D
S1133100837A03F0010341EAC30343F010035A60D6
S1133110827A007A02F0010200F0010041EAC20161
S1133120A205920D800141F0100140EA024040F0F6
S1133130880000F038FB10BDF0B5DFF8E017DFF8C9
S1133140D447FF220A720B7D43F002030B750B7EFA
S113315003F080030B76002365686D0A6D0203F0AB
S11331600F0645EA4615002645F008072E603E6026
S113317045F0100745F018053E602E60142505FB48
S1133180030542356E702E700025DFF88067DFB2CC
S11331905B1C06F82750062BDED3257001230B7029
S11331A01C300B7D03F0FD030B75C57302230380F4
S11331B0012343800A73087940F08D000871087D6B
S11331C000F0DF0008750020F0BD2DE9F047DFF8BE
S11331D04C5788B08146287CDFF838678DF81C008E
S11331E0287C00090090012814BF0228287C0821AB
S11331F0287C2A7C2970C0F3C0007168009B490AAE
S1133200490241EA431141EA0013C2F3800243EA4E
S1133210C2021268C2F3094AC2F3830202920D2A5F
S11332200CBF4FF001084FF00008009A142303FB71
S1133230029202F13004009A4AEA0202019270B347
S11332402768002F25D0F8685044F860B968091A37
S1133250A07C80F00100A074207C80F00100207428
S113326002D02089824515D200F08CF820604846AF
S1133270FFF78DFE2089824504BF009800285ED1A7
S1133280012030700022D9F804000023114600F018
S113329096FD74E03946484600F0E9F96FE001987C
S11332A0002854D0307808B1002030706768002FAF
S11332B065D0F87D68B9E07CFA6800F0010041EA65
S11332C0C00041687868101881421CBF524600F063
S11332D0ECFDF8685044F860B9680E1A00980028AC
S11332E004BF02980D280ED101220021484600F0A7
S11332F0B8FA09F14000012101704170C17881F0F0
S11333000101C17007E0607C80F001006074E07C22
S113331080F00100E074B868002818BF002E02D0C5
S11333202089824506D200F02DF860604846FFF7F8
S11333302EFE0CE03946484600F0BEF91FE0019825
S1133340002801BF307800284846FFF766FED9F808
S1133350040003908DF81A8003A900988DF81800D2
S11333609DF81C00C00800F001008DF81B000098B7
S1133370C0B200F0EEFB287D00F0DF00287508B035
S1133380BDE8F087F8680590394678680490002015
S11333907047DFF8881504220A70DFF88425137952
S11333A0127842EA0322028420200870704770B524
S11333B004460025142000FB054000F13806B078CF
S11333C0012822D1D4F8AC002946FFF7D6FDDFF856
S11333D0440532884068400A400205F00F0140EA83
S11333E04110B17A01F0010140EAC101920541F0B6
S11333F01001920942F008020A60F17A01F0010119
S113340040EAC100318800F01EFA6D1C062DD1DBA4
S1133410DFF808158020087094F83A00012806D1D6
S1133420002084F83A002046BDE87040F5E570BD00
S113343030B5DFF8E844DFF8EC5485B02078217922
S11334400840000744BF2846FFF7BFFE20782179D3
S11334500840C00710D501202070207C69680091C5
S113346000098DF80C0000A90020ADF80E000190B1
S11334700290102000F06DFB20782179084040076D
S113348044BF2846FFF785FF2078217908400006CD
S113349044BF2846FFF78BFF05B030BD70B5044626
S11334A0DFF880640D463046FFF7A0FDDFF878149E
S11334B0DFF878040860FDF71FF9C6F8A8002E604D
S11334C07460002070BD70B506460C4604F12805F2
S11334D000F0FAFC2870304600F0EEFCC4F8AC00B2
S11334E01020A870FF20DFF8346430702246DFF823
S11334F04004017801F07F0101702878DFF834146A
S113350000F0E7FC08B98A2070BDDFF80814DFF882
S113351000044860010A3177020CDFF81C140A70B9
S1133520000E08712046FFF707FE002070BDDFF88B
S11335300004017841F080010170DFF80004017893
S113354041F001010170DFF8F803017801F07F0117
S113355001700020704738B50D46044629786A7812
S1133560142010FB01415118012281F83C20AB7852
S1133570A98A012B05D1B1F5806F05DB40F2FF313B
S113358002E04129A8BF40212A7810FB024282F8B8
S11335903E302A786B7810FB024282F83F302A785A
S11335A010FB024211870022297810FB014181F8A7
S11335B03A20297810FB014181F83B2029786A7868
S11335C010FB0141403132B94A70297810FB0140A7
S11335D00021416305E000220A70297810FB0140B4
S11335E00263A87829780128D4F8AC0018BF012216
S11335F0FFF7ACFC6A7802B101222978D4F8AC0058
S1133600FFF7AEFC6878002801BF28780028204620
S1133610FFF703FD002032BD70B505460E46144683
S113362000F01FF9B949002001F8260006F00F0147
S113363000F018F840EA411004F0010140EA0110DA
S11336404FF0FF31416040F008004160142010FB4E
S113365006504FF6FF7101872018002180F83C10B6
S1133660002070BDAB484068400A40027047F0B586
S11336700D460446A868E96883B0401A01901426F0
S1133680E86818B9297816FB01410D6301A9009176
S11336906968019B421829782046FFF71DFD070041
S11336A008D0287816FB00400021016320462946F3
S11336B0FFF76DFC3846FEBD2DE9F0410D4604468A
S11336C0E868A9680E1A142718B9297817FB01416C
S11336D04D63297817FB0141098FB14238BF0E466B
S11336E0696842189048006858B116F0030F08BF83
S11336F012F0030105D00021E975414201F00301F4
S11337000A18297833462046FFF7BAFC5FEA000816
S113371008D0287817FB0040002141632046294641
S1133720FFF735FC002E04BF287800280CD1294669
S11337302046FFF72CFC94F8430080F0010084F845
S113374043002046FFF769FC4046BDE8F08170B5B0
S11337500D46142111FB050101F138060121F17018
S1133760B1701446294600F07CF86A4930884968EB
S11337708005490A8009490205F00F0240F08C00D7
S113378041EA42113CB1B27A02F0010241EAC201BB
S113379041F0100104E0F27A02F0010241EAC201B0
S11337A000F001F870BD08606448017801F0DF01A1
S11337B00170002070472DE9F84381460D4614201E
S11337C010FB059000F138070020F870B870164619
S11337D0D9F8AC004F4CFFF7D0FB05F00F004FEACF
S11337E04018D9F8AC0096B101222946FFF7AEFB88
S11337F0D9F8AC0001222946FFF7B2FB0020387249
S11338006068B97A00F025F840F0100014E0012255
S11338102946FFF79BFBD9F8AC0000222946FFF7A5
S11338209FFB002078721DB94846FFF7F6FB06E0BF
S11338306068F97A00F00DF8398800F004F8FFF7B1
S1133840B3FFBDE8F2838905890941F008010160ED
S11338507047400A48EA402001F0010140EAC100F3
S11338607047F0B506460C46142085B0154610FB8B
S113387004601DB9476B0021416302E0076B00211E
S11338800163C7B139463046FFF781FB4FF0FF3083
S1133890029000A978680190706800908DF80C403F
S11338A000208DF80E00280018BF01208DF80F00AD
S11338B0204600F04EF9002005B0F0BD214A1378EF
S11338C003F080030B431C301370C173012101808A
S11338D00020704780B51C490A7800220A700A7DCE
S11338E002F080020A7500220A7415490A7842F02F
S11338F040020A700A7842F080020A70FF21818334
S1133900D0F8A800FCF7FDFE002002BDC02007404F
S1133910000AFF1FE403FF1F8800080080200740FF
S1133920A0200740EC03FF1F9C04FF1F100CFF1F87
S11339301C20074031340000B02007409420074089
S113394000210740982007408420074001F00F0120
S1133950142313FB010090F83A00108000207047F4
S113396038B501F00F041425FF2315FB0405012AC3
S113397005F83A2F04D1CA092146FFF7E8FE06E00C
S113398032B9697821B16A792146FFF714FF0346F9
S1133990184632BD70B504460D46D4F8A800164644
S11339A0FCF7ABFE012D04F11C0007D0042D07D059
S11339B0052D07D0062D08BF468004E0068002E0EE
S11339C0468100E086801EE070B504460E46D4F8B9
S11339D0A8001546FCF791FE012E04F11C0008D046
S11339E0032E0AD0042E0AD0052E0AD0062E02D0A9
S11339F009E0008806E0408804E0C07B02E04089DA
S1133A0000E080882880D4F8A800FCF778FE002025
S1133A1070BD38B504460025002229462046FFF72C
S1133A20FBFD012229462046FFF7F6FD6D1C062DFD
S1133A30F2DB2046FFF780FB2046FFF7D7FA002091
S1133A4032BD000070B5A0F11003DBB20829B8BF85
S1133A50FB2B1CDA03F0030423F0030303F160439C
S1133A6003F56143E400D3F80053FF264901A6405F
S1133A7001F0E001B543A1402943C3F8001312B19A
S1133A8000F008F801E000F010F8002070BD4FF0DD
S1133A90FF3070BD1038C0B2FB2805DA012100F0F8
S1133AA01F029140144A0DE009E01038C0B2FB280F
S1133AB005DA012100F01F029140104A02E04FF0A4
S1133AC0FF307047400942F8201000207047000082
S1133AD00B480168002900D172B60168491C0160D5
S1133AE0704700000648016800291EBF491E016096
S1133AF0002900D162B6704700E100E080E100E0F7
S1133B00AC04FF1F38B50D460446687B38B1102855
S1133B1002BF002204F1080000F06EFA04E0002263
S1133B2004F1080000F0DAF900200C2101FB004147
S1133B3001F13C026B7B117A994205D151681268FC
S1133B4028469047002032BD401C0828EDD383202E
S1133B5032BD0A68487310F07F0307D000F07F007D
S1133B60102803DAC87B43EAC01048731046C9E73B
S1133B704268126B13001CBF00681047FF20704797
S1133B8070B500F01EF86068E90606D5436A1800AF
S1133B900AD000F0ECF8984718E0436C180003D002
S1133BA000F0E5F89847F7E714E070B500F009F87D
S1133BB06068036C180003D000F0D9F8984705E05A
S1133BC008E004460D461646FFF782BFFFF78AFF5A
S1133BD0002070BDFFF786FFFF2070BDF8B52B4EA7
S1133BE006F19C070446387801280D4629D0A42202
S1133BF00021304600F04BFB012038707C70FCF74C
S1133C007BFD23497860602212FB0411F161FF22DD
S1133C1000210C2313FB0163491C082983F8442069
S1133C20F7DB002C18BF012C0DD11A4F77603A68CE
S1133C30100002D0314630469047306838B98720AA
S1133C40F2BDC120F2BD00203870C020F2BDF0608A
S1133C503661204600F026FB30B1796B08001CBFAA
S1133C6030688847C420F2BD7A68100005D03168F6
S1133C702046904718B92E60F2BDFF20F2BD796B43
S1133C8008001CBF306888478D20F2BDB806FF1FAE
S1133C90A00DFF1F7805000010B54B689B68024615
S1133CA000201C0003D0BDE810401046184710BD8A
S1133CB038B5040001D1FF2032BD04F19C056868C9
S1133CC0FCF71FFD6068416B08001CBF2068884733
S1133CD00020287032BD00B587B0C0B10B788DF8D4
S1133CE000308B788DF801304B68ADF8143049788A
S1133CF08DF802108DF8162000210291039141687D
S1133D008A69110003D0006800A9904700E0FF20F1
S1133D1007B000BDF8B500F097F81F4601D1FF20A9
S1133D20F2BDFFF7D5FE00200C2101FB004292F802
S1133D304420AA4203D1FFF7D5FE8420F2BD401CE3
S1133D400828F2D3002001FB00423C32137AFF2BF7
S1133D5006D1157216605760FFF7C4FE0020F2BD4D
S1133D60401C0828EFD3FFF7BDFE8120F2BD206878
S1133D70324629467047F8B504000F4615461E46DC
S1133D8019D06068826C100015D0206800A9904793
S1133D9088B9FFF79DFE00980770002000F033F803
S1133DA00269100007D000992068904700F050F88D
S1133DB01CB90020F2BDFF20F2BD9420F2BDF8B57D
S1133DC004000F4615461E4619D06068826C100028
S1133DD015D0206800A9904788B9FFF779FE0098AC
S1133DE00770012000F00FF8C268100007D0009996
S1133DF02068904700F02CF81CB90020F2BDFF2089
S1133E00F2BD9320F2BD0099487000988660009836
S1133E10456000200099C86006200099C870606859
S1133E20704770B500F010F80CD0FFF751FE6068D1
S1133E30036A180006D0FFF79AFF984700F008F8C5
S1133E40204670BDFF2070BD04000D461646704725
S1133E500446FFF747BE10B538B14368DB6B1C005E
S1133E6003D0BDE8104000681847FF2010BD08B912
S1133E70FF207047016242620020704708B9FF20AA
S1133E8070478162C2620020704708B9FF20704702
S1133E90016342630020704728B14168C96C0A007D
S1133EA01CBF00680847FF20704710B50446FDF7A3
S1133EB0A7FB204610BD000008B902487047002047
S1133EC0704700000020074008B945207047FF20D4
S1133ED0704700F011BAFFF7B5BD00007FB5044686
S1133EE00020ADF8080003900E46A06802AA012144
S1133EF0FFF746FEB07BCE25002850D0716808221B
S1133F0004F10C00FFF7D1FF208A217B208260227C
S1133F10E089E0811142608A608217D1607B354973
S1133F2001EB8002966A32005AD0BDF80820032AB9
S1133F3056DA00EB40004018105C012850D101AB68
S1133F4003AA04F10C012046B04726E00190D8B141
S1133F50207B000618D401980830552805D3A068A2
S1133F6000220021FFF777FF7FBD6069082204F17A
S1133F700C01FFF79AFF6069019B00F108023068A9
S1133F800021FFF7F8FE7FBD266A300028D0636A5F
S1133F9001AA03A904F10C00B047054620E0BDF8CE
S1133FA00800042805D16188A068C9B2FFF7E0FDC4
S1133FB07FBD207B00061CD4F07BD0B9608AC0B1E1
S1133FC0206A48B1B06808300190636A6069256A64
S1133FD001AA03A9A8470546B06810F1010F08D04B
S1133FE001A8009003AB04F10C02E9B2204600F0F2
S1133FF029F87FBD3002FF1F30B5044683B0A068A6
S11340000D46FFF749FF00208DF802008DF80000EF
S113401001224020019000A900208DF801002868A9
S1134020FFF759FE01208DF802000122286800A93B
S1134030FFF751FEE269A06918B1A36900210020CD
S1134040984737BD38B50446CE291546184606D1DB
S1134050A068BDE8384001220021FFF7FCBE0499A6
S1134060EA880B689A4238BF0A6002680B68A06845
S11340700021FFF7A4FE2878000608D5A06801B047
S1134080BDE83040002200231146FFF774BE31BD65
S113409070B5154604461E460A78FF201F231A42AF
S11340A009D1A06822460621FFF76AFD217801F0B4
S11340B00301218013E002F01F03012B03D100212F
S11340C0218001210CE002F01F02022A09D1888814
S11340D040F01001A0682246C9B2FFF751FD022149
S11340E031602C60C0B270BD70B5044682B000204F
S11340F01860CE250A7848781F231A42C0F340007E
S113410012D1897811F0030138D0012936D1002861
S113411014BF11261226A369002518002ED0626A46
S113412000213046984729E002F01F02022A02BF0C
S11341308A7803231A4221D189888DF800109DF8CA
S113414000209DF8001001F00F01D20920B1A068F1
S1134150FFF781FE132608E09DF8000014260F23C4
S1134160184203D1A068FFF75CFE0546A369180056
S113417004D0626A00A9304698470025E8B276BDAB
S113418038B50446002018600D46A06804220121B9
S1134190FFF70BFD68886080002032BD01211960A3
S11341A0303010600020704738B5002204461A6091
S11341B04888ADF8000000B90122A0680121FFF78A
S11341C0F4FC0546BDF80000A369208618000BD056
S11341D0E26900A901209847BDF8000020B1E26916
S11341E0A369002103209847E8B232BD38B50446DC
S11341F0012018601546A06A4368180001D1CA203E
S113420032BD8988E06A2246C9B298472C6032BD23
S113421038B5044600200D461860287800F00300E5
S1134220012801D0042032BDA06A8368180001D19E
S1134230CA2032BD6A88A988E06AD2B2C9B2984756
S1134240A369180003D0E269A91C02209847002042
S113425032BD38B50446022018601546A0682246CF
S11342600521FFF78DFC2C60C0B232BD30B5846AE5
S113427083B02468250001D1CA203EBD4D88019336
S11342800092EAB28B88C06A290AA0473EBD10B5E5
S1134290044610460A4601462046FDF7F1F9204639
S11342A010BD000010B500244FF0FF3100B10C46E2
S11342B0DCB9C8B90E48416841F0807141600168B9
S11342C041F00041016000210A4801701021017091
S11342D0017941F0400101710020FFF7F5FD012251
S11342E00421FFF7F8FD00E00C46204610BD00BF96
S11342F00070044008210740F8B504460D461646F0
S11343000E4F452C04BF3D607E60002000F018F87D
S1134310844208BFFD60012000F012F8844208BF07
S11343203D61312C04BF7D61BE600120F2BD0348B4
S113433001680A001CBF4068084770478C06FF1FCD
S1134340042804D2034951F820001030704700209B
S113435070470000BC00FF1F70B50D0082B004461A
S1134360164601D1002076BD00AA00F071F830B9DC
S1134370009B9B685B68324629462046984776BD79
S113438070B50D0082B00446164601D1002076BDFA
S113439000F07FF800B14CE000F047F868B9009BEA
S11343A09B689B6832462946204698474E49002818
S11343B006BF009A926800220A6076BD38B50446AA
S11343C00D4600AA00F044F8A0B90098806840693E
S11343D008B9662032BD2946204600F05AF810B1CB
S11343E042F2D87032BD009A92685269294620463A
S11343F0904732BD002DFCD1002032BD70B50D00B8
S113440082B00446164601D1002076BD00F041F882
S113441000B10EE000F009F830B9009B9B68DB683E
S1134420324629462046984776BD00AA29462046AA
S11344300EE042F2D87076BD10B52B4C21680020F6
S113444029B109690A0002D088470021216010BD02
S113445070B5264C6468002918BF002A42F2D8734C
S113446014D000E00C348CB12568002D04BF6668BC
S1134470002E01D1A6684EB1A84224BF65688542CA
S1134480F0D30818401E854228BF00231460184644
S113449070BD30B5154A92681269536BA3B10918FF
S11344A0491E002302EBC304603465682468002CB1
S11344B008BF002D05D0854228BFA14201D30120A9
S11344C030BD5B1C022BEDDB002030BD10B507486E
S11344D0446804E00068010018BF80470C34A068F9
S11344E00028F7D110BD0000A004FF1F0000FF1F2B
S11344F010B596488068006900F1700430224AF2D1
S1134500C0312046FDF78CF820689149884204D0D8
S1134510FF2230212046FDF7B7FFFCF7F5FC002011
S113452010BD38B5894DA86804694B20E07004F1CA
S113453010020120A0700421052060700120207069
S11345405020E0710120A0710220607100202071D0
S11345505420E0720120A0720020607220720120B9
S1134560206360634EF6FF70A06300F05EF804F110
S11345701402012100F059F804F11802002100F09E
S113458054F804F11C02022100F04FF804F1200257
S1134590032100F04AF804F14C02052100F045F82B
S11345A004F15002062100F040F804F154020721FE
S11345B000F03BF8A069674A404252424FF0FF3195
S11345C00240891A644A61661040206600216348EB
S11345D0A0666348E0666869E16007E094F88030AB
S11345E0134202D0E3681A43E260491C182202FB1A
S11345F001021268002AF1D15A480168A164416895
S1134600616481682164C068E063686850F80C1FC5
S1134610616241680068081A401CA0622046FCF7E9
S113462075F80120A065002032BD05F12000FDF7DA
S113463049BF0000F8B51446444A4B4F916804261C
S1134640401E096917281D464ED8DFE800F00C12F9
S11346501416181A20224D24282F261C1E323540E9
S1134660434547494D4B05B12E6004B121600020FC
S1134670F2BD0C31F7E71031F5E71431F3E71831E7
S1134680F1E72031EFE72431EDE72831EBE738316A
S1134690E9E72C31E7E73031E5E73431E3E7D06986
S11346A041694969884738603946DCE7102660313A
S11346B0D9E72E480068F6E700A902F12000FDF7CB
S11346C02BFB9DF800000028EDD00120EBE710261D
S11346D03C31C8E74C31C6E75031C4E75431C2E736
S11346E05831C0E70831BEE742F63C00F2BD174A34
S11346F092681369401E072842F63E0220D9093801
S11347000CD0401E01281BD9801E0DD0401E03284A
S113471016D908380ED0801E12D014E0002918BF14
S1134720012909D119637047002918BF012903D150
S113473059637047032901D3104670479965704740
S113474042F63D00704742F63C0070470000FF1FF0
S11347506B636667345A0000000000000000FF1F0E
S1134760FF0FFF1F548004406805FF1F248004408E
S1134770012100F01F029140A04A04E0012100F051
S11347801F0291409E4A400942F8201070470021C0
S1134790C1708170017004214170002181724174E3
S11347A07047F8B5974E3360130191FBF3F633016C
S11347B00025B1FBF3F3044693424FF0FF3038BFBA
S11347C0761E00D310D001274B0007EB461CB3FB29
S11347D0FCF39A4234BF9B1AD31A984224BF18465A
S11347E03D467F1C212FEFDB642192FBF1F101EBAD
S11347F0410188425ED28449844F8C420FD084495F
S11348008C4213D083498C4217D083498C421BD0ED
S113481082498C4220D082498C4224D02AE01F2035
S1134820FFF7A6FFF86840F4806013E02120FFF74B
S11348309FFFF86840F400600CE02320FFF798FF26
S1134840F86840F4805005E02520FFF791FFF868F0
S113485040F40050F8600DE04220FFF789FF38680B
S113486040F4806005E04420FFF782FF386840F49C
S113487000603860E07800F0F300E070310A002056
S1134880A07001F01F01207800F0E00008432070C0
S11348906670A07A00F0E0002843A072C020607423
S11348A0E07840F02000E070E07840F00C00E07028
S11348B00020F2BD0120F2BD02791206FCD5C171BF
S11348C0704758480178890600D50AE07047564871
S11348D001788A0701D5C0787047890600D500E0C1
S11348E07047C078474909680847504801788906E5
S11348F000D5F6E770474E480178890600D5F0E701
S113490070474C480178890600D5EAE770474A4861
S11349100178890600D5E4E7704758B53A493B4E1B
S1134920884204460FD03A49884213D03949884214
S113493017D0394988421BD03849884220D0384999
S1134940884224D02AE01F20FFF718FFF06840F4C3
S1134950806013E02120FFF711FFF06840F400604D
S11349600CE02320FFF70AFFF06840F4805005E0D4
S11349702520FFF703FFF06840F40050F0600DE0DD
S11349804220FFF7FBFE306840F4806005E04420DD
S1134990FFF7F4FE306840F4006030602046FFF713
S11349A0F6FE194884420FD01948844210D01948A1
S11349B0844211D01848844212D01848844214D03A
S11349C01748844215D051BDF06820F480600AE095
S11349D0F06820F4006006E0F06820F4805002E003
S11349E0F06820F40050F06051BD306820F480601D
S11349F002E0306820F40060306051BD00E100E066
S1134A0080E100E0F005FF1F00A00640288004407C
S1134A1000B0064000C0064000D0064000A00E4092
S1134A2000B00E4004A0064004B0064004C0064096
S1134A3004D0064004A00E4004B00E40012808D063
S1134A4005D3032809D006D305280AD007D3204864
S1134A5070472048704720487047204870472048D6
S1134A6070472048704770B5044682B0606800A95A
S1134A70FBF7EDFFE0B960681B4EFCF783F90546D0
S1134A806068FFF7DBFF3368009A2946FFF789FE69
S1134A9058B96068A2680221904731685A20884753
S1134AA03168A6208847012076BD6068FBF7B6FF11
S1134AB0002076BD10B504460B4801606068A2680A
S1134AC0012190476068FBF7A9FF002010BD00009A
S1134AD000A0064000B0064000C0064000D00640DA
S1134AE000A00E4000B00E40F405FF1F10B50446B0
S1134AF06068FFF7A3FFFFF710FF6068FBF7A5FFEF
S1134B006068A268BDE810400021104770B50446F3
S1134B100D46164606E06068FFF790FF15F8011B86
S1134B20FFF7CAFE3046461E0028F4D170BD0000CF
S1134B30A649D1F88820531C5218C1F8883082F84D
S1134B402000D1F8880000F03F00C1F888007047C9
S1134B5000207047B8E02DE9FC410C00154614BF55
S1134B60002D0420984628D0984F002007F1900685
S1134B702860707000F0A8F818B11EE0A22000F0C0
S1134B8075F820213846FDF7E1F84246394600A879
S1134B9000F0E7F810B1002129600EE0394600A8C2
S1134BA000F030F9BDF804108142E7D101203070E3
S1134BB02760BDF8020028600020BDE8F6812DE9D9
S1134BC0F0410C0082B015461E4635D0212D33D25B
S1134BD000F07AF800283FD1DFF8F08198F89100CE
S1134BE010B1002088F8910008F160075A2038704D
S1134BF0A42078700EB1A52078707D802DB12A464E
S1134C00214608F16600FCF7FBFC08F16601384612
S1134C1000F0F8F8B880A91D384600F064F8D8B957
S1134C2000A800F0DDF8B8B99DF80100A12812D061
S1134C30A22806D0A32801D004200DE042F212706D
S1134C400AE07888811D384600F04DF820B99DF8B7
S1134C500100A228E4D00020BDE8F6815C480121CF
S1134C6081700021017070472020704780B55A215F
S1134C708DF800108DF801000120544981F891004D
S1134C80022100A800F02FF802BD10B504465048D8
S1134C900178427880781140014282B011D10FF23C
S1134CA094100088ADF80000022223695B6800A913
S1134CB02046984723690FF280115B68082220463A
S1134CC0984742F2137016BD4148017819B100218A
S1134CD00170A12004E0817819B100218170A32022
S1134CE0C4E7002070473B4AD3690A460146184688
S1134CF01B695B6818472DE9F14F8B461446FBF797
S1134D002AFF06464FF47A7089466043FBF733FF67
S1134D100025DFF8B8A00446A8460AF188070EE08B
S1134D207868396888420CD05044009990F8200083
S1134D3068546D1C7868401C00F03F0078605D4545
S1134D400CD0002CECD0FBF706FF801B61EB0901B3
S1134D50414501D8A042E3D3052000E00020BDE88E
S1134D60F28F70B582B005460C46164600F038F84E
S1134D7058BB6878A62804D11648C069FFF785FF98
S1134D8076BDA42106B1A521884201D0012076BDBB
S1134D9000F022F8BDF800106980B0B90846212857
S1134DA0A8BF2020688000F017F8BDF80010A98083
S1134DB058B9698849B12046FCF75EFC69880A2025
S1134DC000FB01F22046FFF796FF76BDF805FF1FB2
S1134DD08806FF1F0000FF1F1422022100A88AE793
S1134DE010B50446002201212046FFF784FF40B994
S1134DF020785A28F6D1601CBDE810400A2201210F
S1134E0079E710BD30B583B004460D4600A800F024
S1134E1017F80422214600A800F015F862882946F4
S1134E2000A800F010F801A900A800F02FF8BDF8C0
S1134E3004003EBD5AA70000000201500000AAEA87
S1134E400021018070477FB5044600208DF80000E2
S1134E500D4620880190164641F221000290002060
S1134E60ADF80C008DF80E006EB1FBF70BFD00A938
S1134E700020FBF727FD324629460020FBF73BFDC7
S1134E800190FBF705FD019820807FBD0088088014
S1134E900020FBF721BD00000748016841F47001C0
S1134EA001604CF220510548C1814DF62811C181A1
S1134EB04FF4E9710180704788ED00E0002005405F
S1134EC0F8B5044615461E460020174A02EB0017A3
S1134ED07A6822B1401C0128F7DBC120F2BDF960D9
S1134EE07C60BE6032462046FEF7C1FF324629464A
S1134EF02046FEF7C3FF069932462046FEF7C5FF5B
S1134F003846F2BD0020084A02EB00128A4204D05F
S1134F10401C0128F7DB9E20704700205060106081
S1134F209060D06070470000A406FF1F00281CBFDB
S1134F304068FEF744BFFF20704770477CB50E46BB
S1134F4014461D4600F0AFF8069A0799364B032E17
S1134F5011D0212E09D0222E2AD120B903F13000FC
S1134F6010604C200860002076BD10B903F11600D3
S1134F7010600920F6E725B903F17C0010600420D5
S1134F80F0E70020012340F20946B54203D1032C87
S1134F9002DA234600E001200FF2E4040C2515FB9D
S1134FA00040C46854F8234014600069185CD9E7D1
S1134FB0082E18DA20B90FF2A40454F8264014601D
S1134FC0012E02D11C68641C1C601C68022CA4BF46
S1134FD000241C60126832B10028C4D10FF25800BA
S1134FE050F82600BEE7CE2076BD21B90F480078E0
S1134FF0107000207047CE20704719B90B4802701A
S113500000207047CE2070470020704730B549B962
S11350100848012101700649D1E90045C0E901456C
S11350200C301060002030BD1401FF1F1808FF1F52
S1135030E000FF1FE800FF1F000000001200000056
S11350402900000000000000000000000000000033
S113505000000000000000004C0000000000000000
S11350600001FF1F1801FF1F0000000000000000E6
S11350700000000000000000000000004401FF1FC9
S11350809001FF1F0400000009040000BC0600009A
S1135090B8060000012100F01F029140C84A4009EF
S11350A042F82010704700207047406840083C21B7
S11350B04843C449425C12B140184078704700200C
S11350C0704710B5002818BF0128BE4C02D100203B
S11350D0208010BD0328FCD10120207004F11402AB
S11350E0A06BBDE810402423022100F0DABAF8B521
S11350F015461E68B34C042800F001020BD1A868C1
S113510010F1010F18BF002849D0E068012846DBE0
S113511004F10C0039E0052807D1A86810F1010F4B
S113512018BF00283BD020612BE01219002701286A
S11351301F600BD0022818BF03282CD009280ED0DA
S11351400A2825D00B2808BF117128E0242104F176
S11351501400FCF7FBFD04F1140028601FE029682B
S11351608A78002A04BFCA78002A04D10878012862
S113517008BFA07013D0324604F11400FCF740FAC3
S113518026610120607004F10800FBF76FFB06E064
S1135190080A107103E0101D286001201860002027
S11351A0F2BD70B504468749606840083C2202FBA2
S11351B0001588B03C212846FCF75EFAFBF7BBFDDE
S11351C0814E78B9B068006990F8801001F0EF0161
S11351D080F88010B0680069C16821F01001C160D6
S11351E0012038E0606830B93520FFF753FF774974
S11351F04FF4001008604FF6FF72B068006930F891
S1135200841F4388934208BF914209D0704A1172A7
S11352100188090A5172418891724188090AD17240
S113522005F1380240686B4910F1010F08BF6A4864
S1135230086000A96948009005F1380001906848A9
S1135240049005F138000590664806906068C0B285
S113525000F0B5F9002008B070BD38B540684408C6
S1135260A8B9614D2868400311D560494FF4001076
S113527008603520FFF70EFF52483C2101FB040073
S1135280806B00F0DDF9286820F48020286031BDAF
S113529010B540684B4940083C2202FB0014002131
S11352A004F10800FBF7D6FA002104F10C00FBF727
S11352B0D1FA04F10800FBF7D9FA002010BDF8B5C3
S11352C040680C4640081546002C18BF002D01D13B
S11352D00420F2BD0021296013B1012B1ED027E068
S11352E0012638493C2202FB0017F87830B1B86B2C
S11352F0242307F11402022100F0D3F90120F870ED
S11353004FF0FF3107F10800FBF7A6FA387DB042F1
S113531006D0012E08BF02280AD169E00226E0E780
S1135320B87DF97D40EA01203969091F814201D223
S11353300120F2BD07F11801216028600020F2BDB0
S1135340F8B5406815464608212D0C4601D30420C3
S1135350F2BD13B1012B0ED00FE00327FBF792FA35
S113536018483C2101FB0606B07840B10020B0701B
S1135370FBF78EFA3CE00427F0E70120F2BDFBF7CF
S113538087FA002070753775280A002C18BF002D85
S1135390B575F07505D02A46214606F11800FCF7CC
S11353A02FF9B06B242306F11402012100F072F9E5
S11353B04FF0FF3106F10C00FBF74EFA0020F2BD6E
S11353C080E200E0DC07FF1F0000FF1F04E100E0B3
S11353D00001FF1FB406FF1F80500000C3500000EF
S11353E0EF5000001C02FF1F3480044084E100E001
S11353F042F21270F2BD10B54469A4680022002381
S11354001146A04710BD0020704720207047FFF7C9
S113541094BD000010B50C6A220082B009D08268E5
S113542012F1010F0CBF0021496A00F013F80420A7
S1135430A04713BD10B50C6A220082B009D082685F
S113544012F1010F0CBF0021496A00F003F8052096
S1135450A04713BD0091024600234FF6FF71704729
S11354602DE9F84F012880468B46164646D1306810
S1135470B36B00AA0021984700988068011DF16071
S113548000270079032866DA00240FE0896811F800
S1135490341006EB440000F83C1F009989688968C1
S11354A001EBC401641C49784170E4B2009881683E
S11354B008798442EADBF468DFF8C491DFF8C4A118
S11354C007E028B9297833464A463068FEF722FCBB
S11354D07F1C2078FFB2874236D2606800EBC70594
S11354E0306801222946FEF7F6FBA8780128E8D1A6
S11354F029783346524641EAC011E6E7032818BF2B
S1135500B8F1000F20D009280ED19BF8007016F1D5
S11355103C0019D0002400F020F801D100F025F857
S1135520641C022CF7DB0FE014280DD19BF80070EB
S113553016F13C0008D0002400F00FF801D100F06F
S113554014F8641C022CF7DB3369180003D0726969
S1135550594640469847BDE8F18F06EB440107F0F1
S11355600F0091F83C1088427047F80900F00102DE
S1135570306807F00F01FEF754BC70B582B01D46C9
S11355800446CE20237803F06006202E0CD12B6A2B
S1135590A3B1E08810601346686A00900A466188E7
S11355A060782C6AA04776BD03F06003402B05D1D8
S11355B0AE69330002D0EB692046B04776BDF8B53A
S11355C00D000446164601D1FF20F2BD00202E49ED
S11355D001EB8017396821B1401C0228F7D3C120A0
S11355E0F2BD39462046FEF7F9FA40BBA869274ABE
S11355F0274900903B463868FFF762FCB8600822F0
S1135600294607F11000FEF750FC082205F10801B5
S113561007F11800FEF749FC082205F1100107F113
S11356202000FEF742FCA969142207F12800FEF7C6
S11356303CFC376020463968FEF72EFB0020F2BDA3
S113564038B5040001D1FF2032BDA1682068FFF7FE
S113565059FC050003D12068FEF72AFB054600200B
S1135660094901EB8012A24203D0401C0228F8DB56
S113567004E0402200212046FEF709FE284632BD00
S113568035540000155400005C07FF1F7B550000D3
S11356906154000000281CBF8068FFF747BCFF204E
S11356A0704700281CBF0068FEF765BBFF207047E9
S11356B04EF68851CEF20001086840F4700008608C
S11356C0BFF34F8FBFF36F8F4FF00070E1EE100AFE
S11356D07047000000F00BF8002801D000F00AF831
S11356E00020C046C046FBF70CFDFBF74BFD012034
S11356F07047000010B5074979441831064C7C44C2
S1135700163404E00A68081D511888470146A1426E
S1135710F8D110BD100300001C030000C8050000F0
S11357207400FF1F700600004000FF1F000000000F
S1135730F805000000000000000000000000000068
S11357400000000000000000000000000000000055
S1135750000000000000000000000000111700001D
S11357601F17000068040000C402FF1F00000000AF
S11357704803FF1F6803FF1F872E0000AB2E0000A5
S1135780CF2E000010000000000000000000000008
S113579000000000FFFF0300440500000000FF1F9D
S11357A0FFFF0220E005000000000040FFFF07406B
S11357B0F004000000F00F40FFFF0F40F004000071
S11357C0000000E0FFFF0FE0F00400000000000014
S11357D00000000000000000300000003100000064
S11357E0320000003300000000004001010301000A
S11357F0400000000203000040000000020000001E
S1135800D000FF1F000000000000000000000000A6
S11358100000000001000000E800FF1F1201000268
S113582000000040A2157300020001020001000004
S11358300000000009022900010100C0320904002F
S1135840000203000000092100010001224C0007AE
S113585005810340000A0705020340000A00000016
S11358600600FF0901A1018501190129011500267E
S1135870FF0075089523910285021901290115007D
S113588026FF007508952391028503190129011546
S11358900026FF007508952381028504190129015A
S11358A0150026FF00750895238102C0040309042E
S11358B03A034600720065006500730063006100EE
S11358C06C0065002000530065006D0069006300F2
S11358D06F006E0064007500630074006F00720056
S11358E0200049006E0063002E00000026034B00D8
S11358F069006E00650074006900730020004200B6
S11359006F006F0074006C006F006100640065003C
S113591072000000220342004100440020005300B2
S11359205400520049004E004700200049004E0038
S113593044004500580000003D4F0000EB4F0000BC
S1135940FB4F0000095000000D5000000101000150
S1135950010000000001010000000000010101013C
S1135960010000000101000101000100000100002C
S11359700100000091400000E94000000000000028
S1135980E940000000000000814100006D42000079
S1135990000000009D410000A9410000ED4100000D
S11359A0114200005342000030B504E012F8014BEC
S11359B000F8014B491ED1B1C507F7D40129F5D030
S11359C0850701D4042904D232F8024B20F8024B93
S11359D0891E8B08EFD000EB830403E052F8045BCC
S11359E040F8045BA042F9D3A1EB8301E3E730BDA7
S11359F080B513460246184600E080B5FFF7D4FF91
S1135A00002002BD10B514460A462146BDE81040E8
S1135A100123FCF7EBBEC046C046FFF749FEFFF783
S1135A2059FE000063B7FFFF8C0500009002FF1FC2
S1075A30000000006E
S9030411E7
