S0180000746F7765725F626F6F746C6F616465722E7372656351
S1130000D085FF1F11040000B30900001D12000079
S11300101F12000021120000231200000000000043
S1130020000000000000000000000000B309000010
S1130030B309000000000000B3090000BB07000082
S11300405F3900005F3900005F3900005F3900004C
S11300505F3900005F3900005F3900005F3900003C
S11300605F3900005F3900005F3900005F3900002C
S11300705F3900005F3900005F3900005F3900001C
S11300805F3900005F3900005F3900005F3900000C
S11300905F3900005F3900005F3900005F390000FC
S11300A0092B00000D2B0000012B0000052B000084
S11300B05F3900005F3900005F39000085320000BD
S11300C05F390000913200005F390000AD3200005A
S11300D05F3900005F3900005F3900005F390000BC
S11300E05F3900005F3900005F3900005F390000AC
S11300F05F3900005F3900005F3900005F3900009C
S11301005F3900005F3900005F3900005F3900008B
S11301105F3900005F3900005F3900005F3900007B
S11301205F3900005F3900005F3900005F3900006B
S1130130D50800005F3900005F3900005F39000016
S11301405F3900005F3900005F3900005F3900004B
S11301505F3900005F3900005F3900005F3900003B
S11301605F3900005F3900005F3900005F3900002B
S11301705F3900005F3900005F3900005F3900001B
S11303F05F3900005F3900005F390000FFFFFFFF35
S1130400FFFFFFFFFFFFFFFFFFFFFFFFFEFFFFFFF9
S113041072B60E480E49886000220023002400258D
S113042000260027B846B946BA46BB46BC4609482A
S1130430854609488047094880470948804762B68D
S113044000200021074A9047FEE70000000000005A
S113045000ED00E0D085FF1F9D3700001D10000057
S113046057100000590B00005F130000000000004B
S11304707113000000000000071400004F15000075
S1130480F51300007F1400001716000000000000A0
S1130490B916000000000000AB13000000000000CB
S11304A0851300007F1400002B16000000000000DC
S11304B09516000000000000171300000000000063
S11304C0DF13000000000000000000000000000036
S11304D0C716000000000000DB160000000000004A
S11304E0FD1600004F150000000000000000000091
S11304F00000000039390000433900004D39000084
S11305000000000000000000B1260000FF260000EB
S11305103327000000000000000000005327000003
S1130520000000000000080000001000000020008F
S113053000004000000080000000000100000002F4
S1130540040002406918000095180000D11800004A
S1130550BB19000000000000571A000000200340EF
S1130560952C0000032D00002D2D0000000000003C
S113057000000000432D0000D92E0000652D00006E
S11305808D2D0000092E0000452E0000C92D00000D
S1130590612100006521000077210000B5210000E1
S11305A00000000000000000010000000000000046
S11305B0F70700001C0600002C06000034060000AB
S11305C002000000000000003F0800006005000079
S11305D07005000034060000040000000000000064
S11305E08508000008050000180500003406000016
S11305F000000000000000000000000000000000F7
S11306000000000000000000FD2E00002F2F00005D
S113061039300000EF300000F081FF1F5933000033
S1130620AF330000C93300000000000000000000E8
S1130630F5330000553400005B340000C33400007F
S113064061350000593400006D3500003534000078
S113065038B504463D4D0020C5E90000C5E9020057
S1130660C5E90400A8612862394800F09EF8E861F1
S11306702046BDE834400FF2590100F03BB900F0C8
S11306804EB970B5314D0C46A969072904BF296AD2
S113069088421AD100F08EF8C0EB0016D5E90001AB
S11306A0D5E902231018B6FBF0F00A2148434FF4B1
S11306B09661B0FBF1F0401D0A21B0FBF1F04FF45C
S11306C0966148432060002070BD012070BD000089
S11306D02DE9F843064600F058F81C4F0446D7E9C4
S11306E004598846B8690021421C651B68EB090956
S11306F0F869494502D82CBFA8420122012ABA61EF
S113070006D0042A08D0052A0ED0072A0FD018E0F4
S1130710C7E900483E6214E0D7E90001201A68EBFB
S11307200101C7E900010CE0C7E9024809E0D7E983
S11307300201201A68EB0101C7E90201304600F00A
S1130740EEF8C7E90448BDE8F1830000C080FF1F4C
S1130750803801001C48002101606FF07F421B4972
S11307604A6000228A6007220A601949194A096806
S1130770C900B1FBF2F101B901214160704713488E
S1130780016821F00601016070470F490A681248A8
S113079000680B68C0430002000A9A42F6D10021A7
S11307A010EB026051EB1221704707494968484336
S11307B0C008704706480068704703480168491C30
S11307C00160704700000000E481FF1F10E000E0BA
S11307D0BC80FF1F40420F0018E000E00901002820
S11307E006D5594A00F00F00801800F8041C704721
S11307F0564A8154704708BB554A564819B10229D4
S113080012D006D37047016811400160416811405D
S113081013E00168114041F4807101604E480168A1
S113082021F48031016070470168114041F4407146
S113083001604168114041F440714160704700B16A
S1130840704710B5454A4648464B414C11B1022900
S11308500AD010BD196821401960596821405960B7
S113086000211160016010BD5968214041F4E0612C
S113087059601968214041F4E06119600121016067
S1130880116010BD28BB324A374811B102290CD07F
S113089070470168114001604168114041608168FE
S11308A011408160C168114012E00168114041F4B7
S11308B0007101604168114041F400714160816838
S11308C0114041F400718160C168114041F400712C
S11308D0C160704710B51F4C2068C0F3006040B180
S11308E022480168080004D0002088474FF0FF30F8
S11308F0206610BD10B50C4680B901213C20FFF7DD
S11309006DFF1B491B4A4FF0805008601148016875
S1130910114041F4202101601448046010BD00B16D
S1130920704780B514494FF08050086000213C2086
S1130930FFF754FF07480F4A016811400160002087
S11309400A49086001BD000018ED00E000E400E081
S1130950FFF8FFFE40A0044054F00F4014019842F9
S11309609401984208C0044040D00440EC81FF1F29
S113097004E100E0FFFFF0FE84E100E0012811D86B
S11309800FF22C028056012904D100F01F0291407D
S1130990054A04E0012100F01F029140034A400986
S11309A042F820107047000000E100E080E100E020
S11309B01A1BFEE7012811D80FF22C0280560129D8
S11309C004D100F01F029140054A04E0012100F027
S11309D01F029140034A400942F82010704700006A
S11309E000E100E080E100E0181950F8041B61B157
S11309F050F8042BD30744BFA9F101039A1800232C
S1130A00091F42F8043BFAD1EFE7704738B50446B2
S1130A100D46002000F0E2F86A486B4A0560446025
S1130A204FF420411160016881F3088881F309883B
S1130A3040688047BDE83240002000F0CFB86349E9
S1130A408968096900281EBF10F1010F604A9042AD
S1130A5006D00A69904203D34B699A18904208D38E
S1130A604A6A904207D3896A891888428041C00F34
S1130A70704701207047002070472DE9F84F534D0F
S1130A80544EA868006900F1700A37460AE09AF8E3
S1130A901010014205D07869FA68816952683846B5
S1130AA09047183738680028F1D14FF47A70FFF76F
S1130AB07CFE07464FF42040002441680091D0F8A2
S1130AC000B000F0DDF858BB0098FFF7B8FF38B36A
S1130AD0A868006990F88E00C00703D400985946AE
S1130AE0FFF794FFBAF812004FF6FF71884208BF6F
S1130AF041F2883007FB00F4FFF747FE8046894641
S1130B0074B1FFF742FEB0EB080061EB0901002568
S1130B10A94201D8A04203D300985946FFF776FFB3
S1130B20374600E0183738680028E9D0F9680968C2
S1130B30384688470028F5D0002FE1D006E0B742B8
S1130B4003D0F16889683046884718363068002831
S1130B50F5D13846BDE8F28F38B500F0C0F800F0A2
S1130B606FF81A4CA06800688047002000F0D0F8A5
S1130B70FFF7F0FD04F1200000F0B5F920680068EB
S1130B808047A06840688047FFF777FFE06101690C
S1130B9019B109680A0018BF8847E069416919B1A9
S1130BA009680A0018BF8847E06800688047E5695B
S1130BB0E06840688047E868C1680800F8D02846C3
S1130BC08847F5E7E480FF1F08ED00E00080FF1F81
S1130BD011040000A80500007047000070B5044629
S1130BE0022C04D0002000F004FA012C0ED00026C0
S1130BF0114D06E04019C16889680A0018BF88478A
S1130C00761C1820704341590029F3D174B900F0BF
S1130C106CF8FFF7B4FD00F01EFA084900200860E4
S1130C20012000F075F800F011F862B6BFF36F8F81
S1130C30BFF34F8F70BD00BFA805000008ED00E0B2
S1130C401E48016841F47851016070471B480168EF
S1130C5021F478510160704719481A4A0168006804
S1130C601268000F401CC1F303615043491CB0FBE0
S1130C70F1F0704710B913480068704700207047BE
S1130C801148124A0168114041F480710160104911
S1130C904A6822F040024A60026842F0130202608D
S1130CA000204FF4FA720B68C3F380131818521E15
S1130CB0F9D1FA288041C00F704700003880044001
S1130CC044800440BC80FF1F18B00440FFF8FFFEBE
S1130CD090F00F4070470000016062B6704772B632
S1130CE00A490020086062B6704772B60748016876
S1130CF0491C0160704705480168022901D200219E
S1130D00EAE70168491E016070470000D481FF1FB3
S1130D102DE9F041594C5A4D010020786FD12968D2
S1130D20616058498968096901F17002117C167F74
S1130D30090906F0010601F0010383F001073E42B0
S1130D40514908D02A68120F4FF0A070521CB0FB12
S1130D50F2F008605AE0527FD24302F00F02521CB4
S1130D600BB906E0521E494B494EB3FBF2F3B342B2
S1130D70F8D3464B474EB3FBF2F3B34228BF521CA1
S1130D80F7D2944616461746DFF80C8101E00CF1C1
S1130D90010CDFF8F8E0BEFBFCFEC645F7D2DFF835
S1130DA0ECE0DFF8F880BEFBF6FEC64528BF761CF3
S1130DB0F5D200E07F1CDFF8D4E0DFF8E480BEFB6E
S1130DC0F7FEC645F6D2012A05D1BCF1090F3CBF96
S1130DD0092E092F1AD2761E3606521E06F07066A8
S1130DE046EA02727E1E360406F4702632432A60F6
S1130DF00B60012100F00CF80120207006E00129AD
S1130E0004D1002100F004F860682860BDE8F08196
S1130E10884232D001292348234B244A1DD15178DA
S1130E2001F0CF0141F020015170117801F0C701A8
S1130E3041F030011170D17801F09F0141F020019F
S1130E40D17000211970117B01F0FC0141F0020105
S1130E50117301780029FCD1704771B9012119700F
S1130E6001780029FCD00420107080205070D078C4
S1130E7000F09F00D070002010737047EC80FF1FBB
S1130E80448004400080FF1FBC80FF1F006CDC0214
S1130E90002D3101010E27070187930381C3C90186
S1130EA041787D01D000C8420800C8420040064095
S1130EB008B904207047C06920B10068022801D134
S1130EC0002070476D20704710B508B9042010BD8C
S1130ED0C469606800F0F3F8A06800F07DF80220AF
S1130EE02060002010BD10B5040001D1042010BD05
S1130EF0224923480968C1F3036130F81100000353
S1130F0001D1642010BD0021216060604FF4807124
S1130F100220A0604FF40060E0601A4890F90020BD
S1130F2091406161C078A061002020612046FFF7F4
S1130F30BFFF20B11448E0612046FFF7C5FF002041
S1130F4010BD08B9042070475B1E194208BF1A423D
S1130F5001D0652070470368994221BF4068C018DA
S1130F605118884201D26620704700207047074913
S1130F70884201D06B207047002070474C800440A9
S1130F8020050000280002405080FF1F6B66656B3F
S1130F9068B1042A02D0082A0BD008E079B11029DC
S1130FA00DD320290BD0A1F12100132807D304204D
S1130FB07047102903D0A1F111000328F7D20020B3
S1130FC070470000016841F470010160BFF36F8F46
S1130FD0BFF34F8F7047704710B504460B480C4958
S1130FE00A1A411E204600F099F80A49601C08605C
S1130FF010BD38B504002000FFF75AFF0500002D8E
S113100003D1054803490968884731BDC50F00006D
S1131010D70F00005C81FF1F04F0014080B5184920
S11310201848086018491948421A194888421CBFD0
S1131030002A00F073F817481749091A18BF00F07E
S1131040A9F816491648421A04D0BDE808401548C4
S113105000F064B801BD14484FF0FF3101604160F5
S11310608160C160016141618161C1610F480160BA
S113107041608160C160016141618161C16170470A
S113108008ED00E00000000030380000F0380000F7
S11310900080FF1FC080FF1FD083FF1F8039000026
S11310A080390000D083FF1F80E100E080E200E08F
S11310B08021017001780906FCD57047704710B58E
S11310C00446124812490A1A411E204600F026F826
S11310D01049601C086010BD10B50F4C70212170C0
S11310E0FFF7E6FE88B90B4909682046884720784F
S11310F0810601D5672010BDC10601D5682010BD49
S1131100C00701D5692010BD002010BDB11000003A
S1131110BD1000006081FF1F0000024062B38B0716
S113112008D0521E11F8013B00F8013B00F0248066
S11311308B07F6D1830740F0208000BF103A07D315
S113114030B4B1E83810103AA0E83810F9D230BC05
S1131150530724BFB1E80810A0E8081044BF51F8B1
S1131160043B40F8043BD20724BF31F8022B20F89B
S1131170022B44BF0B7803707047083A07D3B1E8D9
S11311800810083A40F8043B40F804CBF7D2530760
S1131190E4E70000002200F001B80000401810F05D
S11311A0030308D0C91A1FD3DB0748BF00F8012D79
S11311B028BF20F8022D130030B414461546103908
S11311C028BF20E93C00FAD8490728BF20E90C00D1
S11311D048BF40F8042D890028BF20F8022D48BFDD
S11311E000F8012D30BC7047C91818BF00F8012D54
S11311F0CB0728BF00F8012D70470000BFF34F8FC5
S11312000448054A016801F4E06111430160BFF339
S11312104F8FFEE70CED00E00400FA05EEE7EDE782
S1131220ECE7EBE7DFF8F015C968C968002008604F
S113123070472DE9F041DFF8E055E86982B00024F9
S11312408DF801404669002E62D0E968C9680A68D1
S1131250012A4CD001F1080274680023091DA0473B
S113126004001FBF42F21270844242F2137084429F
S11312704ED1E868C168D1F80880B8F1000F47D0B2
S11312804E68377837B1122F04DA806800EBC70054
S1131290083800E00020086200281CBF006800280D
S11312A01CD000A905F1200000F0C0FA040017D1F9
S11312B09DF8000048B14FF4E750791E20FA01F27E
S11312C0D00758BF42F211740AD5EA68D268126A8C
S11312D01268414630469047002406E042F21074FA
S11312E03946204600F01FFA94B901200DE0086A3F
S11312F048B14168080003D00DF101008847044655
S11313000CB1002001E09DF80100E968C96808609B
S11313102046BDE8F68180B50178002000F003FA8C
S1131320DFF8F404C0694169096988470220FFF7BE
S113133055FCBFF34F8FDFF8E404DFF8E4240168C1
S113134001F4E06111430160BFF34F8FFEE7DFF862
S1131350C804C068C06814210C3000F081BA10B50C
S1131360044600F09EFBFFE72178BDE81040DAE177
S113137010B5DFF8A424126852690446A1686068B5
S11313809047F1E710B500F04AF8DFF88C04C06824
S1131390C06861680161082101770020217800F0AC
S11313A0C2F9BDE8104000F02CBD30B583B0DFF8C1
S11313B06844A56800210191009100AB81684068F0
S11313C0AD6801AAC9B2C0B2A847E268D2680021D8
S11313D0116100998A08019900F0B9F937BD10B577
S11313E0DFF834249268D26804466068A168C0B209
S11313F09047B9E710B500F012F800F012F8042194
S113140001770020B0E710B500F009F800F009F802
S1131410032101770020A168BDE81040AEE1044635
S113142095E7DFF8F403C068C068A16801616168EA
S11314304161704738B5DFF8E0530446E868C06896
S1131440002141610161007F042804D128680069FA
S1131450804704B90446E868C068017F204600F06C
S113146062F942F21270844208D1E868C068007FD1
S1131470082804BFBDE8314000F005BD31BD2DE9A9
S1131480FC4100F0C2F821B900202070FFF7D2FF20
S11314905AE0012121700669476900200090012368
S11314A0E869D0F814C0DCF804C000AA01A9E04738
S11314B05FEA000805D0E8694169C9688847404681
S11314C003E0009830B942F21270FFF7B3FF002036
S11314D020703AE0B04288BF30460090E868C068A7
S11314E0017F082913D10199C16000998161019894
S11314F0009900F090FC804642F27D7080451CBF4C
S113150042F2747080450BD14FF0000808E02B685C
S1131510019A00999B683846984780460098C719F5
S11315200098361A06D0B8F1000F09D0E86941696D
S1131530C96888474046FFF77DFF0020207003E01C
S1131540E868C068066147610020BDE8F6812DE9BE
S1131550F04700F05AF88AB021B900202070FFF754
S113156069FF4EE00121217006694769C168027F65
S1131570212E2CBF4FF02008B046A9B1424601A845
S1131580FFF7CCFDE869D0F814C0DCF808C00123EB
S1131590424601A9E047A6EB080606B168B3FFF787
S11315A049FF002020702CE0032A08EB070906D12C
S11315B02B685B6801AA4146384698470CE0102A1C
S11315C018BF4F46DED1407F0090434601AA3946FA
S11315D005F1200000F07CFC5FEA000A4F46D1D000
S11315E0E8694569AD680123002201A9A84750466E
S11315F0FFF720FF0020207004E0E868C06806615F
S1131600476100200AB0BDE8F087834D0446E868CE
S1131610C0680169704710B57F4B1B68DB680446DE
S1131620E268A168606898479EE62DE9F0410546A6
S11316307C4C6E68D5F80880E868774920600027FC
S113164049680C3130B10A68904223BF4968491C8B
S1131650814204273046FFF7F2F900B904272978BC
S1131660384600F060F89FB966600020FFF7B6FACC
S11316702068C4F8088018B180F3088880F30988CA
S1131680616840468847BDE8F0410020FFF7A6BAEC
S1131690BDE8F08138B504466068FFF7D0F908B9B1
S11316A0042005E065680120FFF798FAA068A847C0
S11316B02178BDE8344036E010B50446211D5A486F
S11316C000F04EFC50E610B50446A3686168564825
S11316D004F10C0200F06CFC46E61CB5044600A8BC
S11316E00021002206C0A36861684F4800AA00F0E8
S11316F08BFCA26800A900F045F813BD10B5FFF7F4
S11317008EFE4548C168C968A2680A6162684A6178
S113171010220A77C068C068E16841770020A16898
S1131720BDE810405BE010B584B0A02201908DF8B4
S11317300020002200F06AF88DF8022002910222B3
S11317408DF8032000234469A4680C225BE010B5E3
S113175088B0A72300F03AF80020531C8DF803301A
S113176006E000AC51F8203004EB8004401CA36078
S11317709042F6DB00F021F800231AE010B584B0A3
S1131780A3222FE010B588B0AF2300F01FF8022386
S11317908DF8033040B99008801C8DF80300029244
S11317A003A8FFF7CBFC01E000200290002300F027
S11317B004F800A9A04708B010BD1748C0699DF8F7
S11317C003104469A46889000A1D70478DF800302D
S11317D0019000238DF801308DF80230704710B568
S11317E084B0B0228DF800200190012200F00EF8A0
S11317F0029100228DF80220002302228DF803209A
S11318000C224469A46800A9A0471FBD0248C0690E
S11318108DF80120704700000080FF1F0CED00E0F0
S11318200400FA051881FF1F2080FF1F002818BF3D
S1131830002901D1042070470848007800F0030211
S1131840022A08BF002005D000F0C00080280CBF89
S11318500120022008700020704700BF02000240EF
S1131860002200F0FDBB000038B5C64C65682A466E
S1131870042104F1200000F00DFC00AA012104F170
S1131880200000F007FC286800990818401E6860D2
S1131890002032BDF8B50446BA480D46416B1646E1
S11318A04A4202EA0401671AEF197F423A4000AB48
S11318B05242203000F012FC48B99DF8000008B1F3
S11318C06C20F2BD32462946204600F04BFCF2BDA6
S11318D02DE9F04FDFF8AC828146D8F808000069A2
S11318E00D4687B0AE08B600046B9246AF1B04B138
S11318F001244FF0FF3004902FB13A4606EB0A0161
S113190004A8FFF70BFCFFF7F0F968428008800099
S1131910414203AA484600F010F9050002D0FFF73F
S1131920EAF93DE09DF80C0000B1002406EB090B38
S113193046B133465246494608F1200000F044FCC3
S1131940050008D13FB1042304AA594608F1200038
S113195000F03AFC0546FFF7CEF90DBBE4B20CB338
S1131960FFF7C3F976B105A80290534606A8019083
S1131970324600F01BF8494608F1200000F056FCFE
S113198005000AD14FB100F05FF800F00FF8594696
S113199008F1200000F04AFC0546FFF7ACF90DB150
S11319A0284600E0002007B0BDE8F08FD8F8080012
S11319B00069806DC0B2009070472DE9F041714D0F
S11319C08046A8680069066B88B006B101264842C3
S11319D0800804928000474203AA3946404600F03A
S11319E0ACF804002AD19DF80C0020B1002602E0D6
S11319F008F104083F1F1FB3FFF777F9042304AA73
S1131A00414605F1200000F0DFFB0446FFF773F9BF
S1131A10A4B9002EECD0FFF768F900F015F8A86817
S1131A200069806DC0B20090414605F1200000F0CD
S1131A30FDFB0446FFF75FF9002CD9D0204600E0F7
S1131A40002008B0BDE8F08105A8029004AB06A808
S1131A50019004227047F8B504460D46FFF745F996
S1131A60484E494B2A46214606F1200000F00EFC60
S1131A700746FFF740F997B9B0680069006B70B189
S1131A80FFF733F9B0680069836DDBB22A4621465B
S1131A9006F1200000F036FC0746FFF72CF9384623
S1131AA0F2BDF8B5374EB068006900F16004002556
S1131AB0216821B96268521E9241D20F00E00022CF
S1131AC08369406BB8B1B2B95F4231B1394004D0D7
S1131AD00020FFF7C0FF05002DD1716860684968D8
S1131AE0404238404042884225D2491C091AFFF737
S1131AF0B2FF05461FE0FFF7F8F8234906F120007E
S1131B0000F03EFC0546FFF7F6F8A5B9B068006999
S1131B10006B68B1FFF7E9F8B0680069816DC9B27C
S1131B2006F1200000F044FC0546FFF7E4F815B97F
S1131B301649012008702846F2BD38B51546002222
S1131B402A700A460F4C014600AB04F1200000F055
S1131B50C5FAA8B99DF8001029709DF8001079B154
S1131B600A4D297861B9A0680069816DC9B204F190
S1131B70200000F01DFC08B16C2032BD0121297049
S1131B8032BD00000080FF1F6B66656BCC83FF1FB6
S1131B90416882688A4209D2891A416082660FF2DA
S1131BA0ED110160012181600020704742F27870DC
S1131BB070470FF2050113E0416ADFF8F4324A89F5
S1131BC08282CA68921E42604A689A4202D1097AA5
S1131BD0022902DB42F2757070470FF20D0100BF5B
S1131BE0016000207047000010B5044682B0606AAE
S1131BF041686268A1610168C91E9142A16002D373
S1131C0042F2767016BD008910B142F2777016BDAB
S1131C108DF8000000A9A748FFF708FE9DF8000012
S1131C2010B142F2817016BD2046FFF7B1FF16BD18
S1131C3038B5A14D2B689B680446626A216EE06D3D
S1131C40984780B928680069804760B900F03AF87D
S1131C5000F033F80098616E884200D038E00FF24B
S1131C602D102060002032BD38B50446924D00F09E
S1131C7029F82B68626AE06D9B6810219847D8B9EF
S1131C80E06D1030E065206E10382066112828BF02
S1131C908A480FD208B18A480CE028680069804756
S1131CA050B900F00AF80098616E884200D00FE045
S1131CB00FF2D9002060002032BD00A904F11C00FD
S1131CC000F0B0BB616A102204F11C0000F082BB7A
S1131CD042F27A7032BD10B5044604F11C0000F0E3
S1131CE073FB206E11282CBF7448754890E0724B2A
S1131CF01B68426E016EC06DDB68184710B5044660
S1131D0042F27F70E26D11000ED0606E04F1180192
S1131D109047012803D12046BDE8104038E7022847
S1131D2002D100F06EF8002010BD10B500F15C0186
S1131D30031D1C684A685A60944202D242F27670CB
S1131D4010BD0A7AD20707D50A685C69A24203D19A
S1131D5048689860002010BD90F85A10C9075CBF0D
S1131D60BDE81040FFF714BF42F27C7010BD90F83C
S1131D705A10C90748BFFFF794BE4F4A1268526908
S1131D805C3041680068104700000000B0B50446AC
S1131D9004F15805606A0FC885E80F005A2701202E
S1131DA0415D7F18401C1028FAD32878F9B2884284
S1131DB002D042F27970B0BD687807281ED8DFE8F7
S1131DC000F01B04080C10131B172046BDE8B0409C
S1131DD0ABE72046BDE8B0407DE72046BDE8B04013
S1131DE085E742F21270B0BD2046BDE8B04085E7F9
S1131DF02046BDE8B040BAE70020B0BD42F27B7097
S1131E00B0BD10B52F4C70212046FFF729FD2E4898
S1131E102060002010BDF8B504460D4600200026C1
S1131E202A4FAE4217D03869C0F11000A91B09E04F
S1131E3079B13B69325DDA55761C3A69521C3A61D4
S1131E40401E491E0028F3D1386100F005F810B98E
S1131E50E7E742F27D70F2BD1A491C4A4A6200204B
S1131E60CA6842B10869904202D2401C086104E089
S1131E7042F2747070478A6E12B9084609680847BE
S1131E80521E8A66704738B50E4890F859100429D6
S1131E900CD100F15C042568280004D00020FEF772
S1131EA09DFEA068A84742F27E7032BD002032BD7C
S1131EB053544D502080FF1F0080FF1F691C0000F9
S1131EC0311C0000AC82FF1FB31B00001C83FF1FEA
S1131ED02DE9F8435FEA0008914614BFB9F1000FF9
S1131EE004200F461D4619D0089C22462946384630
S1131EF000F01AF890B904E0716849F8041B3F1D1A
S1131F002D1F5DB10648066806483760032101703D
S1131F1004724046FFF7E0F80028EDD0BDE8F283F4
S1131F20400500000700024010B510F0030F08BF81
S1131F3011F0030F01D0652010BD022A0EDA0C182F
S1131F40641E012A06D1002804BF481E072805D1B3
S1131F50002010BD002AFBD1FF2CF9D9042010BDAC
S1131F6010B50A46002818BF002A01D1042010BD6C
S1131F700E4B1C78002104F00304022C14D04521DC
S1131F80597111785972517819729178D971D1783F
S1131F90997111795973517919739179D972D179E8
S1131FA09972FFF799F80146084610BD02000240F5
S1131FB0F8B5160004460D461F4601D10420F2BDB3
S1131FC03A46FEF7E5FFC8B90D4843214170057054
S1131FD0102D0C4800683168416003D0A5F111014F
S1131FE0032903D2082F04BF716881602046FFF7DC
S1131FF073F805462046FEF7FCFF2846F2BD00BFF5
S11320000600024040050000F8B5150007460C46DE
S11320101E4601D10420F2BD3246FEF7B9FFA8B92D
S11320200B484121417004703846FFF755F868B9F0
S1132030084909684A682A60102C03D0A4F11102E7
S1132040032A03D2082E04BF89686960F2BD00BF69
S1132050060002404005000062F30F2262F31F42B3
S113206000B500BF130096469446103928BFA0E877
S11320700C50FAD85FEA417C28BF0CC048BF40F836
S1132080042BC90728BF20F8022B48BF00F8012BF6
S113209000BD0000002818BF002A01D104207047A9
S11320A0072918D8DFE801F004080A0D0F111315E9
S11320B0C0681060002070474068FAE74068400834
S11320C0F7E78068F5E70068F3E70120F1E7406986
S11320D0EFE78069EDE76A20704700002DE9F041E1
S11320E080461E000D46174608BF042034D0042342
S11320F0FEF727FF80BBD8F814307A195F42C2F18B
S1132100000C07EA0C0CCCF1000C2F40ACEB0707D9
S11321100021B7FBF3F7DFF844C00AE0DCF800E085
S1132120203C6FEA0E0E2EFA04F4E40748BF491C63
S11321305D1995420AD2B5FBF3F4202C38BFDCF8C4
S113214004E0EED3D8F818E07445E7D319B1B942E6
S113215034BF022101213170BDE8F0811800024032
S113216000F076B9134680B50A4601461846FEF7D4
S1132170D5FF002002BD70B510F0030F0C461546C4
S113218012D0B0F1005F0FD22118491EB1F1005FE7
S11321900AD3C0F1005632462946FEF7BFFFA21B00
S11321A071194FF0005001E022462946FEF7B6FFB0
S11321B0002070BD10B514460A462146BDE8104003
S11321C0012300F07FB900002DE9F0410446150019
S11321D00E461F4608BF042022D004233A46FEF7C9
S11321E0B0FE5FEA000802D01AE0361D3F1F9FB11F
S11321F00C480068066055F8041B416006200A4933
S113220008702046FEF768FF80462069010018BF69
S11322108047B8F1000FE8D02046FEF7EAFE4046BA
S1132220BDE8F08140050000070002402DE9F041BF
S113223006465FEA03080D46174608BF04201ED071
S11322400423FEF77EFED0B9069C01E03F1F2D1D3E
S1132250AFB10C480C490068056002220A700C7189
S113226058F8041B81603046FEF736FF0028EDD095
S1132270079901B10D60089909B100220A60BDE80F
S1132280F08100BF40050000070002402DE9F04145
S1132290984604460D4616460823FEF752FE0700EC
S11322A01AD17019461EE068B6FBF0F100FB11620A
S11322B02AB1491C4843461E01E0E0684519AE4274
S11322C017D30E480E49006805600920087040467F
S11322D0FEF74DFE070002D03846BDE8F0812046E7
S11322E0FEF7FAFE07462069010018BF8047002F59
S11322F0E3D02046FEF77DFEEEE700BF4005000078
S1132300070002402DE9F84F984604460D469246D0
S11323100823FEF716FE60BB6068A168164FB0FB89
S1132320F1F96842C9F1000108404642AE4208BFD3
S11323304E4403E0AAEB0B0A5D444E44BAF1000F8D
S113234016D00E4909680D60701BD346824588BFBC
S11323508346012139704FEADB00010A3971F870B4
S113236087F802802046FEF7B7FE0028E2D000E09E
S11323700020BDE8F28F00BF0700024040050000C6
S113238038B50400084601D1042032BD074A44216F
S11323901170FEF7ECFD050007D12046FEF79CFE08
S11323A005462046FEF725FE284632BD07000240BA
S11323B008B904207047034A402353701170FEF794
S11323C08BBE00BF060002404FF0FF3101600021C8
S11323D0416070477FB5044601208DF800000E4629
S11323E02068019015460E4802900020ADF80C00BC
S11323F08DF80E006DB1FEF778FC00A9002000F006
S1132400ABF82A463146002000F0BFF80190FEF7F1
S113241072FC019820606068281860607FBD00002D
S1132420B71DC10438B504460D46207910F00300E9
S113243007D000A900220A60C0F104022046FFF779
S1132440C9FF20682860002000F090F831BD00002A
S11324501A480068000B00F00F00C01E08282BD893
S1132460DFE800F005080B0E1114172A1A004FF4C8
S1132470804013E04FF4C04010E04FF400400DE002
S11324804FF440400AE04FF4803007E04FF4C0308E
S113249004E04FF4003001E04FF48020084949681B
S11324A00322B0FBF2F0C0F1005241F80C2F6FF0A0
S11324B0604202EB40004860002070470070044016
S11324C00080FF1F002A01D101207047F0B41F468D
S11324D0034603242340002B09D00424E31A01708B
S11324E001300824E141521E26D05B1EF7D1042A94
S11324F01ADB13D0002F11D00C460D460E46102ABD
S113250002DB72C0103AFAE70C2A02DB32C00C3A42
S1132510FAE7082A02DB12C0083AFAE7042A03DBC6
S113252001600430121FF9E7002A05D00170013060
S11325300824E141521EF7D1F0BC0020704700008E
S113254008304001484A115070478268920092084E
S113255042EA81718160704709B90120704720B94E
S1132560424A136843F48023136051E0404951F810
S1132570201041F221024A6000228A6020B93B48BF
S1132580016821F4802101607047F8B50E4638498E
S113259051F82040A068870F154605D0022F07D0B8
S11325A004D3032F06D00EE0032104E0022102E04D
S11325B0012100E000212046FFF7C7FF03E016F8E1
S11325C0010B20706D1E16F0030006D0002DF6D10D
S11325D003E056F8040B20602D1F042DF9D2012DC1
S11325E00AD00BD3032D03D03CBF3088208005E0F4
S11325F030882080B07800E030782070204600F0E9
S11326003DF8054639462046FFF79FFF2846F2BDB0
S113261070B50C0001D1012070BD154951F820504E
S1132620144905F108004601207888512846217B89
S1132630FFF78BFF607BA968000721F0405100F091
S113264040500843A8600C49A07B88510121A06830
S113265068602846FFF774FF6068286000212846F8
S1132660FFF76EFF002070BD640000423C80044010
S11326705C050000600000426800004200F10802AE
S113268052010A4B9A580021D2B21AB1012A08BF4A
S1132690016808E08168090F01F0030102291ABFEB
S11326A00329018841880846704700006000004201
S11326B040682C49405C70472B494A6842B10A681B
S11326C013780370501C08604868401E48607047C7
S11326D000210170704710B55A280CD1214A0123FA
S11326E08B54142404FB01210FF20D03CB60BDE8CD
S11326F01040D16A084710BD1A49C96A084730B565
S1132700184DE96285B0044600A80FF26001142256
S1132710FEF714FD6068A2680221904760681421E6
S113272001FB00510A1D00A900F091F8002005B03A
S113273030BD10B504460B486168142202FB010049
S1132740001D00F0EAF86068A268BDE810400021AE
S1132750104705480160426041680029FCD100200F
S1132760704700002C81FF1F2481FF1FB926000041
S1132770D72600000000000008000000010100004E
S11327802DE9F041044682B0D4F800800FF2E41041
S113279050F82870F86A261D00012BD5B268100085
S11327A028D041464FF49670904723E000F04BF850
S11327B020699DF80050092805D300F044F89DF8DD
S11327C0000045EA00252069112805D300F03BF8F4
S11327D09DF8000045EA00452069192805D300F05A
S11327E032F89DF8000045EA00657D63F86A40F020
S11327F00070F862F86A8001D8D4F86A800320D5A2
S1132800BD6BF86A40F40030F86241467268E8B281
S113281090472069092804D3280472684146000EB1
S113282090472069112804D3280272684146000E9B
S1132830904720691928E0D372684146280E9047D2
S1132840DBE7BDE8F3813268414600A81047F0B5E4
S113285004460FF2201050F824700D46164685B039
S113286014213046FEF7FCFF0ECD301D0C3D0EC08A
S11328703460E86830613D4814B1012C04D007E0AD
S1132880016841F4805102E0016841F400510160A3
S1132890384600F09AF800208DF80000ADF80C00DE
S11328A000A9E8680190287C8DF80800687C8DF800
S11328B00900384600F066F868BB386820F48040A8
S11328C0386001220121384600F0ABF82848002185
S11328D000F8341000EBC400012246601921384688
S11328E000F0EAF801221121384600F0E5F801224F
S11328F01B21384600F0E0F8002078630121F86AD3
S113290040F00070F8622046FEF738F83868400856
S113291040003860002005B0F0BD70B505680FF2C6
S11329205400124C50F8256015B1012D06D00CE06E
S11329302068C00418D50021002004E02068800429
S113294012D500210120FEF719F8304600F03DF8B9
S113295015B1012D04D070BD206820F4805002E030
S1132960206820F40050206070BD00003C800440CA
S1132970A481FF1F00C0024000D002404001474A2A
S11329801150704738B50D4604462878444A610111
S1132990C043505000212046FFF7F0FF2A1D0021BC
S11329A0204600F044F810B140F2311032BD6A7B89
S11329B0297B204600F021F800F001F832BD2068A0
S11329C020F0405020600020704710B504460122DA
S11329D0206820F4804020600120206001462046C9
S11329E000F01FF82F48E0620020A060E060206142
S11329F0206344F20100206010BD30B50368C3F3C6
S1132A0080331BB1046824F4804404604401264DDF
S1132A10295126490A511BB1016841F480410160E2
S1132A2030BD4001224B195022490A50704730B53D
S1132A301568042D09D3112D02D30368DB0F04D1CB
S1132A40212D05D30368DB0F02D140F2311030BDD4
S1132A5000EB81016D1E537914790068ED065B0665
S1132A60A406C00FC86803F0007304F080640CD09F
S1132A7020F0FE4005F0F0459279284320431206E9
S1132A80184302F08072104304E020F0FC40284315
S1132A9020431843C860002030BD00007C00004281
S1132AA03800004200000A9A34000042300000421C
S1132AB02C0000422800004210B5036B01248C4016
S1132AC0A34302FA01F11943016310BD80B509491A
S1132AD001EBC00211F8300028B1074840B150683A
S1132AE0C046C04601BD054810B15068FFF748FE16
S1132AF001BD0000A481FF1F000000008127000029
S1132B000020E3E70120E1E7002000E0012038B5E0
S1132B100FF2781151F82040594901EB0013E17884
S1132B20E27801F012052A43E27001F05002102A03
S1132B3010D04A0614D54807A0780CD540F01000F0
S1132B40A07000208DF8000000A8196888479DF83F
S1132B500000207131BD00F0EF00A070207931BD7C
S1132B60A278C2F300121AB1C807EAD5A078F2E736
S1132B702279014610465A68904731BD0FF20C1174
S1132B8051F8200000218170017081717047F8B5FF
S1132B9004000FF2F8003A4F50F824600D4695E80F
S1132BA00F0007EB041787E80F00364801680CBFD5
S1132BB040228022114301600020B0700121402096
S1132BC0B0710220F0702046FDF7F4FE3078297BC6
S1132BD040084941317000207071B0717070B07854
S1132BE040F08000B070B07840F04000B070F1BDAB
S1132BF038B50500234C03D12068400605D431BD07
S1132C00012D10D1206800060DD500212846FDF7BE
S1132C10D1FE2846FFF7B2FF2068002D0CBF4021EB
S1132C2080218843206031BD30B50FF2600353F832
S1132C3020004FF47A73B1FBF3F1134BB3FBF1F1C2
S1132C40002300E023465C1C01FB04F59542F9D304
S1132C502BB90A2462438A4204D3012302E0202BC5
S1132C6028BF1F23817901F0A00103F00F02114353
S1132C70817130BD024A02EB0010416070470000D0
S1132C80B481FF1F3480044040420F0000600640BE
S1132C900070064040682F494018007C70472E4958
S1132CA04A6842B10A6813780370501C0860486887
S1132CB0401E4860704700210170704725494969EA
S1132CC0084738B504465A2C08460BD1214D421901
S1132CD0012111742149FFF7CDFF6969BDE8344032
S1132CE05A20084731BD10B504461A49FFF74FFF73
S1132CF0FDF7B2FF01462046BDE810403222FFF73F
S1132D0093BF10B5044613484161154989680969A0
S1132D1091F88110FF2918BF01736068A26802212D
S1132D2090476068FFF7DFFF002010BD10B5044630
S1132D306068FFF75DFF6068A268BDE8104000218D
S1132D40104705480160426041680029FCD1002019
S1132D50704700005C80FF1FD881FF1FBD2C00005E
S1132D600080FF1F70B50D0082B00446164601D1E5
S1132D70002076BD00AA00F071F830B9009B9B6872
S1132D805B68324629462046984776BD70B50D00EB
S1132D9082B00446164601D1002076BD00F07FF8CB
S1132DA000B14CE000F047F868B9009B9B689B6851
S1132DB032462946204698474E49002806BF009AC5
S1132DC0926800220A6076BD38B504460D4600AA12
S1132DD000F044F8A0B900988068406908B96620FA
S1132DE032BD2946204600F05AF810B142F2D8709C
S1132DF032BD009A9268526929462046904732BDF6
S1132E00002DFCD1002032BD70B50D0082B0044607
S1132E10164601D1002076BD00F041F800B10EE065
S1132E2000F009F830B9009B9B68DB6832462946FC
S1132E302046984776BD00AA294620460EE042F275
S1132E40D87076BD10B52B4C2168002029B10969D2
S1132E500A0002D088470021216010BD70B5264CBD
S1132E606468002918BF002A42F2D87314D000E025
S1132E700C348CB12568002D04BF6668002E01D186
S1132E80A6684EB1A84224BF65688542F0D30818ED
S1132E90401E854228BF00231460184670BD30B51B
S1132EA0154A92681269536BA3B10918491E00238D
S1132EB002EBC304603465682468002C08BF002D4D
S1132EC005D0854228BFA14201D3012030BD5B1C3F
S1132ED0022BEDDB002030BD10B50748446804E048
S1132EE00068010018BF80470C34A0680028F7D19F
S1132EF010BD0000E081FF1F0080FF1F10B5934844
S1132F008068006900F1700430224AF2C031204622
S1132F10FEF714F920688E49884204D0FF2230213C
S1132F202046FFF799F8FDF7D5FE002010BD38B50F
S1132F30864DA86804694B20E07004F1100201205A
S1132F40A070042105206070012020705020E071E1
S1132F500120A07102206071002020715420E072D1
S1132F600120A0720020607220720120206360633F
S1132F704EF6FF70A06300F05BF804F11402012127
S1132F8000F056F804F11802002100F051F804F1A1
S1132F901C02022100F04CF804F12002032100F08D
S1132FA047F804F14C02052100F042F804F1500204
S1132FB0062100F03DF804F15402072100F038F82E
S1132FC0A069644A404252424FF0FF310240891ADC
S1132FD0614A61661040206600216048A06660482E
S1132FE0E0666869E16007E094F88030134202D03B
S1132FF0E3681A43E260491C182202FB01021268CA
S1133000002AF1D157480168A1644168616481686C
S11330102164C068E063686850F80C1F616241680D
S11330200068081A401CA0620120A065002032BD7F
S113303005F12000FFF72EB8F8B51446434A4A4F6D
S113304091680426401E096917281D464CD8DFE8FC
S113305000F00C121416181A204B4B22262D241C97
S11330601E30333E414345474B4905B12E6004B100
S113307021600020F2BD0C31F7E71031F5E714317F
S1133080F3E71831F1E72031EFE72431EDE7283198
S1133090EBE73831E9E73031E7E73431E5E7D06988
S11330A041694969884738603946DEE7102660314E
S11330B0DBE72E480068F6E700A902F12000FEF7DE
S11330C0B5FB9DF800000028EDD00120EBE71026A9
S11330D03C31CAE74C31C8E75031C6E75431C4E744
S11330E05831C2E70831C0E742F63C00F2BD174A46
S11330F092681369401E062842F63E0220D9093818
S11331000CD0401E01281BD9801E0DD0401E032860
S113311016D908380ED0801E12D014E0002918BF2A
S1133120012909D119637047002918BF012903D166
S113313059637047032901D3104670479965704756
S113314042F63D00704742F63C0070470080FF1F86
S11331506B63666780390000000000000080FF1F79
S1133160CF85FF1F54800440A882FF1F24800440A1
S1133170012100F01F0291406D4A04E0012100F09A
S11331801F0291406B4A400942F820107047002109
S1133190C1708170017004214170002181724174F9
S11331A07047F8B5644E3360130191FBF3F63301B5
S11331B00025B1FBF3F3044693424FF0FF3038BFD0
S11331C0761E00D310D001274B0007EB461CB3FB3F
S11331D0FCF39A4234BF9B1AD31A984224BF184670
S11331E03D467F1C212FEFDB642192FBF1F101EBC3
S11331F0410188423FD25149514F8C4206D0514936
S11332008C420AD050498C420ED014E01F20FFF7A4
S1133210AFFF386840F480600CE02120FFF7A8FF7E
S1133220386840F4006005E02320FFF7A1FF386808
S113323040F480503860E07800F0F300E070310A28
S11332400020A07001F01F01207800F0E000084386
S113325020706670A07A00F0E0002843A072C020BD
S11332606074E07840F02000E070E07840F00C00FA
S1133270E0700020F2BD0120F2BD02791206FCD5F7
S1133280C171704731480178890600D50AE070475A
S11332902F4801788A0701D5C0787047890600D580
S11332A000E07047C0782449096808472948017834
S11332B0890600D5F6E7704758B52049204E884264
S11332C0044606D01F4988420AD01F4988420ED0BE
S11332D014E01F20FFF752FF306840F480600CE0D8
S11332E02120FFF74BFF306840F4006005E0232005
S11332F0FFF744FF306840F4805030602046FFF709
S113330046FF0E48844206D00E48844207D00E4839
S1133310844208D051BD306820F4806006E03068F3
S113332020F4006002E0306820F48050306051BD29
S113333000E100E080E100E03083FF1F00A00640D0
S11333403480044000B0064000C0064004A006409B
S113335004B0064004C0064038B5044600A96068BD
S1133360FDF78FF908BB6068FDF784FC01466068CF
S1133370012804D002280CBF2A482B4800E02B481F
S11333802B4D009A2B68FFF70CFF58B96068A268B0
S11333900221904729685A2088472968A62088472F
S11333A0012032BD6068FDF753F9002032BD10B52D
S11333B004461F4801606068A26801219047606864
S11333C0FDF746F9002010BD10B5044660680128D9
S11333D004D002280CBF1348134800E01348FFF739
S11333E06BFF6068FDF74BF96068A268BDE81040A8
S11333F00021104770B504460D46164602E00978D0
S1133400FFF73BFF3046461E58B1294660684D1C05
S1133410012804D002280CBF02480348EFE7034800
S1133420EDE770BD00C0064000A0064000B00640B5
S11334303483FF1FA649D1F88820531C5218C1F8C1
S1133440883082F82000D1F8880000F03F00C1F8ED
S11334508800704700207047B8E02DE9FC410C005B
S1133460154614BF002D0420984628D0984F0020FC
S113347007F190062860707000F0A8F818B11EE0FB
S1133480A22000F075F820213846FEF7E9F94246FB
S1133490394600A800F0E7F810B1002129600EE0D9
S11334A0394600A800F030F9BDF804108142E7D194
S11334B0012030702760BDF8020028600020BDE8BC
S11334C0F6812DE9F0410C0082B015461E4635D038
S11334D0212D33D200F07AF800283FD1DFF8F081B3
S11334E098F8910010B1002088F8910008F1600765
S11334F05A203870A42078700EB1A52078707D8091
S11335002DB12A46214608F16600FDF707FE08F1B1
S11335106601384600F0F8F8B880A91D384600F076
S113352064F8D8B900A800F0DDF8B8B99DF8010036
S1133530A12812D0A22806D0A32801D004200DE08F
S113354042F212700AE07888811D384600F04DF886
S113355020B99DF80100A228E4D00020BDE8F6813E
S11335605C48012181700021017070472020704760
S113357080B55A218DF800108DF8010001205449BE
S113358081F89100022100A800F02FF802BD10B5C7
S1133590044650480178427880781140014282B054
S11335A011D10FF294100088ADF8000002222369B3
S11335B05B6800A92046984723690FF280115B6875
S11335C008222046984742F2137016BD41480178FC
S11335D019B100210170A12004E0817819B1002102
S11335E08170A320C4E7002070473B4AD3690A4690
S11335F0014618461B695B6818472DE9F14F8B4655
S11336001446FDF7C2F806464FF47A7089466043C3
S1133610FDF7CBF80025DFF8B8A00446A8460AF168
S113362088070EE07868396888420CD050440099C5
S113363090F8200068546D1C7868401C00F03F002E
S113364078605D450CD0002CECD0FDF79EF8801B13
S113365061EB0901414501D8A042E3D3052000E014
S11336600020BDE8F28F70B582B005460C461646C0
S113367000F038F858BB6878A62804D11648C06909
S1133680FFF785FF76BDA42106B1A521884201D0AC
S1133690012076BD00F022F8BDF800106980B0B9B1
S11336A008462128A8BF2020688000F017F8BDF83C
S11336B00010A98058B9698849B12046FDF76AFD10
S11336C069880A2000FB01F22046FFF796FF76BDC9
S11336D03883FF1FC883FF1F0080FF1F14220221AD
S11336E000A88AE710B50446002201212046FFF70E
S11336F084FF40B920785A28F6D1601CBDE81040F8
S11337000A22012179E710BD30B583B004460D4685
S113371000A800F017F80422214600A800F015F8CC
S11337206288294600A800F010F801A900A800F05A
S11337302FF8BDF804003EBD5AA700000002015056
S11337400000AAEA0021018070477FB504460020EA
S11337508DF800000D4620880190164641F22100A4
S113376002900020ADF80C008DF80E006EB1FDF74C
S1133770BCFA00A90020FEF7EFFE324629460020DD
S1133780FEF703FF0190FDF7B6FA019820807FBD94
S1133790008808800020FEF7E9BE000007480168A1
S11337A041F4700101604CF220510548C1814DF68D
S11337B02811C1814FF4E9710180704788ED00E060
S11337C0002005404EF68851CEF20001086840F40E
S11337D070000860BFF34F8FBFF36F8F4FF000701E
S11337E0E1EE100A7047000000F00BF8002801D049
S11337F000F00AF80020C046C046FDF7ADF9FDF719
S1133800EBF901207047000010B5074979441831DD
S1133810064C7C44163404E00A68081D5118884795
S11338200146A142F8D110BD480100005401000036
S1133830780500007480FF1F080600004080FF1F09
S113384000000000A80500000000000000000000C7
S11338500000000000000000000000000000000064
S11338600000000000000000000000000000000054
S1133870251200003312000068040000F480FF1FCA
S1133880000000006481FF1F8481FF1F9F2C000043
S1133890C32C0000E72C0000100000000000000012
S11338A00000000000000000FFFF070044050000C6
S11338B00080FF1FFFFF0020900500000000004073
S11338C0FFFF0740F004000000F00F40FFFF0F402F
S11338D0F0040000000000E0FFFF0FE0F00400002F
S11338E00000000000000000000000000000400193
S11338F030B504E012F8014B00F8014B491ED1B178
S1133900C507F7D40129F5D0850701D4042904D2C9
S113391032F8024B20F8024B891E8B08EFD000EBE3
S1133920830403E052F8045B40F8045BA042F9D33B
S1133930A1EB8301E3E730BD80B513460246184688
S113394000E080B5FFF7D4FF002002BD10B5144697
S11339500A462146BDE810400123FEF7B3BDFFF738
S1133960FEBFC046C046FFF72DFFFFF73DFF000036
S11339707BD0FFFF10030000C080FF1F0000000089
S9030411E7
