S0180000746F7765725F626F6F746C6F616465722E7372656351
S11300000000002011040000B54B00008114000022
S113001000000000000000000000000004050000D3
S1130020000000000000000000000000B54B0000CC
S11300300000000000000000B54B00007D0C000033
S1130040B94B0000B94B0000B94B0000B94B00009C
S1130050B94B0000B94B0000B94B0000B94B00008C
S1130060792A0000832A0000392C0000432C000068
S1130070B34C0000C94B0000D74B0000B94B000043
S1130080B94B0000B94B0000B94B0000B94B00005C
S1130090B94B0000B94B0000B94B0000B94B00004C
S11300A0E1420000B94B0000B94B0000B94B00001D
S11300B0B94B0000B94B0000A90A0000B94B00007D
S11300C0000000000000000000000000000000002C
S11300D0000000000000000000000000000000001C
S11300E0000000000000000000000000000000000C
S11300F000000000000000000000000000000000FC
S1130400FFFFFFFFFFFFFFFFFFFFFFFFFEFFFFFFF9
S113041072B60E480E49886000220023002400258D
S113042000260027B846B946BA46BB46BC4609482A
S1130430854609488047094880470948804762B68D
S113044000200021074A9047FEE70000000000005A
S113045000ED00E000000020BD4B0000D9120000B8
S113046011130000790E000003020146A1110000DF
S113047091240000452A000095230000D5220000A5
S11304808D1A000065210000C52400001524000019
S1130490352300005D220000ED110000B1210000B1
S11304A009220000D120000081110000000000009A
S11304B00000000000000000436F707972696768F3
S11304C0742028632920323031332D3230313420E6
S11304D0467265657363616C652053656D69636F0E
S11304E06E647563746F722C20496E632E20416CA8
S11304F06C207269676874732072657365727665BF
S1130500642E0000DD5800000105014BB804000012
S113051000F0FF1F68040000AC040000E1150000B7
S113052000000000F3150000000000008B1600001E
S1130530D11700006B160000FD1600009B18000088
S1130540000000004F190000000000002916000000
S11305500000000005160000FD160000B918000098
S1130560000000002919000000000000A51500008B
S1130570000000005716000000000000000000000A
S1130580000000005D190000000000007119000067
S11305900000000093190000D117000000000000C3
S11305A000000000000000002D5900003759000031
S11305B04159000000000000000000000200040097
S11305C000000800000010000000200000004000AF
S11305D000000000000000000000200004000240B1
S11305E0C11A0000ED1A0000F51A0000D31B000028
S11305F000000000571C0000992D0000072E000089
S1130600312E00000000000000000000452E000014
S1130610CD330000F5330000533400008D35000065
S1130620D9350000CF370000753400004135000093
S1130630F136000091380000A538000000000000E9
S1130640293800004338000000000000753600001F
S1130650DD38000013390000C72E00005B390000AC
S1130660A14400000D43000039430000C9430000C9
S11306700544000085430000A1220000A9220000D7
S1130680B5220000C52200000000000000000000A8
S11306900100000000000000950900005007000060
S11306A0600700001C0700000200000000000000BA
S11306B0BD090000F8050000080600001C07000042
S11306C00400000000000000D50900003807000005
S11306D0480700001C070000100000000000000094
S11306E0000000007C070000000000008C070000F0
S11306F000000000000000000000000000000000F6
S11307000000000000000000C9440000F74400009D
S113071005460000BF4600005CF4FF1F6D47000063
S113072079470000E94700009F4800007147000036
S1130730AB4800004D470000014B0000514B000046
S1130740774B000000000000000000008B4B00000D
S1130750114D0000574D0000754D000000000000D1
S1130760000000008D4D0000043A2622A8F1FF1F6E
S1130770ACF1FF1FE8F1FF1F10F2FF1F954F0000BF
S11307809750000051510000195300008951000096
S1130790B751000041520000015300001153000002
S11307A01553000000000000034870470020704704
S11307B00020704700207047FFFF000038B5040098
S11307C0424D0023AB610020002103C5083D2A00EF
S11307D0083203C22A00103203C22B623C4800F0E4
S11307E0B8F8E8613B49200000F06EF931BD80B5EE
S11307F000F07FF901BD70B50C00344DA9690729DB
S11308001CD1296A884219D100F0A8F89626F6006E
S113081001010A1A03CD030003CD1918100000F0DA
S1130820CBF90A214843310000F0C6F9401D0A21E2
S113083000F0C2F970432060002070BD012070BD3B
S1130840F1B582B000F07BF804000D001F4EB769CB
S11308507F1CF0690021009001913000103003C822
S11308602B00221A8B4100980021994203D801D30E
S1130870904200D20127B761012F06D0042F09D07E
S1130880052F0FD0072F11D01CE030C6083E029868
S1130890306217E00CCE083E2900A01A994103C625
S11308A0083E0FE03000083030C00BE03000083064
S11308B00CC82900A01A99413200083203C20298D8
S11308C000F017F9103630C6F7BD0000A8F2FF1F7C
S11308D0803801004108000030B5264801688022B4
S11308E012040A4302600021234A1160234A0023B0
S11308F0DB43136191610124D461916904250D43A3
S113090095619169214391611360D4609460816819
S11309101B4800684903490F491C00F04DF9C00009
S1130920184900F049F9002800D10120164908604F
S113093030BD1148016802220A430260704713481F
S1130940036840680022002180185941C043C9430C
S113095070470D4909684843C008704700B50C4802
S11309600168074800684903490F491C00F024F94D
S113097000BD00003C80044000700340007103404F
S1130980E4F0FF1F40420F0054F4FF1FE0700340E7
S113099044800440002810D1694800290BD0022962
S11309A007D00AD280214900416066486649086040
S11309B07047C0218900416001607047002808D158
S11309C06248002903D0022903D1A021C900016093
S11309D04160704700280AD15D48002903D00229EC
S11309E005D180218900016041608160C160704748
S11309F080B500F011F95748416BF82292010A437F
S1130A0042630168544A0A43026001BD53480168C5
S1130A10534A0A40026053485349086053485449B2
S1130A200860704700B55348006853490968490392
S1130A30490F491C00F0C0F800BD0120704700B503
S1130A4002004C48006807214B4B002A03D0022ABD
S1130A500BD00AD30DE049490968491C4843484969
S1130A600978002906D0400800BD1A68120C11400C
S1130A70DFE7002000BD80204000424908600820D4
S1130A80C043414908601320404908600020FA210E
S1130A9049003F4A12681307DB0FC018491EF8D1FA
S1130AA0FA288041C00F704710B53A4C2068C10144
S1130AB0C90F08D038480168080004D000208847CE
S1130AC00020C043606610BD002811D1334802687D
S1130AD0334B13408022D2031A4302608020C005A6
S1130AE0304A1060A02000032F4A10602A48016099
S1130AF0704700280BD18020C0052C490860254888
S1130B0001682B4A0A4002600020234908607047AC
S1130B10704780B517480068800900F095F82548AB
S1130B2000F0A3F801BD80B500F0CCF800F0DEF8C9
S1130B3000F0CEF801BD80B500F09AF801BD0000C8
S1130B4038901454FF7FFFFF14F00F4460D0145406
S1130B5000C01454048004400000010438800440A0
S1130B60FFC1FFFFFFFFFF7F00700444FFFFFAF3A4
S1130B7004800444E4F0FF1F4480044044801C5E6D
S1130B80064086520CB0145494F00F440CB0044840
S1130B9090F00F403C90044088F3FF1F1CE400E0F9
S1130BA0FFFF00FF00E100E03C901C5880E100E002
S1130BB0FFFFF0FE270B0000094214D088420FD338
S1130BC00122030C01D100041204002300185B412C
S1130BD08B4200D35B1A5241F8D3190010007047BE
S1130BE001000020704708B500F08AF808BD30B451
S1130BF0012100220368001D002B0BD00468001D96
S1130C000C4202D04D466D1E64192260241D1B1F28
S1130C10F0D0FAE730BC704709487F2182780A4057
S1130C20042A0CD102789F2313400370FF22837897
S1130C300B40012B01D1034B1B78521EF7D1704797
S1130C4001E0074002D0074080214904884201D3D3
S1130C50042070470D490002000A401E486000202D
S1130C6088600720086000207047094908607047C1
S1130C7006480168062291430160704704480068F1
S1130C80010000D1704780B5804701BD10E000E04D
S1130C904CF6FF1F0160704772B60168491C016081
S1130CA062B601680029FCD10120704772B6016860
S1130CB0491E016062B6704772B600200A49086096
S1130CC062B6704772B608480168491C01607047F3
S1130CD005480168022903D20021016062B6704709
S1130CE00168491E0160704774F3FF1F00BF034889
S1130CF055210160AA21016070470000048104406D
S1130D007047000001280CD8012200BF07A3185C1B
S1130D10C006C00E8240012901D1024800E0024809
S1130D200260704700E100E080E100E00809000093
S1130D3038B505000C00002000F0F0F86E4804609F
S1130D404560802109026D4A1160016881F30888B9
S1130D5081F3098840688047002000F0DFF831BD46
S1130D6067498968096900280DD00022D24390425E
S1130D7009D0644A904206D00A69904203D34B6971
S1130D80D218904208D34A6A904207D3896A51180C
S1130D9088428041C00F704701207047002070478F
S1130DA0F0B585B0564EB06804696C34564D09E010
S1130DB0217C014205D0686981692800EA6852688B
S1130DC09047183528680028F2D10027FA208000BF
S1130DD0FFF7BFFD05008020000241680091006814
S1130DE00190FFF748FE002829D10098FFF7B8FFCB
S1130DF0002824D0B06800698A300078C00703D482
S1130E0001990098FFF794FF678A4048874200D110
S1130E103F4F6F43FFF793FD02AA03C2002F0ED08A
S1130E20FFF78DFD02AA0CCA801A9941002399424A
S1130E3001D8B84203D301990098FFF779FF324DE6
S1130E4000E0183528680028E8D02800E968096817
S1130E5088470028F5D0002DE0D02B4C06E0A542B1
S1130E6003D02000E1688968884718342068002886
S1130E70F5D1280005B0F0BD38B5FFF71DFFFFF729
S1130E80B7FD1F4CA06800688047002000F07AF886
S1130E90FFF722FD2000203000F082F91D492000D8
S1130EA0203000F0A3F9FFF734FE20680068804783
S1130EB0A06840688047FFF773FFE061016900297B
S1130EC003D009680A0000D08847E0694169002915
S1130ED003D009680A0000D08847E06800688047AA
S1130EE0E569E06840688047E868C1680800F8D0B0
S1130EF028008847F5E70000CCF2FF1F08ED00E06A
S1130F0000F0FF1F1104000090060000FFFF000026
S1130F1088130000270B00007047000070B505001F
S1130F200024022D04D0002000F0C0F9012D0ED0C1
S1130F30002605E0C16889680A0000D08847761C4D
S1130F400E4818217143401801680029F2D1002D80
S1130F500FD1FFF7B7FEFFF7ECFC00F0D9F9084812
S1130F600460012000F00EF8FFF750FD62B6FFF7B1
S1130F70E2FDBFF36F8FBFF34F8F70BD900600008B
S1130F8008ED00E0F8B5634C002854D162480068CD
S1130F9060606248806801696C310A7CD006C00FC9
S1130FA00A7FD307DB0F0122424013420BD0A0205B
S1130FB040045B490968491CFFF7FEFD5949086074
S1130FC0002059493FE0497FCA431607360F761C73
S1130FD00127564D002801D107E0761E2800310074
S1130FE0FFF7EAFD52498842F7D328003100FFF7A2
S1130FF0E3FD5049884201D3761CF6E7494908606D
S1131000050000E07F1C28003900FFF7D5FD4A49A0
S11310108842F7D2761E30077F1E3904E022D202BE
S11310200A4002433C4802600421207800F00DF895
S113103004202070F1BD012806D10021207800F0A1
S113104004F8606834490860F1BD884200D17047F3
S1131050F0B540200C220023384C394D04292FD1FF
S113106038490E68C70037430F603749374E376831
S11310700F403760776839407160892129702421D5
S113108061709A212170E178C906C90EE1700121CD
S113109021716371A179C906FCD4A1791140082991
S11310A0FBD16071A17911400829FBD1A1790142DA
S11310B0FCD01A202070A07910400C28FBD1F0BD80
S11310C0002925D18021224E3170224E3370224EC8
S11310D0307022480370A07910400828FBD11820F2
S11310E01F4F38703370A0798006FCD41848037001
S11310F00420184F3870A679F606FCD5A779174254
S1131100FCD12B70A2799207FCD4617020702371FA
S1131110F0BD0000D4F2FF1F4480044000F0FF1F24
S113112044801C5EE4F0FF1F0480045800D8B80516
S1131130002D3101016CDC0201366E0100400640D5
S11311400050064038800440FFF8FFFE48900440F9
S113115000400E530040065105400653014086509E
S113116000409651002801D104207047C06900282E
S113117004D00068022801D1002070476D20704718
S113118010B5002801D1042010BDC469606800F0C6
S1131190E6F8A06800F07DF802202060002010BD71
S11311A010B5040001D1042010BD23482349096867
S11311B00901090F4900405A000301D1642010BD00
S11311C00021216060600120A0608002E060616114
S11311D0A16121612000FFF7C5FF002804D0184851
S11311E0E0612000FFF7CCFF002010BD002801D1F2
S11311F004207047016100207047002801D10420B9
S113120070475B1E194201D1134001D0652070471D
S11312100368994204D3406818188918884201D297
S113122066207047002070470649884201D06B2031
S11312307047002070470000BC0500004C8004404B
S113124050F0FF1F6B66656B00280DD0042A02D096
S1131250082A0BD008E000290DD010290BD320292F
S113126009D02139132906D304207047102902D04C
S113127011390329F8D20020704700000168802248
S1131280D2000A430260BFF36F8FBFF34F8F7047E2
S1131290704710B504000C490C48421A491E20003E
S11312A000F08EF8641C0A48046010BD38B50400D0
S11312B02000FFF757FF0500002D03D1054804491E
S11312C00968884731BD00007D12000091120000BA
S11312D00CF3FF1F0C3000F080B511481149086071
S11312E011491248421A1248884203D0002A01D0F8
S11312F000F066F80F481049091A01D000F0BCF854
S11313000E490F48421A02D00E4800F059F801BDA8
S11313100020C0430C4908600C4908607047000075
S11313200000000008ED00E038560000DC58000022
S113133000F0FF1FA8F2FF1FD4F7FF1F6C59000035
S11313406C59000000FCFF1F80E100E080E200E037
S11313508021017002780A42FCD07047704710B5B2
S1131360040013491348421A491E200000F028F8CB
S1131370641C1148046010BD10B5104C702121701C
S1131380FFF7F0FE002811D120000B4909688847B7
S11313902078810601D5672010BDC10601D56820DB
S11313A010BDC00701D5692010BD002010BD00008C
S11313B0511300005D13000010F3FF1F00000240F2
S11313C0124207D08B0706D00B78491C0370401CCF
S11313D0521EF7D87047830706D00B78491C037058
S11313E0401C521EF9D1704770B4103A03D378C927
S11313F0103A78C0FBD2530701D318C918C001D5DD
S113140008C908C0D20704D30B880380891C801C38
S1131410002A01D50B78037070BC70471206130ABA
S11314201A43130C1A4300BF094205D083070BD09B
S11314300270401C491EF9D1704700001206130ABD
S11314401A43130C1A4300BF130030B414001500E0
S1131450103902D310393CC0FCD2490700D30CC068
S113146000D504C0890002D30280801C002900D565
S1131470027030BC704700000022D5E70022E3E789
S1131480BFF34F8F024803490860BFF34F8FFEE755
S11314900400FA050CED00E000209649C968C9680B
S11314A008607047FEB5002600206A469670914C8D
S11314B0E7697D69002D74D0E168C9680A68012A6A
S11314C059D000230A000832091D38006D68A84766
S11314D0002805D08849884202D0491C884260D13E
S11314E0E268D1688B68002B5BD002934868019056
S11314F000786B46187068460078002808D0684663
S11315000078122804DA9268C0001018083800E045
S1131510002008620127002821D0006800281ED07E
S113152000A9491C2000203000F0B0FA050017D1B2
S113153068464078002809D0E720400169460978C8
S1131540491EC840384001D19F4D09E002990198D5
S1131550E268D268126A12689047002007E09B4D47
S113156068460178280000F02DFA280019D1E168B6
S1131570C9680F60FEBD096A00290DD049680800DA
S113158003D000A8801C884700E00020002803D076
S1131590E168C9680E60FEBD69468978E268D26870
S11315A01160FEBD80B50178002000F00BFA5148AF
S11315B0C0694169096988470220FFF7AFFCBFF39E
S11315C04F8FBB48BB490860BFF34F8FFEE780B520
S11315D014214848C068C0680C30FFF74FFF01BDB4
S11315E010B5040000F05FFBFFE7217800F0EAF992
S11315F010BD10B50400A16860683E4A12685269C3
S11316009047F2E710B50400FFF7E1FF3948C068DE
S1131610C06861680161082101772178002000F029
S1131620D1F900F0CFFC10BD7CB5002401940094E6
S1131630304D6B4601AA8168C9B24068C0B2AE6839
S1131640B668B047E968C9680C6100998A080199CD
S113165000F0C0F973BD10B50400A1686068C0B2A1
S1131660244A9268D2689047BFE710B50400FFF798
S1131670AEFF2048C068C068A1680161616841612B
S11316800421017721780020B0E710B50400FFF7AA
S11316909EFF1848C068C068A16801616168416123
S11316A003210177A168002000F0A8F910BD38B526
S11316B00400104DE868C068002141610161007FA9
S11316C0042805D1286800698047002C00D1040053
S11316D0E868C068017F200000F074F9064884427D
S11316E006D1E868C068007F082801D100F0C0FC7A
S11316F031BD000000F0FF1F12270000F1B584B0D7
S1131700AF4DE868C06800240169002905D1049838
S113171004700020FFF7CBFF52E00121049A1170FE
S11317200769406902900094E86901236A4601A9A7
S113173046697668B047060004D0E8694169C9681B
S1131740884732E00098002801D1C0482EE0B84212
S113175000D938000090E868C068017F082910D1DA
S11317600199C160009981610099019800F03EFCE3
S11317700600C248864202D0093886420CD10026AF
S11317800AE0019A009902982B689B689847060022
S1131790029800994018029000983F1A05D0002E34
S11317A009D0E8694169C96888473000FFF77FFFBD
S11317B00498047004E0E868C06807610299416114
S11317C0002005B0F0BD0000112700001027000024
S11317D0F1B58CB07A4FF868C0680025016900291A
S11317E005D10C9805700020FFF761FF52E001213C
S11317F00C9A1170016902914469C168027F029BCD
S1131800212B00D320230193002915D0019A04A889
S1131810FFF7D6FD02980199401A0290F869012356
S1131820019A04A94669B668B047060002980028E0
S113183025D0002E29D022E0019961180391032AB2
S113184006D104AA019920003B685B6898470CE024
S1131850102A01D00C46DDE7407F0090019B04AACA
S113186021003800203000F033FC0600039CD1D066
S1131870F8690123002204A94469A468A047300040
S1131880FFF715FF0C98057004E0F868C06802992A
S11318900161446100200DB0F0BD10B50400E268A0
S11318A0A1686068464B1B68DB6898479DE60000AA
S11318B00400FA050CED00E07CB5060070680090A9
S11318C0B0680190F0686E4C206000253C4949687E
S11318D00C31002807D00A68904203D34968491C98
S11318E0814200D204250098FFF73AFA002800D17B
S11318F004253178280000F065F8002D13D10098F4
S113190060600020FFF70AFB0198A06020680028AF
S113191003D080F3088880F30988A0686168884749
S11319200020FFF7FBFA73BD38B504006068FFF7C9
S113193017FA002801D1042005E065680120FFF7AB
S1131940EDFAA068A847217800F03CF831BD10B545
S11319500400211D4B4800F005FC46E610B50400C8
S1131960A36822000C326168464800F021FC3CE682
S11319701CB5040068460021002206C0A3686A461C
S11319806168404800F040FCA268694600F03BF8FA
S113199013BD10B50400FFF71AFE0948C168C968F1
S11319A0A2680A6162684A6110220A77E168C06825
S11319B0C0684177A168002000F04AF810BD00001B
S11319C000F0FF1F10B584B06A46A02313700023F3
S11319D0537045E030B589B06C46A72323700023CB
S11319E06370A370551CE570019004E098000D58D5
S11319F0201885605B1C9342F8DB1BE010B584B0B3
S1131A006A46A32328E030B589B06C46AF2323701F
S1131A1000236370A3700225E5700190002808D1AB
S1131A209008801CE070029220000C30FFF7DCFC70
S1131A3000E002931448C0690023E1788A00121D73
S1131A4069464469A468A04709B030BD1227000064
S1131A5010B584B06A46B023137001235370002379
S1131A6093700223D370019002910748C069002348
S1131A700C2269464469A468A0471FBD7D27000065
S1131A8000F3FF1F20F0FF1F00F0FF1F002801D00C
S1131A90002901D104207047084800788207920F7A
S1131AA0022A01D1002006E0C0220240802A01D18E
S1131AB0012000E00220087000207047020002406C
S1131AC038B59F4C65682A0004212000203000F0BE
S1131AD0C5FB6A4601212034200000F0BFFB2868C2
S1131AE000994018401E6860002032BD80B500F0A7
S1131AF0DBFB02BDF5B589B08808800003900F1A9E
S1131B008F4CA0680069056B002D00D001250020D2
S1131B10C0430490002F06D03A000A980399411854
S1131B2004A8FFF74DFC0026FFF7CCF809980399A9
S1131B30401807900398002808D003460A9A099988
S1131B402000203000F0C6FB060009D1002F07D08A
S1131B50042304AA07992000203000F0BBFB0600F0
S1131B60FFF7B6F8002E2FD12D062FD0FFF7AAF8D5
S1131B700398002811D005A8029006A80190A06837
S1131B800069406DC0B200900A9B039A0999200035
S1131B90203000F0CFFB060012D1002F10D005A892
S1131BA0029006A80190A0680069406DC0B2009040
S1131BB004AB042207992034200000F0BBFB06008C
S1131BC0FFF786F8002E01D0300000E000200BB0B3
S1131BD0F0BDF0B587B00400594FB8680069006BD8
S1131BE0002800D001200690039248420321884334
S1131BF0454201E0241D2D1F002D29D0FFF762F876
S1131C00042303AA21003800203000F063FB0600FF
S1131C10FFF75EF8002E19D106980028EAD0FFF7E6
S1131C2051F804A8029005A80190B8680069406DB5
S1131C30C0B2009003AB042221003800203000F031
S1131C4079FB0600FFF744F8002ED3D0300000E003
S1131C50002007B0F0BDF8B507000D00FFF732F81B
S1131C60374C384B2A0039002000203000F092FB1A
S1131C700600FFF72DF8002E13D1A0680069006B51
S1131C8000280ED0FFF71EF8A0680069436DDBB290
S1131C902A0039002034200000F0BCFB0600FFF7C6
S1131CA017F83000F2BDF8B500220026244CA068D5
S1131CB003691D005C352968002903D16868421E48
S1131CC09241D20F98695B6B002B19D0002A17D16F
S1131CD04742002906D0394004D00020FFF7BBFF5B
S1131CE006002BD16168686842421740784249680F
S1131CF0884223D2491C091AFFF7ADFF06001DE0F4
S1131D00FEF7E0FF0F492000203000F0C1FB060081
S1131D10FEF7DEFF002E11D1A0680069006B0028D9
S1131D200CD0FEF7CFFFA0680069416DC9B2203422
S1131D30200000F0C7FB0600FEF7CAFF3000F2BD2A
S1131D4000F0FF1F6B66656B416882688A4208D2A7
S1131D50891A416082667A4901600121816000200C
S1131D607047964870479C49016000207047416A5B
S1131D704A898282CA68921E42604A68714B9A42BA
S1131D8002D1097A022901DB8D4870479349016029
S1131D900020704710B582B00400606A4168A161F8
S1131DA00168C91EA1606268914201D38C4816BDC6
S1131DB00089002801D08B4816BD694608708A48FE
S1131DC0FFF764FE68460078002801D0994816BDE4
S1131DD02000FFF7B9FF16BD38B50400A34D626AB1
S1131DE0216EE06D2B689B689847002818D12868FD
S1131DF000698047002813D11022616A20001C303A
S1131E0000F074FB694620001C3000F085FB00984C
S1131E10616E884201D0A04832BD4948206000204C
S1131E2032BD38B504001022616A1C3000F05EFB3C
S1131E308E4D626A1021E06D2B689B6898470028DC
S1131E4020D1E06D1030E065206E10382066112836
S1131E5001D3924814E0002801D0914810E028688A
S1131E600069804700280DD1694620001C3000F02D
S1131E7053FB0098616E884201D0874832BD3048D8
S1131E802060002032BD10B504001C3000F028FB97
S1131E90206E112801D3814800E081482060002091
S1131EA010BD80B5426E016EC06D704B1B68DB685F
S1131EB0984702BD10B50400E26D7B4811000ED0B6
S1131EC021001831606E9047012803D12000FFF7EC
S1131ED03BFF10BD022802D100F074F8002010BDB1
S1131EE010B501005C314B68021D536014689C42BC
S1131EF001D23B4810BD0B7ADB0707D50B68546948
S1131F00A34203D148689060002010BD5A21415C6F
S1131F10C90701D5654810BDFFF716FF10BD80B590
S1131F205A21415CC90702D5FFF7BDFE02BD5C30F2
S1131F30416800684D4A12685269904702BD00002A
S1131F40491F000053544D5070B504002500583506
S1131F505A262800616A1022FFF746FA0120295CFC
S1131F607618401C1028FAD32878F1B2884201D0A0
S1131F704F4870BD687807281ED801A1095C8F44BA
S1131F8032060E161E22322A2000FFF7A9FF70BD6A
S1131F902000FFF778FF70BD2000FFF782FF70BDBF
S1131FA0404870BD2000FFF785FF70BD2000FFF79B
S1131FB0B6FF70BD002070BD3E4870BD782700009C
S1131FC07527000010B53C4C70212000FFF756FA2D
S1131FD03A482060002010BD6F1D0000951D0000D0
S1131FE0762700007727000020F0FF1FF2B50700D6
S1131FF0002400200025324E00998D4219D0102073
S11320003169401A0099491B0AE0002910D07A5D11
S11320103369F2546D1C3269521C3261401E491EF0
S11320200028F2D1346100F007F8002801D1E3E779
S11320302448F2BD8127000080B500201E49204AB3
S11320404A62CA68002A07D00869904202D2401C3A
S1132050086104E01C4802BD8A6E002A03D108000E
S11320600968884702BD521E8A6602BD00F0FF1F40
S113207038B5114C5920205C04280AD15C342568F9
S1132080280004D00020FEF749FFA068A8470F48A5
S113209032BD002032BD00007A270000231E00005C
S11320A0D91D0000122700007F2700007C270000B4
S11320B0792700007B27000014F5FF1F671D00002F
S11320C084F5FF1F7D270000742700007E27000091
S11320D0F1B50F0014001D00002801D0002C01D11F
S11320E00420F2BD6846027E2900380000F01EF884
S11320F0002815D104E071682160241D3F1D2D1FA7
S1132100002D0DD007480668376007480321017089
S11321106946097E01720098FFF72EF90028EAD07B
S1132120F2BD0000DC0500000700024010B50323E7
S1132130184201D10B4001D0652010BD022A0EDAED
S11321404418641E012A06D1002808D1491E072913
S113215005D1002010BD002AFBD1FF2CF9D90420A1
S113216010BD000010B5020001D0002901D10420E7
S113217010BD00200D4B1C78A407A40F022C14D012
S11321804520587108785872487818728878D87140
S1132190C878987108795873487918738879D8720F
S11321A0C87998721000FFF7E7F810BD02000240EA
S11321B0F1B50C0015001F00002D01D10420F2BD63
S11321C03A00FFF741F8060018D10D484321417049
S11321D004700C48006829684160102C02D0113C3E
S11321E0032C03D2082F01D1696881600098FFF79E
S11321F0C3F806000098FFF759F83000F2BD00BF9D
S113220006000240DC050000F8B507000C001500CC
S11322101E00002D01D10420F2BD3200FFF714F896
S1132220002815D10B484121417004703800FFF794
S1132230A3F800280CD1084909684A682A60102CC0
S113224002D0113C032C03D2082E01D189686960A5
S1132250F2BD00BF06000240DC050000002801D0EA
S1132260002A01D104207047072917D801A35B5C19
S11322709F4400BF08101014181C2024C06810606C
S1132280002070474068FAE78068F8E70068F6E7DE
S11322900020F4E74069F2E78069F0E76A207047BC
S11322A080B500F04FFB02BD80B513000A000100A9
S11322B0180003E080B513000A001900FFF780F846
S11322C0002002BD10B50C0011000123220000F013
S11322D059FB10BDF1B50F0015001C00002D01D1F4
S11322E00420F2BD04232200FEF787FF060002D07B
S11322F0F2BD3F1D241F002C13D00C48006807605A
S1132300296841602D1D0620094908700098FFF7CF
S113231033F8060000980069010000D08047002EC1
S1132320E7D00098FEF7C2FF3000F2BDDC050000E4
S113233007000240F1B50C0016001D0001D1042075
S1132340F2BD0423FEF759FF00281DD1069F02E0C9
S1132350361F2D1D241D002E16D00C480068046065
S11323600B4902220A700F71296881600098FFF7F7
S113237003F80028ECD00799002900D00C600899D4
S1132380002901D000220A60F2BD00BFDC05000074
S113239007000240F8B582B007000E0015000423C0
S11323A0FEF72BFF040021D175196D1EF86800900B
S11323B028000099FEF700FC00290AD028000099A3
S11323C0FEF7FAFB451C009845436D1E01E0F868D2
S11323D03618B54216D30D480068066009200C492A
S11323E008700298FEF720FF040001D02000FEBD13
S11323F03800FEF7C1FF04003869010000D08047AF
S1132400002CE4D03800FEF751FFEFE7DC050000B4
S113241007000240F9B581B00F0015000423FEF750
S1132420ECFE00282ED10198406801998968FEF7D6
S1132430C3FB0090784200994A4202405442BC4295
S113244005D1641803E0AD1BBF1900982418002DB2
S113245017D0E01B2E00854200D90600B0080A49B7
S113246009680F600121094A1170010A1171D070C5
S11324706846007A90700198FEF77EFF0028E2D04B
S1132480FEBD0020FEBD00BFDC05000007000240C9
S113249038B504000800002C01D1042032BD4421C9
S11324A0074A1170FEF7C0FE050007D12000FEF7B1
S11324B063FF05002000FEF7F9FE280032BD00BFCF
S11324C00700024080B5002801D1042002BD034A60
S11324D0402353701170FEF74FFF02BD0600024007
S11324E00021C943016000214160704770B5036851
S11324F04468A418446000BF12A407E00E78491C85
S11325001D021B0E5E40B300E3586B4015006A1EAB
S1132510002DF3D1036070BD30B502684368032415
S113252023420BD004251C402B1B00BF05A415021D
S1132530120E9200A2586A405B1EF8D102600A6033
S113254030BD000000000000B71DC1046E3B8209CD
S1132550D926430DDC7604136B6BC517B24D861A6E
S11325600550471EB8ED08260FF0C922D6D68A2F8B
S113257061CB4B2B649B0C35D386CD310AA08E3CAA
S1132580BDBD4F3870DB114CC7C6D0481EE0934523
S1132590A9FD5241ACAD155F1BB0D45BC2969756F2
S11325A0758B5652C836196A7F2BD86EA60D9B635D
S11325B011105A6714401D79A35DDC7D7A7B9F70EE
S11325C0CD665E74E0B6239857ABE29C8E8DA191E4
S11325D0399060953CC0278B8BDDE68F52FBA5823A
S11325E0E5E66486585B2BBEEF46EABA3660A9B7C7
S11325F0817D68B3842D2FAD3330EEA9EA16ADA4E6
S11326005D0B6CA0906D32D42770F3D0FE56B0DD14
S1132610494B71D94C1B36C7FB06F7C32220B4CEF5
S1132620953D75CA28803AF29F9DFBF646BBB8FBE0
S1132630F1A679FFF4F63EE143EBFFE59ACDBCE861
S11326402DD07DEC77708634C06D4730194B043D36
S1132650AE56C539AB0682271C1B4323C53D002E4D
S11326607220C12ACF9D8E1278804F16A1A60C1B12
S113267016BBCD1F13EB8A01A4F64B057DD00808C9
S1132680CACDC90C07AB9778B0B6567C6990157162
S1132690DE8DD475DBDD936B6CC0526FB5E61162D1
S11326A002FBD066BF469F5E085B5E5AD17D1D5714
S11326B06660DC5363309B4DD42D5A490D0B19448D
S11326C0BA16D84097C6A5AC20DB64A8F9FD27A5A7
S11326D04EE0E6A14BB0A1BFFCAD60BB258B23B699
S11326E09296E2B22F2BAD8A98366C8E41102F83CE
S11326F0F60DEE87F35DA9994440689D9D662B9085
S11327002A7BEA94E71DB4E0500075E4892636E993
S11327103E3BF7ED3B6BB0F38C7671F7555032FAD4
S1132720E24DF3FE5FF0BCC6E8ED7DC231CB3ECF97
S113273086D6FFCB8386B8D5349B79D1EDBD3ADC00
S11327405AA0FBD8EEE00C6959FDCD6D80DB8E609C
S113275037C64F643296087A858BC97E5CAD8A731E
S1132760EBB04B77560D044FE110C54B3836864617
S11327708F2B47428A7B005C3D66C158E4408255FA
S1132780535D43519E3B1D252926DC21F0009F2CDF
S1132790471D5E28424D1936F550D8322C769B3FA2
S11327A09B6B5A3B26D6150391CBD40748ED970A69
S11327B0FFF0560EFAA011104DBDD014949B93193E
S11327C02386521D0E562FF1B94BEEF5606DADF810
S11327D0D7706CFCD2202BE2653DEAE6BC1BA9EB6A
S11327E00B0668EFB6BB27D701A6E6D3D880A5DED3
S11327F06F9D64DA6ACD23C4DDD0E2C004F6A1CDB6
S1132800B3EB60C97E8D3EBDC990FFB910B6BCB4B0
S1132810A7AB7DB0A2FB3AAE15E6FBAACCC0B8A725
S11328207BDD79A3C660369B717DF79FA85BB4926C
S11328301F4675961A163288AD0BF38C742DB08131
S1132840C330718599908A5D2E8D4B59F7AB08542E
S113285040B6C95045E68E4EF2FB4F4A2BDD0C477D
S11328609CC0CD43217D827B9660437F4F4600729E
S1132870F85BC176FD0B86684A16476C9330046199
S1132880242DC565E94B9B115E565A15877019189E
S1132890306DD81C353D9F0282205E065B061D0B01
S11328A0EC1BDC0F51A69337E6BB52333F9D113E20
S11328B08880D03A8DD097243ACD5620E3EB152D5D
S11328C054F6D4297926A9C5CE3B68C1171D2BCC53
S11328D0A000EAC8A550ADD6124D6CD2CB6B2FDF49
S11328E07C76EEDBC1CBA1E376D660E7AFF023EADA
S11328F018EDE2EE1DBDA5F0AAA064F4738627F9D5
S1132900C49BE6FD09FDB889BEE0798D67C63A80AF
S1132910D0DBFB84D58BBC9A62967D9EBBB03E9384
S11329200CADFF97B110B0AF060D71ABDF2B32A623
S11329306836F3A26D66B4BCDA7B75B8035D36B550
S1132940B440F7B10C4800680003010F082910D205
S1132950802292008A400CD0084840680C309108CC
S113296080229205521A02604A005118044A8918BA
S113297041600020704700BF2480044000F0FF1F26
S1132980FFFFFF1F002A01D101207047F0B41F464A
S1132990034603242340002B09D00424E31A0170C6
S11329A001300824E141521E26D05B1EF7D1042ACF
S11329B01ADB13D0002F11D00C460D460E46102AF8
S11329C002DB72C0103AFAE70C2A02DB32C00C3A7E
S11329D0FAE7082A02DB12C0083AFAE7042A03DB02
S11329E001600430121FF9E7002A05D0017001309C
S11329F00824E141521EF7D1F0BC002070470000CA
S1132A0000210180704770B503001D8800240EE08A
S1132A10085D00026840050008206E002D0402D500
S1132A203500054E6E403500401EF6D1641C9442BC
S1132A30EED31D8070BD00002110000000880880C6
S1132A407047000038B504000800002C01D10420B0
S1132A5032BD4921074A1170FEF7E6FB050007D194
S1132A602000FEF789FC05002000FEF71FFC28006B
S1132A7032BD00BF0700024080B5002000F006F818
S1132A8001BD80B5012000F001F801BDF8B500BF1B
S1132A9067A182008C585F4902018B18E11C0A78F7
S1132AA0802636051227174031430F7050211140FC
S1132AB0102912D0A11C0D00241D57060ED5500755
S1132AC013D510202E4330700020694608706846E4
S1132AD019688847684600782070F1BD0126097896
S1132AE00909314008D01640EED0EF208021C904F6
S1132AF0294308702078F1BD2278010010005A683B
S1132B009047F1BD4AA180000858002181700170EE
S1132B1081717047F3B583B045A003998900445887
S1132B203C4803990901401804991022FEF75CFC03
S1132B30802740260398002801D1402000E080200F
S1132B4035490860A01C019000250570A01D009067
S1132B5006700220E07001210398FEF7D3F8049870
S1132B60007B40002D4921430870657100990D7068
S1132B7065700199700508430770067005B0F0BDD3
S1132B8070B50400802640252548002C03D1006838
S1132B90284005D170BD012C0FD1006830400CD005
S1132BA000212000FEF7AEF82000FFF7ABFF002C59
S1132BB000D08025E8431B49086070BD30B514007F
S1132BC01BA2800015580800FA218900FDF7F4FFC4
S1132BD001001548FDF7F0FF002100E011004A1C38
S1132BE013004343A342F9D3002905D10A225443D5
S1132BF0844204D3012102E0202900D31F21AD1D0A
S1132C000A482843017030BD024A0001101841608F
S1132C107047000054F3FF1F348004480000B010D4
S1132C20348004403480044440420F0000001810F3
S1132C30006006400070064080B5002000F006F8F1
S1132C4001BD80B5012000F001F801BDF8B5050013
S1132C5043A0A90047583C48E90046187C1DFF1CC6
S1132C603878C00903D02078A9B2726890473878C0
S1132C70800609D5002069460870A9B26846326802
S1132C809047684600782070F1BD2F4AC0001018A4
S1132C9041607047F8B504000E0000BF30A0A100E9
S1132CA0475803CE083E284AE300D21803C2002C3A
S1132CB002D18020C00301E0802000042349086081
S1132CC0380000F051F800259021490539430D7072
S1132CD0B37A327A717A380000F04DF8802000051A
S1132CE038438021017020210170002C01D1490159
S1132CF000E08901164A1160402101707D71F1BD27
S1132D0070B5040016A0A100405880252D046E085B
S1132D101049002C04D10968314013D00A2105E080
S1132D20012C0FD1096829400CD00B2101228A40C3
S1132D3009490A6000F018F8002C00D13500E84376
S1132D400649086070BD000078F3FF1F3480044812
S1132D5000E100E03480044080E100E03480044479
S1132D600060074000700740042101700021417099
S1132D708170C171704710B5C9008C246405044387
S1132D802170910088225205024311708021490567
S1132D9001430B7010BD00002E4940680818007CE8
S1132DA070472D494A68002A08D00A6813780370CE
S1132DB0521C0A604868401E486070470021017038
S1132DC0704780B523494969884701BD38B5040077
S1132DD008005A2C09D11F4D01212A1811741F49CA
S1132DE0FFF712FF5A206969884731BD10B5040006
S1132DF01849FFF78FFEFDF715FE3222010020006F
S1132E00FFF7DCFE10BD10B50400124841611449FF
S1132E10896809697D310978FF2900D0017302218D
S1132E206068A26890476068FFF7E0FF002010BD6B
S1132E3010B504006068FFF7A3FE00216068A26873
S1132E40904710BD04480160426041680029FCD1EC
S1132E50002070475CF0FF1F8CF3FF1FC32D0000A0
S1132E6000F0FF1F012A01D1012000E0002004E04E
S1132E70012A01D1042000E00820944A0906890DA2
S1132E8051180A7810430870704790480906890D54
S1132E9040180178FD220A400270704738B50500D9
S1132EA00C0000F0B5FD2869002801D12C6101E077
S1132EB0686904616C6100202061A869401CA861F4
S1132EC000F0B0FD31BD38B505000C0000F0A0FDE8
S1132ED0A869002803D100F0A5FDC12032BD2869EE
S1132EE020602869002804D000692861002800D1E6
S1132EF06861A869401EA86100F094FD002032BDFD
S1132F007349802292008A18C2629422920089181E
S1132F10C16001610C218161C2680B2311001C3165
S1132F2011610A005B1EF9D1002111614261002088
S1132F30704738B504006946FFF7C5FF6548406827
S1132F40400A40022C342168E27D002A01D141600C
S1132F5005E00A000832082303435A600831009A46
S1132F6051600021009B1970009B5970009A916078
S1132F70009B99700122009DEA75009BA360617516
S1132F80E17D0A40D1000143CF48086031BDF8B566
S1132F9004000D0017001E0000F03AFD4D48406883
S1132FA0410A49022807C00D084314214D43611901
S1132FB0413101228B781340DB0003435F608B783F
S1132FC01340DB000343B005800909780A409101EE
S1132FD0014388200843186000F024FD72E370B5B3
S1132FE014244C430019383004889C4200D91C0036
S1132FF0049B1C60374B5B685B0A5B020907C90DC5
S1133000194310230125867A2E40F6000E431E43F1
S11330107260827A2A40D2000A431343A1058909C7
S1133020007A0540A8010843882101431960CC486F
S11330300178DF220A400270002070BDF1B5C94852
S1133040FF2101720222037D02241C430475037EC6
S11330508024234003760023002400271D4D6D683F
S11330606E0A76022507ED0D35432B6008262E43A4
S1133070336010262E43336018262E433360009DA0
S113308014266643AD1942356B702B700F4D26061E
S1133090B60DAF55641C062CE0D30E4D2B700124E5
S11330A00470057DFD262E400675009D1C35EB73CE
S11330B02A806C80017301798D220A430271017D9B
S11330C0DF220A4002750020F2BD0000C020074044
S11330D000F8FF1F94F3FF1FF0B58BB00700A14861
S11330E0007C694648729F48007C000900900128D2
S11330F001D0022801D19B48007C9A48007C01241D
S1133100C008012101409748027C0820954B1870A3
S1133110B7484068430A5B020098400118430B011A
S11331200343920801251540EA001A4312689301EB
S11331309B0D01939206120F05920D2A02D16B4644
S11331401C7202E000226B461A72009A14235A433E
S1133150BD183035009A019B13430493002937D0DE
S11331602E68002E2ED0F06801994018F060B168E6
S1133170081A0390A87C01214140A974287C0121EC
S1133180414029740398002803D001982989884272
S113319019D2F06808907068079000202860310008
S11331A03800FFF77BFE01982989884268D100988E
S11331B0002865D18E48047000230022002178681D
S11331C000F0B9FD7EE03100380000F0DFF979E06D
S11331D0049900295ED086490978002902D000218B
S11331E0834A11706E68002E6CD0F17D00290CD1D9
S11331F0E97C2140C900014349687068F26880187D
S1133200814202D0019A00F010FEF0680199401842
S1133210F060B168081A0390009800280FD105984F
S11332200D280CD101220021380000F0D0FA38001A
S1133230403004704470C1784C40C47006E0687C2F
S1133240012141406974E87C4440EC74B068002872
S113325006D00398002803D00198298988420AD20D
S1133260F0680890706807900020686031003800AA
S1133270FFF714FE0EE03100380000F0ADF921E054
S11332800498002806D15A480078002802D1380052
S1133290FFF74FFE7868069006A800990173694607
S11332A0097A81736946497A0A07D20FC27306A95B
S11332B00098C0B200F0EEFB2A48007DDF210140F7
S11332C0284801750BB0F0BD880008002549042288
S11332D00A70AD4A137912781B0213430384202029
S11332E008707047F8B507000024002614207043C6
S11332F03D183835A878012821D13100AC20385840
S1133300FFF7C3FD3A484068410A49023007C00D3F
S11333100843A97ACA07120F0243102111432A88CD
S113332092059209082313430B60E97ACA07110F27
S11333300143288880058009082202430A60761C1C
S1133340062ED3DB8020074908703A20385C012818
S113335004D13A203C543800FFF7EBFDF1BD0000E6
S1133360942007408020074030B585B0BF4C2078BA
S11333702179BF4D0140080702D52800FFF7ACFEB4
S1133380207821790122014011420DD02270207C45
S1133390696800916946000908730020C88101909A
S11333A00290102000F076FB207821790140480734
S11333B002D52800FFF78AFF20782179014008060A
S11333C002D52800FFF78EFF05B030BD70B50500AB
S11333D00C00A74E3000FFF793FDBE48BE490860BD
S11333E0FDF7E2F9A821705026607560002070BDD9
S11333F094F3FF1F70B504000D002E00283600F072
S113340023FD3070200000F017FDAC21685010201F
S1133410B070964CFF202070B04801784906490EE0
S113342001702A00AE49307800F014FD002801D163
S11334308A2070BDAB48AC494860010A2177AB498A
S1133440020C0A70000E08712800FFF7F7FD002037
S113345070BDA248017880220A4302707830017856
S113346001220A4302706C3001784906490E01704A
S11334700020704770B505000C000120217814224B
S113348051436918627889183C310870A28AA1787E
S1133490012904D18602B24204DB721E02E0412AF1
S11334A000DB4022237814267343EB183E33197053
S11334B021781423594369183F3163780B702178BC
S11334C01423594369180A8700222178594369183B
S11334D03A310A702178594369183B310A702178CE
S11334E05943691840316378002B06D14A7021781A
S11334F01423594369184A6305E00A702178142398
S1133500594369180A63A178012900D001222E00C9
S1133510AC3621783068FFF7A5FC6278002A00D029
S1133520012221783068FFF7A3FC6078002805D1D8
S11335302078002802D12800FFF7FBFC002070BD92
S113354070B504000E00150000F041F90020CA4ACD
S1133550B300D054C9494968490A49023207D20D17
S11335600A43E907C90E11430022D2434A600823E3
S11335700B435A6014214E43A119120C0A874919AE
S11335803C31087070BD0000A02007407CB50600E7
S11335900C00A068E168401A0190E068002804D19A
S11335A021781422514371180C6301A90091019BE5
S11335B061680A1821783000FFF711FD050009D071
S11335C02078142148433018002101632100300081
S11335D0FFF764FC280076BDF8B506000D00E86826
S11335E0A9680C1A002804D12978142251437118AF
S11335F04D632978142251437118098FA14200D2D6
S11336000C0069680A1834480068002809D00321AE
S11336100C4201D10A4204D00022EA754242114010
S11336204218230029783000FFF7B1FC070009D0C5
S113363028781421484330180021416329003000C0
S1133640FFF72CFC002C0FD1287800280CD129007E
S11336503000FFF723FC4320305C0121414043202C
S113366031543000FFF765FC3800F2BD802007407C
S11336709CF3FF1FF8B516000F0014227A43841838
S113368038340125E570A570320000F0A0F82088D8
S1133690800581098C200843134949684A0A52026B
S11336A03907C90D1143002E07D0A27A1540EA004C
S11336B00A4310211143086004E0E27A1540EA004D
S11336C00A4310606E480178DF220A40027000202D
S11336D0F2BD000010FAFF1F4CF4FF1F1C2007402E
S11336E06933000000F8FF1F94F3FF1FB020074068
S11336F0F7B584B00D460498142169434018383056
S113370000900024C47000998C700498AC3002902E
S11337106846007D0190014602980068FFF7B5FBFA
S11337202807C00D039002980068564F534EBD0DF4
S11337306946097E00291ED001220199FFF792FBF8
S11337400122019902980068FFF792FB0098047225
S113375070680740039838430099897ACA07110FA3
S1133760014310200843009909880D4029040822C8
S11337700A43026023E001220199FFF773FB002250
S1133780019902980068FFF773FB00984472684639
S1133790007D002803D10498FFF7CBFB0FE070688D
S11337A00740039838430099C97ACA07110F0143A7
S11337B00098008805402804082202430A60304823
S11337C00178DF220A400270002007B0F0BDF2B594
S11337D084B0070014000846142148433818002513
S11337E0002C02D1466B456301E0066B0563002E95
S11337F017D031003800FFF751FB0020C04302907E
S1133800706801907868009068466946097C017385
S11338108573210000D00121C1736946007C00F04A
S113382039F9002005B0F0BD10B5174A137880248B
S113383023400B4313701C30C1730121018000200D
S113384010BD10B5114A1178002313708021147D26
S11338500C40147513747C32137840241C43147088
S1133860137819431170FF218183A8300068FCF795
S1133870A1FF002010BD0000C020074094F3FF1FEB
S11338809420074000FEFFFF982007408420074053
S11338900907090F1423594340183A30007810805F
S11338A00020704738B503000C00FF202107090FE2
S11338B014254D435D193A352A70012A04D1E209D1
S11338C01800FFF7D7FE32BD002A06D16A78002A15
S11338D003D06A791800FFF70BFF32BDF8B5040076
S11338E00F0015002600A8363068FCF75FFF1C3473
S11338F0012F06D0042F08D0052F08D0062F02D0A0
S113390006E0258004E0658002E0658100E0A58092
S11339101EE0F8B504000F0015002600A836306834
S1133920FCF744FF1C34012F08D0032F0AD0042FC6
S11339300AD0052F0AD0062F02D009E0208806E01D
S1133940608804E0E07B02E0608900E0A0882880D1
S11339503068FCF72DFF0020F2BD38B504000025C7
S1133960002229002000FFF7EBFD0122290020009E
S1133970FFF7E6FD6D1C062DF2DB2000FFF75EFB72
S11339802000FFF7BDFA002032BD000070B50B0027
S11339900400103CE4B2022B1DDA212C1BDA264D64
S11339A021000326B143691835024919A407E40E1E
S11339B00D68FF26A640B543DB0180263340A340B3
S11339C02B430B60002A02D000F008F801E000F05D
S11339D012F8002070BD0020C04370BD1038C0B282
S11339E0212805DA01218140134801600020704735
S11339F00020C04370471038C0B2212805DA0121E5
S1133A0081400E480160002070470020C043704789
S1133A100B480168002900D172B60168491C016095
S1133A207047000006480168002903D0491E016060
S1133A30002900D162B6704700E100E080E100E0B7
S1133A4058F4FF1F38B505000C00607B002802D035
S1133A50102806D00AE000222800083000F002FAFC
S1133A6004E000222800083000F092FA00200C2123
S1133A7041436A183C32117A637B994205D15168FB
S1133A80200012689047002032BD401C0828EED365
S1133A90832032BD10B5020008684A737F237F2457
S1133AA0144006D01340102B03DACA7BD20114430E
S1133AB04C73FFF7C7FF10BD80B54268126B13004B
S1133AC002D00068904702BDFF2002BD70B504001B
S1133AD00D001600FFF79CFF6068E90607D5436AEE
S1133AE018000CD0320029002068984718E0436C75
S1133AF0180004D03200290020689847F6E713E044
S1133B0070B504000D001600FFF782FF6068036CB7
S1133B10180004D0320029002068984700E003E030
S1133B20FFF780FF002070BDFFF77CFFFF2070BD12
S1133B30F8B506000F002F4C20009C300090007850
S1133B4001282FD0A4220021200000F06DFB0120C9
S1133B500099087000984670FCF726FE00994860AA
S1133B6030002549602242438918E1610021002286
S1133B70FF230C255543651944352B70521C082A24
S1133B80F7DB002E01D001280ED11C4D65602A6898
S1133B90100002D02100200090472068002807D19F
S1133BA08720F2BDC120F2BD00980170C020F2BD93
S1133BB0E0602461300000F041FB002806D0696B0E
S1133BC0080001D020688847C420F2BD6A6810004C
S1133BD006D0216830009047002803D13C60F2BD34
S1133BE0FF20F2BD696B080001D0206888478D2052
S1133BF0F2BD000070F6FF1FA0FBFF1F10060000BF
S1133C0010B5020000204B689B681C0001D0100016
S1133C10984710BD38B5050001D1FF2032BD2C00F6
S1133C209C346068FCF7C6FD6868416B080001D0ED
S1133C30286888470020207032BD10B588B000285D
S1133C4014D06B460C781C708C785C704C689C8229
S1133C50497899709A7500210291039141688A69A3
S1133C60110003D069460068904700E0FF2008B0C7
S1133C7010BDF8B507000C0015001E00002F01D17F
S1133C80FF20F2BDFFF7C4FE00200C224243BA1805
S1133C9044321278A24203D1FFF7C4FE8420F2BD5D
S1133CA0401C0828F1D300200C21414379183C31F1
S1133CB00A7AFF2A06D10C720D604E60FFF7B2FE3D
S1133CC00020F2BD401C0828EED3FFF7ABFE812094
S1133CD0F2BDF8B505000C0017001E00002D26D01B
S1133CE06868826C100022D06946286890470028D2
S1133CF01DD1FFF78DFE009804700020009A5070CB
S1133D0000998E6000994F600099C8600620009960
S1133D10C87068680269100009D000992868904743
S1133D200400FFF77FFE002C03D10020F2BDFF202A
S1133D30F2BD9420F2BDF8B505000C0017001E007A
S1133D40002D27D06868826C100023D0694628684B
S1133D50904700281ED1FFF75BFE009804700120F5
S1133D600099487000988660009847600020009988
S1133D70C86006200099C8706868C268100009D03D
S1133D800099286890470400FFF74CFE002C03D1EB
S1133D900020F2BDFF20F2BD9320F2BD70B50400F7
S1133DA00D001600002C0ED0FFF732FE6068036A87
S1133DB0180008D032002900206898470400FFF753
S1133DC031FE200070BDFF2070BD10B5002806D064
S1133DD04368DB6B1C0002D00068984710BDFF20CD
S1133DE010BD002801D1FF2070470162426200200B
S1133DF07047002801D1FF2070478162C262002011
S1133E007047002801D1FF207047016342630020FE
S1133E10704780B5002806D04168C96C0A0002D0FA
S1133E200068884702BDFF2002BD10B50400FDF7FD
S1133E30C7FA200010BD0000002801D101487047D6
S1133E400020704700200740002801D12820704737
S1133E50FF20704780B500F029FA02BD80B5FFF756
S1133E6095FD02BDF0B585B004000F0000206A4640
S1133E701081CE25039002AA0121A068FFF726FE37
S1133E808026B87B002850D00822796820000C30A6
S1133E90FFF7CBFF208A2082E089E081608A60827C
S1133EA0217B6022114217D1607B384982008A1835
S1133EB0966A32005ED06A461289032A5ADA4300AF
S1133EC018180818805C012854D101AB03AA2100FA
S1133ED00C312000B04726E0019000281AD0207B46
S1133EE0304217D101980830552805D3002200210B
S1133EF0A068FFF76AFF46E0082221000C316069E0
S1133F00FFF793FF019B6269083200213868FFF7CD
S1133F10E0FE38E0266A30002CD0636A01AA03A9C7
S1133F2020000C30B047050024E0684600890428CE
S1133F3005D16188C9B2A068FFF7BEFD23E0207BEC
S1133F40304220D1F87B00281DD1608A00281AD085
S1133F50206A002809D0B86808300190636A01AA71
S1133F6003A96069256AA8470500B8680021C94308
S1133F70884208D001A8009003AB22000C32E9B2B9
S1133F80200000F027F805B0F0BD000048F2FF1F44
S1133F907CB505000E00A868FFF73BFF00206C46C7
S1133FA0A070207040210191607001226946306840
S1133FB0FFF743FE0120A070012269463068FFF735
S1133FC03CFEEA69A869002803D000210020AB69FF
S1133FD0984773BD38B5040015001800CE2905D1E3
S1133FE001220021A068FFF7F0FE31BDEA880499A0
S1133FF00B689A4200D20A600B6802680021A0682C
S1134000FFF799FE2878000605D500230022002139
S1134010A068FFF75EFE31BD78B50EB40500FF2041
S11340200B7802241F221F26334209D12A000621BD
S1134030A868FFF74BFD29788907890F298013E0C9
S11340401E40012E05D1002129800121029A116010
S11340500CE01A40022A09D12A0088881021014361
S1134060C9B2A868FFF732FD02990C6001990D608E
S1134070C0B204B070BDF8B50600CE2400201860AC
S113408048788307DB0F08786A4650701F220320A4
S11340906D466F78174212D14988084036D00128FE
S11340A034D1002B01D0112500E012250024B3697E
S11340B018002BD0726A00212800984726E03A4065
S11340C0022A23D14A88024220D18888694608708E
S11340D00F20097801406A461278D209002B04D0D7
S11340E01325B068FFF771FE07E014256B461B78B3
S11340F0034203D1B068FFF751FE0400B36918000E
S113410004D0726A6946280098470024E0B2F2BDE0
S113411038B504000D000020186004220121A068B5
S1134120FFF7EEFC68886080002032BD0121196031
S1134130303010600020704738B5040000200022A1
S1134140186048886946088068460088002800D1BD
S113415001220121A068FFF7D3FC0500684600880E
S11341602086A36918000CD0E269694601209847AB
S113417068460088002804D0E26900210320A3696E
S11341809847E8B232BD38B5040015000120186024
S1134190A06A4368180001D1CA2032BD2200898870
S11341A0C9B2E06A98472C6032BD38B505000C00EE
S11341B00020186020788007800F012801D0042097
S11341C032BDA86A8368180001D1CA2032BD628852
S11341D0D2B2A188C9B2E86A9847AB69180003D083
S11341E0EA69A11C02209847002032BD38B50400BA
S11341F015000220186022000521A068FFF766FC64
S11342002C60C0B232BD30B583B0846A2468250006
S113421001D1CA203EBD4D88019300928B88EAB239
S1134220290AC06AA0473EBD10B5040010000A0068
S113423001002000FDF7F2F8200010BD10B50021A8
S11342400024002828D116488022D202036B13438D
S1134250036303681A430260026880235B0213430A
S113426003601048426880235B0413434360026880
S113427080231B06134303600B4801701021017255
S1134280017B40220A4302730020FFF7DDFD012277
S11342900121FFF7E3FD00E0E443200010BD00BF6F
S11342A0048004400070044000210740F8B5040075
S11342B00D0017000F4E0020FFF7C6FD844201D108
S11342C035607760002000F017F8844200D1B560B3
S11342D0012000F011F8844200D1F5600120F2BD04
S11342E0044801680A0000D1704780B540688847D7
S11342F001BD00002CF6FF1F002803D1024800680E
S11343001030704700207047E0F0FF1F70B582B096
S113431004000E001500002E01D1002076BD6A466F
S113432000F07DF8002806D12A0031002000009B0F
S11343309B685B68984776BD70B582B004000E0038
S11343401500002E01D1002076BD00F08BF8002866
S113435001D05A4876BD6A463100200000F05FF86B
S113436000280ED12A0031002000009B9B689B6826
S113437098475349002802D1009A926800E000222D
S11343800A6076BD38B504000D006A4600F047F8AF
S1134390002815D1009880684069002801D1662062
S11343A032BD2900200000F05DF8002801D0434808
S11343B032BD29002000009A92685269904732BDAC
S11343C0002DFCD1002032BD70B582B004000E0077
S11343D01500002E01D1002076BD00F043F800281E
S11343E001D0364876BD6A463100200000F017F847
S11343F0002806D12A0031002000009B9B68DB685E
S1134400984776BD38B5002400202D4D2968002931
S113441004D009690A0001D088472C6032BD70B508
S11344200B002649274C6468002B18D0002A16D0AC
S113443000E00C34002C12D02568002D05D16668EC
S1134440002E02D1A668002E09D0A842F1D36568D7
S11344508542EED3C018401E854200D3002114606B
S1134460080070BD30B5174A92681269536B002B6F
S113447014D04118491E0023DC0014195C3465680B
S11344802468002C01D1002D05D0854203D3A1421C
S113449001D3012030BD5B1C022BEDDB002030BDBD
S11344A010B50848446804E00068010000D0804763
S11344B00C34A0680028F7D110BD0000D8270000F4
S11344C050F4FF1F00F0FF1F10B593488068046983
S11344D06C34302291492000FCF786FF2068904913
S11344E0884204D0FF2230212000FCF7A7FFFCF70C
S11344F00FFB002010BDF8B5874DA86804694B2058
S1134500E0700126A6700520607026705020E071CE
S1134510A67102206071002727715420E072A672F0
S113452067722772266366637E48A0632200103296
S1134530042128002030FDF791FE220014320121CD
S113454028002030FDF78AFE2200183200212800BE
S11345502030FDF783FE22001C3202212800203087
S1134560FDF77CFE22002032032128002030FDF7D5
S113457075FE22004832052128002030FDF76EFE2A
S113458022004C32062128002030FDF767FE22006D
S11345905032072128002030FDF760FEA16948420F
S11345A00021C943604A53420340C91A5F4A10407C
S11345B0E06521665E4860665E48A0666869E760FB
S11345C007E07C22A35C0B4202D0E2681143E16065
S11345D07F1C1821794341580029F2D156480168BB
S11345E06164416821648068E06368680C30016834
S11345F0616241680068081A401CA0626665002078
S1134600F2BD0000F8B517001E00434A916809691D
S113461004244A4D401E17284FD801A31B5C9F4415
S113462016262A2E3236429898464E5C4A3A3E6204
S1134630687E84888C909894002E00D03460002F7B
S113464000D039600020F2BD0C31F5E71031F3E7FA
S11346501431F1E71831EFE72031EDE72431EBE7CE
S11346602831E9E73831E7E73031E5E73431E3E78A
S1134670D06941694969884728602900DCE710242A
S11346805C31D9E72E480068F6E76946203210000D
S1134690FDF7FCF9684600780028EDD00120EBE72F
S11346A00C243C31C8E74831C6E74C31C4E75031EB
S11346B0C2E75431C0E70831BEE72248F2BD020028
S11346C01548806803692048521E062A1FD9093AF2
S11346D00CD0521E012A1AD9921E0DD0521E032A42
S11346E015D9083A0ED0921E11D012E0002901D03B
S11346F001290FD1196308E0002901D0012909D14A
S1134700596302E0032905D2596500207047401E11
S11347107047801E7047000000F0FF1FC083000038
S11347206B636667FFEF00006C5900000000000037
S113473000F0FF1FFFFFFF1F5880044010F5FF1F0C
S1134740248004403C2800003E28000010B50100ED
S11347509B4A1000883003685C1C0460D218203225
S1134760117001688906890E016010BD0020704730
S113477080B500F0C6F802BDFAB583B01700002971
S113478001D0002F01D104202CE000263E608C4C87
S1134790200090300090467000F0B3F8002821D13A
S11347A001AD02E0A22000F082F820212000FCF7F5
S11347B065FE6846027C210001A800F003F9002888
S11347C001D03E600EE0210001A800F077F9A9882D
S11347D08142E7D101200099087003980460688839
S11347E03860002005B0F0BDF2B582B015001F009E
S11347F0002944D0212D42D200F083F800284DD165
S11348006F4C2000913000260178002900D00670FA
S11348102000603000905A2000990870A42000996C
S11348204870002F02D0A520009948702000623003
S11348300570290A4170002D05D02A000299200034
S11348406630FCF7BDFD21006631009800F036F9B2
S113485064342070000A6070A91D009800F064F8A8
S113486000281BD101AC01A800F016F9002815D1CD
S11348706078A12811D0A22805D0A32801D0042053
S1134880FEBD8048FEBD00984188891D00F04CF8AB
S1134890002803D16078A228E5D00020FEBD7A4824
S11348A0012181700021017070472020704780B57C
S11348B069465A220A70487001207449087002211E
S11348C0684600F031F802BD10B582B004006E48AD
S11348D0017842780A408078024210D1684600BFCD
S11348E084A10A88028002226946200023695B6849
S11348F09847082280A1200023695B689847644890
S113490016BD80B5604800210278002A02D00170EB
S1134910A12004E08278002A04D08170A320FFF74C
S1134920C6FF02BD002002BD80B503005948C0691E
S11349300A00190003695B68984702BDF2B584B0A8
S1134940070015000024FBF7FAFF02AA03C2FA20AD
S1134950800045432800FBF7FCFF00216A4603C2A0
S1134960174E350088350DE06868296888420CD0F8
S11349703018203000783855641C6868401C800664
S1134980800E68600498844216D0684603C80029E3
S113499001D10028E8D0FBF7D2FF02000B0002A8E7
S11349A003C8121A8B41684603C88B42DCD301D872
S11349B08242D9D3052000E0002005B0F0BD0000FC
S11349C098F5FF1F70B582B004000D00160000F0CA
S11349D063F8002855D16078A62804D12D48C06911
S11349E0FFF772FF76BDA421002E00D0A5218842D6
S11349F001D0012076BD142202216846FFF79EFFF4
S1134A0069460988A170090AE170002839D1A078A3
S1134A10E1780906090C0843212801DB202004E081
S1134A20A078E1780906090C0843A070000AE07038
S1134A30142202216846FFF781FF69460988217123
S1134A40090A617100281CD1A178E2781206120CBF
S1134A50114316D0A178E0780006000C0143280029
S1134A60FCF70AFDA078E1780906090C0843A1784F
S1134A70E2781206120C11430A2242432800FFF77F
S1134A805DFF76BD1227000028F6FF1F29F6FF1FE1
S1134A901327000000F0FF1F10B5040000220121BD
S1134AA02000FFF74BFF002807D120785A28F5D1C2
S1134AB00A220121601CFFF741FF10BD30B583B00D
S1134AC004000D006846FDF79BFF042221006846A0
S1134AD0FDF799FFA278E0780006000C0243290054
S1134AE06846FDF790FF01A96846FDF7A7FF6846F1
S1134AF080883EBD5AA70000000201500000AAEAC7
S1134B0026494068085C704725494A68002A08D04D
S1134B100A6813780370521C0A604868401E486093
S1134B20704700210170704738B5040008005A2C02
S1134B3008D11A4D012129541A49FEF7A6F85A2022
S1134B406968884731BD80B514494968884701BD03
S1134B503EB5040011484160684600BF12A12CC94B
S1134B602CC002216068A268904769466068FEF71D
S1134B7091F800203EBD10B504006068FEF7C0F84F
S1134B8000216068A268904710BD0548016042603A
S1134B9041680029FCD100207047000044F6FF1F43
S1134BA03CF6FF1F474B0000094B0000294B000057
S1134BB001010000FEE70000FEE7000000200149BB
S1134BC0086070470081044009480178890600D4D0
S1134BD0704780B505E007480178890600D470471E
S1134BE080B5C07801490968884701BD50F6FF1FA8
S1134BF004B0064004C006403C480021C170C172A4
S1134C000F2282720170042141707047F8B50700C9
S1134C100D0016000A207843A900FBF7CDFF401DC4
S1134C200A21FBF7C9FF04003800A100FBF7C4FF09
S1134C30854202D20700009504E02F00A84200D963
S1134C402800009028006421FBF7B6FF41000818F3
S1134C500099791A81422AD22548066025480168BC
S1134C60020D0A4302602148C178F3220A40C2704F
S1134C70C17A02220A43C272817AE02211400323DC
S1134C800B43837201780A40E104C90E1143017099
S1134C904470C17820220A43C27080214901164A17
S1134CA01160C1780C220A43C2700020F2BD0120B9
S1134CB0F2BD80B5114800780D490968884701BDE7
S1134CC00F490A781206FCD5C870704780B5802059
S1134CD040010C49086007480168020D0A4302605C
S1134CE0FFF78AFF08480949086001BD00A0064093
S1134CF054F6FF1F3480044000E100E007A00640A2
S1134D0004A0064080E100E0FFFBFFFF3480044480
S1134D1038B5040069466068FBF76DFD002818D1BA
S1134D206068FBF78CFE124D2A680099FFF76EFF4E
S1134D3000280BD102216068A26890475A20296894
S1134D408847A62029688847012032BD6068FBF7A0
S1134D5035FD002032BD10B5040005480160012175
S1134D606068A26890476068FBF728FD002010BDCA
S1134D7058F6FF1F10B50400FFF7A8FF6068FBF7A3
S1134D8036FD00216068A268904710BD38B50C005C
S1134D90150003E02078FFF793FF641C2800451EEC
S1134DA00028F7D132BD0000F8B5040016001D003C
S1134DB00020184A0301D7187A68002A04D0401C3E
S1134DC00128F6DBC120F2BD7C60F960BD602A00D9
S1134DD02000FFF706F82A0031002000FFF709F849
S1134DE02A0006992000FFF70CF83800F2BD10B530
S1134DF000200022074B14011B198B4204D0521CC3
S1134E00012AF7DB9E2010BD586018609860D860B6
S1134E1010BD00005CF6FF1F80B5002801D1FF2003
S1134E2002BD4068FEF787FF02BD7047F8B50C006D
S1134E30150000F0ADF80021394E069A079B032CAB
S1134E4011D0212C09D0222C2BD1002803D13036AB
S1134E5016604C2018600020F2BD002801D11636DF
S1134E6016600920F6E768460088002803D17C36DE
S1134E7016600420EEE701206E463688294FBE42B4
S1134E8003D1032D02DA280000E001213BA40C2504
S1134E9069436118CC688500645914600969085C29
S1134EA0D8E7082C17DAA500002802D12AA77F59D1
S1134EB01760012C02D13468641C34603468022CFD
S1134EC000DB31601168002905D00028C3D100BF80
S1134ED018A04059BEE7CE20F2BD002904D11248E3
S1134EE00078107000207047CE207047002903D14D
S1134EF00D48027000207047CE2070470020704794
S1134F0010B51300002908D1094C0120207007486E
S1134F1003C8221D03C20C341C60002010BD000015
S1134F202CF1FF1F09040000D0F7FF1FF8F0FF1F4A
S1134F3000F1FF1F00000000120000002900000023
S1134F40000000000000000000000000000000005D
S1134F50000000004C0000000000000018F1FF1FDA
S1134F6030F1FF1F000000000000000000000000FE
S1134F7000000000000000005CF1FF1FA8F1FF1F0B
S1134F8004000000090400006C070000680700002A
S1134F900020704740684008A8493C225043081844
S1134FA00178002901D0407870470020704710B57F
S1134FB0A24C002801D0012802D10020208010BD7D
S1134FC00328FCD101202070242322001432022162
S1134FD0A06B00F004FB10BDF9B581B014000125ED
S1134FE068460279012010401E686A461379B54F5D
S1134FF00022D243042B09D1A068904249D0002852
S113500047D0F868012844DB0C3736E0052B06D17D
S1135010A06890423DD000283BD038612BE00022AC
S1135020029B1A6038186A461279521E09D0521E21
S1135030012A28D9D21F0CD0521E22D0521E27D0AA
S113504027E0242138001430FCF718FA14372760BD
S11350501FE021688A78002A07D1CA78002A04D17F
S11350600878012801D1BD7013E0320038001430F3
S1135070FCF7A6F93E617D7008373800FBF716FE91
S113508007E0090A04E0001D20600298056000E0C2
S113509001710020FEBD70B588B005006868400845
S11350A066493C2250430C183C212000FCF7E4F9EB
S11350B0854EFBF7C2FC00280FD1B06800697C2143
S11350C0415CEF220A407C300270B0680069C1681C
S11350D010229143C160012038E06868002805D19E
S11350E0802040047949086079490860B068006903
S11350F080300288774943888B4201D18A4209D0A3
S113510075490A720288120A4A7242888A7242886F
S1135110120ACA7240680021C943884200D16F480C
S11351206F4908606F4800902000383001906E4845
S113513004902000383005906C48069038342200E2
S113514069466868C0B200F0CDF9002008B070BDAF
S113515041684808002900D0704710B5644C2168A4
S1135160490310D580214904624A1160574A1160ED
S113517032493C2250430818806B00F0F7F920684C
S11351805D490140216010BD10B5406840084D499B
S11351903C2250430C18002120000830FBF77AFD14
S11351A0002120000C30FBF775FD08342000FBF7CC
S11351B07DFD002010BDF2B51700406840080029AD
S11351C001D0002F01D10420F2BD00213960012655
S11351D0002B02D0012B1FD028E0012517493C22C7
S11351E050430C18E078002806D0242322001432FF
S11351F00221A06B00F0F3F9E6700021C9432000FE
S11352000830FBF749FD207DA84207D0012D0DD1C0
S113521002280BD13948F2BD0225DFE7A17DE07DEC
S1135220000208432169091F814201D20120F2BD15
S1135230183400990C6038600020F2BD94F7FF1F09
S1135240F2B5170040684408212F01D30420F2BDB1
S1135250002B02D0012B10D011E00325FBF732FD07
S113526018483C214C4304190026A078002808D093
S1135270A670FBF72DFD2148F2BD0425EEE70120C1
S1135280F2BDFBF725FD25756675A775380AE0752F
S11352900098002807D0002F05D03A0001462000CE
S11352A01830FCF78DF82423220014320121A06B5E
S11352B000F08CF90021C9430C342000FBF7ECFC0E
S11352C00020F2BD94F7FF1F00F0FF1F80E200E012
S11352D000E100E0FFFF000018F1FF1F7C4F000019
S11352E06CF6FF1FAF4F0000D94F000034F2FF1FD0
S11352F03480044080E100E0FFFFFBFF1227000040
S113530010B50023002200214469A468A04710BD01
S1135310002070472020704780B5FFF786FD01BD4F
S113532010B582B00C6A22000DD082680023DB43E2
S11353309A4201D1002100E0496A00910023020051
S11353409C490420A04713BD10B582B00C6A22000A
S11353500DD082680023DB439A4201D1002100E092
S1135360496A00910023020092490520A04713BD19
S1135370F3B583B015006846007B0024012845D1AD
S1135380002601AA00212868AB6B98470198806821
S1135390011DE960007903280FDB7FE06000281815
S11353A03C30E1009268525C0270019A9268926803
S11353B0511849784170641CE4B2019882681079EC
S11353C08442EBDBE86800907B4F08E0002805D1BD
S11353D02B007A4A21782868FEF74BFC761C00984B
S11353E00078F6B2864251D200984068F100441821
S11353F0012221002868FEF720FCA0780128E5D1CD
S11354002B003A002478C1012143E4E703283DD06E
S113541000283BD00F2609281BD10498007800905F
S113542028003C3032D000983040610069183C318B
S11354300978884209D10098C011012202400098DD
S11354400F2101402868FEF7A9FC641C022C1DDA18
S1135450E9E714281AD104980078009028003C3019
S113546014D000983040610069183C3109788842B2
S113547009D10098C0110122024000980F21014077
S11354802868FEF78BFC641C022CEADB2B691800ED
S113549004D06A6904996846007B984705B0F0BD5A
S11354A0F8B504001D00CE202378602660271F4035
S11354B0202F0DD12B6A002B13D0E0881060686A6E
S11354C0009013000A00618860782C6AA047F2BD3E
S11354D01E40402E05D1AE69330002D0EB69200096
S11354E0B047F2BDF8B506000C001700002C01D13E
S11354F0FF20F2BD0020324982018D18296800295D
S113550004D0401C0228F6D3C120F2BD290030008B
S1135510FEF70EFB002828D1A06900902B00294A31
S113552029492868FFF740FCA860082221002800C8
S11355301030FEF77AFC08222100083128001830C8
S1135540FEF773FC08222100103128002030FEF7FA
S11355506CFC1422A16928002830FEF766FC3D602B
S113556029683000FEF74CFB0020F2BD38B5002856
S113557001D1FF2032BD050001D1C32032BDA9688D
S11355802868FFF734FC040003D12868FEF742FBC7
S1135590040000200A4982018A18AA4203D0401C50
S11355A0022805DAF7E7402200212800FEF73CFE36
S11355B0200032BDFFFF00002153000049530000CA
S11355C014F7FF1FA15400007153000080B5002898
S11355D001D1FF2002BD8068FFF71EFC02BD80B52B
S11355E0002801D1FF2002BD0068FEF772FB02BD56
S11355F000F00BF8002801D000F00AF80020C046A3
S1135600C046FBF739FCFBF787FC0120704700001C
S113561010B5074979441831064C7C44163404E02B
S1135620081D0A68891888470100A142F8D110BDF5
S11356302C030000380300006006000074F0FF1F14
S11356400807000040F0FF1F000000009006000063
S11356500000000000000000000000000000000046
S11356600000000000000000000000000000000036
S1135670000000000000000099140000A5140000C0
S11356801C050000DCF2FF1F0000000014F3FF1FE4
S113569034F3FF1FA32D0000CD2D0000ED2D0000DD
S11356A010000000000000000000000000000000E6
S11356B0FFFF0100E005000000F0FF1FFF2F0020A6
S11356C07806000000000040FFFF0740A40500002A
S11356D000F00F40FFFF0F40A4050000000000444D
S11356E0FFFFFF5FA4050000000000E0FFFF0FE0E4
S11356F0A4050000003000F0FF3F00F0A405000006
S1135700000000F8FFFFFFFFA405000000000000F8
S1135710000000000000000016000000000040012E
S113572001030100400000000203000040000000EB
S113573002000000E8F0FF1F00000000000000006D
S113574000000000000000000100000000F1FF1F45
S11357501201000200000040A215730002000102C1
S1135760000100000000000009022900010100C03E
S113577032090400000203000000092100010001B5
S1135780224C000705810340000A0705020340007C
S11357900A0000000600FF0901A101850119012981
S11357A001150026FF007508952391028502190151
S11357B02901150026FF0075089523910285031918
S11357C0012901150026FF0075089523810285042F
S11357D019012901150026FF00750895238102C0CF
S11357E0040309043A03460072006500650073006F
S11357F0630061006C0065002000530065006D00CB
S1135800690063006F006E0064007500630074003B
S11358106F007200200049006E0063002E0000003B
S113582026034B0069006E00650074006900730074
S1135830200042006F006F0074006C006F00610074
S1135840640065007200000022034200410044002D
S1135850200053005400520049004E00470020002D
S113586049004E0044004500580000002D4E000041
S1135870DB4E0000ED4E0000FD4E0000014F000025
S1135880010100010100000000010100000000000E
S113589001010101010000000101000101000100FA
S11358A000010000010000001940000077400000E2
S11358B000000000774000000000000011410000DB
S11358C007420000000000002D41000039410000A3
S11358D087410000AB410000ED41000080B5FAF7BC
S11358E097FD01BD30B504E014780470401C521CCF
S11358F0491E002919D0C507F6D40129F4D085071B
S113590001D4042904D214880480801C921C891EAA
S11359108B08EED09B00C41803E015680560001DD9
S1135920121DA042F9D3C91AE3E730BD80B51300B4
S11359300200180000E080B5FFF7D4FF002002BD8C
S113594010B50C00110001232200FDF71BF810BD57
S1135950C046C046C046C046FFF74AFE93B2FFFFAA
S10F59602C050000A8F2FF1F000000004E
S9030411E7
